:1000000012C018958DC218951895189518951895C1
:10001000189543C218958FC118951895189518957D
:100020001895189518958FE58DBFC8E3E0E24E2E20
:1000300084E08EBFD4E0F4E05F2EA89584B7082E4C
:10004000877F84BF88E1992781BD91BDEEEFF3E002
:10005000A0E6B0E088278D933197E9F785E089B96C
:1000600080E080BD88E18AB9662480E08FBD82E0AF
:100070008EBD85E083BF789485B78C6085BF7BB7E4
:1000800070687BBFBB9A8B98A59AA49AA39AA29AF0
:10009000A19AA09A8F9A8E9AB998579ABA9A8A9AE0
:1000A000929881E08093860000918600083010F0DD
:1000B00009F05BC0E6E8F0E0A190BB24E1E1F0E0EC
:1000C000EA0DFB1DA6E8B0E0AD90BB24A6E8B0E0C9
:1000D000AA0DBB1D3ED782E090E015D7E6E8F0E020
:1000E000A190BB24E9E1F0E0EA0DFB1DA6E8B0E039
:1000F000AD90BB24AEE8B0E0AA0DBB1D2AD782E0CC
:1001000090E001D7E6E8F0E0A190BB24E1E2F0E066
:10011000EA0DFB1DA6E8B0E0AD90BB24A6E9B0E077
:10012000AA0DBB1D16D782E090E0EDD6E6E8F0E020
:10013000A190BB24EEEFFFEFAA0CBB1CEA0DFB1D48
:10014000A6E8B0E0AD90BB24ABE6B0E0AA0CBB1CC7
:10015000AA0DBB1D00D782E090E0D5D6A6E8B0E09E
:100160008C918F5F8C9308F49FCF85E083BFADE6C1
:10017000B0E04D915C91ACE4B0E00D911C9104179E
:10018000150710F009F001C002C0AD9A01C0AD988A
:10019000AFE6B0E04D915C91ACE4B0E00D911C9104
:1001A0000417150710F009F001C002C0AC9A01C095
:1001B000AC98A1E7B0E04D915C91ACE4B0E00D915A
:1001C0001C910417150710F009F001C002C0AB9A8A
:1001D00001C0AB98A3E7B0E04D915C91ACE4B0E016
:1001E0000D911C910417150710F009F001C002C011
:1001F000AA9A01C0AA98A5E7B0E04D915C91ACE441
:10020000B0E00D911C910417150710F009F001C022
:1002100002C0A99A01C0A998A7E7B0E04D915C91EE
:10022000ACE4B0E00D911C910417150710F009F033
:1002300001C002C0A89A01C0A898A9E7B0E04D91FA
:100240005C91ACE4B0E00D911C910417150710F01F
:1002500009F001C002C0979A01C09798ABE7B0E0DF
:100260004D915C91ACE4B0E00D911C910417150721
:1002700010F009F001C002C0969A01C09698B19B97
:1002800058C07BB77F777BBF80E090E0ABE6B0E003
:100290008D939C9384E690E036D6ABE6B0E014D61E
:1002A000C29AABE6B0E00D911C910E3150E01507FB
:1002B00010F009F001C018C081E080938600009121
:1002C0008600083010F009F00EC088B394E089274A
:1002D00088BB88EC90E017D6A6E8B0E08C918F5FE1
:1002E0008C9308F4ECCF76D1B199D4CFABE6B0E0E3
:1002F0000D911C910A3050E0150708F017C081E0FD
:100300008093860000918600043010F009F00EC042
:1003100088B394E0892788BB84EF91E0F4D5A6E800
:10032000B0E08C918F5F8C9308F4ECCF7BB7706852
:100330007BBF1DCF1CDF0F921F922F923F924F92D7
:100340005F927F92AF92BF920F931F932F933F9331
:100350004F935F936F937F938F939F93AF93BF93CD
:10036000CF93DF93EF93FF938FB78F93A6E8B0E01F
:100370008C918F5F8C9331E0A5E6B0E0ACD5009115
:100380008600053009F017C000916500063E81E047
:1003900009F080E08F9300916500023D81E009F053
:1003A00080E09F91892B882309F405C07091690032
:1003B000706470936900009165000C3F81E009F062
:1003C00080E08F9300916500083E81E009F080E0B5
:1003D0009F91892B882309F403C081E080938600D4
:1003E00080916500A6E8B0E0AD90BB24AFE5B0E039
:1003F000AA0DBB1D8C93A9E6B0E08C9186FB0EF094
:1004000030C088B394E0892788BB809163008093D3
:100410006800809161008093660000916600083654
:1004200081E009F080E08F9300916600053681E05D
:1004300009F080E09F91892B8F93009166000E3622
:1004400081E009F080E09F91892B882309F401C0A5
:1004500048D180E080938600709169007F7B709323
:1004600069008F918FBFFF91EF91DF91CF91BF9185
:10047000AF919F918F917F916F915F914F913F913C
:100480002F911F910F91BF90AF907F905F904F90F1
:100490003F902F901F900F9018950F921F922F92C0
:1004A0003F924F925F927F92AF92BF920F931F93B2
:1004B0002F933F934F935F936F937F938F939F936C
:1004C000AF93BF93CF93DF93EF93FF938FB78F9348
:1004D0008EB5887F8EBDAD9880E090E09DBD8CBDCF
:1004E00073E972BF82E08EBD8F918FBFFF91EF9154
:1004F000DF91CF91BF91AF919F918F917F916F913C
:100500005F914F913F912F911F910F91BF90AF90AD
:100510007F905F904F903F902F901F900F90189575
:100520000F921F922F923F924F925F927F92AF92C3
:10053000BF920F931F932F933F934F935F936F93AC
:100540007F938F939F93AF93BF93CF93DF93EF935B
:10055000FF938FB78F938EB5887F8EBDABE6B0E0EB
:10056000B3D4ABE6B0E00D911C91043650E0150712
:1005700009F00AC080E090E0ABE6B0E08D939C9378
:1005800088B398E0892788BBAD9880E090E09DBD56
:100590008CBD82E08EBD8F918FBFFF91EF91DF9177
:1005A000CF91BF91AF919F918F917F916F915F910B
:1005B0004F913F912F911F910F91BF90AF907F90DE
:1005C0005F904F903F902F901F900F901895F89448
:1005D000FFCF08959298C39AE3E0F0E085D4C398E2
:1005E000A9E6B0E08C9187FB0EF079C0B19BFECFFD
:1005F00070E075BB70E072BB8EE190E084D480E067
:1006000090E0ABE6B0E08D939C9384E690E07BD4E1
:10061000ABE6B0E059D4ABE6B0E00D911C910E31E1
:1006200050E0150710F009F001C01DC0709169007D
:100630007F777093690081E0809386000091860047
:10064000083010F009F00EC088B398E0892788BB05
:1006500088EC90E058D4A6E8B0E08C918F5F8C9342
:1006600008F4ECCF0895B199D0CFAFE9B0E08C9108
:100670008F5F8C9300919F00083010F009F001C04B
:1006800003C081E080939F0000919F00013009F03A
:1006900002C0AD9A22C0023009F002C0AC9A1DC05F
:1006A000033009F002C0AB9A18C0043009F002C050
:1006B000AA9A13C0053009F002C0A99A0EC00630EC
:1006C00009F002C0A89A09C0073009F002C0979A41
:1006D00004C0083009F001C0969A88CF01C008957F
:1006E0000895809162008093670000916700073948
:1006F00009F00BC070916900706870936900C29A2C
:1007000084EF91E000D4C298DEC30E3909F08EC0A8
:1007100081E08093860000918600083010F009F097
:100720006DC0E6E8F0E0A190BB24E1E1F0E0EA0D65
:10073000FB1DA0E1BB2780E08C937BE7F9D382E02F
:1007400090E0E1D3E6E8F0E0A190BB24E9E1F0E03D
:10075000EA0DFB1DA0E1BB2780E08C937BE7E8D38B
:1007600082E090E0D0D3E6E8F0E0A190BB24E1E2A3
:10077000F0E0EA0DFB1DA0E1BB2780E08C937BE756
:10078000D7D382E090E0BFD38FEF9FEFA6E8B0E031
:10079000AD90BB24ABE6B0E0AA0CBB1CAA0DBB1D00
:1007A0008D939C9388EC90E0AED388B398E0892732
:1007B00088BB80E0A6E8B0E0AD90BB24A6E8B0E03E
:1007C000AA0DBB1D8C9380E0A6E8B0E0AD90BB24E1
:1007D000AEE8B0E0AA0DBB1D8C9380E0A6E8B0E0C7
:1007E000AD90BB24A6E9B0E0AA0DBB1D8C93A6E892
:1007F000B0E08C918F5F8C9308F48DCF81E0809373
:10080000860000918600083010F009F00EC088B311
:1008100094E0892788BB88EC90E075D3A6E8B0E027
:100820008C918F5F8C9308F4ECCF4DC3043B09F09F
:1008300043C2A9E6B0E08C9187FB0EF063C17091D2
:1008400069007F7E70936900AFE9B0E0AD90BB2492
:10085000A6E8B0E0AA0DBB1D0C91043680E010F0B4
:1008600009F081E08F93AFE9B0E0AD90BB24A6E83A
:10087000B0E0AA0DBB1D0C91003081E009F080E0D2
:100880009F91892B882309F411C080916800AFE9FA
:10089000B0E0AD90BB24A6E8B0E0AA0DBB1D8C93E0
:1008A0007091690070617093690095C0AFE9B0E024
:1008B000AD90BB24AEE8B0E0AA0DBB1D0C91043690
:1008C00080E010F009F081E08F93AFE9B0E0AD90E7
:1008D000BB24AEE8B0E0AA0DBB1D0C91003081E056
:1008E00009F080E09F91892B882309F41FC0409173
:1008F0006800AFE9B0E0AD90BB24A6E8B0E0AA0D77
:10090000BB1D0C91041709F410C080916800AFE979
:10091000B0E0AD90BB24AEE8B0E0AA0DBB1D8C9357
:100920007091690070617093690055C0AFE9B0E0E3
:10093000AD90BB24A6E9B0E0AA0DBB1D0C91043616
:1009400080E010F009F081E08F93AFE9B0E0AD9066
:10095000BB24A6E9B0E0AA0DBB1D0C91003081E0DC
:1009600009F080E09F91892B882309F434C04091DD
:100970006800AFE9B0E0AD90BB24A6E8B0E0AA0DF6
:10098000BB1D0C91041781E009F480E08F93409126
:100990006800AFE9B0E0AD90BB24AEE8B0E0AA0DCE
:1009A000BB1D0C91041781E009F480E09F9189231D
:1009B000882309F410C080916800AFE9B0E0AD90E1
:1009C000BB24A6E9B0E0AA0DBB1D8C937091690011
:1009D000706170936900A9E6B0E08C9184FB0EF021
:1009E00090C081E08093860000918600083010F06E
:1009F00009F087C000919F00013009F005C085B360
:100A000090E2892785BB37C0023009F005C085B365
:100A100090E1892785BB2FC0033009F005C085B35D
:100A200098E0892785BB27C0043009F005C085B34D
:100A300094E0892785BB1FC0053009F005C085B348
:100A400092E0892785BB17C0063009F005C085B341
:100A500091E0892785BB0FC0073009F005C082B33C
:100A600090E8892782BB07C0083009F004C082B330
:100A700090E4892782BBE6E8F0E0A190BB24E1E1A5
:100A8000F0E0EA0DFB1DA6E8B0E0AD90BB24A6E8BF
:100A9000B0E0AA0DBB1D7BE74BD282E090E033D2E1
:100AA000E6E8F0E0A190BB24E9E1F0E0EA0DFB1DEF
:100AB000A6E8B0E0AD90BB24AEE8B0E0AA0DBB1D47
:100AC0007BE736D282E090E01ED2E6E8F0E0A1902B
:100AD000BB24E1E2F0E0EA0DFB1DA6E8B0E0AD903A
:100AE000BB24A6E9B0E0AA0DBB1D7BE721D28AEFAB
:100AF00090E009D2A6E8B0E08C918F5F8C9308F467
:100B000073CFD9C081E080938600009186000830C1
:100B100010F009F0D0C000916800003081E009F0C9
:100B200080E08F9300916800043680E010F009F0B7
:100B300081E09F91892B882309F401C00895409199
:100B40006800A6E8B0E0AD90BB24A6E8B0E0AA0D2E
:100B5000BB1D0C91041781E009F080E08F93409158
:100B60006800A6E8B0E0AD90BB24AEE8B0E0AA0D06
:100B7000BB1D0C91041781E009F080E09F91892B47
:100B80008F9340916800A6E8B0E0AD90BB24A6E941
:100B9000B0E0AA0DBB1D0C91041781E009F080E0C4
:100BA0009F91892B882309F47FC0A6E8B0E0AD901F
:100BB000BB24ABE6B0E0AA0CBB1CAA0DBB1D0D917B
:100BC0001C910F3F5FEF150709F00FC088E19EE20F
:100BD000A6E8B0E0AD90BB24ABE6B0E0AA0CBB1C2D
:100BE000AA0DBB1D8D939C935FC0A6E8B0E0AD90AD
:100BF000BB24ABE6B0E0AA0CBB1CAA0DBB1D0D913B
:100C00001C9108315EE2150709F00FC080E692E200
:100C1000A6E8B0E0AD90BB24ABE6B0E0AA0CBB1CEC
:100C2000AA0DBB1D8D939C933FC0A6E8B0E0AD908C
:100C3000BB24ABE6B0E0AA0CBB1CAA0DBB1D0D91FA
:100C40001C91003652E2150709F00FC080E090E0D9
:100C5000A6E8B0E0AD90BB24ABE6B0E0AA0CBB1CAC
:100C6000AA0DBB1D8D939C931FC0A6E8B0E0AD906C
:100C7000BB24ABE6B0E0AA0CBB1CAA0DBB1D0D91BA
:100C80001C91003050E0150709F00EC08FEF9FEF68
:100C9000A6E8B0E0AD90BB24ABE6B0E0AA0CBB1C6C
:100CA000AA0DBB1D8D939C93A6E8B0E08C918F5F3D
:100CB0008C9308F42ACF07C1053B09F069C081E095
:100CC0008093860000918600083010F009F05FC024
:100CD00000916800003081E009F080E08F9300917E
:100CE0006800043680E010F009F081E09F91892BC4
:100CF000882309F401C0089540916800A6E8B0E097
:100D0000AD90BB24A6E8B0E0AA0DBB1D0C91041762
:100D100081E009F080E08F9340916800A6E8B0E0A0
:100D2000AD90BB24AEE8B0E0AA0DBB1D0C9104173A
:100D300081E009F080E09F91892B8F9340916800BA
:100D4000A6E8B0E0AD90BB24A6E9B0E0AA0DBB1DBB
:100D50000C91041781E009F080E09F91892B882392
:100D600009F40EC08FEF9FEFA6E8B0E0AD90BB2472
:100D7000ABE6B0E0AA0CBB1CAA0DBB1D8D939C93E7
:100D8000A6E8B0E08C918F5F8C9308F49BCF9BC05A
:100D9000063B09F069C081E08093860000918600DF
:100DA000083010F009F05FC000916800003081E069
:100DB00009F080E08F9300916800043680E010F025
:100DC00009F081E09F91892B882309F401C00895DF
:100DD00040916800A6E8B0E0AD90BB24A6E8B0E082
:100DE000AA0DBB1D0C91041781E009F080E08F93E0
:100DF00040916800A6E8B0E0AD90BB24AEE8B0E05A
:100E0000AA0DBB1D0C91041781E009F080E09F91B1
:100E1000892B8F9340916800A6E8B0E0AD90BB2489
:100E2000A6E9B0E0AA0DBB1D0C91041781E009F002
:100E300080E09F91892B882309F40EC080E090E028
:100E4000A6E8B0E0AD90BB24ABE6B0E0AA0CBB1CBA
:100E5000AA0DBB1D8D939C93A6E8B0E08C918F5F8B
:100E60008C9308F49BCF2FC0013A09F009C0E0E150
:100E7000F0E008E11EE2A0E1BB277BE75BD023C0E6
:100E8000023A09F009C0E0E1F0E000E612E2A0E178
:100E9000BB277BE74FD017C0033A09F009C0E0E158
:100EA000F0E000E010E0A0E1BB277BE743D00BC0FF
:100EB000043A09F008C0E0E1F0E00FEF1FEFA0E115
:100EC000BB277BE737D00895ED91FC91EF5FFF4F93
:100ED000FC93EE93089504D08D933A95E1F708952D
:100EE0005F9BFECF8CB1089588EE93E00CD03197D4
:100EF000D9F708953197F1F70895689462F8089545
:100F0000E89462F80895EF93FF93EE27E82BE92B1E
:100F100031F0EDECFAE03197F1F70197D1F7FF915D
:100F2000EF910895E199FECFEEBBFFBB3196089596
:100F300091E001C092E07B3751F47FB7F894F2DF83
:100F40008D918DBBE29AE19A9A95C9F77FBF772779
:100F5000089591E001C092E0E5DFE09A8DB38D93B2
:060F60009A95D1F70895F7
:00000001FF
