:1000000012C0189518951895189518951895189563
:10001000189518951895F9C6189518951895189566
:100020001895189518958FE58DBFC0E4E8E34E2E1E
:1000300084E08EBFD4E0F4E05F2EA89584B7082E4C
:10004000877F84BF88E1992781BD91BDEEEFF3E002
:10005000A0E6B0E088278D933197E9F785E089B96C
:1000600080E080BD88E18AB966247894579A8F9A97
:10007000A39AA29A8E9AB898A19A8A9A8B9A8C9AE5
:100080008D9AA09AB99880E08FBD82E08EBD8EB522
:10009000887F8EBD80E090E09DBD8CBD80E0809328
:1000A000CC00709161007E7F70936100709161005F
:1000B0007D7F7093610080E090E0A2EFB0E08D93CF
:1000C0009C937091F1007F777093F100D9D20091E9
:1000D000F000043610F009F001C004C080E0809305
:1000E000F000DAD284EF91E02BD9A99A1CD71BD764
:1000F000A99884EF91E024D908D0B19905C013D70D
:1001000084E690E01DD952D1F7CF709161007D7FD8
:1001100070936100B09B49C1B09901C001C0FCCF90
:1001200080E090E09DBD8CBD82E08EBDB09901C0A5
:10013000FDCF8EB5887F8EBDACE4B0E00D911C91F3
:100140000A3F55E2150781E008F480E08F93ACE4A4
:10015000B0E00D911C910B335CE5150781E010F0C8
:1001600009F080E09F918923882309F41EC1B09B88
:1001700021C080E090E09DBD8CBD82E08EBDB09B33
:1001800001C0FDCF8EB5887F8EBDACECB0E08C9108
:100190008F5F8C93ACE4B0E08D919C91ACECB0E0BF
:1001A000AD90BB24AAE9B0E0AA0CBB1CAA0DBB1DF4
:1001B0008D939C930091CC00083109F001C001C0DF
:1001C000D6CF81E08093CC000091CC00083110F0B4
:1001D00009F091C0ACECB0E0AD90BB24AAE9B0E06E
:1001E000AA0CBB1CAA0DBB1D0D911C910C3451E037
:1001F000150781E008F480E08F93ACECB0E0AD909F
:10020000BB24AAE9B0E0AA0CBB1CAA0DBB1D0D9132
:100210001C910C3C53E0150781E010F009F080E0E0
:100220009F918923882309F40FC080E090E0ACEC13
:10023000B0E0AD90BB24AAE9B0E0AA0CBB1CAA0DAB
:10024000BB1D8D939C9350C0ACECB0E0AD90BB2433
:10025000AAE9B0E0AA0CBB1CAA0DBB1D0D911C9114
:10026000073554E0150781E008F480E08F93ACEC8B
:10027000B0E0AD90BB24AAE9B0E0AA0CBB1CAA0D6B
:10028000BB1D0D911C91093359E0150781E010F059
:1002900009F080E09F918923882309F40FC081E051
:1002A00090E0ACECB0E0AD90BB24AAE9B0E0AA0CC1
:1002B000BB1CAA0DBB1D8D939C9316C080E0809340
:1002C000CC0000E010E020E030E0A7EEB0E00D93BD
:1002D0001D932D933C9380E08093EB00709161001F
:1002E0007D7F709361000895ACECB0E08C918F5FDE
:1002F0008C9308F469CF80E08093CC00ADECB0E043
:1003000088278C93A2EEB0E088278C9381E08093BD
:10031000CC000091CC00043110F009F015C0ADEC18
:10032000B0E0E6D7ECECF0E0A190BB24EAE9F0E025
:10033000AA0CBB1CEA0DFB1D30D8ACECB0E08C91D4
:100340008F5F8C9308F4E5CF85E18093CC0000911A
:10035000CC00083110F009F015C0A2EEB0E0C8D70B
:10036000ECECF0E0A190BB24EAE9F0E0AA0CBB1CA5
:10037000EA0DFB1D12D8ACECB0E08C918F5F8C9332
:1003800008F4E5CFADECB0E072D8A7EEB0E00D9385
:100390001D932D933D93A2EEB0E069D8ABEEB0E093
:1003A0000C934FD080E08093CC000895929893985E
:1003B00094989598A99A7091F10070687093F100E3
:1003C00086E990E0BDD7B1993AC0ADD5B19926C0C4
:1003D000A2EFB0E086D781E090E0B2D7A2EFB0E024
:1003E0000D911C91083853E1150708F416C080E000
:1003F00090E0A2EFB0E08D939C9395D580E0809340
:10040000F0004AD1A89AE1E0F0E08BD7E1E0F0E01B
:1004100088D7A898A998089501C0D8CFA2EFB0E0D6
:100420000D911C91083853E1150708F008C080E0D1
:1004300090E0A2EFB0E08D939C93A9980895C3CF6C
:10044000089570916100726070936100A1EFB0E057
:100450008C9187FB0EF439C08AE090E0A4EFB0E005
:100460008D939C9381E08093CC004091F0000091AB
:10047000CC00041710F009F028C058D1A7EEB0E066
:100480004D915D916D917C91ACEEB0E00D911D911F
:100490002D913C916FD709F007C08091CC008093DB
:1004A000970019D040D511C0A4EFB0E00D911C9178
:1004B0000F5F1F4FA4EFB0E00D931C93ACECB0E0C6
:1004C0008C918F5F8C9308F4D0CF7091F1007F777F
:1004D0007093F100089582B394E0892782BBA1E66E
:1004E000B0E08C9185FB0EF033C0AEE6B0E08C91AD
:1004F0008F5F8C93E0E0F0E0AEE6B0E07BE7FAD708
:1005000082E090E01DD7EEE6F0E0A190BB24E0E0B1
:10051000F0E0EA0DFB1DA7E9B0E07BE7EBD7EEE6E4
:10052000F0E0A190BB24E8E2F0E0EA0DFB1DABEEA9
:10053000B0E07BE7DFD7EEE6F0E0A190BB24E0E59A
:10054000F0E0EA0DFB1DAAE6B0E07BE7D3D7AB985D
:10055000A1E6B0E08C9186FB0EF074C07091610052
:100560007F7D70936100AB9881E08093980000914B
:100570009800083210F009F065C040919700E8E952
:10058000F0E0A190BB24E0E0F0E0EA0DFB1DA0E16B
:10059000B0E0C1D7041709F04EC04091EB00E8E984
:1005A000F0E0A190BB24E8E2F0E0EA0DFB1DA0E141
:1005B000B0E0B1D7041709F03EC0E8E9F0E0A1903F
:1005C000BB24E0E5F0E0EA0DFB1DA2E6B0E0A3D716
:1005D000A8E9B0E0AD90BB24AEE6B0E0AA0DBB1D2B
:1005E0000C91043B09F00BC085EBA8E9B0E0AD909D
:1005F000BB24AEE6B0E0AA0DBB1D8C930AC084EB11
:10060000A8E9B0E0AD90BB24AEE6B0E0AA0DBB1DFA
:100610008C93A8E9B0E0AD90BB24AEE6B0E0AA0DA3
:10062000BB1D8C918093640088E68093630088EE04
:1006300080936B0024D6A8E9B0E08C918F5F8C93F7
:1006400008F495CF089576D710EA8BD71091F4006F
:1006500088D71091F70085D77BD78AE090E070D6D5
:10066000089568D710EA7DD71091F4007AD762D741
:1006700011EA77D793D7A6EFB0E01C9369D7089516
:1006800081E090E0A4EFB0E08D939C93EADF80914D
:10069000F6008093F000089581E090E0A4EFB0E0D0
:1006A0008D939C938091F0008093F700CCDF0895A8
:1006B000A8EFB0E088278C93A8EFB0E0ECEEF0E074
:1006C000C2D683E0E8EFF0E002E00A93A1E0B1E0F7
:1006D000FCD685E0E8EFF0E002E00A93A4E0B1E0A8
:1006E000F4D687E0E8EFF0E002E00A93A7E0B1E09B
:1006F000ECD654D0A1E0B1E0C9D6A7EFB0E00C939E
:10070000A2DFA4EFB0E0EDD5A4E0B1E0BFD6A7EF43
:10071000B0E00C9398DFA4EFB0E0E3D5A7E0B1E040
:10072000B5D6A7EFB0E00C938EDF08959ADFA1E075
:10073000B1E0E6EFF0E083D6A4EFB0E0D2D591DFF0
:10074000A4E0B1E0E6EFF0E07AD6A4EFB0E0C9D5DE
:1007500088DFA7E0B1E0E6EFF0E071D6A8EFB0E007
:1007600088278C93E1E0F1E0A8EFB0E0C1D5A8D6EE
:10077000E4E0F1E0A8EFB0E0BBD5A2D6E7E0F1E01D
:10078000A8EFB0E0B5D59CD6A8EFB0E07FD6ACEE30
:10079000B0E00D931D932D933D9308950091F000CB
:1007A000013009F007C08AE090E0A4EFB0E08D933B
:1007B0009C932AC3023009F007C08DE090E0A4EFBB
:1007C000B0E08D939C9320C3033009F007C080E113
:1007D00090E0A4EFB0E08D939C9316C3043009F031
:1007E00007C083E190E0A4EFB0E08D939C930CC32D
:1007F000053009F007C086E190E0A4EFB0E08D93EA
:100800009C9302C3063009F007C089E190E0A4EF91
:10081000B0E08D939C93F8C2073009F007C08CE1DB
:1008200090E0A4EFB0E08D939C93EEC2083009F005
:1008300007C08FE190E0A4EFB0E08D939C93E4C2F9
:10084000093009F007C082E290E0A4EFB0E08D9398
:100850009C93DAC20A3009F007C085E290E0A4EF69
:10086000B0E08D939C93D0C20B3009F007C088E2B2
:1008700090E0A4EFB0E08D939C93C6C20C3009F0D9
:1008800007C08BE290E0A4EFB0E08D939C93BCC2D4
:100890000D3009F007C08EE290E0A4EFB0E08D9338
:1008A0009C93B2C20E3009F007C081E390E0A4EF40
:1008B000B0E08D939C93A8C20F3009F007C084E389
:1008C00090E0A4EFB0E08D939C939EC2003109F0BC
:1008D00007C087E390E0A4EFB0E08D939C9394C2AF
:1008E000013109F007C08AE390E0A4EFB0E08D93F6
:1008F0009C938AC2023109F007C08DE390E0A4EF17
:10090000B0E08D939C9380C2033109F007C080E46E
:1009100090E0A4EFB0E08D939C9376C2043109F08F
:1009200007C083E490E0A4EFB0E08D939C936CC289
:10093000053109F007C086E490E0A4EFB0E08D93A4
:100940009C9362C2063109F007C089E490E0A4EFED
:10095000B0E08D939C9358C2073109F007C08CE436
:1009600090E0A4EFB0E08D939C934EC2083109F063
:1009700007C08FE490E0A4EFB0E08D939C9344C255
:10098000093109F007C082E590E0A4EFB0E08D9353
:100990009C933AC20A3109F007C085E590E0A4EFC4
:1009A000B0E08D939C9330C20B3109F007C088E50D
:1009B00090E0A4EFB0E08D939C9326C20C3109F037
:1009C00007C08BE590E0A4EFB0E08D939C931CC230
:1009D0000D3109F007C08EE590E0A4EFB0E08D93F3
:1009E0009C9312C20E3109F007C081E690E0A4EF9B
:1009F000B0E08D939C9308C2083209F007C084E6EA
:100A000090E0A4EFB0E08D939C93FEC1093209F011
:100A100007C087E690E0A4EFB0E08D939C93F4C10B
:100A20000A3209F007C08AE690E0A4EFB0E08D93A7
:100A30009C93EAC10B3209F007C08DE690E0A4EF69
:100A4000B0E08D939C93E0C10C3209F007C080E7C1
:100A500090E0A4EFB0E08D939C93D6C10D3209F0E5
:100A600007C083E790E0A4EFB0E08D939C93CCC1E6
:100A70000E3209F007C086E790E0A4EFB0E08D9356
:100A80009C93C2C10F3209F007C089E790E0A4EF40
:100A9000B0E08D939C93B8C1003309F007C08CE798
:100AA00090E0A4EFB0E08D939C93AEC1013309F0C8
:100AB00007C08FE790E0A4EFB0E08D939C93A4C1B2
:100AC000023309F007C082E890E0A4EFB0E08D9314
:100AD0009C939AC1033309F007C085E890E0A4EF26
:100AE000B0E08D939C9390C1043309F007C088E86F
:100AF00090E0A4EFB0E08D939C9386C1053309F09C
:100B000007C08BE890E0A4EFB0E08D939C937CC18C
:100B1000063309F007C08EE890E0A4EFB0E08D93B3
:100B20009C9372C1073309F007C081E990E0A4EFFC
:100B3000B0E08D939C9368C1083309F007C084E945
:100B400090E0A4EFB0E08D939C935EC1093309F06F
:100B500007C087E990E0A4EFB0E08D939C9354C167
:100B60000A3309F007C08AE990E0A4EFB0E08D9362
:100B70009C934AC10B3309F007C08DE990E0A4EFC4
:100B8000B0E08D939C9340C10C3309F007C080EA1C
:100B900090E0A4EFB0E08D939C9336C1063409F049
:100BA00007C083EA90E0A4EFB0E08D939C932CC142
:100BB000073409F007C086EA90E0A4EFB0E08D9317
:100BC0009C9322C1083409F007C089EA90E0A4EFA1
:100BD000B0E08D939C9318C1093409F007C08CEAEA
:100BE00090E0A4EFB0E08D939C930EC10A3409F01D
:100BF00007C08FEA90E0A4EFB0E08D939C9304C10E
:100C00000B3409F007C082EB90E0A4EFB0E08D93C5
:100C10009C93FAC00C3409F007C085EB90E0A4EF78
:100C2000B0E08D939C93F0C00D3409F007C088EBC1
:100C300090E0A4EFB0E08D939C93E6C00E3409F0F1
:100C400007C08BEB90E0A4EFB0E08D939C93DCC0E9
:100C50000F3409F007C08EEB90E0A4EFB0E08D9365
:100C60009C93D2C0003509F007C081EC90E0A4EF5E
:100C7000B0E08D939C93C8C0013509F007C084ECA7
:100C800090E0A4EFB0E08D939C93BEC0023509F0D4
:100C900007C087EC90E0A4EFB0E08D939C93B4C0C4
:100CA000033509F007C08AEC90E0A4EFB0E08D9323
:100CB0009C93AAC0043509F007C08DEC90E0A4EF26
:100CC000B0E08D939C93A0C0053509F007C080ED7E
:100CD00090E0A4EFB0E08D939C9396C0063509F0A8
:100CE00007C083ED90E0A4EFB0E08D939C938CC09F
:100CF000073509F007C086ED90E0A4EFB0E08D93D2
:100D00009C9382C0083509F007C089ED90E0A4EFFC
:100D1000B0E08D939C9378C0093509F007C08CED45
:100D200090E0A4EFB0E08D939C936EC00A3509F07B
:100D300007C08FED90E0A4EFB0E08D939C9364C06A
:100D40000B3509F007C082EE90E0A4EFB0E08D9380
:100D50009C935AC00C3509F007C085EE90E0A4EFD3
:100D6000B0E08D939C9350C00D3509F007C088EE1C
:100D700090E0A4EFB0E08D939C9346C00E3509F04F
:100D800007C08BEE90E0A4EFB0E08D939C933CC045
:100D90000F3509F007C08EEE90E0A4EFB0E08D9320
:100DA0009C9332C0003609F007C081EF90E0A4EFB9
:100DB000B0E08D939C9328C0013609F007C084EF02
:100DC00090E0A4EFB0E08D939C931EC0023609F032
:100DD00007C087EF90E0A4EFB0E08D939C9314C020
:100DE000033609F007C08AEF90E0A4EFB0E08D93DE
:100DF0009C930AC0043609F007C08DEF90E0A4EF81
:100E0000B0E08D939C9300C008950F921F922F9293
:100E10003F924F925F927F92AF92BF920F931F9338
:100E20002F933F934F935F936F937F938F939F93F2
:100E3000AF93BF93CF93DF93EF93FF938FB78F93CE
:100E4000ACECB0E08C918F5F8C9331E0A0E6B0E029
:100E500056D20091CC00053081E009F080E08F93FC
:100E6000009160000C3D81E009F080E09F918923B2
:100E7000882309F405C07091610070687093610067
:100E800000916000023F09F003C081E08093CC0034
:100E900080916000ACECB0E0AD90BB24A4E6B0E083
:100EA000AA0DBB1D8C93A1E6B0E08C9187FB0EF0E0
:100EB00016C0709161007F77709361008091680027
:100EC00080936A0080916A008093620080E0809342
:100ED000CC0000916600083609F001C02ED08F9139
:100EE0008FBFFF91EF91DF91CF91BF91AF919F9114
:100EF0008F917F916F915F914F913F912F911F91B2
:100F00000F91BF90AF907F905F904F903F902F9048
:100F10001F900F901895F894FFCFA89A8CEB92E051
:100F20000FD2A8980895A89A80E590E009D2A898D1
:100F30008EE190E005D20895089582B390E8892764
:100F400082BB709161007F777093610000916700B0
:100F5000063909F012C070916100706470936100ED
:100F600070916100777F70936100709161007F7E66
:100F700070936100AA9AAB98E8C0073909F019C0CC
:100F800070916100777F70936100709161007F7E46
:100F9000709361008091680080936A0084EB809375
:100FA0006D0070916100706270936100AA98AB9AB5
:100FB000CCC00C3909F010C070916100777F70933C
:100FC0006100709161007F7E70936100709161009B
:100FD000746070936100B9C00D3909F010C0709150
:100FE0006100777F70936100709161007F7E7093E4
:100FF0006100709161007B7F70936100A6C00E3923
:1010000009F043C0E0E0F0E0A0E1BB2780E08C9372
:101010007BE770D281E08093CC000091CC00083255
:1010200010F009F031C0ECECF0E0A190BB24E0E05E
:10103000F0E0EA0DFB1DA0E1BB2780E08C937BE78D
:1010400059D2ECECF0E0A190BB24E8E2F0E0EA0D2C
:10105000FB1DA0E1BB2780E08C937BE74BD2ECEC3F
:10106000F0E0A190BB24E0E5F0E0EA0DFB1DA0E17B
:10107000BB2780E08C937BE73DD2ACECB0E08C9159
:101080008F5F8C9308F4C9CF60C0013A09F002C0A9
:101090005DD05BC0023A09F021C0009162000834C3
:1010A00009F401C0089570916100777F7093610029
:1010B000A99A929893989498959880E08093F000DC
:1010C000EBDA31DF30DF29DFE1E0F0E02AD1A99867
:1010D000709161007F7E7093610037C0033A09F020
:1010E00019C070916100777F709361007091610009
:1010F0007F7E709361008091680080936A0083EA2C
:1011000080936D0070916100706270936100AA9885
:10111000AB9A1BC0043A09F018C070916100777F48
:1011200070936100709161007F7E70936100809187
:10113000680080936A007091610070627093610032
:10114000AA98AB9A84EA80936D000895DED7A1E651
:10115000B0E08C9181FB0EF088C0E5DE0091F000DC
:10116000003009F015C0A0EFB0E08C918F5F8C9338
:1011700093DAA7EEB0E00D911D912D913C91ACEE6C
:10118000B0E00D931D932D933C9392DA6FC06CC029
:101190008AE090E0A4EFB0E08D939C9381E080938F
:1011A000CC004091F0000091CC00041710F009F041
:1011B00032C0BCDAA7EEB0E04D915D916D917C91AB
:1011C000ACEEB0E00D911D912D913C91D3D009F082
:1011D0000CC0A89AE1E0F0E0A4D0A898709161005A
:1011E00071607093610017C005C0709161007E7FCF
:1011F00070936100A4EFB0E00D911C910F5F1F4F41
:10120000A4EFB0E00D931C93ACECB0E08C918F5F39
:101210008C9308F4C6CFA1E6B0E08C9180FB0EF46D
:1012200023C0A0EFB0E08C918F5F8C930091F00011
:10123000043610F009F001C009C084E68093F00084
:10124000A89AE5E0F0E06DD0A8980EC025DAA7EEE8
:10125000B0E00D911D912D913C91ACEEB0E00D935D
:101260001D932D933C9324DA01C070CF70916100DF
:101270007D7F70936100A99808950895089582B3C1
:1012800090E8892782BB00916B000C3F09F004C0F5
:1012900086EE80936C0008C000916B00083E09F058
:1012A00003C082ED80936C00969A8AE090E048D06B
:1012B00031E0ABE6B0E02CD031E0A3E6B0E028D0DE
:1012C00031E0A4E6B0E024D031E0A2E6B0E020D0E6
:1012D00031E0ACE6B0E01CD082E390E031D09698EB
:1012E0000895ED91FC91EF5FFF4FFC93EE9308950D
:1012F0008F938D918823E9F711978F91089504D0EA
:101300008D933A95E1F708955F9BFECF8CB10895D8
:101310008D9103D03A95E1F708955D9BFECF8CB98E
:10132000089588EE93E00CD03197D9F7089531975E
:10133000F1F70895689462F80895E89462F80895C2
:10134000EF93FF93EE27E82BE92B31F0EDECFAE079
:101350003197F1F70197D1F7FF91EF91089501913E
:101360001191219130810895813618F08B3708F45E
:101370008F7D089504171507260737070895000F76
:10138000111F221F331F0895009510952095309549
:101390000F5F1F4F2F4F3F4F0895019110810BC0DA
:1013A000DEDF0BC00191108117FF05C03FEF2FEF6B
:1013B00004C0008111272227332737FF03C0E4DF51
:1013C0008DE28D93CF92DF92EF92AA24BB24CC249E
:1013D000DD24EE2440E2EAE0FF2755E093E380813C
:1013E000890F87FD9F7083FD907F891B81935A959C
:1013F000A9F7C5DFAA1CBB1CCC1CDD1CEE1C4A9542
:1014000051F7E894EFE0FF2782910CD0EB30E0F742
:101410001EF068948A2D0AD088278D93EF90DF9074
:10142000CF900895982F829501D0892F8F70805D7D
:1014300026F0803309F4089568948D93089541E06F
:1014400003C042E001C044E0E40F8827F81F829106
:10145000982F829505D0892F03D04A95C1F72DC0CA
:101460008F708A3008F0895F805D8D930895002722
:101470001127222733278D91882339F08053000FBD
:10148000111F221F331F080FF6CF089500271127C1
:10149000222733278D91882379F071DF70DF6FDF8A
:1014A0006EDF62DF815408F4895F865F080F88274A
:1014B000181F281F381FEECF089588278D93089591
:1014C00081918D938823E1F7089509919191992352
:1014D00051F08A95D9F73197002329F081918D93A6
:1014E0000A958823C9F7E9CFE199FECFEEBBFFBB90
:1014F0003196089591E001C092E07B3751F47FB7B7
:10150000F894F2DF8D918DBBE29AE19A9A95C9F732
:101510007FBF7727089591E001C092E0E5DFE09A70
:101520008DB38D939A95D1F70895A498A598AC980A
:10153000AD980895A59AA49803D0A59801D0A49A2F
:10154000EF93FF93EAE0F0E0F2DEFF91EF91089570
:10155000A59AA49AF5DFA5989D9BFECFF1DFA498EC
:10156000EFCF0894111F01C0110F69F0A59A18F46C
:101570000000A49802C0A49A00C0E2DFA5989D9B39
:10158000FECFDEDFF1CFA59AA498DADFA5989D9B68
:10159000FECFE8949C99689462F8D2CF089401C079
:1015A0008894331F11E0A59AA498CADFA5989D9B43
:1015B000FECFC6DF88949C990894111FA0F7A59AC6
:1015C000379510F4A49801C0A49ABADFA5989D9B02
:0615D000FECFB6DF089516
:00000001FF
