:1000000012C0189518951895189518951895189563
:100010001895189518951895189518951895189578
:100020001895189518958FE58DBFC8E3E0E24E2E20
:1000300084E08EBFD4E0F4E05F2EA89584B7082E4C
:10004000877F84BF88E1992781BD91BDEEEFF3E002
:10005000A0E6B0E088278D933197E9F71FD066249A
:1000600086EE86B980E087B907B1007F07B984B111
:1000700095B1A0E6B0E08D939C93E0E6F0E0A8E0B7
:10008000B4E0B6D003D0F0CFF894FFCFA8E0B4E04E
:100090008D91882311F044D0FBCF08958AEF90E032
:1000A0007CD08F9A8E9A8D9A8C9A8A9A8B9A9398F2
:1000B00085E090E072D0929897989698959A949A45
:1000C000929AEF93FF93E4ECF0E05BD0FF91EF9115
:1000D000929860D0929AEF93FF93E4ECF0E051D0C5
:1000E000FF91EF91929856D0929AEF93FF93E4ECA0
:1000F000F0E047D0FF91EF9192984CD09498929A6B
:10010000EF93FF93E4ECF0E03CD0FF91EF919298F5
:1001100041D088E216D08EE014D086E012D0089547
:1001200090916600939590936600993021F48F9397
:1001300080EC07D08F91939A829505D004D02AD075
:1001400008959398F9CF859510F4949A01C09498E6
:10015000859510F4959A01C09598859510F4969A16
:1001600001C09698859510F4979A01C09798929A35
:10017000EF93FF93E4ECF0E004D0FF91EF919298BD
:1001800008953197F1F70895689462F80895E89416
:1001900062F8089581E090E000C0EF93FF93EE27AE
:1001A000E82BE92B31F0E0EDF7E03197F1F701971B
:1001B000D1F7FF91EF910895019111912191308133
:1001C0000895369A3699FECF369A3699FECF84B185
:1001D00095B10895000F111F221F331F0895009538
:1001E0001095209530950F5F1F4F2F4F3F4F08956B
:1001F000019110810DC0E0DF0DC0DEDF10C0019164
:10020000108117FF05C03FEF2FEF04C000811127B9
:100210002227332737FF03C0E2DF8DE28D93CF9291
:10022000DF92EF92AA24BB24CC24DD24EE2440E20A
:10023000EAE0FF2755E093E38081890F87FD9F70F7
:1002400083FD907F891B81935A95A9F7C3DFAA1C70
:10025000BB1CCC1CDD1CEE1C4A9551F7E894EFE06A
:10026000FF2782910CD0EB30E0F71EF068948A2DC6
:100270000AD088278D93EF90DF90CF900895982F24
:10028000829501D0892F8F70805D26F0803309F42C
:08029000089568948D93089510
:00000001FF
