:100000000C94460018950000189500001895000003
:10001000189500001895000018950000189500002C
:10002000189500001895000018950000189500001C
:10003000189500001895000018950000189500000C
:1000400018950000189500000C94BF031895000047
:1000500018950000189500001895000018950000EC
:1000600018950000189500001895000018950000DC
:1000700018950000189500001895000018950000CC
:100080001895000018950000189500008FEF8DBF9F
:10009000C8EDE0EC4E2E80E18EBFD0E1F0E15F2EA6
:1000A000A89584B7082E877F84BF88E1992781BDF2
:1000B00091BDEEEFFFE0A0E0B1E088278D9331978E
:1000C000E9F785E089B980E08093900088E18AB9FA
:1000D00066247894579A7AB37F637ABB0E9408119A
:1000E000E6E8FAE10E94FD11A1E0B1E0ED93FD9395
:1000F0008BB78C938FEF84BBA39AB89AB9988CEF87
:1001000080931A0182ED80931B0183E080930701A5
:1001100082E08093080181E08093090170911C01C5
:100120007F7D70931C01B998ACE1B1E09C9193FF85
:1001300004C0B19B10C0977F9C93B1990CC089E11A
:100140009F9390E00E94F9109F91B19904C098602C
:100150009C930E94D20044E650E060E070E0ABE087
:10016000B1E00D911D912D913C910E94031211F06F
:100170000C94C6000E943D0100E010E020E030E059
:10018000ABE0B1E00D931D932D933C9384E690E09A
:100190000E94F910ABE0B1E00E94C1100C949300F2
:1001A0000E94930081E0809319018091190180934E
:1001B00009018EE190E00E94F91083E18093130120
:1001C0000E94790183E0809313010E947901E1E0AC
:1001D000F0E00E94E810ACE1B1E08C9184FB16F0F5
:1001E0000C94E20070911C017F7E70931C01809141
:1001F00009018093190182E1809313010E94790122
:10020000A9E1B1E08C918F5F8C938091190180936B
:10021000090183E180931301B19B0C94D9000895E7
:1002200081E08093090184E690E00E94F91083E068
:10023000809313010E947901E2E0F0E00E94E8104F
:10024000ACE1B1E08C9184FB16F00C94170181E1D4
:10025000809313010E94790170911C017F7E70933D
:100260001C01A9E0B1E08C918F5F8C930091090192
:10027000053011F00C941301089581E0809313016F
:100280000E94790170911C017F7B70931C0108957D
:100290005798AB9A31E0AAE1B1E00E94D71031E063
:1002A000A7E0B1E00E94D71031E0A8E0B1E00E94E1
:1002B000D71031E0A9E0B1E00E94D71031E0ABE106
:1002C000B1E00E94D7108EE190E00E94F910AB9847
:1002D000579A089580911501809307018091160126
:1002E0008093080180911701809309010E944801C1
:1002F000089500911301013011F00C9490018CEFDE
:1003000080931A0182ED80931B0185E6809307019B
:1003100086E98093080183E6809309010C94080321
:10032000023011F00C94A2018CEF80931A0182ED3F
:1003300080931B0185E68093070186E9809308017D
:100340000C940803033011F00C94B4018CEF8093EB
:100350001A0182ED80931B0185E68093070187E9EE
:10036000809308010C940803043011F00C94C90127
:100370008CEF80931A0182ED80931B0185E68093B8
:10038000070188E98093080183E6809309010C94B2
:100390000803053011F00C94DE018CEF80931A01F4
:1003A00082ED80931B0185E68093070189E98093A4
:1003B000080183E6809309010C940803063011F0CC
:1003C0000C94F3018CEF80931A0182ED80931B0152
:1003D00085E6809307018AE98093080183E680938C
:1003E00009010C940803073011F00C9408028CEFFB
:1003F00080931A0182ED80931B0185E680930701AB
:100400008BE98093080183E6809309010C9408032B
:10041000083011F00C941D028CEF80931A0182EDCC
:1004200080931B0185E6809307018CE98093080186
:1004300083E6809309010C940803093011F00C94B1
:1004400032028CEF80931A0182ED80931B0185E6C6
:10045000809307018DE98093080183E68093090169
:100460000C9408030A3011F00C9447028CEF80932F
:100470001A0182ED80931B0186E68093070186E9CD
:100480008093080183E6809309010C9408030B30E4
:1004900011F00C9459028CEF80931A0182ED809335
:1004A0001B0186E68093070187E9809308010C947D
:1004B00008030C3011F00C946E028CEF80931A013B
:1004C00082ED80931B0186E6809307018CE980937F
:1004D000080183E6809309010C9408030D3011F0A4
:1004E0000C9483028CEF80931A0182ED80931B01A0
:1004F0008EE6809307018DE98093080183E680935F
:1005000009010C9408030E3011F00C9498028CEF42
:1005100080931A0182ED80931B0187E68093070187
:1005200086E98093080183E6809309010C9408030F
:100530000F3011F00C94AD028CEF80931A0182ED14
:1005400080931B0188E68093070186E98093080168
:1005500083E6809309010C940803003111F00C9498
:10056000BF0282EF80931A018CED80931B018EE60F
:100570008093070187EB809308010C9408030131F5
:1005800011F00C94D10282EF80931A018CED8093CC
:100590001B018EE68093070185EB809308010C9484
:1005A0000803023111F00C94E60282EF80931A01E5
:1005B0008CED80931B018EE68093070185EB809381
:1005C000080183E6809309010C940803033111F0BC
:1005D0000C94F80282EF80931A018CED80931B013A
:1005E0008EE68093070184EB809308010C94080346
:1005F000043111F00C9408038CEF80931A0182ED02
:1006000080931B0185E68093070187EA80930801A8
:100610000E944801089500911501053611F00C94CF
:1006200081030E94681185E08093040181E080933A
:100630000501882780930601A8EAB0E1E7E1F1E02F
:100640000E9423120E94E010E1E0F0E00E94E81016
:100650000E94681100911601073911F00C943D03B6
:100660004091090100911701041711F00C943D030A
:1006700070911C01706170931C0100911601043B84
:1006800011F00C944E0380911701A5E3B0E00E9495
:10069000F1110E94E7119C91982B9C9300911601F7
:1006A000053B11F00C945F0380911701A5E3B0E0C6
:1006B0000E94F1110E94E7118C9189238C93009183
:1006C0001601063B11F00C947F0380910901A5E30C
:1006D000B0E00E94F1110E94E7119C91982B9C932D
:1006E000E2E0F0E00E94E81080910901A5E3B0E0AB
:1006F0000E94F1110E94E7118C9189238C930C9434
:100700009703073611F00C9487030C949703063671
:1007100011F00C948D030C9497030E3611F00C9489
:1007200093030C9497030F3611F00C9497030E94D7
:100730009B03089508958EE68093070100911601AA
:10074000043B11F00C94A9038CE9809308010C94EC
:10075000B20300911601053B11F00C94B2038DE930
:100760008093080180911701809309010E9448013C
:10077000089570911C01706470931C0108950F928C
:100780001F922F923F924F925F927F92AF92BF92B1
:100790000F931F932F933F934F935F936F937F9389
:1007A0008F939F93AF93BF93CF93DF93EF93FF9379
:1007B0008FB78F938BB78F9388278BBFABE0B1E058
:1007C0000E94C110AAE0B1E08C918F5F8C9331E060
:1007D000AFE0B1E00E94CE1000910A01053081E047
:1007E00009F080E08F9300910F010C3D81E009F04A
:1007F00080E09F918923882311F40C940404709164
:100800001C01706270931C0100910F01023F11F0F6
:100810000C940D0481E080930A0180910F01AAE0FD
:10082000B1E0AD90BB24A3E1B1E0AA0DBB1D8C9358
:10083000ACE1B1E08C9185FB16F00C942F0480E0C4
:1008400080930A010E940B0370911C017F7D7093BD
:100850001C01C09A82E390E00E94F910C0988F9129
:100860008BBF8F918FBFFF91EF91DF91CF91BF91A0
:10087000AF919F918F917F916F915F914F913F9138
:100880002F911F910F91BF90AF907F905F904F90ED
:100890003F902F901F900F901895F894FFCF042051
:1008A00080000000000000000000000000000000C8
:1008B0000000000000000000000000000000000038
:1008C0000000000000000000000000000000000028
:1008D0000000000000000000000000000000000018
:1008E0000000000000000000000000000000000008
:100FE00000000000000000000000C0C0C0C0C0C081
:100FF00000000000000000000000000000000000F1
:10100000000000000000000000000F0F0F0F0F0F86
:1010100000000000000000000000000000000000D0
:1010200000000000000000000000000000000000C0
:1010300000000000000000000000000000000000B0
:1010400000000000000000000000000000000000A0
:101050000000000000000000000000000000000090
:101060000000000000000000000000000000000080
:101070000000000000000000000000000000000070
:101080000000000000000000000000000000000060
:101090000000000000000000000000000000000050
:1010A00000000000C0C0FCFC3C3C0F0F0F0F0F0FF6
:1010B0000F0F0F0FFCFCFCFCC0C000000000000084
:1010C00000000000FFFFFFFF00000000C0C0F0F0C4
:1010D0003C3C0F0F0303FFFFFFFF00000000000078
:1010E000000000003F3FFFFFFCFC0F0F0303000068
:1010F00000000000C0C0FFFF3F3F000000000000F4
:10110000000000000000030303030F0F0F0F0F0F79
:101110000F0F0F0F03030303000000000000000087
:101120000000000000000000F0F0F0F0FCFCFFFF09
:10113000FFFF0000000000000000000000000000B1
:101140000000000000000000000000000000FFFFA1
:10115000FFFF000000000000000000000000000091
:101160000000000000000000000000000000FFFF81
:10117000FFFF000000000000000000000000000071
:1011800000000000000000000F0F0F0F0F0F0F0FE7
:101190000F0F0F0F0F0F0F0F0000000000000000D7
:1011A00000000000F0F0FCFC3F3F0F0F0F0F0F0F8F
:1011B0000F0F0F0F3F3FFCFCF0F00000000000009D
:1011C0000000000003030303000000000000C0C093
:1011D000F0F0FCFC3F3F0F0F030300000000000095
:1011E000000000000000C0C0F0F0FCFC3F3F0F0F0B
:1011F00003030000000000000000000000000000E9
:10120000000000000F0F0F0F0F0F0F0F0F0F0F0F2A
:101210000F0F0F0F0F0F0F0F0F0F00000000000038
:1012200000000000F0F0FCFC3F3F0F0F0F0F0F0F0E
:101230000F0F0F0F3F3FFCFCF0F00000000000001C
:1012400000000000000000000000F0F0F0F0F0F0FE
:10125000F0F0F0F0FCFC3F3F0F0F0000000000003A
:1012600000000000F0F0F0F0C0C00000000000003E
:1012700000000000C3C3FFFFFCFC000000000000F2
:1012800000000000000003030F0F0F0F0F0F0F0FE0
:101290000F0F0F0F0F0F03030000000000000000EE
:1012A00000000000000000000000C0C0F0F0FCFCE6
:1012B0003F3FFFFFFFFF00000000000000000000B4
:1012C00000000000F0F0FCFC3F3F0F0F03030000A4
:1012D0000000FFFFFFFF0000000000000000000012
:1012E000000000000F0F0F0F0F0F0F0F0F0F0F0F4A
:1012F0000F0FFFFFFFFF0F0F0F0F00000000000098
:1013000000000000000000000000000000000000DD
:1013100000000F0F0F0F0000000000000000000091
:1013200000000000FFFFFFFF0F0F0F0F0F0F0F0F49
:101330000F0F0F0F0F0F0F0F0F0F00000000000017
:10134000000000000F0F3F3F3C3C3C3C3C3C3C3C21
:101350003C3C3C3CFCFCF0F0C0C000000000000045
:1013600000000000F0F0F0F0C0C00000000000003D
:1013700000000000C0C0FFFFFFFF000000000000F1
:1013800000000000000003030F0F0F0F0F0F0F0FDF
:101390000F0F0F0F0F0F03030000000000000000ED
:1013A0000000000000000000C0C0F0F0FCFC3F3F67
:1013B0000F0F0F0F0F0F00000000000000000000D3
:1013C00000000000F0F0FFFFFFFFF3F3F0F0F0F09B
:1013D000F0F0F0F0F0F0C0C00000000000000000ED
:1013E00000000000FFFFFFFFC3C30000000000007B
:1013F00000000000C3C3FFFFFFFF0000000000006B
:1014000000000000000003030F0F0F0F0F0F0F0F5E
:101410000F0F0F0F0F0F030300000000000000006C
:10142000000000000F0F0F0F0F0F0F0F0F0F0F0F08
:101430000F0F0F0FFFFFFFFF0F0F00000000000056
:10144000000000000000000000000000000000009C
:10145000F0F0FFFF0F0F0000000000000000000090
:10146000000000000000000000000000F0F0FFFF9E
:101470000F0F00000000000000000000000000004E
:10148000000000000000000000000F0F0F0F000020
:10149000000000000000000000000000000000004C
:1014A000000000000000F0F0FCFC3F3F0F0F0F0FAA
:1014B0000F0F3F3FFCFCF0F00000000000000000B8
:1014C000000000000000CFCFFFFFFCFCF0F0F0F0C8
:1014D000F0F0FCFCFFFFCFCF000000000000000098
:1014E00000000000FFFFFFFFC3C30000000000007A
:1014F00000000000C3C3FFFFFFFF0000000000006A
:1015000000000000000003030F0F0F0F0F0F0F0F5D
:101510000F0F0F0F0F0F030300000000000000006B
:1015200000000000F0F0FCFC3F3F0F0F0F0F0F0F0B
:101530000F0F0F0F3F3FFCFCF0F000000000000019
:10154000000000000F0F3F3FFCFCF0F0F0F0F0F067
:10155000F0F0F0F0FCFCFFFFFFFF000000000000D7
:101560000000000000000000000000000000C0C0FB
:10157000F0F0FCFC3F3F0F0F0000000000000000F7
:1015800000000000000000000F0F0F0F0F0F0F0FE3
:101590000303000000000000000000000000000045
:1015A000000000000000000000000000000000003B
:1015B000000000000000000000000000000000002B
:1015C000000000000000000000000000000000001B
:1015D000000000000000000000000000000000000B
:1015E00000000000000000000000000000000000FB
:1015F00000000000000000000000000000000000EB
:1016000000000000000000000000000000000000DA
:1016100000000000000000000000000000000000CA
:1016200000000000000000000000000000000000BA
:1016300000000000000000000000000000000000AA
:10164000000000000000000000000000000000009A
:10165000000000000000000000000000000000008A
:10166000000000000000000000000000000000007A
:10167000000000000000000000000000000000006A
:10168000000000000000000000000000000000005A
:10169000000000000000000000000000000000004A
:1016A000000000000000000000000000000000003A
:1016B000000000000000000000000000000000002A
:1016C000000000000000000000000000000000001A
:1016D000000000000000000000000000000000000A
:1016E00000000000000000000000000000000000FA
:1016F00000000000000000000000000000000000EA
:1017000000000000000000000000000000000000D9
:1017100000000000000000000000000000000000C9
:101720000000021020000000000000000000000087
:1017300000000000000000000000000000000000A9
:10174000000000000000000000007CFFFF7C0000A3
:101750000000000000000000000000333300000023
:101760000000000000000000003C3C00003C3C0089
:101770000000000000000000000000000000000069
:1017800000000000000000001090F07E1E90F07E2F
:101790001E100000000000021E1F03021E1F030295
:1017A000000000000000000078FCCCFFFFCCCC88DB
:1017B0000000000000000000040C0C3F3F0C0F076D
:1017C00000000000000000003838380080C0E070E1
:1017D000381C000000000030381C0E0703013838A8
:1017E000380000000000000000B8FCC6E23E1C000B
:1017F00000000000000000001F3F3121371E1C3692
:1018000022000000000000000000273F1F00000031
:1018100000000000000000000000000000000000C8
:10182000000000000000000000F0FCFE07010100C5
:10183000000000000000000000030F1F38202000FF
:10184000000000000000000000010107FEFCF000A5
:101850000000000000000000002020381F0F0300DF
:10186000000000000000000098B8E0F8F8E0B89828
:1018700000000000000000000C0E030F0F030E0C10
:101880000000000000000000000000000000000058
:101890000000000000000000000000000000000048
:1018A0000000000000000000000000000000000038
:1018B0000000000000000000000000000000000028
:1018C0000000000000000000000000000000000018
:1018D0000000000000000000000000000000000008
:1018E00000000000000000000000000000000000F8
:1018F0000000000000000000000038383800000040
:1019000000000000000000000000000000000000D7
:1019100000000000000000000000000000000000C7
:1019200000000000000000F8FE060383C363331EBE
:10193000FEF80000000000071F1E33313030301861
:101940001F07000000000000000C0C0EFFFF00004D
:101950000000000000000000003030303F3F303019
:10196000300000000000001C1E07030383C3E37760
:101970003E1C000000000030383C3E373331303030
:10198000303000000000000C0E07C3C3C3C3C3E720
:101990007E3C00000000000C1C3830303030303904
:1019A0001F0E0000000000C0E070381C0E07FFFF93
:1019B00000000000000000030303030303033F3F94
:1019C000030300000000003F7F636363636363E31E
:1019D000C38300000000000C1C3830303030303839
:1019E0001F0F0000000000C0F0F8DCCEC7C3C3C367
:1019F000800000000000000F1F39303030303039D7
:101A00001F0F0000000000030303030303C3F33FA1
:101A10000F030000000000000000303C0F03000036
:101A20000000000000000000BCFEE7C3C3C3E7FEE7
:101A3000BC0000000000000F1F393030303030395A
:101A40001F0F00000000003C7EE7C3C3C3C3C3E711
:101A5000FEFC00000000000000303030381C0E0793
:101A60000300000000000000000070707000000023
:101A7000000000000000000000001C1C1C00000012
:101A80000000000000000108080000000000000045
:101A900000000303003E414122000007030007034A
:101AA00000000303003E4141220000242B6A120083
:101AB000000000631308646300000036495620509C
:101AC0000000000007030000000000003E4100008D
:101AD00000000000413E0000000000083E1C3E08DF
:101AE00000000008083E080800000000E060000058
:101AF00000000008080808080000000060600000FE
:101B000000000020100804020000003E5149453E3C
:101B100000000000427F4000000000625149494639
:101B200000000022494949360000001814127F10B5
:101B30000000002F494949310000003C4A49493022
:101B400000000001710905030000003649494936CB
:101B5000000000064949291E000000006C6C0000CE
:101B600000000000EC6C000000000000103E7E3E13
:101B7000100000242424242400000000087C7E7C23
:101B800008000010387C383838003E3E38387C3841
:101B90001000007E1111117E0000007F4949493676
:101BA0000000003E414141220000007F4141413E92
:101BB0000000007F494949410000007F09090901EF
:101BC0000000003E4149497A0000007F0808087F74
:101BD00000000000417F4100000000304040403FD5
:101BE0000000007F081422410000007F4040404078
:101BF0000000007F0204027F0000007F0204087FD3
:101C00000000003E4141413E0000007F09090906F5
:101C10000000003E4151215E0000007F0909196665
:101C2000000000264949493200000001017F0101FE
:101C30000000003F4040403F0000001F2040201FA8
:101C40000000003F403C403F000000631408146364
:101C500000000007087008070000007149454300B4
:101C6000000000007F414100000000020408102035
:101C70000000000041417F00000000040201020456
:101C8000000080808080808080800000030700004A
:101C900000000020545454780000007F444444382D
:101CA0000000003844444428000000384444447F85
:101CB0000000003854545408000000087E09090050
:101CC00000000018A4A4A47C0000007F0404780095
:101CD00000000000007D40000000004080847D0086
:101CE0000000007F1028440000000000007F40003A
:101CF0000000007C041804780000007C04047800D4
:101D00000000003844444438000000FC4444443897
:101D100000000038444444FC0000004478440408B7
:101D20000000000854545420000000043E442400E5
:101D30000000003C40207C000000001C2040201CD3
:101D40000000003C6030603C0000006C10106C0033
:101D50000000009CA0603C000000006454544C0053
:101D6000000000083E414100000000000077000034
:101D70000000000041413E08000000020102010095
:101D80000000003C2623263C0000001EA1E1211299
:101D90000000003D40207D000000003854545509EB
:101DA0000000002055555578000000205554557806
:101DB00000000020555554780000002057555778F2
:101DC0000000001CA2E222140000003855555508FE
:101DD0000000003855545508000000385555540887
:101DE00000000000017C4100000000000279420078
:101DF00000000000017C40000000007029242970D0
:101E0000000000782F252F780000007C54545545A1
:101E100000000034547C54580000007E097F49497A
:101E200000000038454539000000003845443900BD
:101E300000000039454438000000003C41217D008D
:101E40000000003D41207C000000009CA1603D009E
:101E50000000003D42423D000000003C41403D008A
:101E60000000001824662400000000483E49496232
:101E7000000000292A7C2A290000007F091678101A
:101E800000000040887E090200000020545555786B
:101E900000000000007D410000000038444539008A
:101EA0000000003C40217D000000007A090A71001A
:101EB0000000007A11227900000000085555555E97
:101EC0000000004E51514E0000000030484D4020AF
:101ED0000000003C04040404000004040404041C86
:101EE00000000017084C6A500000001708342A78D8
:101EF00000000000307D30000000000814000814CD
:101F0000000000140800140800004411441144119A
:101F10000000AA55AA55AA550000BBEEBBEEBBEEC9
:101F20000000000000FF00000000080808FF00009B
:101F300000000A0A0AFF0000000008FF00FF00007E
:101F4000000008F808F8000000000A0A0AFE000075
:101F500000000AFB00FF0000000000FF00FF00007F
:101F600000000AFA02FE000000000A0B080F000041
:101F70000000080F080F000000000A0A0A0F000006
:101F80000000080808F8000000000000000F080822
:101F900000000808080F08080000080808F80808EA
:101FA0000000000000FF08080000080808080808F2
:101FB0000000080808FF08080000000000FF0A0AE7
:101FC000000000FF00FF08080000000F080B0A0ACD
:101FD000000000FE02FA0A0A00000A0B080B0A0AB7
:101FE00000000AFA02FA0A0A000000FF00FB0A0ACF
:101FF00000000A0A0A0A0A0A00000AFB00FB0A0A91
:1020000000000A0A0A0B0A0A0000080F080F080855
:1020100000000A0A0AFA0A0A000008F808F8080884
:102020000000000F080F080800000000000F0A0A57
:102030000000000000FE0A0A000000F808F8080886
:10204000000008FF00FF080800000A0A0AFB0A0A4D
:1020500000000808080F00000000000000F8080851
:102060000000FFFFFFFFFFFF0000F0F0F0F0F0F0D6
:102070000000FFFFFF0000000000000000FFFFFF66
:1020800000000F0F0F0F0F0F00000018242418245A
:10209000000000FE4A4A34000000007F01010300F6
:1020A000000000027E027E020000006355496300CA
:1020B0000000001824241C04000000FC20201C0048
:1020C0000000000804780400000000085577550857
:1020D0000000003E49493E000000004C7202724C74
:1020E0000000002255593000000000182418241860
:1020F00000000018247E24180000001C2A2A2A0050
:102100000000003C02023C000000002A2A2A2A00AB
:1021100000000000242E2400000000514A4A440020
:10212000000000444A4A51000000000000FC020484
:1021300000000020403F000000000008082A0808B6
:102140000000002412241200000000060909060005
:102150000000000018180000000000000800000047
:1021600000000030403E0202000000010E010E009F
:10217000000000090D0A00000000003C3C3C3C004F
:1021800000000D911D912D913C910F5F1F4F2F4F1E
:102190003F4F3C932E931E930E93089504D08D933E
:1021A0003A95E1F708955F9BFECF8CB108958D912C
:1021B00003D03A95E1F708955D9BFECF8CB9089561
:1021C000A8EAB0E18D91882311F008D0FBCF0895E3
:1021D00088EE93E00ED03197D9F708950C947C11D6
:1021E0003197F1F70895689462F80895E89462F8D9
:1021F0000895EF93FF93EE27E82BE92B31F0EDECF8
:10220000FAE03197F1F70197D1F7FF91EF91089537
:10221000442720D0DA98DB9ADD9884E699270E943B
:10222000F9109FEF90936100DA9A32D0DC9839D0A0
:1022300014FCFBCF07D04FEF0DD02AD0DC9831D063
:1022400014FCFBCF8FE30FD080EC0DD080E40BD0DB
:1022500088EB09C0403420F0D99AD89840540895AA
:10226000D89AD998089514D0DC9802C011D0DC9A7D
:1022700080936200DB98EF93E3E0EA95F1F7EF914A
:10228000DD9AEF93E3E0EA95F1F7EF91DD98089599
:102290001F92DC9806D017FCFCCF1F900895F8DF42
:1022A000DC9A9927909361009FEF90936200DB9AEC
:1022B000EF93E3E0EA95F1F7EF91DD9AEF93E3E036
:1022C000EA95F1F7EF9110B0DD98909361000895D1
:1022D0004427C0DF02D04FEFBDDF00E080E4C3DF62
:1022E00088EB800FC0DF10E48827C0DF1A95E1F784
:1022F0000395083099F70895EF93FF931BB61F924B
:10230000509104015F9370900501E0910101F091FB
:102310000201009003010BBE0E94DD11202D0E94DE
:10232000DD11302D0E94DD11002D0E94DD11805243
:10233000482F0E946912E40FF51F27D07092050103
:10234000B32E409105015091040129D00E94DD1166
:10235000802D50910601552309F0809587DF50911B
:102360000501539550930501BA9459F75091040112
:102370005395509304012A9509F75F9150930401F6
:102380001F901BBEFF91EF91089518F42BB6239474
:102390002BBE089518F42BB62A942BBE08954A95A7
:1023A0005A9558DF88EB850F5EDF80E4840F5BCFA2
:1023B00001911191219130810895D895319628F499
:1023C0008F938BB783958BBF8F910020089591E0F9
:1023D000882321F08894991F8A95E9F7892F909591
:1023E0000895883018F011968850FBCF08950F9308
:1023F00001E00BBF0F91889408950F930027F9CF48
:102400000F9302E0F6CF0417150726073707089544
:10241000000F111F221F331F08950095109520955E
:1024200030950F5F1F4F2F4F3F4F0895019110813F
:102430000CC00E94D8110BC00191108117FF05C07C
:102440003FEF2FEF04C0008111272227332737FFEA
:1024500003C0E3DF8DE28D93CF92DF92EF92AA2447
:10246000BB24CC24DD24EE2440E2EAE0FF2755E043
:1024700093E38081890F87FD9F7083FD907F891B87
:1024800081935A95A9F7C4DFAA1CBB1CCC1CDD1C88
:10249000EE1C4A9551F7E894EFE0FF2782910CD0AB
:1024A000EB30E0F71EF068948A2D0AD088278D93D0
:1024B000EF90DF90CF900895982F829501D0892FCB
:1024C0008F70805D26F0803309F4089568948D93B1
:1024D0000895FF935527F8E0469508F4500F579557
:0A24E0004795FA95D1F7FF91089592
:00000001FF
