:100000000C942A001895000018950000189500001F
:10001000189500001895000018950000189500002C
:100020001895000018950000189500000C94CF0852
:10003000189500001895000018950000189500000C
:1000400018950000189500001895000018950000FC
:10005000189500008FE58DBFC8E3E0E24E2E84E0E6
:100060008EBFD4E0F4E05F2EA89584B7082E877F7A
:1000700084BF88E1992781BD91BDEEEFF3E0A0E652
:10008000B0E088278D933197E9F785E089B980E062
:1000900080BD88E18AB966248FEF8ABB8FEF87BB6A
:1000A0008FEF84BB8FEF81BBBF988FEF84BB8A9AA1
:1000B000B89A8FEF84BB7894579A8CE18093DF00D5
:1000C0000091E00041E0040FA1EEB0E00C9300913C
:1000D000DF004091E000040FA2EEB0E00C937091BD
:1000E0003E01777F70933E0170913E017F7D70935A
:1000F0003E019298EDE8F0E0A0E1B0E00E94CD0969
:10010000003018F011F00C9487000C94B100EDE869
:10011000F0E0A0E1BB2780E08C937BE70E94BC0964
:1001200081E08093D8000091D8000C3118F011F0D4
:100130000C94B100E8EDF0E0A190BB24EFE6F0E014
:10014000EA0DFB1DA0E1BB2780E08C937BE70E94BA
:10015000BC09A8EDB0E08C918F5F8C9310F40C94E7
:100160009300A1E6B0E08C9183FB16F00C9416018D
:1001700081E08093D8004091DF000091D8000417FF
:1001800018F011F00C941601A8EDB0E0AD90BB246E
:10019000A2EEB0E0AA0DBB1D0C91013011F00C9441
:1001A0000E01A8EDB0E0AD90BB24ADEFB0E0AA0C1D
:1001B000BB1CAA0DBB1D0E947F09E1E0F0E00E947C
:1001C0009809A8EDB0E0AD90BB24ADEFB0E0AA0C6B
:1001D000BB1CAA0DBB1D0D911C91083750E01507E3
:1001E00011F00C940E0180E090E0AFEFB0E08D9341
:1001F0009C9370916100777F7093610080E0A8ED1F
:10020000B0E0AD90BB24A1E6B0E0AA0DBB1D8C937D
:100210008091D8008093D9000E94F103A8EDB0E04E
:100220008C918F5F8C9310F40C94BB00B79B0C9453
:10023000490180E08093600084E690E00E94A70975
:10024000A0E6B0E08C918F5F8C93009160000E313E
:1002500018F011F00C942E010C9432010E944D0103
:100260000C943501B7990C941C01009160000A3080
:1002700010F00C94490183E08093D4000E9466033F
:10028000E1E0F0E00E94980981E08093D4000E94B0
:1002900066030C94B1000E94B10080E08093DA0004
:1002A0009298E3E0F0E00E94980970916100706814
:1002B000709361000091D600043B81E009F080E07A
:1002C0008F930091D700003080E010F009F081E0BA
:1002D0009F9189238F930091D700043681E008F025
:1002E00080E09F918923882311F40C94FE02709181
:1002F00061007F7B70936100AAEDB0E0AD90BB24FC
:10030000ADE7B0E0AA0DBB1D0C91043680E010F003
:1003100009F081E08F93AAEDB0E0AD90BB24ADE78A
:10032000B0E0AA0DBB1D0C91003081E009F080E027
:100330009F91892B882311F40C94B0018091D700F0
:10034000AAEDB0E0AD90BB24ADE7B0E0AA0DBB1DB7
:100350008C93709161007064709361000C944A02F8
:10036000AAEDB0E0AD90BB24A9E9B0E0AA0DBB1D99
:100370000C91043680E010F009F081E08F93AAED33
:10038000B0E0AD90BB24A9E9B0E0AA0DBB1D0C9173
:10039000003081E009F080E09F91892B882311F4DF
:1003A0000C94F3014091D700AAEDB0E0AD90BB24CE
:1003B000ADE7B0E0AA0DBB1D0C91041711F40C942D
:1003C000F1018091D700AAEDB0E0AD90BB24A9E97E
:1003D000B0E0AA0DBB1D8C937091610070647093A6
:1003E00061000C944A02AAEDB0E0AD90BB24A5EBED
:1003F000B0E0AA0DBB1D0C91043680E010F009F0AE
:1004000081E08F93AAEDB0E0AD90BB24A5EBB0E006
:10041000AA0DBB1D0C91003081E009F080E09F9196
:10042000892B882311F40C944A024091D700AAED3D
:10043000B0E0AD90BB24ADE7B0E0AA0DBB1D0C91C0
:10044000041781E009F480E08F934091D700AAED72
:10045000B0E0AD90BB24A9E9B0E0AA0DBB1D0C91A2
:10046000041781E009F480E09F918923882311F427
:100470000C944A028091D700AAEDB0E0AD90BB2465
:10048000A5EBB0E0AA0DBB1D8C9370916100706468
:1004900070936100A1E6B0E08C9186FB16F00C949D
:1004A000F80281E08093D8000091D800083018F05D
:1004B00011F00C94F8020091DA00013011F00C9464
:1004C000670282B398E0892782BB0C94AB020230AA
:1004D00011F00C94710282B390E1892782BB0C94D5
:1004E000AB02033011F00C947B0282B390E28927B7
:1004F00082BB0C94AB02043011F00C94850282B3E1
:1005000090E4892782BB0C94AB02053011F00C9467
:100510008F0285B394E0892785BB0C94AB0206302B
:1005200011F00C94990285B392E0892785BB0C9455
:10053000AB02073011F00C94A30285B391E0892738
:1005400085BB0C94AB02083011F00C94AB0282B363
:1005500090E8892782BBE8EDF0E0A190BB24EBE1B5
:10056000F0E0EA0DFB1DA8EDB0E0AD90BB24ADE7D7
:10057000B0E0AA0DBB1D7BE70E94BC0984E090E0BF
:100580000E94A709E8EDF0E0A190BB24E7E3F0E0CA
:10059000EA0DFB1DA8EDB0E0AD90BB24A9E9B0E0E9
:1005A000AA0DBB1D7BE70E94BC0984E090E00E947D
:1005B000A709E8EDF0E0A190BB24E3E5F0E0EA0D47
:1005C000FB1DA8EDB0E0AD90BB24A5EBB0E0AA0DFB
:1005D000BB1D7BE70E94BC098AEF90E00E94A7093F
:1005E000A8EDB0E08C918F5F8C9310F40C945402C2
:1005F00080E08093D60080E08093D700B7990C9478
:100600000F0382E390E00E94A709B7990C940F03AF
:10061000709161007F77709361000C9411030C94CA
:100620005A0181E08093D8000091D800083018F07A
:1006300011F00C94270388EC90E00E94A709A8ED24
:10064000B0E08C918F5F8C9310F40C941403709134
:1006500061007F77709361000895089500914101D2
:100660000C3F11F00C94390386EE809342010C94F8
:10067000420300914101023F11F00C9442038CEDC2
:1006800080934201929A81E090E00E94A70931E0B4
:10069000A1E4B1E00E948F0931E0A5EDB0E00E9435
:1006A0008F0931E0A6EDB0E00E948F0931E0A7ED9F
:1006B000B0E00E948F0931E0A2E4B1E00E948F090E
:1006C0008EE190E00E94A709929808950091D400CD
:1006D000013011F00C94900381E08093D9000091D7
:1006E000D9000C3118F011F00C948E0380E0A9EDC4
:1006F000B0E0AD90BB24A1E6B0E0AA0DBB1D8C9389
:100700000E94F10388EC90E00E94A709A9EDB0E0F7
:100710008C918F5F8C9310F40C946F030C94F00306
:10072000023011F00C94BC0381E08093D900009159
:10073000D9000C3118F011F00C94BA03E9EDF0E097
:10074000A190BB24EFE6F0E0EA0DFB1DA9EDB0E0BF
:10075000AD90BB24A1E6B0E0AA0DBB1D0E94CD095F
:100760000E94F103A9EDB0E08C918F5F8C9310F49F
:100770000C9497030C94F003033011F00C94E403F1
:1007800081E08093D9000091D9000C3118F011F06C
:100790000C94E20381E0A9EDB0E0AD90BB24A1E6AA
:1007A000B0E0AA0DBB1D8C930E94F10388EC90E091
:1007B0000E94A709A9EDB0E08C918F5F8C9310F493
:1007C0000C94C3030C94F003043011F00C94F00368
:1007D00070E07BBB70E078BB70E075BB70E072BB13
:1007E00008950091D400023011F00C940A04E9ED50
:1007F000F0E0A190BB24EFE6F0E0EA0DFB1DA9EDCF
:10080000B0E0AD90BB24A1E6B0E0AA0DBB1D7BE734
:100810000E94BC090091D900013011F00C941B0416
:10082000A2E6B0E08C9180FBA2E3B0E08C9183F96A
:100830008C930C94AE05023011F00C942A04A3E6BC
:10084000B0E08C9180FBA2E3B0E08C9184F98C93B2
:100850000C94AE05033011F00C943904A4E6B0E01A
:100860008C9180FBA2E3B0E08C9185F98C930C9481
:10087000AE05043011F00C944804A5E6B0E08C916C
:1008800080FBA2E3B0E08C9186F98C930C94AE05CA
:10089000053011F00C945704A6E6B0E08C9180FB73
:1008A000A5E3B0E08C9182F98C930C94AE050630F0
:1008B00011F00C946604A7E6B0E08C9180FBA5E3F0
:1008C000B0E08C9181F98C930C94AE05073011F057
:1008D0000C947504A8E6B0E08C9180FBA5E3B0E031
:1008E0008C9180F98C930C94AE05083011F00C9427
:1008F0008404A9E6B0E08C9180FBA2E3B0E08C9187
:1009000087F98C930C94AE05093011F00C94930484
:10091000AAE6B0E08C9180FBA5E3B0E08C9183F96E
:100920008C930C94AE050A3011F00C94A204ABE643
:10093000B0E08C9180FBA5E3B0E08C9184F98C93BE
:100940000C94AE050B3011F00C94B104ACE6B0E0A1
:100950008C9180FBA5E3B0E08C9185F98C930C948D
:10096000AE050C3011F00C94C004ADE6B0E08C91F3
:1009700080FBA5E3B0E08C9186F98C930C94AE05D6
:100980000D3011F00C94CF04AEE6B0E08C9180FBFA
:10099000ABE3B0E08C9185F98C930C94AE050E30EE
:1009A00011F00C94DE04AFE6B0E08C9180FBABE379
:1009B000B0E08C9186F98C930C94AE050F3011F059
:1009C0000C94ED04A0E7B0E08C9180FBABE3B0E0C9
:1009D0008C9187F98C930C94AE05003111F00C9436
:1009E000FC04A1E7B0E08C9180FBA5E3B0E08C9122
:1009F00087F98C930C94AE05013111F00C940B0522
:100A0000A2E7B0E08C9180FBABE3B0E08C9184F97D
:100A10008C930C94AE05023111F00C941A05A3E7E7
:100A2000B0E08C9180FBABE3B0E08C9183F98C93C8
:100A30000C94AE05033111F00C942905A4E7B0E045
:100A40008C9180FBABE3B0E08C9182F98C930C9499
:100A5000AE05043111F00C943805A5E7B0E08C9197
:100A600080FBABE3B0E08C9181F98C930C94AE05E4
:100A7000053111F00C944705A6E7B0E08C9180FB9E
:100A8000A8E3B0E08C9182F98C930C94AE0506310A
:100A900011F00C945605A7E7B0E08C9180FBA8E319
:100AA000B0E08C9181F98C930C94AE05073111F074
:100AB0000C946505A8E7B0E08C9180FBA8E3B0E05A
:100AC0008C9180F98C930C94AE05083111F00C9444
:100AD0007405A9E7B0E08C9180FBABE3B0E08C91AA
:100AE00080F98C930C94AE05093111F00C948305B8
:100AF000AAE7B0E08C9180FBA8E3B0E08C9183F989
:100B00008C930C94AE050A3111F00C949205ABE76E
:100B1000B0E08C9180FBA8E3B0E08C9184F98C93D9
:100B20000C94AE050B3111F00C94A105ACE7B0E0CC
:100B30008C9180FBA8E3B0E08C9185F98C930C94A8
:100B4000AE050C3111F00C94AE05ADE7B0E08C9120
:100B500080FBA8E3B0E08C9186F98C930895009116
:100B6000D600073911F00C940F06A1E6B0E08C9185
:100B700087FB16F00C940D06AAEDB0E08C918F5F08
:100B80008C939398949895989698AA98A998A898D1
:100B900097980091DA00083018F011F00C94D20503
:100BA0000C94D50581E08093DA000091DA000130E1
:100BB00011F00C94DE05939A0C940D06023011F09E
:100BC0000C94E505949A0C940D06033011F00C94E6
:100BD000EC05959A0C940D06043011F00C94F30575
:100BE000969A0C940D06053011F00C94FA05AA9A09
:100BF0000C940D06063011F00C940106A99A0C9481
:100C00000D06073011F00C940806A89A0C940D06F6
:100C1000083011F00C940D06979A0C94CE080E39FA
:100C200011F00C94B00681E08093D8004091DF0071
:100C30000091D800041718F011F00C94AE06E8EDFE
:100C4000F0E0A190BB24EBE1F0E0EA0DFB1DA0E198
:100C5000BB2780E08C937BE70E94BC0982E090E098
:100C60000E94A709E8EDF0E0A190BB24E7E3F0E0E3
:100C7000EA0DFB1DA0E1BB2780E08C937BE70E947F
:100C8000BC0982E090E00E94A709E8EDF0E0A190A5
:100C9000BB24E3E5F0E0EA0DFB1DA0E1BB2780E00B
:100CA0008C937BE70E94BC0982E090E00E94A70938
:100CB000E8EDF0E0A190BB24EFEFFFEFEA0DFB1DA4
:100CC000A0E1BB2780E08C937BE70E94BC0982E017
:100CD00090E00E94A709E8EDF0E0A190BB24EFE6C8
:100CE000F0E0EA0DFB1DA0E1BB2780E08C937BE7E1
:100CF0000E94BC0982E090E00E94A709ECE8F0E0C5
:100D0000A0E1BB2780E08C937BE70E94BC0982E0D6
:100D100090E00E94A70981E08093D9004091DF0014
:100D20000091D900041718F011F00C94A1060E944C
:100D3000F103A9EDB0E08C918F5F8C9310F40C94CB
:100D40008E0684E08093D4000E946603A8EDB0E094
:100D50008C918F5F8C9310F40C9416060C94CE0833
:100D60000F3911F00C9410074091E1000091D70069
:100D7000041781E008F480E08F934091E200009135
:100D8000D700041781E010F009F080E09F918923DB
:100D9000882311F40C940E0781E08093D8004091D1
:100DA000DF000091D800041718F011F00C940E0722
:100DB0004091D700E8EDF0E0A190BB24EBE1F0E03A
:100DC000EA0DFB1DA0E1B0E00E94CD09041711F06F
:100DD0000C94060770916100786070936100A8ED33
:100DE000B0E0AD90BB24A1E6B0E0AA0DBB1D0C9114
:100DF000003011F00C94060781E0A8EDB0E0AD9052
:100E0000BB24A2EEB0E0AA0DBB1D8C93A8EDB0E010
:100E10008C918F5F8C9310F40C94CF060C94CE08B9
:100E2000003A11F00C9416070C94CE08043B11F014
:100E30000C94B5070091D700003080E010F009F065
:100E400081E08F930091D700043681E008F080E0C4
:100E50009F918923882311F40C94B30781E0809338
:100E6000D8004091DF000091D800041718F011F06D
:100E70000C94B3074091D700E8EDF0E0A190BB24BB
:100E8000EBE1F0E0EA0DFB1DA0E1B0E00E94CD092E
:100E9000041781E009F080E08F934091D700E8EDDE
:100EA000F0E0A190BB24E7E3F0E0EA0DFB1DA0E138
:100EB000B0E00E94CD09041781E009F080E09F9125
:100EC000892B8F934091D700E8EDF0E0A190BB24EF
:100ED000E3E5F0E0EA0DFB1DA0E1B0E00E94CD09E2
:100EE000041781E009F080E09F91892B882311F499
:100EF0000C94AB0770916100777F709361008091D3
:100F0000D8008093D90082E08093D400A9EDB0E0AE
:100F1000AD90BB24A1E6B0E0AA0DBB1D0C91013041
:100F200011F00C949F0780E0A9EDB0E0AD90BB24D8
:100F3000A1E6B0E0AA0DBB1D8C930C94A90781E03B
:100F4000A9EDB0E0AD90BB24A1E6B0E0AA0DBB1DB9
:100F50008C930E94F103A8EDB0E08C918F5F8C938D
:100F600010F40C9431070C94CE08053B11F00C944E
:100F70003B080091D700003080E010F009F081E0DC
:100F80008F930091D700043681E008F080E09F91B4
:100F90008923882311F40C94390881E08093D800C8
:100FA0004091DF000091D800041718F011F00C9464
:100FB00039084091D700E8EDF0E0A190BB24EBE1C7
:100FC000F0E0EA0DFB1DA0E1B0E00E94CD0904179E
:100FD00081E009F080E08F934091D700E8EDF0E0E8
:100FE000A190BB24E7E3F0E0EA0DFB1DA0E1B0E037
:100FF0000E94CD09041781E009F080E09F91892BC0
:101000008F934091D700E8EDF0E0A190BB24E3E599
:10101000F0E0EA0DFB1DA0E1B0E00E94CD0904174D
:1010200081E009F080E09F91892B882311F40C94D2
:10103000310870916100777F709361008091D800D2
:101040008093D90082E08093D40080E0A9EDB0E0E5
:10105000AD90BB24A1E6B0E0AA0DBB1D8C930E940D
:10106000F103A8EDB0E08C918F5F8C9310F40C9499
:10107000D0070C94CE08063B11F00C94C1080091E7
:10108000D700003080E010F009F081E08F930091EC
:10109000D700043681E008F080E09F9189238823FF
:1010A00011F40C94BF0881E08093D8004091DF00D8
:1010B0000091D800041718F011F00C94BF0840916B
:1010C000D700E8EDF0E0A190BB24EBE1F0E0EA0D01
:1010D000FB1DA0E1B0E00E94CD09041781E009F0FA
:1010E00080E08F934091D700E8EDF0E0A190BB2421
:1010F000E7E3F0E0EA0DFB1DA0E1B0E00E94CD09BE
:10110000041781E009F080E09F91892B8F93409133
:10111000D700E8EDF0E0A190BB24E3E5F0E0EA0DB4
:10112000FB1DA0E1B0E00E94CD09041781E009F0A9
:1011300080E09F91892B882311F40C94B70870915B
:101140006100777F709361008091D8008093D9000F
:1011500082E08093D40081E0A9EDB0E0AD90BB24A3
:10116000A1E6B0E0AA0DBB1D8C930E94F103A8ED8F
:10117000B0E08C918F5F8C9310F40C9456080C9413
:10118000CE08073B11F00C94CE0870913E017860B8
:1011900070933E018091D7008093400108950F9293
:1011A0001F922F923F924F925F927F92AF92BF9287
:1011B0000F931F932F933F934F935F936F937F935F
:1011C0008F939F93AF93BF93CF93DF93EF93FF934F
:1011D0008FB78F93A8EDB0E08C918F5F8C9331E047
:1011E000ABEDB0E00E9486090091D800053081E0A7
:1011F00009F080E08F930091DB00023D81E009F06F
:1012000080E09F918923882311F40C940C0970913C
:101210003E01706270933E010091DB00083E11F0C8
:101220000C94150981E08093D8008091DB00A8ED33
:10123000B0E0AD90BB24A7E3B1E0AA0DBB1D8C9339
:10124000AEE3B1E08C9185FB16F00C9461098091BE
:1012500039018093D5000091D500053681E009F071
:1012600080E08F930091D500083681E009F080E09E
:101270009F91892B8F930091D5000E3681E009F064
:1012800080E09F91892B882311F40C94590988B32D
:1012900091E0892788BB809139018093D5008091A6
:1012A0003A018093D60080913B018093D7000E9441
:1012B000AF0580E08093D80070913E017F7D7093F0
:1012C0003E018F918FBFFF91EF91DF91CF91BF9141
:1012D000AF919F918F917F916F915F914F913F91CE
:1012E0002F911F910F91BF90AF907F905F904F9083
:1012F0003F902F901F900F901895F894FFCFED918D
:10130000FC91EF5FFF4FFC93EE93089504D08D9313
:101310003A95E1F708955F9BFECF8CB108958D91CA
:1013200003D03A95E1F708955D9BFECF8CB90895FF
:1013300088EE93E00CD03197D9F708953197F1F703
:101340000895689462F80895E89462F80895EF9318
:10135000FF93EE27E82BE92B31F0EDECFAE0319723
:10136000F1F70197D1F7FF91EF910895E199FECF41
:10137000EEBBFFBB3196089591E001C092E07B3750
:1013800051F47FB7F894F2DF8D918DBBE29AE19A28
:101390009A95C9F77FBF7727089591E001C092E041
:0E13A000E5DFE09A8DB38D939A95D1F708950D
:00000001FF
