:1000000012C0189518951895189518951895189563
:1000100018951895189565C81895189518951895F8
:100020001895189518958FE58DBFC8E3E0E24E2E20
:1000300084E08EBFD4E0F4E05F2EA89584B7082E4C
:10004000877F84BF88E1992781BD91BDEEEFF3E002
:10005000A0E6B0E088278D933197E9F787E489B966
:1000600080E080BD88E18AB966248E9AA49AA59A18
:100070008B9A8C9AA39AA29AA19AA09A8D988A9AFE
:10008000B89A7894579A88E08093920000919300F0
:1000900041E0040FA4E9B0E00C930091920040917C
:1000A0009300040FA5E9B0E00C937091B500777F41
:1000B0007093B5007091B5007F7D7093B5009298F4
:1000C000E9E2F0E0A0E1B0E010D9003010F009F072
:1000D00001C026C0E9E2F0E0A0E1BB2780E08C93FC
:1000E0007BE7F2D881E080938B0000918B00083091
:1000F00010F009F015C0EBE8F0E0A190BB24EFE1AF
:10010000F0E0EA0DFB1DA0E1BB2780E08C937BE7CC
:10011000DBD8ABE8B0E08C918F5F8C9308F4E5CF2F
:10012000A8E6B0E08C9183FB0EF062C081E0809382
:100130008B004091920000918B00041710F009F0A1
:1001400057C0ABE8B0E0AD90BB24A5E9B0E0AA0D84
:10015000BB1D0C91013009F044C0ABE8B0E0AD909C
:10016000BB24ACE9B0E0AA0CBB1CAA0DBB1D5FD838
:10017000E1E0F0E075D8ABE8B0E0AD90BB24ACE9CD
:10018000B0E0AA0CBB1CAA0DBB1D0D911C91083739
:1001900050E0150709F025C080E090E0ABE8B0E042
:1001A000AD90BB24ACE9B0E0AA0CBB1CAA0DBB1DF2
:1001B0008D939C9370916800777F70936800E894AA
:1001C00080918B00A9E6B0E073D868D80C9016F047
:1001D000092201C0082A0C9280918B0080938C0028
:1001E0001AD4ABE8B0E08C918F5F8C9308F4A1CF68
:1001F000EF93FF93E1E1F1E039D8FF91EF91A0E6B1
:10020000B0E015D8A0E6B0E00D911C9100325EE49C
:10021000150709F00AC080E090E0A0E6B0E08D93F9
:100220009C9382B390E4892782BB859945C08EE177
:1002300090E025D8859940C0882783BF80E08093CF
:10024000630082E390E01BD8A3E6B0E08C918F5F5F
:100250008C9300916300003508F011C00091630099
:100260004AE04DD8A4E6B0E08C93009164000030E1
:1002700009F004C088B391E0892788BB10C00091C1
:10028000630045E03CD8A4E6B0E08C9300916400A4
:10029000003009F004C088B391E0892788BB859BB2
:1002A000D0CFC09800916300003508F002C006D09E
:1002B00001C077D280E083BF33CF32DF80E080930C
:1002C0008D009298C09AE3E0F0E0CAD7C098709190
:1002D0006800706870936800A5E6B0E0A8D7EF9357
:1002E000FF93E8E1F0E0C2D7FF91EF91A5E6B0E01F
:1002F0000D911C91003157E2150709F00AC080E00A
:1003000090E0A5E6B0E08D939C9382B390E48927BA
:1003100082BB00918A00003080E010F009F081E09B
:100320008F9300918A00043681E008F080E09F916D
:1003300089238F9300918900033B80E010F009F03E
:1003400081E09F9189238F9300918900073B81E091
:1003500008F080E09F918923882309F47BC1709184
:1003600068007F7B70936800ADE8B0E0AD90BB247F
:10037000ACE6B0E0AA0DBB1D0C91043680E010F095
:1003800009F081E08F93ADE8B0E0AD90BB24ACE61E
:10039000B0E0AA0DBB1D0C91003081E009F080E0B7
:1003A0009F91892B882309F411C080918A00ADE8C0
:1003B000B0E0AD90BB24ACE6B0E0AA0DBB1D8C93C1
:1003C0007091680070647093680095C0ADE8B0E00B
:1003D000AD90BB24A4E7B0E0AA0DBB1D0C91043680
:1003E00080E010F009F081E08F93ADE8B0E0AD90CF
:1003F000BB24A4E7B0E0AA0DBB1D0C91003081E046
:1004000009F080E09F91892B882309F41FC0409157
:100410008A00ADE8B0E0AD90BB24ACE6B0E0AA0D38
:10042000BB1D0C91041709F410C080918A00ADE83F
:10043000B0E0AD90BB24A4E7B0E0AA0DBB1D8C9347
:100440007091680070647093680055C0ADE8B0E0CA
:10045000AD90BB24ACE7B0E0AA0DBB1D0C910436F7
:1004600080E010F009F081E08F93ADE8B0E0AD904E
:10047000BB24ACE7B0E0AA0DBB1D0C91003081E0BD
:1004800009F080E09F91892B882309F434C04091C2
:100490008A00ADE8B0E0AD90BB24ACE6B0E0AA0DB8
:1004A000BB1D0C91041781E009F480E08F9340910B
:1004B0008A00ADE8B0E0AD90BB24A4E7B0E0AA0D9F
:1004C000BB1D0C91041781E009F480E09F91892302
:1004D000882309F410C080918A00ADE8B0E0AD90A7
:1004E000BB24ACE7B0E0AA0DBB1D8C9370916800F3
:1004F000706470936800A8E6B0E08C9186FB0EF003
:10050000A3C081E080938B0000918B00083010F035
:1005100009F04BC000918D00013009F005C085B392
:1005200090E1892785BB37C0023009F005C085B34B
:1005300090E2892785BB2FC0033009F005C082B344
:1005400098E0892782BB27C0043009F005C082B338
:1005500090E1892782BB1FC0053009F005C085B333
:1005600098E0892785BB17C0063009F005C085B320
:1005700094E0892785BB0FC0073009F005C085B31B
:1005800092E0892785BB07C0083009F004C085B315
:1005900091E0892785BB8AEF90E071D6ABE8B0E0A7
:1005A0008C918F5F8C9308F4AFCF81E080938B00A8
:1005B00000918B00083010F009F046C0EBE8F0E045
:1005C000A190BB24E7E0F0E0EA0DFB1DABE8B0E052
:1005D000AD90BB24ACE6B0E0AA0DBB1D7BE774D6A2
:1005E00084E090E04CD6EBE8F0E0A190BB24EFE093
:1005F000F0E0EA0DFB1DABE8B0E0AD90BB24A4E752
:10060000B0E0AA0DBB1D7BE75FD684E090E037D653
:10061000EBE8F0E0A190BB24E7E1F0E0EA0DFB1D80
:10062000ABE8B0E0AD90BB24ACE7B0E0AA0DBB1DD9
:100630007BE74AD684E090E022D6ABE8B0E08C912C
:100640008F5F8C9308F4B4CF80E08093890080E0C2
:1006500080938A00859945C08EE190E010D68599F7
:1006600040C0882783BF80E08093630082E390E0EE
:1006700006D6A3E6B0E08C918F5F8C930091630067
:10068000003508F011C0009163004AE038D6A4E6B6
:10069000B0E08C9300916400003009F004C088B38E
:1006A00091E0892788BB10C00091630045E027D600
:1006B000A4E6B0E08C9300916400003009F004C01F
:1006C00088B391E0892788BB859BD0CFC0980091E3
:1006D0006300003508F002C023D001C003C080E0F1
:1006E00083BFFACD81E080938B0000918B000430B2
:1006F00010F009F00EC088B391E0892788BB84EF21
:1007000091E0BDD5ABE8B0E08C918F5F8C9308F49D
:10071000ECCF709168007F7770936800089508951A
:10072000ADE8B0E08C918F5F8C93AC98AD989398C6
:100730009498AB98AA98A998A89800918D00083031
:1007400010F009F001C003C081E080938D0000919A
:100750008D00013009F002C0AC9A22C0023009F0CD
:1007600002C0AD9A1DC0033009F002C0939A18C0B0
:10077000043009F002C0949A13C0053009F002C099
:10078000AB9A0EC0063009F002C0AA9A09C0073021
:1007900009F002C0A99A04C0083009F001C0A89A63
:1007A000089581E080938B004091920000918B002E
:1007B000041710F009F06BC0EBE8F0E0A190BB2447
:1007C000E7E0F0E0EA0DFB1DA0E1BB2780E08C93A1
:1007D0007BE77AD584E090E052D5EBE8F0E0A19099
:1007E000BB24EFE0F0E0EA0DFB1DA0E1BB2780E0B9
:1007F0008C937BE769D584E090E041D5EBE8F0E0AD
:10080000A190BB24E7E1F0E0EA0DFB1DA0E1BB27CE
:1008100080E08C937BE758D584E090E030D5EBE81E
:10082000F0E0A190BB24EFEFFFEFEA0DFB1DA0E18C
:10083000BB2780E08C937BE747D584E090E01FD511
:10084000EBE8F0E0A190BB24EFE1F0E0EA0DFB1D46
:10085000A0E1BB2780E08C937BE736D584E090E075
:100860000ED5E8E2F0E0A0E1BB2780E08C937BE7C7
:100870002BD586E990E003D588B391E0892788BB22
:10088000ABE8B0E08C918F5F8C9308F48DCFC0986B
:1008900008950091B8000C3F09F004C086EE8093E3
:1008A000B90008C00091B800023F09F003C08CED08
:1008B0008093B900929A81E090E0E1D431E0A8EB16
:1008C000B0E0C5D431E0A8E8B0E0C1D431E0A9E897
:1008D000B0E0BDD431E0AAE8B0E0B9D431E0A9EB92
:1008E000B0E0B5D48EE190E0CAD49298089500911A
:1008F0008700013009F022C081E080938C000091D4
:100900008C00083010F009F018C0E89480918C0039
:10091000A9E6B0E0CDD4C2D40C9016F0092201C0F3
:10092000082A0C9278D088EC90E0A9D4ACE8B0E02A
:100930008C918F5F8C9308F4E2CF6CC0023009F089
:100940003BC081E080938C0000918C00083010F057
:1009500009F031C0ECE8F0E0A190BB24EFE1F0E059
:10096000EA0DFB1DA0E1B0E0C0D4013009F00EC0DB
:10097000689480918C00A9E6B0E09AD48FD40C9052
:1009800016F0092201C0082A0C920DC0E89480914B
:100990008C00A9E6B0E08CD481D40C9016F009222A
:1009A00001C0082A0C9237D0ACE8B0E08C918F5F80
:1009B0008C9308F4C9CF2EC0033009F022C081E027
:1009C00080938C0000918C00083010F009F018C062
:1009D000689480918C00A9E6B0E06AD45FD40C9052
:1009E00016F0092201C0082A0C9215D088EC90E07C
:1009F00046D4ACE8B0E08C918F5F8C9308F4E2CFE2
:100A000009C0043009F006C070E078BB70E075BB27
:100A100070E072BB089500918700023009F02AC08F
:100A200080918C00A9E6B0E043D438D40C90082221
:100A3000689409F4E8940EF00FC0ECE8F0E0A1909F
:100A4000BB24EFE1F0E0EA0DFB1DA0E1BB2781E054
:100A50008C937BE739D40EC0ECE8F0E0A190BB2486
:100A6000EFE1F0E0EA0DFB1DA0E1BB2780E08C93F5
:100A70007BE72AD400918C00013009F00AC0A9E676
:100A8000B0E08C9181FBA5E3B0E08C9184F98C936C
:100A90005AC0023009F00AC0A9E6B0E08C9182FB8E
:100AA000A5E3B0E08C9185F98C934DC0033009F03B
:100AB0000AC0A9E6B0E08C9183FBA2E3B0E08C9180
:100AC00083F98C9340C0043009F00AC0A9E6B0E075
:100AD0008C9184FBA2E3B0E08C9184F98C9333C0B9
:100AE000053009F00AC0A9E6B0E08C9185FBA5E3CA
:100AF000B0E08C9183F98C9326C0063009F00AC0CF
:100B0000A9E6B0E08C9186FBA5E3B0E08C9182F978
:100B10008C9319C0073009F00AC0A9E6B0E08C91A7
:100B200087FBA5E3B0E08C9181F98C930CC0083071
:100B300009F009C0AAE6B0E08C9180FBA5E3B0E023
:100B40008C9180F98C93089588B391E0892788BBB4
:100B500000918900073909F047C0A8E6B0E08C9100
:100B600087FB0EF040C0ADE8B0E08C918F5F8C93B6
:100B7000AC98AD9893989498AB98AA98A998A8988F
:100B800000918D00083010F009F001C003C081E031
:100B900080938D0000918D00013009F002C0AC9A65
:100BA00022C0023009F002C0AD9A1DC0033009F026
:100BB00002C0939A18C0043009F002C0949A13C07E
:100BC000053009F002C0AB9A0EC0063009F002C031
:100BD000AA9A09C0073009F002C0A99A04C00830D7
:100BE00009F001C0A89A7CC20E3909F078C081E0F2
:100BF00080938B004091920000918B00041710F0BD
:100C000009F06BC0EBE8F0E0A190BB24E7E0F0E076
:100C1000EA0DFB1DA0E1BB2780E08C937BE754D35A
:100C200084E090E02CD3EBE8F0E0A190BB24EFE06F
:100C3000F0E0EA0DFB1DA0E1BB2780E08C937BE791
:100C400043D384E090E01BD3EBE8F0E0A190BB2419
:100C5000E7E1F0E0EA0DFB1DA0E1BB2780E08C930B
:100C60007BE732D384E090E00AD3EBE8F0E0A19098
:100C7000BB24EFEFFFEFEA0DFB1DA0E1BB2780E0F7
:100C80008C937BE721D384E090E0F9D2EBE8F0E0AD
:100C9000A190BB24EFE1F0E0EA0DFB1DA0E1BB2732
:100CA00080E08C937BE710D384E090E0E8D2E8E228
:100CB000F0E0A0E1BB2780E08C937BE705D386E9D9
:100CC00090E0DDD288B391E0892788BBABE8B0E043
:100CD0008C918F5F8C9308F48DCFC09801C20F392F
:100CE00009F056C04091940000918A00041781E0F9
:100CF00008F480E08F934091950000918A000417DA
:100D000081E010F009F080E09F918923882309F4A5
:100D10003EC081E080938B004091920000918B0057
:100D2000041710F009F033C040918A00EBE8F0E0BE
:100D3000A190BB24E7E0F0E0EA0DFB1DA0E1B0E0EC
:100D4000D4D2041709F01CC07091680078607093C9
:100D5000680080918B00A9E6B0E0AAD29FD20C90E7
:100D60000822689409F4E8940EF40AC081E0ABE824
:100D7000B0E0AD90BB24A5E9B0E0AA0DBB1D8C93FB
:100D8000ABE8B0E08C918F5F8C9308F4C5CFA8C11D
:100D9000003A09F001C0A4C1043B09F097C00091DA
:100DA0008A00003080E010F009F081E08F9300911C
:100DB0008A00043681E008F080E09F91892388232F
:100DC00009F483C081E080938B00409192000091F0
:100DD0008B00041710F009F078C040918A00EBE80E
:100DE000F0E0A190BB24E7E0F0E0EA0DFB1DA0E1FC
:100DF000B0E07BD2041781E009F080E08F9340914E
:100E00008A00EBE8F0E0A190BB24EFE0F0E0EA0D0F
:100E1000FB1DA0E1B0E069D2041781E009F080E099
:100E20009F91892B8F9340918A00EBE8F0E0A1908D
:100E3000BB24E7E1F0E0EA0DFB1DA0E1B0E055D2F4
:100E4000041781E009F080E09F91892B882309F441
:100E500035C070916800777F7093680080918B0037
:100E600080938C0082E08093870080918C00A9E6BB
:100E7000B0E01ED213D20C900822689409F4E894D2
:100E80000EF00EC0E89480918C00A9E6B0E010D27C
:100E900005D20C9016F0092201C0082A0C920DC050
:100EA000689480918C00A9E6B0E002D2F7D10C9052
:100EB00016F0092201C0082A0C92ADDDABE8B0E0C3
:100EC0008C918F5F8C9308F480CF0AC1053B09F0A9
:100ED0007CC000918A00003080E010F009F081E0D1
:100EE0008F9300918A00043681E008F080E09F91A2
:100EF0008923882309F468C081E080938B004091A6
:100F0000920000918B00041710F009F05DC0409131
:100F10008A00EBE8F0E0A190BB24E7E0F0E0EA0D06
:100F2000FB1DA0E1B0E0E1D1041781E009F080E011
:100F30008F9340918A00EBE8F0E0A190BB24EFE0B2
:100F4000F0E0EA0DFB1DA0E1B0E0CFD1041781E095
:100F500009F080E09F91892B8F9340918A00EBE804
:100F6000F0E0A190BB24E7E1F0E0EA0DFB1DA0E179
:100F7000B0E0BBD1041781E009F080E09F91892B9C
:100F8000882309F41AC070916800777F7093680015
:100F900080918B0080938C0082E080938700E8949E
:100FA00080918C00A9E6B0E083D178D10C9016F046
:100FB000092201C0082A0C922EDDABE8B0E08C912A
:100FC0008F5F8C9308F49BCF8BC0063B09F07CC0ED
:100FD00000918A00003080E010F009F081E08F93EA
:100FE00000918A00043681E008F080E09F91892317
:100FF000882309F468C081E080938B0040919200BF
:1010000000918B00041710F009F05DC040918A0038
:10101000EBE8F0E0A190BB24E7E0F0E0EA0DFB1D77
:10102000A0E1B0E062D1041781E009F080E08F9385
:1010300040918A00EBE8F0E0A190BB24EFE0F0E003
:10104000EA0DFB1DA0E1B0E050D1041781E009F0EA
:1010500080E09F91892B8F9340918A00EBE8F0E02C
:10106000A190BB24E7E1F0E0EA0DFB1DA0E1B0E0B8
:101070003CD1041781E009F080E09F91892B8823FF
:1010800009F41AC070916800777F709368008091AE
:101090008B0080938C0082E080938700689480911D
:1010A0008C00A9E6B0E004D1F9D00C9016F009222A
:1010B00001C0082A0C92AFDCABE8B0E08C918F5FE6
:1010C0008C9308F49BCF0CC0073B09F009C07091CA
:1010D000B50078607093B50080918A008093B70066
:1010E00008950F921F922F923F924F925F927F929C
:1010F000AF92BF920F931F932F933F934F935F93A2
:101100006F937F938F939F93AF93BF93CF93DF930F
:10111000EF93FF938FB78F93A2E6B0E08C918F5F30
:101120008C9331E0AEE8B0E089D0009162000530E8
:1011300081E009F080E08F9300918E00023D81E014
:1011400009F080E09F918923882309F405C07091FC
:10115000B50070627093B50000918E00083E09F0F2
:1011600003C081E08093620080918E00A2E6B0E02F
:10117000AD90BB24AEEAB0E0AA0DBB1D8C93A5EBED
:10118000B0E08C9185FB0EF034C08091B00080936C
:10119000880000918800053681E009F080E08F9397
:1011A00000918800083681E009F080E09F91892B4A
:1011B0008F93009188000E3681E009F080E09F91C6
:1011C000892B882309F40DC08091B000809388009A
:1011D0008091B100809389008091B20080938A0051
:1011E000B3DC80E0809362007091B5007F7D7093E6
:1011F000B5008F918FBFFF91EF91DF91CF91BF919C
:10120000AF919F918F917F916F915F914F913F919E
:101210002F911F910F91BF90AF907F905F904F9053
:101220003F902F901F900F901895F894FFCFED915D
:10123000FC91EF5FFF4FFC93EE93089504D08D93E4
:101240003A95E1F708955F9BFECF8CB108958D919B
:1012500003D03A95E1F708955D9BFECF8CB90895D0
:1012600088EE93E00CD03197D9F708953197F1F7D4
:101270000895689462F80895E89462F80895EF93E9
:10128000FF93EE27E82BE92B31F0EDECFAE03197F4
:10129000F1F70197D1F7FF91EF91089591E088233D
:1012A00021F08894991F8A95E9F7892F90950895E0
:1012B000883018F011968850FBCF0895E199FECF41
:1012C000EEBBFFBB3196089591E001C092E07B3701
:1012D00051F47FB7F894F2DF8D918DBBE29AE19AD9
:1012E0009A95C9F77FBF7727089591E001C092E0F2
:1012F000E5DFE09A8DB38D939A95D1F70895FF932A
:10130000881BF9E0001FFA9511F4FF910895881FDA
:0E131000841B18F4840F8894F5CF0894F3CF53
:00000001FF
