:1000000012C0189518951895189518951895189563
:10001000189518951895C3C718951895189518959B
:100020001895189518958FE58DBFC8E3E0E24E2E20
:1000300084E08EBFD4E0F4E05F2EA89584B7082E4C
:10004000877F84BF88E1992781BD91BDEEEFF3E002
:10005000A0E6B0E088278D933197E9F785E089B96C
:1000600080E080BD88E18AB966248E9AA49AA59A18
:100070008B9A8C9AA39AA29AA19AA09A8D988A9AFE
:10008000B89A7894579A88E08093900000919100F4
:1000900041E0040FA2E9B0E00C9300919000409180
:1000A0009100040FA3E9B0E00C937091B300777F47
:1000B0007093B3007091B3007F7D7093B3009298FA
:1000C000E9E2F0E0A0E1B0E06ED8003010F009F015
:1000D00001C026C0E9E2F0E0A0E1BB2780E08C93FC
:1000E0007BE750D881E08093890000918900083037
:1000F00010F009F015C0E9E8F0E0A190BB24EFE1B1
:10010000F0E0EA0DFB1DA0E1BB2780E08C937BE7CC
:1001100039D8A9E8B0E08C918F5F8C9308F4E5CFD3
:10012000A6E6B0E08C9183FB0EF062C081E0809384
:1001300089004091900000918900041710F009F0A7
:1001400057C0A9E8B0E0AD90BB24A3E9B0E0AA0D88
:10015000BB1D0C91013009F044C0A9E8B0E0AD909E
:10016000BB24AAE9B0E0AA0CBB1CAA0DBB1DBDD7DD
:10017000E1E0F0E0D3D7A9E8B0E0AD90BB24AAE974
:10018000B0E0AA0CBB1CAA0DBB1D0D911C91083739
:1001900050E0150709F025C080E090E0A9E8B0E044
:1001A000AD90BB24AAE9B0E0AA0CBB1CAA0DBB1DF4
:1001B0008D939C9370916600777F70936600E894AE
:1001C00080918900A7E6B0E0D1D7C6D70C9016F091
:1001D000092201C0082A0C928091890080938A002C
:1001E00078D3A9E8B0E08C918F5F8C9308F4A1CF0D
:1001F000859945C08EE190E0A0D7859940C08827B9
:1002000083BF80E08093610082E390E096D7A1E60F
:10021000B0E08C918F5F8C9300916100003508F005
:1002200011C0009161004AE0C8D7A2E6B0E08C930B
:1002300000916200003009F004C088B391E0892782
:1002400088BB10C00091610045E0B7D7A2E6B0E0DE
:100250008C9300916200003009F004C088B391E0F3
:10026000892788BB859BD0CFC0980091610000355D
:1002700008F002C006D001C0F2D180E083BF50CFA9
:100280004FDF80E080938B009298C09AE3E0F0E02B
:1002900045D7C09870916600706870936600A3E6B9
:1002A000B0E023D7EF93FF93E8E1F0E03DD7FF9173
:1002B000EF91A3E6B0E00D911C91003157E21507D4
:1002C00009F00AC080E090E0A3E6B0E08D939C9333
:1002D00082B390E4892782BB00918700043B81E0D0
:1002E00009F080E08F9300918800003080E010F0EA
:1002F00009F081E09F9189238F9300918800043653
:1003000081E008F080E09F918923882309F47BC174
:10031000709166007F7B70936600ABE8B0E0AD90B3
:10032000BB24AAE6B0E0AA0DBB1D0C91043680E008
:1003300010F009F081E08F93ABE8B0E0AD90BB2402
:10034000AAE6B0E0AA0DBB1D0C91003081E009F0D7
:1003500080E09F91892B882309F411C08091880047
:10036000ABE8B0E0AD90BB24AAE6B0E0AA0DBB1D9F
:100370008C937091660070647093660095C0ABE8D2
:10038000B0E0AD90BB24A2E7B0E0AA0DBB1D0C917C
:10039000043680E010F009F081E08F93ABE8B0E024
:1003A000AD90BB24A2E7B0E0AA0DBB1D0C910030BC
:1003B00081E009F080E09F91892B882309F41FC018
:1003C00040918800ABE8B0E0AD90BB24AAE6B0E075
:1003D000AA0DBB1D0C91041709F410C08091880070
:1003E000ABE8B0E0AD90BB24A2E7B0E0AA0DBB1D26
:1003F0008C937091660070647093660055C0ABE892
:10040000B0E0AD90BB24AAE7B0E0AA0DBB1D0C91F3
:10041000043680E010F009F081E08F93ABE8B0E0A3
:10042000AD90BB24AAE7B0E0AA0DBB1D0C91003033
:1004300081E009F080E09F91892B882309F434C082
:1004400040918800ABE8B0E0AD90BB24AAE6B0E0F4
:10045000AA0DBB1D0C91041781E009F480E08F9375
:1004600040918800ABE8B0E0AD90BB24A2E7B0E0DB
:10047000AA0DBB1D0C91041781E009F480E09F9147
:100480008923882309F410C080918800ABE8B0E08C
:10049000AD90BB24AAE7B0E0AA0DBB1D8C93709170
:1004A0006600706470936600A6E6B0E08C9186FBEF
:1004B0000EF0A3C081E0809389000091890008308C
:1004C00010F009F04BC000918B00013009F005C01D
:1004D00085B390E1892785BB37C0023009F005C09C
:1004E00085B390E2892785BB2FC0033009F005C092
:1004F00082B398E0892782BB27C0043009F005C089
:1005000082B390E1892782BB1FC0053009F005C086
:1005100085B398E0892785BB17C0063009F005C070
:1005200085B394E0892785BB0FC0073009F005C06B
:1005300085B392E0892785BB07C0083009F004C065
:1005400085B391E0892785BB8AEF90E0F6D5A9E8CD
:10055000B0E08C918F5F8C9308F4AFCF81E08093F3
:10056000890000918900083010F009F046C0E9E8E0
:10057000F0E0A190BB24E7E0F0E0EA0DFB1DA9E864
:10058000B0E0AD90BB24AAE6B0E0AA0DBB1D7BE7AE
:10059000F9D584E090E0D1D5E9E8F0E0A190BB2462
:1005A000EFE0F0E0EA0DFB1DA9E8B0E0AD90BB2460
:1005B000A2E7B0E0AA0DBB1D7BE7E4D584E090E0A4
:1005C000BCD5E9E8F0E0A190BB24E7E1F0E0EA0D5A
:1005D000FB1DA9E8B0E0AD90BB24AAE7B0E0AA0DEE
:1005E000BB1D7BE7CFD584E090E0A7D5A9E8B0E0BC
:1005F0008C918F5F8C9308F4B4CF80E08093870058
:1006000080E08093880085990BC082E390E095D5C7
:10061000859906C0709166007F777093660001C06F
:100620003ECE81E08093890000918900043010F073
:1006300009F00EC088B391E0892788BB84EF91E070
:100640007CD5A9E8B0E08C918F5F8C9308F4ECCF57
:10065000709166007F77709366000895089581E039
:10066000809389004091900000918900041710F058
:1006700009F06BC0E9E8F0E0A190BB24E7E0F0E00E
:10068000EA0DFB1DA0E1BB2780E08C937BE77AD5C8
:1006900084E090E052D5E9E8F0E0A190BB24EFE0DF
:1006A000F0E0EA0DFB1DA0E1BB2780E08C937BE727
:1006B00069D584E090E041D5E9E8F0E0A190BB2461
:1006C000E7E1F0E0EA0DFB1DA0E1BB2780E08C93A1
:1006D0007BE758D584E090E030D5E9E8F0E0A190E0
:1006E000BB24EFEFFFEFEA0DFB1DA0E1BB2780E08D
:1006F0008C937BE747D584E090E01FD5E9E8F0E0F4
:10070000A190BB24EFE1F0E0EA0DFB1DA0E1BB27C7
:1007100080E08C937BE736D584E090E00ED5E8E26C
:10072000F0E0A0E1BB2780E08C937BE72BD586E946
:1007300090E003D588B391E0892788BBA9E8B0E0B1
:100740008C918F5F8C9308F48DCFC09808950091A1
:10075000B6000C3F09F004C086EE8093B70008C0D5
:100760000091B600023F09F003C08CED8093B70002
:10077000929A81E090E0E1D431E0A6EBB0E0C5D4FC
:1007800031E0A6E8B0E0C1D431E0A7E8B0E0BDD4E4
:1007900031E0A8E8B0E0B9D431E0A7EBB0E0B5D4DF
:1007A0008EE190E0CAD492980895009185000130BE
:1007B00009F022C081E080938A0000918A0008300D
:1007C00010F009F018C0E89480918A00A7E6B0E024
:1007D000CDD4C2D40C9016F0092201C0082A0C9284
:1007E00078D088EC90E0A9D4AAE8B0E08C918F5F33
:1007F0008C9308F4E2CF6CC0023009F03BC081E07A
:1008000080938A0000918A00083010F009F031C00E
:10081000EAE8F0E0A190BB24EFE1F0E0EA0DFB1D77
:10082000A0E1B0E0C0D4013009F00EC0689480911E
:100830008A00A7E6B0E09AD48FD40C9016F0092273
:1008400001C0082A0C920DC0E89480918A00A7E6A6
:10085000B0E08CD481D40C9016F0092201C0082A93
:100860000C9237D0AAE8B0E08C918F5F8C9308F49B
:10087000C9CF2EC0033009F022C081E080938A00E6
:1008800000918A00083010F009F018C06894809137
:100890008A00A7E6B0E06AD45FD40C9016F0092273
:1008A00001C0082A0C9215D088EC90E046D4AAE842
:1008B000B0E08C918F5F8C9308F4E2CF09C00430D4
:1008C00009F006C070E078BB70E075BB70E072BBE9
:1008D000089500918500023009F02AC080918A00B5
:1008E000A7E6B0E043D438D40C900822689409F409
:1008F000E8940EF00FC0EAE8F0E0A190BB24EFE12D
:10090000F0E0EA0DFB1DA0E1BB2781E08C937BE7C3
:1009100039D40EC0EAE8F0E0A190BB24EFE1F0E0AA
:10092000EA0DFB1DA0E1BB2780E08C937BE72AD476
:1009300000918A00013009F00AC0A7E6B0E08C916E
:1009400081FBA5E3B0E08C9184F98C935AC002300E
:1009500009F00AC0A7E6B0E08C9182FBA5E3B0E005
:100960008C9185F98C934DC0033009F00AC0A7E63D
:10097000B0E08C9183FBA2E3B0E08C9183F98C937F
:1009800040C0043009F00AC0A7E6B0E08C9184FBB7
:10099000A2E3B0E08C9184F98C9333C0053009F068
:1009A0000AC0A7E6B0E08C9185FBA5E3B0E08C918E
:1009B00083F98C9326C0063009F00AC0A7E6B0E0A0
:1009C0008C9186FBA5E3B0E08C9182F98C9319C0E1
:1009D000073009F00AC0A7E6B0E08C9187FBA5E3D9
:1009E000B0E08C9181F98C930CC0083009F009C0FB
:1009F000A8E6B0E08C9180FBA5E3B0E08C9180F993
:100A00008C93089588B391E0892788BB0091870073
:100A1000073909F047C0A6E6B0E08C9187FB0EF0DD
:100A200040C0ABE8B0E08C918F5F8C93AC98AD98F0
:100A300093989498AB98AA98A998A89800918B003D
:100A4000083010F009F001C003C081E080938B00F2
:100A500000918B00013009F002C0AC9A22C0023034
:100A600009F002C0AD9A1DC0033009F002C0939A8C
:100A700018C0043009F002C0949A13C0053009F080
:100A800002C0AB9A0EC0063009F002C0AA9A09C093
:100A9000073009F002C0A99A04C0083009F001C06B
:100AA000A89A7CC20E3909F078C081E08093890051
:100AB0004091900000918900041710F009F06BC07C
:100AC000E9E8F0E0A190BB24E7E0F0E0EA0DFB1DCF
:100AD000A0E1BB2780E08C937BE754D384E090E0D7
:100AE0002CD3E9E8F0E0A190BB24EFE0F0E0EA0DC0
:100AF000FB1DA0E1BB2780E08C937BE743D384E020
:100B000090E01BD3E9E8F0E0A190BB24E7E1F0E03E
:100B1000EA0DFB1DA0E1BB2780E08C937BE732D37D
:100B200084E090E00AD3E9E8F0E0A190BB24EFEF85
:100B3000FFEFEA0DFB1DA0E1BB2780E08C937BE774
:100B400021D384E090E0F9D2E9E8F0E0A190BB2461
:100B5000EFE1F0E0EA0DFB1DA0E1BB2780E08C9304
:100B60007BE710D384E090E0E8D2E8E2F0E0A0E197
:100B7000BB2780E08C937BE705D386E990E0DDD24C
:100B800088B391E0892788BBA9E8B0E08C918F5F9A
:100B90008C9308F48DCFC09801C20F3909F056C06C
:100BA0004091920000918800041781E008F480E0F1
:100BB0008F934091930000918800041781E010F01A
:100BC00009F080E09F918923882309F43EC081E0E9
:100BD000809389004091900000918900041710F0E3
:100BE00009F033C040918800E9E8F0E0A190BB240F
:100BF000E7E0F0E0EA0DFB1DA0E1B0E0D4D204177D
:100C000009F01CC070916600786070936600809156
:100C10008900A7E6B0E0AAD29FD20C90082268947F
:100C200009F4E8940EF40AC081E0A9E8B0E0AD90C0
:100C3000BB24A3E9B0E0AA0DBB1D8C93A9E8B0E0EA
:100C40008C918F5F8C9308F4C5CFA8C1003A09F04E
:100C500001C0A4C1043B09F097C000918800003096
:100C600080E010F009F081E08F9300918800043655
:100C700081E008F080E09F918923882309F483C0F4
:100C800081E08093890040919000009189000417D1
:100C900010F009F078C040918800E9E8F0E0A190F8
:100CA000BB24E7E0F0E0EA0DFB1DA0E1B0E07BD261
:100CB000041781E009F080E08F9340918800E9E813
:100CC000F0E0A190BB24EFE0F0E0EA0DFB1DA0E115
:100CD000B0E069D2041781E009F080E09F91892B90
:100CE0008F9340918800E9E8F0E0A190BB24E7E110
:100CF000F0E0EA0DFB1DA0E1B0E055D2041781E061
:100D000009F080E09F91892B882309F435C0709108
:100D10006600777F709366008091890080938A00D7
:100D200082E08093850080918A00A7E6B0E01ED221
:100D300013D20C900822689409F4E8940EF00EC0C7
:100D4000E89480918A00A7E6B0E010D205D20C901A
:100D500016F0092201C0082A0C920DC068948091F7
:100D60008A00A7E6B0E002D2F7D10C9016F0092273
:100D700001C0082A0C92ADDDA9E8B0E08C918F5F2C
:100D80008C9308F480CF0AC1053B09F07CC0009128
:100D90008800003080E010F009F081E08F9300912E
:100DA0008800043681E008F080E09F918923882341
:100DB00009F468C081E0809389004091900000911F
:100DC0008900041710F009F05DC040918800E9E83F
:100DD000F0E0A190BB24E7E0F0E0EA0DFB1DA0E10C
:100DE000B0E0E1D1041781E009F080E08F934091F9
:100DF0008800E9E8F0E0A190BB24EFE0F0E0EA0D24
:100E0000FB1DA0E1B0E0CFD1041781E009F080E044
:100E10009F91892B8F9340918800E9E8F0E0A190A1
:100E2000BB24E7E1F0E0EA0DFB1DA0E1B0E0BBD19F
:100E3000041781E009F080E09F91892B882309F451
:100E40001AC070916600777F709366008091890068
:100E500080938A0082E080938500E89480918A00E4
:100E6000A7E6B0E083D178D10C9016F0092201C03A
:100E7000082A0C922EDDA9E8B0E08C918F5F8C934C
:100E800008F49BCF8BC0063B09F07CC00091880022
:100E9000003080E010F009F081E08F93009188002D
:100EA000043681E008F080E09F918923882309F4CB
:100EB00068C081E080938900409190000091890092
:100EC000041710F009F05DC040918800E9E8F0E0F7
:100ED000A190BB24E7E0F0E0EA0DFB1DA0E1B0E04B
:100EE00062D1041781E009F080E08F93409188007F
:100EF000E9E8F0E0A190BB24EFE0F0E0EA0DFB1D93
:100F0000A0E1B0E050D1041781E009F080E09F91AA
:100F1000892B8F9340918800E9E8F0E0A190BB24F1
:100F2000E7E1F0E0EA0DFB1DA0E1B0E03CD10417E1
:100F300081E009F080E09F91892B882309F41AC091
:100F400070916600777F709366008091890080932E
:100F50008A0082E080938500689480918A00A7E6E9
:100F6000B0E004D1F9D00C9016F0092201C0082A93
:100F70000C92AFDCA9E8B0E08C918F5F8C9308F401
:100F80009BCF0CC0073B09F009C07091B30078609B
:100F90007093B300809188008093B50008950F92FC
:100FA0001F922F923F924F925F927F92AF92BF9289
:100FB0000F931F932F933F934F935F936F937F9361
:100FC0008F939F93AF93BF93CF93DF93EF93FF9351
:100FD0008FB78F93A0E6B0E08C918F5F8C9331E058
:100FE000ACE8B0E089D000916000053081E009F004
:100FF00080E08F9300918C00023D81E009F080E059
:101000009F918923882309F405C07091B300706211
:101010007093B30000918C00083E09F003C081E09A
:101020008093600080918C00A0E6B0E0AD90BB247E
:10103000ACEAB0E0AA0DBB1D8C93A3EBB0E08C91A1
:1010400085FB0EF034C08091AE0080938600009145
:101050008600053681E009F080E08F9300918600DC
:10106000083681E009F080E09F91892B8F930091F1
:1010700086000E3681E009F080E09F91892B88235D
:1010800009F40DC08091AE00809386008091AF007E
:10109000809387008091B00080938800B3DC80E06B
:1010A000809360007091B3007F7D7093B3008F9147
:1010B0008FBFFF91EF91DF91CF91BF91AF919F9142
:1010C0008F917F916F915F914F913F912F911F91E0
:1010D0000F91BF90AF907F905F904F903F902F9077
:1010E0001F900F901895F894FFCFED91FC91EF5F52
:1010F000FF4FFC93EE93089504D08D933A95E1F75A
:1011000008955F9BFECF8CB108958D9103D03A95E1
:10111000E1F708955D9BFECF8CB9089588EE93E0CA
:101120000CD03197D9F708953197F1F70895689465
:1011300062F80895E89462F80895EF93FF93EE271C
:10114000E82BE92B31F0EDECFAE03197F1F701975C
:10115000D1F7FF91EF91089591E0882321F08894D1
:10116000991F8A95E9F7892F90950895883018F08E
:1011700011968850FBCF0895E199FECFEEBBFFBBDF
:101180003196089591E001C092E07B3751F47FB72A
:10119000F894F2DF8D918DBBE29AE19A9A95C9F7A6
:1011A0007FBF7727089591E001C092E0E5DFE09AE4
:1011B0008DB38D939A95D1F70895FF93881BF9E02D
:1011C000001FFA9511F4FF910895881F841B18F4ED
:0A11D000840F8894F5CF0894F3CF44
:00000001FF
