:100000000C94460018950000189500001895000003
:10001000189500001895000018950000189500002C
:10002000189500001895000018950000189500001C
:10003000189500001895000018950000189500000C
:1000400018950000189500000C94DA03189500002C
:1000500018950000189500001895000018950000EC
:1000600018950000189500001895000018950000DC
:1000700018950000189500001895000018950000CC
:100080001895000018950000189500008FEF8DBF9F
:10009000C0ECE0E14E2E80E18EBFD0E1F0E15F2EBA
:1000A000A89584B7082E877F84BF88E1992781BDF2
:1000B00091BDEEEFFFE0A0E0B1E088278D9331978E
:1000C000E9F785E089B980E08093900088E18AB9FA
:1000D000662481E0E3E30E94184CA1E0B1E0E7E18F
:1000E000F1E098E00E94264D81E0E3E30E941D4C80
:1000F000AAE0B1E0E7E1F1E098E00E94264D7AB392
:1001000077677ABB0E94BF49EEE5F8E20E94B64CE1
:10011000AAE3B1E0ED93FD938BB78C930E94D9498C
:100120008FEF809361008FEF8ABB15981698179810
:10013000B898D39A70916400746070936400A49A24
:10014000A09A709164007160709364008FE1809355
:1001500060018CE1809361018FE1809362018EE107
:10016000809363018FE1809364018EE18093650148
:100170008FE1809366018FE1809367018EE1809328
:1001800068018FE1809369018EE180936A018FE1BC
:1001900080936B01AAE7B1E0E0EDFBE90E94B64C69
:1001A0000E94064B7894579A8CEF8093D0018CED87
:1001B0008093D101E3E1F0E0A0E1B0E00E94514D75
:1001C0000F3F11F00C94ED00E3E1F0E0A0E1BB275C
:1001D00080E08C937BE70E94404DE4E1F0E0A0E1F9
:1001E000B0E00E94514D0F3F11F00C940001E4E18A
:1001F000F0E0A0E1BB2780E08C937BE70E94404DBC
:10020000E5E1F0E0A0E1B0E00E94514D0F3F11F0B8
:100210000C941301E5E1F0E0A0E1BB2780E08C93B2
:100220007BE70E94404DE5E1F0E0A9EFB1E00E94DC
:10023000514DE0E0F0E0A0E4B1E07BE70E94404DEA
:10024000DB9A0E941F4A0E94C74880E28A9381E09D
:100250008A9380E08A93E8EAF6E10E94B64C882708
:1002600080933F010E94974A84EF91E00E94B04939
:100270000E941F4A8FE08093D2010E94DC3E81E001
:100280008093D2010E94DC3E0E94AD040E9435069C
:10029000009141014FE00E94674DA5E7B1E08C93CA
:1002A00000917501003011F00C9458010E94EE424B
:1002B0000E94BA40A1E2B0E00C9105FB81E00EF093
:1002C00080E08F93A1E2B0E00C9106FB81E00EF09C
:1002D00080E09F91892B8F93A1E2B0E00C9107FB06
:1002E00081E00EF080E09F91892B8F93A6E3B0E030
:1002F0000C9100FB81E00EF080E09F91892B882318
:1003000011F40C948D0180E090E0A5EFB1E08D93A5
:100310009C930E94C7480E9493010E94D9480C9464
:1003200044010E94440182E390E00E94B049A5EF9D
:10033000B1E00E941049A5EFB1E00D911C91003B86
:1003400054E0150718F011F00C94A8010C94AB01BF
:100350000E941F4A08950D9B0C94560280E090E085
:10036000A5EFB1E08D939C9382E390E00E94B049A9
:10037000A5EFB1E00E941049A5EFB1E00D911C91ED
:100380000C3350E0150718F011F00C94C9010C94CF
:10039000CB010C94CE010D990C94B401A5EFB1E002
:1003A0000D911C910C3350E0150718F011F00C94CE
:1003B000DB010C94E70180E090E0A5EFB1E08D93C4
:1003C0009C930E941F4A0E94712F0C945002A5EF2B
:1003D000B1E00D911C91043150E0150710F00C9420
:1003E0005002A9ECB1E08C9180FB882780F98095C0
:1003F00080FBA9ECB1E08C9180F98C937091FB01AA
:100400007F777093FB017091FB017F7B7093FB0101
:100410007091FB017F7D7093FB010E941F4A81E078
:100420008A9381E08A9380E08A93EAE6F5E10E946C
:10043000B64C882780933F010E94974AA5EFB1E010
:100440000D911C91043150E0150781E008F080E027
:100450008F93A9ECB1E08C9180FB81E00EF480E0F9
:100460009F918923882311F40C9450020E941F4A03
:1004700085E080933D0181E080933E018827809351
:100480003F01E0EEFBE90E94B64C0E947F4982EA00
:100490008093DB018CE18093D2010E94DC3E0895C1
:1004A00080E090E0A5EFB1E08D939C93A1E2B0E0F5
:1004B0000C9106FB81E00EF080E08F93ABEFB1E092
:1004C0008C9187FB81E00EF480E09F918923882343
:1004D00011F40C949B0280E090E0A5EFB1E08D93C5
:1004E0009C937091FB0170687093FB017091C9013E
:1004F0007E7F7093C9017091FB017F7B7093FB013C
:100500007091FB017F7D7093FB010E941F4A81E087
:100510008A9381E08A9380E08A93ECE0F3E10E9481
:10052000B64C882780933F010E94974A0E990C94FD
:1005300096020C94D902A1E2B0E00C9106FB81E096
:100540000EF080E08F93ABEFB1E08C9187FB81E000
:100550000EF080E09F918923882311F40C94D90236
:100560000E94C74880E090E0A5EFB1E08D939C9396
:100570000E941F4A85E080933D0181E080933E0107
:10058000882780933F01EEEEFBE90E94B64C0E9463
:100590007F4984EA8093DB018CE18093D2010E9441
:1005A000DC3EE2E0F0E00E94864908950E990C944A
:1005B000B802A1E2B0E00C9107FB81E00EF080E010
:1005C0008F93ABEFB1E08C9186FB81E00EF480E07D
:1005D0009F918923882311F40C9420030E94C7481B
:1005E00080E090E0A5EFB1E08D939C937091FB01CA
:1005F00070647093FB017091C9017E7F7093C90193
:100600007091FB017F777093FB017091FB017F7DFF
:100610007093FB010E941F4A81E08A9381E08A93D4
:1006200080E08A93E2E1F4E10E94B64C882780934F
:100630003F010E94974A0F990C941B030C945C0392
:10064000A1E2B0E00C9107FB81E00EF080E08F9317
:10065000ABEFB1E08C9186FB81E00EF080E09F91E2
:100660008923882311F40C945C0380E090E0A5EFCB
:10067000B1E08D939C930E941F4A85E080933D01D9
:1006800081E080933E01882780933F01ECEFFBE9F6
:100690000E94B64C0E947F4983EA8093DB018CE183
:1006A0008093D2010E94DC3EE2E0F0E00E948649A5
:1006B00008950F990C943B03A6E3B0E00C9100FB66
:1006C00081E00EF080E08F93ABEFB1E08C9185FB81
:1006D00081E00EF480E09F918923882311F40C942B
:1006E000A3030E94C74880E090E0A5EFB1E08D939E
:1006F0009C937091FB0170627093FB017091C90132
:100700007E7F7093C9017091FB017F777093FB012D
:100710007091FB017F7B7093FB010E941F4A84E173
:100720008A9381E08A9380E08A93E8EAF1E10E946B
:10073000B64C882780933F010E94974AB0990C9449
:100740009E030C94D703A6E3B0E00C9100FB81E07C
:100750000EF080E08F93ABEFB1E08C9185FB81E0F0
:100760000EF080E09F918923882311F40C94D70325
:1007700080E090E0A5EFB1E08D939C930E941F4A2A
:1007800085E080933D0181E080933E01882780933E
:100790003F01EAE0FCE90E94B64C0E947F49E2E09A
:1007A000F0E00E9486490895B0990C94BE030C9421
:1007B000930108950F921F922F923F924F925F9252
:1007C0007F92AF92BF920F931F932F933F934F93BC
:1007D0005F936F937F938F939F93AF93BF93CF93C9
:1007E000DF93EF93FF938FB78F938BB78F93882708
:1007F0008BBFADEFB1E08C918F5F8C93ACEFB1E02C
:100800008C918F5F8C9331E0ACECB1E00E94654934
:100810000091FC01053081E009F080E08F930091A8
:10082000CC01063E81E009F080E09F918923882376
:1008300011F40C9420047091C90170627093C90185
:100840000091CC010C3F11F00C94290481E08093BD
:10085000FC018091CC01ACEFB1E0AD90BB24ABEDDD
:10086000B1E0AA0DBB1D8C93A9ECB1E08C9185FB86
:1008700081E00EF080E08F930091DC010C3F81E07D
:1008800009F080E09F918923882311F40C9460047F
:1008900080E08093FC018091DD018093CE01809106
:1008A000DE018093CF018091DF018093CD010E9412
:1008B0001A3E7091C9017F7D7093C9010E941F4A41
:1008C0008F918BBF8F918FBFFF91EF91DF91CF9170
:1008D000BF91AF919F918F917F916F915F914F9158
:1008E0003F912F911F910F91BF90AF907F905F909C
:1008F0004F903F902F901F900F901895A8E3B1E074
:100900000D911C914AE050E00E94FC4AA8E3B1E03E
:100910000D931C93A8E3B1E00D911C9140E150E0D0
:100920000E942449A8E3B1E04D935C93AFE1B1E0AC
:10093000E8E3F1E00E94D04CEFE1F1E0A8EFBFE086
:100940000E94204DE8EFFFE0AFE1B1E01127222740
:1009500002E031E00E94264B08950E94964D10ED72
:100960000E94AE4D10E00E94AE4D0E94964D11EDDA
:100970000E94AE4D0E94CD4DA1E4B1E01C930E94B7
:10098000CD4DA2E4B1E01C930E94CD4DA3E4B1E0B3
:100990001C930E94CD4DA6E4B1E01C930E94CD4D66
:1009A000A7E4B1E01D9388278C930E94CD4DAFE45E
:1009B000B1E01D9388278C930E94CB4DA4E4B1E055
:1009C0001D9388278C930E94A54D909141010E9410
:1009D000A049A1E4B1E08C93909142010E94A0490A
:1009E000A2E4B1E08C93909143010E94A049A3E45A
:1009F000B1E08C93909147010E94A049A7E4B1E037
:100A00008D9388278C9390914F010E94A049AFE469
:100A1000B1E08D9388278C93909144010E94A04966
:100A2000A4E4B1E08D9388278C9300ED17E0A4E453
:100A3000B1E04D915C91040F151FABE4B1E00D9353
:100A40001C9300914101013011F00C942C05709120
:100A5000C9017D7F7093C90100914301003081E09D
:100A600009F080E08F9300914201003081E009F0AD
:100A700080E09F9189238F9300914101003081E0B4
:100A800009F080E09F9189238F93A9ECB1E08C91CC
:100A900081FB81E00EF480E09F918923882311F48B
:100AA0000C94CC050E941F4A7091C901726070932A
:100AB000C901A0E4B1E08C918F5F8C93009140015B
:100AC000073018F011F00C9467050C946A0581E06A
:100AD0008093400100914001013011F00C947A059F
:100AE000ABE8B1E0E4E1FCE90E94B64C0E94064BA1
:100AF0000C94CC05023011F00C948805ABE8B1E001
:100B0000E8E1FCE90E94B64C0E94064B0C94CC052F
:100B1000033011F00C949605ABE8B1E0ECE1FCE990
:100B20000E94B64C0E94064B0C94CC05043011F088
:100B30000C94A405ABE8B1E0E0E2FCE90E94B64CFD
:100B40000E94064B0C94CC05053011F00C94B205B4
:100B5000ABE8B1E0E4E2FCE90E94B64C0E94064B2F
:100B60000C94CC05063011F00C94C005ABE8B1E054
:100B7000E8E2FCE90E94B64C0E94064B0C94CC05BE
:100B8000073011F00C94CC05ABE8B1E0ECE2FCE9E5
:100B90000E94B64C0E94064B0895ABE4B1E00D9163
:100BA0001C91005D1740A4E4B1E00D931C9380916B
:100BB00047010E949949A7E4B1E08D9388278C935F
:100BC00080914F010E949949AFE4B1E08D9388274D
:100BD0008C93809144010E949949A4E4B1E08D93E3
:100BE00088278C930E94964D10ED0E94AE4D14E024
:100BF0000E94AE4D109147010E94AE4D10914F01E1
:100C00000E94AE4D109144010E94AE4D0E94A54D30
:100C10000895809141010E949949A1E4B1E08C932B
:100C2000809142010E949949A2E4B1E08C938091A5
:100C300043010E949949A3E4B1E08C930E94964D30
:100C400010ED0E94AE4D10E00E94AE4D109141019A
:100C50000E94AE4D109142010E94AE4D1091430191
:100C60000E94AE4D0E94A54D0895A0E1B0E0BA9358
:100C7000AA93ABE4B1E0BA93AA930E94BA47249630
:100C8000003011F00C9449068CE1809361010C94C2
:100C90004C068DE180936101AFE4B1E00D911C91B0
:100CA00001501040AAE5B1E00D931C9380E090E064
:100CB000A4E5B1E08D939C9381E090E0A8E5B1E0DC
:100CC0008D939C93AAE5B1E04D915C91A8E5B1E0CC
:100CD0000D911C910417150718F011F00C948B0658
:100CE000A4E5B1E00D911C91A8E5B1E0AD90BD90F7
:100CF000AFE5B1E0AA0DBB1D4D915527040F151F9F
:100D0000A4E5B1E00D931C93A8E5B1E00E94104961
:100D100010F40C946206A4E5B1E00D911C91A7E4D7
:100D2000B1E04D915C91040F151FA4E5B1E00D9366
:100D30001C93A4E5B1E00D911C910F3450E0150710
:100D400018F011F00C94A6060C94BC06ABE4B1E0CC
:100D50000D911C910D561240ADE4B1E00D931C9322
:100D6000A4E5B1E00D911C910F541040A6E5B1E04F
:100D70000D931C930C94F706ABE4B1E00D911C911C
:100D80000E561240ADE4B1E00D931C93ABE4B1E01C
:100D90000D911C9101501040A2E7B1E00D931C93FE
:100DA000A4E7B1E0BA93AA93A2E7B1E0BA93AA93F9
:100DB0000E94BA47249600917401003011F00C94FF
:100DC000ED06A4E5B1E00D911C91025E1E4FA6E573
:100DD000B1E00D931C930C94F706A4E5B1E00D91DE
:100DE0001C91015E1E4FA6E5B1E00D931C9381E0BE
:100DF00090E0A1E5B1E08D939C93A6E5B1E00D9163
:100E00001C910E3150E0150718F011F00C940A07F0
:100E10000C943007A1E5B1E00D911C91073050E032
:100E2000150710F00C942007A6E5B1E00D911C9178
:100E30000F511040A6E5B1E00D931C930C942A07C6
:100E4000A6E5B1E00D911C910E511040A6E5B1E070
:100E50000D931C93A1E5B1E00E9410490C94FD068E
:100E6000A6E5B1E00D911C91003050E0150711F09E
:100E70000C945807A1E5B1E00E941749A1E5B1E043
:100E80000D911C91073050E0150710F00C9450079D
:100E90008FE190E0A9E4B1E08D939C930C94560708
:100EA0008EE190E0A9E4B1E08D939C930C946007EF
:100EB000A6E5B1E08D919C91A9E4B1E08D939C935E
:100EC000089580E090E0A6E5B1E08D939C93A1E5C4
:100ED000B1E00D911C91063050E0150718F011F0AB
:100EE0000C9474070C94A0078AEB90E0A6E5B1E09F
:100EF0008D939C93A1E5B1E00D911C91075010409A
:100F0000A2E7B1E00D931C93A2E7B1E00D911C9113
:100F10004EE150E00E94FC4AA2E7B1E00D931C9321
:100F2000A6E5B1E00D911C91A2E7B1E04D915C9175
:100F3000040F151FA6E5B1E00D931C930C94C40794
:100F4000A1E5B1E00D911C9101501040A2E7B1E084
:100F50000D931C93A2E7B1E00D911C914FE150E07D
:100F60000E94FC4AA2E7B1E00D931C93A6E5B1E014
:100F70000D911C91A2E7B1E04D915C91040F151FFA
:100F8000A6E5B1E00D931C93A6E5B1E00D911C918F
:100F9000A9E4B1E04D915C91040F151FA6E5B1E005
:100FA0000D931C93A6E5B1E00D911C910E3151E01B
:100FB000150718F011F00C94DF070C94F507ADE459
:100FC000B1E00D911C9102591D4FABE4B1E00D93BE
:100FD0001C93A6E5B1E00D911C910E511140A4E5C2
:100FE000B1E00D931C930C940908ADE4B1E00D91B0
:100FF0001C9103591D4FABE4B1E00D931C93A6E582
:10100000B1E00D911C91015B1F4FA4E5B1E00D9380
:101010001C93A0E1B0E0BA93AA93ABE4B1E0BA9319
:10102000AA930E94BA472496003011F00C941D0830
:101030008CE1809361010C9420088DE18093610123
:1010400081E090E0AFE4B1E08D939C93AFE4B1E038
:101050000D911C910C3050E0150718F011F00C9414
:101060005808A4E5B1E00D911C910F3150E015072F
:1010700010F00C943D080C945808A4E5B1E00D91D3
:101080001C91AFE4B1E0AD90BD90AFE5B1E0AA0D29
:10109000BB1D4D915527041B150BA4E5B1E00D9325
:1010A0001C93AFE4B1E00E94104910F40C942608A0
:1010B000AFE4B1E0AD90BD90AFE5B1E0AA0DBB1DCE
:1010C0004D915527A4E5B1E00D911C91041715072A
:1010D00018F011F00C946E080C948608A4E5B1E0A9
:1010E0000D911C91A8E5B1E0AD90BD90AFE5B1E0E8
:1010F000AA0DBB1D4D915527041B150BA4E5B1E0AE
:101100000D931C93AFE4B1E00E941049A4E5B1E057
:101110008D919C91A7E4B1E08D939C93089510105C
:1011200000AA0100E0F8AA01F8FCBC7CAA017CBC82
:10113000FCF8AA01F8E000AA0300071FAA011F3F5C
:101140003D3EAA013E3D3F1FAA011F0700AA010024
:101150001010FEFFAA03FF7F3FAA013F1F0FFFAA47
:1011600004FFFE7FFFAA03FFFEFCAA01FCF8F0FFCC
:10117000AA04FF7F1010FEFFAA04FF0F1F3FAA0161
:101180003F7FFFAA03FFFE7FFFAA04FFF0F8FCAA3F
:1011900001FCFEFFAA03FF7F10100098AA0D980023
:1011A000AA010019AA0D1900406000AA0D0080C014
:1011B000AA05C08000AA3000E0AA01E0C08000AA11
:1011C0000200C0E0AA01E04000AA19003E7FFFAA89
:1011D00007FF3F00AA1F0080AA068000AA02008025
:1011E000E0F818F8AA02F8FBFFAA01FFFEFCFFAA2C
:1011F00001FFE3E1E0C08000AA0D00E0F8FCAA01D5
:10120000FCFEFCAA02FCF8E000AA02000181F1F950
:10121000FDFCAA03FCF8AA01F8F0E0C080AA08804F
:1012200000AA020080AA018000AA0B002061AA0483
:1012300061632100AA0100FFAA01FF0100FFAA0EBD
:10124000FF00AA0E00031F7FFFAA06FFFCF080002C
:10125000071F7FFFAA09FFDF1FAA061F0FAA010FA2
:101260000703AA020300AA0A0008181CAA011C0C02
:10127000AA030C00AA01000F7FF8C0FFAA0DFF7F90
:1012800000AA1100010F3FFFAA06FFFEF0C00003F5
:101290000F3F7FFFAA06FFFEAA09FEFCF8F0E0C0A0
:1012A00000AA0F00F0F8AA04F8F9AA0DF9F8AA03A9
:1012B000F8F000AA110001073FFFAA07FFFCAA01EE
:1012C000FCF8AA0CF8F0AA01F0C08103070F3F7FD9
:1012D000FFAA02FFFEFCF0E000AA0A00FFAA18FF26
:1012E00000AA1500030F3FAA183F3E3C1000AA01B8
:1012F00000010307AA0107030100AA0A001F3F7F9C
:10130000AA147F3FAA013F00AA680000408000AAFB
:10131000290020C08000AA1900C0F8C000AA6000FF
:10132000FF7F3F3E9C989080AA018000AA10003069
:101330009E9FAA029F9E3000AA5700E0F0E0AA01FB
:10134000E0C08000AA01001C7FFFAA05FF7F3E00CD
:10135000AA010080C0E0AA05E0C08000AA01003E0A
:101360007FFFAA04FF7F3E00AA010080C0E0AA011F
:10137000E0F0E04000AA4E00010307AA01070F1F9A
:101380003FFEFCAA02FCFDAA02FDFCAA02FC3E1FD5
:101390000FAA010F070301AA01010307AA01070F02
:1013A0001F9FFEFCAA06FCFE9F1F0F07AA01070352
:1013B0000100AA5700FFAA09FF00AA0A00C0FCFF0B
:1013C000AA0AFFFCC000AA5B00FFAA03FFFE00FF01
:1013D000AA03FF00AA09000607AA0107EFFFAA0354
:1013E000FF0F7FFFAA03FF07AA01070600AA5A0002
:1013F0003F7FAA027F1F003F7FAA027F00AA0C0046
:101400007FAA027F3F00AA02003F7FAA027F00AAB4
:10141000B100408000AA300080C0AA01C0E0AA024A
:10142000E0F0AA02F0F8AA08F8F0AA03F0E0AA0196
:10143000E0C0AA01C080AA018000AA5B0080C0F0C1
:10144000F8FCFEFFAA01FF7F3F1F0FAA010F07AAAA
:10145000010703AA020301AA0101E1F1AA01F1E1D6
:1014600001AA010103AA020307AA01070FAA010F9B
:101470001F3F7FFFFEFCF8F0E0C000AA510080F89B
:10148000FEFFAA03FF1F070100AA0C00FFAA03FF2B
:1014900000AA0C0003073FFFAA03FFFCE000AA4ECE
:1014A00000FFAA05FF8000AA0F001FAA011F3FAA84
:1014B000013F3C3EAA063E3C1C00AA05000F3FAA85
:1014C000013F7F3FAA013F0800AA4E000F3FFFAA3D
:1014D00003FFF8E0C08000AA1300040EAA010E0F5B
:1014E00007AA01070F9FFEAA01FEFC7000AA0300D5
:1014F00080E0F07C3E0EFEAA02FE00AA4B0003072D
:101500000F1F3F7FFFFEAA01FEFCF8F0AA01F0E0EA
:10151000AA02E0C0AA05C08000AA0300C0AA01C0B8
:10152000E0F0F8FCDEDFCFC3C18000AA01001C1F81
:10153000AA021F1918AA0118BCFFAA02FF3C180032
:10154000AA510001AA010103AA010307AA03070F78
:10155000AA050F070300AA02000103AA090301005C
:10156000AA090001030100AAA100408000AA3F00CF
:1015700080AA0280C0AA04C04000AA6500302000F2
:10158000AA020080C0E0F0AA01F0F8FCAA01FCFE6B
:10159000FFAA08FF0F0100AA6700C0F0FCFEFFAA27
:1015A00011FF00AA0600C080C000AA0500180800AC
:1015B000AA4A00041C1E1C0400AA0500E0FFAA168B
:1015C000FFFCE000AA030001AA01010301AA010136
:1015D00000AA030060C0AA02C02000AA4D0080C07B
:1015E000AA01C0E0AA02E0E3E7AA01E7C7CF8F9F04
:1015F0008FCFC7AA03C7CFAA01CF8F9F1F3F7FFFFF
:10160000AA06FFFEF8F0E0C08000AA04000203AAC8
:1016100001030F03AA010300AA4500C0E0F0F8AAE5
:1016200002F8FCFFAA18FFFCF0E1C7AA01C78F1F50
:101630003F7FFFAA06FFFEFCAA01FCF8AA01F8F012
:10164000AA01F0E0AA02E0C0AA05C000AA3F003F3C
:101650007FFFAA22FF7F1F0080FFAA0EFF7F3F1F90
:101660000F07030100AA430001AA020103AA010314
:1016700001AA010103070FAA060F070FAA010F1FF6
:10168000AA051F0FAA010F070301AA02010004AA5D
:101690000104060FAA030F07AA050703AA02030104
:1016A000AA010100AA290000404000E0AA05E0F0DC
:1016B000AA02F000F8AA03F800AA0100FFAA15FF89
:1016C00000F8AA03F800F0AA03F0E0AA03E000AAD9
:1016D0000E0001AA010181AA038100C3AA03C3006D
:1016E000AA0100FFAA15FF00C3AA03C30081AA0430
:1016F000810100AA0D0003AA02030FAA050F001F13
:10170000AA031F00AA0100FFAA15FF001FAA031FBA
:10171000000FAA050F03AA010300AA0B0018AA04D0
:10172000183CAA033C007EAA037E00AA01001F0702
:10173000C3F3F9AA01F93CBCFCAA03FCF9AA01F91C
:1017400073030FAA010FC3F3AA01F3F9F87C3CAAB3
:10175000033C7CF8AA02F8F0F8FC3CAA043C7CF8B4
:10176000AA01F8F0E0C000AA0100C0AA04C0E0AAE3
:1017700003E000F0AA03F000AA03003F7FFFFDFE94
:10178000FFAA01FFEFAA01EFE7F3F96000AA020048
:10179000FFAA04FF00AA0500FFAA04FF0100AA0592
:1017A00000FFAA04FF00AA0200F8AA01F848AA0153
:1017B000484901F1F90003AA0203FBF8AA01F8481D
:1017C0000800F0F808090109AA0209F9F80800F070
:1017D000F888C9F9AA01F90100F0F80838F000AA60
:1017E0000100F9AA01F979C180F800AA0100F80006
:1017F000AA0100F1AA01F1F9093900AA020003AA1D
:10180000010302AA02020003AA020302AA010200C3
:1018100003AA020302AA0102000103AA010302AA09
:10182000010200AA020003AA010300AA010003AA00
:10183000010300AA010003AA01030200010302033D
:101840000100AA010003AA010300AA010003AA01E2
:101850000300AA010003020001AA01010302AA0178
:101860000200AA400000202000AA030030F8AA01CC
:10187000F8DC1C0E06071F3C3830AA0130383E1F2A
:1018800007060E9CDCF8783000AA0300F8AA02F8DC
:1018900018AA01181E1F070100AA040080F8FCFE08
:1018A000C6AA01C6E0F07001071F1E18AA0118F8A9
:1018B000AA02F80FAA020F0CAA010C3CFCF0C010FF
:1018C000386C3E1F0F070301AA030100AA01004064
:1018D000F0FCBC0CAA010C0FAA020F00AA03000620
:1018E0000FAA010F1D1C3830707C3E0E06AA01069F
:1018F0000E1E7C7030381C1D0FAA010F0600AA03B3
:101900000000202000F8FCFEAA01FEFFAA02FF7FD3
:101910003F3E1E1CAA021C1E1CAA031C1E3F7FAABF
:10192000017FFFAA02FFFEAA01FEFCF000AA01004F
:1019300003F7FFAA01FF0701001838AA013870AAAF
:10194000017020C0AA03C06030181C0E04000307F9
:10195000FFAA01FFF70100AA02000F7FFFE080004D
:10196000AA060003AA030300AA060080E0FF3F0FB7
:1019700000AA06000107AA01070E1CAA011C38AA2A
:10198000033830AA013038AA03381CAA011C0E07FC
:10199000030100AA0400202000AA070080C0AA01B9
:1019A000C0E0AA01E060AA0260E0AA01E0C0AA01CA
:1019B000C08000AA11000103AA0103EDEEAA01EE06
:1019C000E7AA02E7EEAA01EEED03830100AA1300E5
:1019D000FFAA03FFD9FFEFD7BF70FFAA01FFFE00E8
:1019E000AA120003AA08030407AA03070400AA0610
:1019F000000020200C3CF8AA04F878F0AA01F0E0DE
:101A00008000AA060080AA0180C0AA01C0E0AA0343
:101A1000E0C0AA02C080AA018000AA02000307AAAF
:101A200001070FAA010F0E0D1B77C000AA0100C00D
:101A3000E030161F1B3F3DAA013D1FAA011F0FAA40
:101A4000010F07030100AA060080AA0180C0AA01B5
:101A5000C0E0AA01E0FFAA02FFE3E0AA01E080AA39
:101A6000028000AA0D001C3EAA013E3FAA0F3F3E85
:101A70001C00AA070000202000AA070080AA0180FD
:101A800000AA0400F0AA01F000AA040080AA0180C4
:101A900000AA0C0040AA03400143FA3C1C0EAA0213
:101AA0000E06041CFA430140AA034000AA0C0020C1
:101AB00030180B07FCF0AA03F0FC070B18302000CD
:101AC000AA150003AA030300AA0D00002020C0F0FD
:101AD000FC3C0CC0F0FC3C0C00AA020080C0AA0335
:101AE000C08000AA0200E0F0FC1C0CE0F0FC1C0C22
:101AF000000307AA01070480C3C7E7E4E0AA01E0E6
:101B0000CFDFFFAA03FFDFCFE0AA02E0E3C7AA010D
:101B1000C784000307AA010704FCFEFFC09E7FAA3A
:101B2000027FBF8303FFAA09FF0383BF7FAA027F4F
:101B30009EC0FFFEFC0F1FAA011F3FAA193F1FAA4C
:101B4000011F0F00202000AA04003C3EAA033EFE15
:101B5000AA04FE3EAA033E00AA020060E0601CFC4C
:101B6000F8630FFEF8FEAA01FEF0AA02F000F0F8FA
:101B7000FCAA01FCFDAA04FDFCAA01FCF800F0AAE5
:101B800005F0F3E3C19C1F0F033FAA013F07AA0220
:101B900007000F1FAA091F0F000727777FAA067FDC
:101BA0007000AA170078FEFFAA02FFFC7800AA02C4
:101BB0000000F894108000AA0B0080C0AA01C04069
:101BC00000AA220080AA018000AA24008000AA1294
:101BD00000E0AA02E0C0AA02C080AA018000AA1305
:101BE0000001AA01010306070501AA050100AA17C1
:101BF00000040602030100AA010001AA0101030278
:101C0000060400AA130001AA0201020604AA0104A4
:101C1000060301AA010100AA130007AA010703AAEB
:101C2000020301AA020100AA0900FFCF82E00E947C
:101C3000F64A82E00E94F64A82E00E94F64A81E07B
:101C40000E94F64A81E00E94F64A81E00E94F64A2C
:101C500081E00E94F64AA889B98988278C93AE85CD
:101C6000BF850E94774DAE81BF818C93AE81BF81CD
:101C70008C91AA81BB818C93AA81BB814C9101E09C
:101C8000041718F011F00C942914AC85BD85882731
:101C90008C93AA85BB8588278C93A885B9858827CE
:101CA0008C93AA81BB810C9141E0041BAC81BD8166
:101CB0000C93AC81BD810C91003011F00C946A0E34
:101CC000AC85BD85E0E3FCE90E94B64C0E94064B62
:101CD0000C94750EAC81BD818C91EE85FF8501E081
:101CE0000A93AD85BE850E942B4DAA81BB810C91C4
:101CF00041E0040FAC81BD810C93AC81BD818C911E
:101D0000EE85FF8501E00A93AB85BC850E942B4DD3
:101D1000AC85BD85E0E3FCE90E94B64C0E947D4D98
:101D200081E009F080E08F93AC85BD85E2E3FCE9BA
:101D30000E94B64C0E947D4D81E009F080E09F91A9
:101D4000892B8F93AC85BD85E4E3FCE90E94B64CFA
:101D50000E947D4D81E009F080E09F91892B8F9357
:101D6000AC85BD85E6E3FCE90E94B64C0E947D4D42
:101D700081E009F080E09F91892B8F93AC85BD8530
:101D8000E8E3FCE90E94B64C0E947D4D81E009F039
:101D900080E09F91892B8F93AC85BD85EAE3FCE9B8
:101DA0000E94B64C0E947D4D81E009F080E09F9139
:101DB000892B8F93AC85BD85ECE3FCE90E94B64C82
:101DC0000E947D4D81E009F080E09F91892B8F93E7
:101DD000AC85BD85EEE3FCE90E94B64C0E947D4DCA
:101DE00081E009F080E09F91892B8F93AC85BD85C0
:101DF000E0E4FCE90E94B64C0E947D4D81E009F0D0
:101E000080E09F91892B882311F40C943E0FAA85C2
:101E1000BB85E0E3FCE90E94B64C0E947D4D81E069
:101E200009F080E08F9381E00E94F64A80E0A8816B
:101E3000B9818D9388278C93E881F981AC85BD8524
:101E40000E947F4D0FB681E0481A80E0580A229622
:101E50000FBE81E009F080E09F91892B882311F467
:101E60000C94380F83E0A881B9818C930C943C0FBB
:101E700080E0A881B9818C930C94730FAA85BB85EF
:101E8000E0E3FCE90E94B64C0E947D4D81E009F040
:101E900080E08F9381E00E94F64A80E0A881B981BA
:101EA0008D9388278C93E881F981AC85BD850E944C
:101EB0007F4D0FB681E0481A80E0580A22960FBE87
:101EC00081E009F080E09F91892B882311F40C9424
:101ED0006F0F82E0A881B9818C930C94730F81E01D
:101EE000A881B9818C93AA81BB818C91EE85FF85F5
:101EF00001E00A93A985BA850E942B4DA885B98572
:101F0000E0E4FCE90E94B64C0E947D4D11F00C9477
:101F1000AF0FA881B9810C91013011F00C94AD0F75
:101F2000AC85BD85E2E4FCE90E94B64C0E947D4D83
:101F300011F00C94A70F82EAA885B9858D938827A4
:101F40008C93AA81BB810E940C490C94AD0F8DEA41
:101F5000A885B9858D9388278C930C941A14E4E492
:101F6000FCE90E94B64C0E947D4D11F00C94D60FF6
:101F7000A881B9810C91003081E008F480E08F9352
:101F8000A881B9810C91013081E010F009F080E066
:101F90009F918923882311F40C94D40F80E8A8859D
:101FA000B9858D9388278C930C941A14E6E4FCE988
:101FB0000E94B64C0E947D4D11F00C94FD0FA8813B
:101FC000B9810C91003081E008F480E08F93A88102
:101FD000B9810C91013081E010F009F080E09F910F
:101FE0008923882311F40C94FB0F83E8A885B98515
:101FF0008D9388278C930C941A14E8E4FCE90E94D2
:10200000B64C0E947D4D11F00C942410A881B9812A
:102010000C91003081E008F480E08F93A881B981B1
:102020000C91013081E010F009F080E09F9189234C
:10203000882311F40C94221084E8A885B9858D9327
:1020400088278C930C941A14EAE4FCE90E94B64C9D
:102050000E947D4D11F00C944B10A881B9810C9118
:10206000003081E008F480E08F93A881B9810C9161
:10207000013081E010F009F080E09F9189238823EE
:1020800011F40C94491085E8A885B9858D938827AB
:102090008C930C941A14ECE4FCE90E94B64C0E9458
:1020A0007D4D11F00C947210A881B9810C91003013
:1020B00081E008F480E08F93A881B9810C91013010
:1020C00081E010F009F080E09F918923882311F4CA
:1020D0000C94701086E8A885B9858D9388278C9319
:1020E0000C941A14EEE4FCE90E94B64C0E947D4D5B
:1020F00011F00C949910A881B9810C91003081E005
:1021000008F480E08F93A881B9810C91013081E0BF
:1021100010F009F080E09F918923882311F40C943A
:10212000971087E8A885B9858D9388278C930C94A0
:102130001A14E0E5FCE90E94B64C0E947D4D11F0B6
:102140000C94C010A881B9810C91003081E008F492
:1021500080E08F93A881B9810C91013081E010F06B
:1021600009F080E09F918923882311F40C94BE101C
:1021700088E8A885B9858D9388278C930C941A14C8
:10218000E2E5FCE90E94B64C0E947D4D11F00C94F2
:10219000E710A881B9810C91003081E008F480E05B
:1021A0008F93A881B9810C91013081E010F009F082
:1021B00080E09F918923882311F40C94E51089E82D
:1021C000A885B9858D9388278C930C941A14E4E51F
:1021D000FCE90E94B64C0E947D4D11F00C940E114A
:1021E000A881B9810C91003081E008F480E08F93E0
:1021F000A881B9810C91013081E010F009F080E0F4
:102200009F918923882311F40C940C118AE8A885E6
:10221000B9858D9388278C930C941A14E6E5FCE914
:102220000E94B64C0E947D4D11F00C943511A8818E
:10223000B9810C91003081E008F480E08F93A8818F
:10224000B9810C91013081E010F009F080E09F919C
:102250008923882311F40C9433118BE8A885B98560
:102260008D9388278C930C941A14E8E5FCE90E945E
:10227000B64C0E947D4D11F00C945C11A881B9817F
:102280000C91003081E008F480E08F93A881B9813F
:102290000C91013081E010F009F080E09F918923DA
:1022A000882311F40C945A118CE8A885B9858D9374
:1022B00088278C930C941A14EAE5FCE90E94B64C2A
:1022C0000E947D4D11F00C948311A881B9810C916D
:1022D000003081E008F480E08F93A881B9810C91EF
:1022E000013081E010F009F080E09F91892388237C
:1022F00011F40C9481118FE8A885B9858D938827F6
:102300008C930C941A14ECE5FCE90E94B64C0E94E4
:102310007D4D11F00C94B311A881B9810C9100305E
:1023200011F00C949B1183E9A885B9858D938827BA
:102330008C930C94B111013011F00C94A71182E927
:10234000A885B9858D9388278C930C94B1110230A0
:1023500011F00C94B11181E9A885B9858D93882776
:102360008C930C941A14EEE5FCE90E94B64C0E9482
:102370007D4D11F00C94E311A881B9810C910030CE
:1023800011F00C94CB1189E9A885B9858D93882724
:102390008C930C94E111013011F00C94D71185E964
:1023A000A885B9858D9388278C930C94E111023010
:1023B00011F00C94E11184E9A885B9858D938827E3
:1023C0008C930C941A14E0E6FCE90E94B64C0E942F
:1023D0007D4D11F00C940A12A881B9810C91003046
:1023E00081E008F480E08F93A881B9810C910130DD
:1023F00081E010F009F080E09F918923882311F497
:102400000C9408128DE9A885B9858D9388278C9343
:102410000C941A14E2E6FCE90E94B64C0E947D4D31
:1024200011F00C943112A881B9810C91003081E037
:1024300008F480E08F93A881B9810C91013081E08C
:1024400010F009F080E09F918923882311F40C9407
:102450002F128EE9A885B9858D9388278C930C94CB
:102460001A14E4E6FCE90E94B64C0E947D4D11F07E
:102470000C945812A881B9810C91003081E008F4C5
:1024800080E08F93A881B9810C91013081E010F038
:1024900009F080E09F918923882311F40C9456124F
:1024A00080EAA885B9858D9388278C930C941A149B
:1024B000E6E6FCE90E94B64C0E947D4D11F00C94BA
:1024C0007F12A881B9810C91003081E008F480E08E
:1024D0008F93A881B9810C91013081E010F009F04F
:1024E00080E09F918923882311F40C947D1288EB5E
:1024F000A885B9858D9388278C930C941A14E2E4EF
:10250000FCE90E94B64C0E947D4D11F00C94A6127D
:10251000A881B9810C91003081E008F480E08F93AC
:10252000A881B9810C91013081E010F009F080E0C0
:102530009F918923882311F40C94A41283EAA8851F
:10254000B9858D9388278C930C941A14E8E6FCE9DE
:102550000E94B64C0E947D4D11F00C94CD12A881C2
:10256000B9810C91003081E008F480E08F93A8815C
:10257000B9810C91013081E010F009F080E09F9169
:102580008923882311F40C94CB1284EAA885B98599
:102590008D9388278C930C941A14EAE6FCE90E9428
:1025A000B64C0E947D4D11F00C94F412A881B981B3
:1025B0000C91003081E008F480E08F93A881B9810C
:1025C0000C91013081E010F009F080E09F918923A7
:1025D000882311F40C94F21286EAA885B9858D93AC
:1025E00088278C930C941A14ECE6FCE90E94B64CF4
:1025F0000E947D4D11F00C941813A881B9810C91A3
:10260000003011F00C940C138AEAA885B9858D93DB
:1026100088278C930C941613013011F00C94161328
:1026200087EAA885B9858D9388278C930C941A1412
:10263000EEE6FCE90E94B64C0E947D4D11F00C9430
:102640004B13A881B9810C91003081E008F480E03F
:102650008F93A881B9810C91013081E010F009F0CD
:1026600080E09F918923882311F40C943F1388EA1A
:10267000A885B9858D9388278C930C9449130230D3
:1026800011F00C9449138CEAA885B9858D9388279D
:102690008C930C941A14E0E7FCE90E94B64C0E945B
:1026A0007D4D11F00C947213A881B9810C9100300A
:1026B00081E008F480E08F93A881B9810C9101300A
:1026C00081E010F009F080E09F918923882311F4C4
:1026D0000C94701389EBA885B9858D9388278C930A
:1026E0000C941A14E2E7FCE90E94B64C0E947D4D5E
:1026F00011F00C9483138EEAA885B9858D938827F1
:102700008C930C941A14E4E7FCE90E94B64C0E94E6
:102710007D4D11F00C9494138FEAA885B9858D93A3
:1027200088278C930C941A14E6E7FCE90E94B64CB7
:102730000E947D4D11F00C94A51380EBA885B985FE
:102740008D9388278C930C941A14E8E7FCE90E9477
:10275000B64C0E947D4D11F00C94B61381EBA88508
:10276000B9858D9388278C930C941A14EAE7FCE9B9
:102770000E94B64C0E947D4D11F00C94C71382EB61
:10278000A885B9858D9388278C930C941A14ECE74F
:10279000FCE90E94B64C0E947D4D11F00C94D813B8
:1027A00083EBA885B9858D9388278C930C941A1494
:1027B000EEE7FCE90E94B64C0E947D4D11F00C94AE
:1027C000E91384EBA885B9858D9388278C930C94A5
:1027D0001A14E0E8FCE90E94B64C0E947D4D11F00D
:1027E0000C94FA1385EBA885B9858D9388278C9373
:1027F0000C941A14E2E8FCE90E94B64C0E947D4D4C
:1028000011F00C940B1486EBA885B9858D9388275D
:102810008C930C941A14E4E8FCE90E94B64C0E94D4
:102820007D4D11F00C941A1487EBA885B9858D9312
:1028300088278C93E885F985A889B9890E945E4923
:102840000E94204DAA81BB810E940C4910F00C947B
:102850003C0E8AE0481A80E0580A2E960895010836
:10286000080000000000000000000606003C424294
:102870002400000703000703000000247E247E24B8
:10288000000000242B6A1200000000631308646338
:1028900000000036495620500000000007030000E9
:1028A000000000003E41000000000000413E00002A
:1028B000000000083E1C3E0800000008083E080812
:1028C00000000000E06000000000000808080808A0
:1028D00000000000606000000000002010080402FA
:1028E0000000003E5149453E00000000427F40008C
:1028F000000000625149494600000022494949361A
:102900000000001814127F100000002F49494931BF
:102910000000003C4A4949300000000171090503EC
:102920000000003649494936000000064949291E81
:10293000000000006C6C000000000000EC6C000067
:102940000000000814224100000000242424242454
:10295000000000004122140800000002015909068D
:102960000000003E415D551E0000007E1111117EE9
:102970000000007F494949360000003E41414122A4
:102980000000007F4141413E0000007F494949412C
:102990000000007F090909010000003E4149497A11
:1029A0000000007F0808087F00000000417F410010
:1029B000000000304040403F0000007F08142241EA
:1029C0000000007F404040400000007F0204027F82
:1029D0000000007F0204087F0000003E4141413EAC
:1029E0000000007F090909060000003E4151215EF8
:1029F0000000007F09091966000000264949493294
:102A000000000001017F01010000003F4040403F05
:102A10000000001F2040201F0000003F403C403FBE
:102A20000000006314081463000000070870080722
:102A30000000007149454300000000007F41410053
:102A400000000002040810200000000041417F0047
:102A50000000000402010204000080808080808069
:102A600080800000030700000000002054545478C8
:102A70000000007F444444380000003844444428A7
:102A8000000000384444447F000000385454540887
:102A9000000000087E09090000000018A4A4A47C1E
:102AA0000000007F0404780000000000007D40006A
:102AB0000000004080847D000000007F102844005A
:102AC00000000000007F40000000007C0418047833
:102AD0000000007C040478000000003844444438BE
:102AE000000000FC4444443800000038444444FCE6
:102AF00000000044784404080000000854545420A6
:102B0000000000043E4424000000003C40207C0003
:102B10000000001C2040201C0000003C6030603C95
:102B20000000006C10106C000000009CA0603C00D5
:102B30000000006454544C00000000083E41410075
:102B400000000000007700000000000041413E0846
:102B500000000002010201000000003C2623263C88
:102B6000000020202020A020201800182060A06055
:102B70002018000060D04000000020202060A060ED
:102B80002018202020242024201820202024222443
:102B9000201820202028A414183020202068A454B5
:102BA0001830202020282414183020202028251414
:102BB00018302020203020302018202020302432CF
:102BC0002418202030203028281800007098AACA25
:102BD000AC180000000080844234202030203028CF
:102BE0002A1800302020242A34320000000060AC73
:102BF00094AC2020202C142C2020202020202030B9
:102C000028280000000060AC96AC2020202C152C59
:102C10002020003C41217D000000003D41207C003F
:102C200000000030202020283432202020202030B6
:102C30002A28003C41403D00000000182466240082
:102C4000000000483E494962000020202020203832
:102C50002A3820202020203A283A0040887E090285
:102C6000000020202020202834320000007068005E
:102C70000000000000243820201E202020202020DA
:102C8000201E2020202020504830007A1122790078
:102C9000000020202020242020182020304C7848BC
:102CA0003020202020A020A02018003C0404040490
:102CB0000000202020304C78483000102844102894
:102CC000440000608080A0501020000000001E2002
:102CD00020200000304830000000000000FC000010
:102CE0000000000000FC101C000000FC101C101C68
:102CF000000000FC10181414000000E098C498E0D4
:102D000000000080D86424080000000C70C0700C23
:102D1000000000C0380C38C0000000001C14FC008B
:102D2000000020202020243A34322020342A2A2077
:102D30002018000000B8B400000000442810442807
:102D400010000A0B080F00000000080F080F000019
:102D500000000A0A0A0F0000000000000CB2020482
:102D600000000000000F08080000000020140A0AFC
:102D700000000004023E020100000000003E0000CE
:102D8000000000000A05009CA27C0000003E00003C
:102D900000000066858098A46408000000003E00E2
:102DA000000000182020A0202018000002000218B7
:102DB0002438001820242024201820202024222415
:102DC0002018000070988AAA8C18000070988A8ACF
:102DD0008C180000006094959810000000002040BE
:102DE00048300000000020404A3000000000808091
:102DF0004038000000008080403A00608070203041
:102E00002018006080702432241800608060302810
:102E100028180060806030282A1808FF00FF080882
:102E200000000020203E302828182020203E302896
:102E30002A180000000040B0A8A80000000040B020
:102E4000AAA8F0F0F0F0F0F00000001020202038E8
:102E50002A3800007080BAA8BA700F0F0F0F0F0F3A
:102E600000000018242418240000000060808080E6
:102E7000807E007F0101030000000000E010304868
:102E8000483000000070808480700000000000184E
:102E900024380000000000B8A47C00080478040076
:102EA00000000008557755080000003E49493E00E3
:102EB0000000004C7202724C000000225559300094
:102EC00000000060808098A464080060808098A45E
:102ED00064080000000000000000003C02023C000A
:102EE000000000000018143C20200000242E2400C4
:102EF000000000514A4A4400000000444A4A510080
:102F00000000000000FC020400000020403F000020
:102F100000000008082A08080000002412241200FB
:102F20000000000609090600000000001818000053
:102F3000000000000800000000000030403E0202D7
:102F4000000000010E010E00000000090D0A000043
:102F50000000003C3C3C3C000000020C180000005B
:102F60000000000000000000000000000000000061
:102F700000000000000000000606F0F81C0C0C1C0D
:102F800018000000000003070E0C0C0E06000000E5
:102F9000003C3C00003C3C00000000000000000041
:102FA00000000000000000001090F07E1E90F07EF7
:102FB0001E1000021E1F03021E1F0302000000005D
:102FC00078FCCCFFFFCCCC8800000000040C0C3F48
:102FD0003F0C0F07000000003838380080C0E07058
:102FE000381C0030381C0E07030138383800000048
:102FF00000B8FCC6E23E1C00000000001F3F31216B
:10300000371E1C36220000000000273F1F00000072
:1030100000000000000000000000000000000000B0
:1030200000F0FCFE070101000000000000030F1F7C
:10303000382020000000000000010107FEFCF00025
:1030400000000000002020381F0F030000000000D7
:1030500098B8E0F8F8E0B898000000000C0E030FF4
:103060000F030E0C00000000808080F0F080808054
:10307000000000000101010F0F010101000000002C
:103080000000000000000000000000000000B8F890
:1030900078000000000000008080808080808080B8
:1030A0000000000001010101010101010000000018
:1030B00000000000000000000000000000003838A0
:1030C000380000000000000000000080C0E0703800
:1030D0001C0E00181C0E0703010000000000000079
:1030E000000000E0C08000000000000000000307B6
:1030F0000707000000000000000C3FFCF08000000B
:1031000000000000000000000F7F00000000000031
:10311000061F3EFCFC3C3C1F0E00000000000001AE
:103120001F7F000000000C1FFEFCF8381F1C1C1C39
:103130000F00000000077F000000000000000C1FCF
:103140007EFCF8383E3B1B1A0800000000033F7E5F
:1031500000000000000000C0703E1F0E1E3C78F012
:10316000C0001F797070783C707070381F000000CC
:1031700038FEFFE7E7676620200000601E0F0101B0
:103180000000000000000C3FFEF8E00000E0F83E08
:103190000F00000000031F7F0F030000000000006D
:1031A00080E0787FFCE080000000783E0F030000A4
:1031B000030F3F7E180000F0FCEEC7CFFEF80000C2
:1031C00000000000010101010F7FF8600000000015
:1031D0000000F0F0F0F000000000000000003C3CB7
:1031E0003C3C00000000020C180000000000000041
:1031F00000000000000000000000000000000000CF
:103200000000070F1931E1FFFFE131190F0700003E
:1032100000003F3F3F3F00000000000000000000B2
:103220000000C0E0E0C000001E1F1F1E00001F1FA6
:103230001F1F0000F0F8F8F00000FEFFFFFE000086
:103240001F1F1F1F00001F1F1F1F00060E9CF8FFDF
:10325000FF63F69C080000060703010F0F0C06032E
:1032600001000000386C6C3880C0E070381C000031
:10327000181C0E0703011C36361C0000000000005D
:1032800000000000000000001E1F1F1E00000000C4
:1032900000000000F0FC0E07030303070E0C000003
:1032A000070F1C38303030381C0C0000F0F8F8F0F4
:1032B00000000000000000001F1F1F1F0000000092
:1032C000000000000098989898989E9E9C98000096
:1032D0000001030707010101010100002060C08017
:1032E0000080C0602000000010180C0703070C18B5
:1032F0001000000000808080F0F0808080000000DE
:10330000000101010F0F010101000000F0F81C0E87
:1033100006060606FEFE00001F1F181818181818CB
:103320001F1F00000080808080808080800000005F
:103330000001010101010101010000000000000085
:1033400000000000000000000000003838380000D5
:103350000000000000000080C0E070381C0E00007B
:103360001C0E07030100000000000000F8FE0683A9
:10337000C363331EFEF80000071F1B3130303018C6
:103380001F070000000C0C0EFFFF000000000000F3
:10339000003030303F3F3030300000001C1E07034B
:1033A00083C3E3773E1C0000383C3E373331303076
:1033B000303000000C0E07C3C3C3C3E77E3C0000DF
:1033C0000C1C3830303030391F0E0000C0E070382F
:1033D0001C0EFFFF000000000707060606063F3F21
:1033E00006060000787F6763636363E3C3830000BE
:1033F0000C1C3830303030381F0F0000C0F0F8DCC3
:10340000CEC7C3C3800000000F1F393030303039C1
:103410001F0F00000303030303C3F33F0F03000068
:103420000000303C0F0300000000000000BCFEE77D
:10343000C3C3E7FEBC0000000F1F39303030303905
:103440001F0F00003C7EE7C3C3C3C3E7FEFC0000C0
:1034500000303030381C0E070300042080000000CC
:10346000000000000000000000000000000000005C
:10347000000000000000000000000000000000004C
:10348000000000000000000000000000000000003C
:10349000000000000000000000000000000000002C
:103BA000000000000000C0C0C0C0C0C00000000095
:103BB0000000000000000000000000000000000005
:103BC0000000000000000F0F0F0F0F0F000000009B
:103BD00000000000000000000000000000000000E5
:103BE00000000000000000000000000000000000D5
:103BF00000000000000000000000000000000000C5
:103C000000000000000000000000000000000000B4
:103C100000000000000000000000000000000000A4
:103C20000000000000000000000000000000000094
:103C30000000000000000000000000000000000084
:103C40000000000000000000000000000000000074
:103C50000000000000000000000000000000000064
:103C6000C0C0FCFC3C3C0F0F0F0F0F0F0F0F0F0FCE
:103C7000FCFCFCFCC0C000000000000000000000D4
:103C8000FFFFFFFF00000000C0C0F0F03C3C0F0F42
:103C90000303FFFFFFFF0000000000000000000022
:103CA0003F3FFFFFFCFC0F0F03030000000000007C
:103CB000C0C0FFFF3F3F0000000000000000000008
:103CC0000000030303030F0F0F0F0F0F0F0F0F0F52
:103CD00003030303000000000000000000000000D8
:103CE00000000000F0F0F0F0FCFCFFFFFFFF000020
:103CF00000000000000000000000000000000000C4
:103D000000000000000000000000FFFFFFFF0000B7
:103D100000000000000000000000000000000000A3
:103D200000000000000000000000FFFFFFFF000097
:103D30000000000000000000000000000000000083
:103D4000000000000F0F0F0F0F0F0F0F0F0F0F0FBF
:103D50000F0F0F0F00000000000000000000000027
:103D6000F0F0FCFC3F3F0F0F0F0F0F0F0F0F0F0F67
:103D70003F3FFCFCF0F000000000000000000000ED
:103D800003030303000000000000C0C0F0F0FCFCCF
:103D90003F3F0F0F03030000000000000000000081
:103DA0000000C0C0F0F0FCFC3F3F0F0F0303000019
:103DB0000000000000000000000000000000000003
:103DC0000F0F0F0F0F0F0F0F0F0F0F0F0F0F0F0F03
:103DD0000F0F0F0F0F0F0000000000000000000089
:103DE000F0F0FCFC3F3F0F0F0F0F0F0F0F0F0F0FE7
:103DF0003F3FFCFCF0F0000000000000000000006D
:103E0000000000000000F0F0F0F0F0F0F0F0F0F052
:103E1000FCFC3F3F0F0F000000000000000000000E
:103E2000F0F0F0F0C0C00000000000000000000052
:103E3000C3C3FFFFFCFC0000000000000000000006
:103E4000000003030F0F0F0F0F0F0F0F0F0F0F0FB8
:103E50000F0F03030000000000000000000000003E
:103E6000000000000000C0C0F0F0FCFC3F3FFFFF7E
:103E7000FFFF000000000000000000000000000044
:103E8000F0F0FCFC3F3F0F0F030300000000FFFFBA
:103E9000FFFF000000000000000000000000000024
:103EA0000F0F0F0F0F0F0F0F0F0F0F0F0F0FFFFF42
:103EB000FFFF0F0F0F0F00000000000000000000C8
:103EC00000000000000000000000000000000F0FD4
:103ED0000F0F0000000000000000000000000000C4
:103EE000FFFFFFFF0F0F0F0F0F0F0F0F0F0F0F0F22
:103EF0000F0F0F0F0F0F0000000000000000000068
:103F00000F0F3F3F3C3C3C3C3C3C3C3C3C3C3C3C45
:103F1000FCFCF0F0C0C00000000000000000000049
:103F2000F0F0F0F0C0C00000000000000000000051
:103F3000C0C0FFFFFFFF0000000000000000000005
:103F4000000003030F0F0F0F0F0F0F0F0F0F0F0FB7
:103F50000F0F03030000000000000000000000003D
:103F600000000000C0C0F0F0FCFC3F3F0F0F0F0F3F
:103F70000F0F000000000000000000000000000023
:103F8000F0F0FFFFFFFFF3F3F0F0F0F0F0F0F0F0EF
:103F9000F0F0C0C0000000000000000000000000C1
:103FA000FFFFFFFFC3C3000000000000000000008F
:103FB000C3C3FFFFFFFF000000000000000000007F
:103FC000000003030F0F0F0F0F0F0F0F0F0F0F0F37
:103FD0000F0F0303000000000000000000000000BD
:103FE0000F0F0F0F0F0F0F0F0F0F0F0F0F0F0F0FE1
:103FF000FFFFFFFF0F0F00000000000000000000A7
:10400000000000000000000000000000F0F0FFFFD2
:104010000F0F000000000000000000000000000082
:104020000000000000000000F0F0FFFF0F0F000094
:104030000000000000000000000000000000000080
:104040000000000000000F0F0F0F00000000000034
:104050000000000000000000000000000000000060
:104060000000F0F0FCFC3F3F0F0F0F0F0F0F3F3F22
:10407000FCFCF0F000000000000000000000000068
:104080000000CFCFFFFFFCFCF0F0F0F0F0F0FCFC04
:10409000FFFFCFCF00000000000000000000000084
:1040A000FFFFFFFFC3C3000000000000000000008E
:1040B000C3C3FFFFFFFF000000000000000000007E
:1040C000000003030F0F0F0F0F0F0F0F0F0F0F0F36
:1040D0000F0F0303000000000000000000000000BC
:1040E000F0F0FCFC3F3F0F0F0F0F0F0F0F0F0F0FE4
:1040F0003F3FFCFCF0F0000000000000000000006A
:104100000F0F3F3FFCFCF0F0F0F0F0F0F0F0F0F0BB
:10411000FCFCFFFFFFFF00000000000000000000AB
:1041200000000000000000000000C0C0F0F0FCFC37
:104130003F3F0F0F000000000000000000000000E3
:10414000000000000F0F0F0F0F0F0F0F03030000F1
:10415000000000000000000000000000000000005F
:10416000000000000000000000000000000000004F
:10417000000000000000000000000000000000003F
:10418000000000000000000000000000000000002F
:10419000000000000000000000000000000000001F
:1041A000000000000000000000000000000000000F
:1041B00000000000000000000000000000000000FF
:1041C00000000000000000000000000000000000EF
:1041D00000000000000000000000000000000000DF
:1041E00000000000000000000000000000000000CF
:1041F00000000000000000000000000000000000BF
:1042000000000000000000000000000000000000AE
:10421000000000000000000000000000000000009E
:10422000000000000000000000000000000000008E
:10423000000000000000000000000000000000007E
:10424000000000000000000000000000000000006E
:10425000000000000000000000000000000000005E
:10426000000000000000000000000000000000004E
:10427000000000000000000000000000000000003E
:10428000000000000000000000000000000000002E
:10429000000000000000000000000000000000001E
:1042A000000000000000000000000000000000000E
:1042B00000000000000000000000000000000000FE
:1042C00000000000000000000000000000000000EE
:1042D00000000000000000000000000000000210CC
:1042E00020000000000000000000000000000000AE
:1042F00000000000000000000000000000000000BE
:1043000000000303007EFFC3C3660000000000003E
:10431000000000000000000000000000000000009D
:1043200000000000003C3C00003C3C00000000009D
:10433000000000000000000000000000000000007D
:10434000000000001090F07E1E90F07E1E10000015
:10435000000000021E1F03021E1F030200000000D7
:104360000000000078FCCCFFFFCCCC8800000000EF
:1043700000000000040C0C3F3F0C0F070000000081
:10438000000000003838380080C0E070381C0000A1
:1043900000000030381C0E070301383838000000D8
:1043A0000000000000B8FCC6E23E1C000000000057
:1043B000000000001F3F3121371E1C362200000084
:1043C000000000000000273F1F0000000000000068
:1043D00000000000000000000000000000000000DD
:1043E0000000000000F0FCFE0701010000000000DA
:1043F0000000000000030F1F382020000000000014
:104400000000000000010107FEFCF00000000000B9
:1044100000000000002020381F0F030000000000F3
:104420000000000098B8E0F8F8E0B898000000003C
:10443000000000000C0E030F0F030E0C0000000024
:1044400000000000808080F0F0808080000000008C
:10445000000000000101010F0F0101010000000038
:10446000000000000000000000000000000000004C
:10447000000000000000B8F8780000000000000014
:10448000000000008080808080808080000000002C
:104490000000000001010101010101010000000014
:1044A000000000000000000000000000000000000C
:1044B0000000000000003838380000000000000054
:1044C0000000000000000080C0E070381C0E0000FA
:1044D000000000181C0E070301000000000000008F
:1044E000000000F8FE060383C363331EFEF80000DD
:1044F000000000071F1E3331303030181F07000046
:1045000000000000000C0C0EFFFF00000000000087
:1045100000000000003030303F3F303030000000FD
:104520000000001C1E07030383C3E3773E1C00004A
:1045300000000030383C3E3733313030303000003E
:104540000000000C0E07C3C3C3C3C3E77E3C0000DA
:104550000000000C1C383030303030391F0E0000A5
:10456000000000C0E070381C0E07FFFF00000000D4
:10457000000000030303030303033F3F03030000A2
:104580000000003F7F636363636363E3C3830000F2
:104590000000000C1C383030303030381F0F000065
:1045A000000000C0F0F8DCCEC7C3C3C38000000029
:1045B0000000000F1F393030303030391F0F00003D
:1045C000000000030303030303C3F33F0F030000D2
:1045D000000000000000303C0F030000000000005D
:1045E00000000000BCFEE7C3C3C3E7FEBC00000040
:1045F0000000000F1F393030303030391F0F0000FD
:104600000000003C7EE7C3C3C3C3C3E7FEFC000059
:104610000000000000303030381C0E07030000009E
:10462000000000000000707070000000000000003A
:104630000000000000001C1C1C0000000000000026
:10464000000000000000707070000000000000001A
:104650000000000000009CFC7C0000000000000046
:1046600000000000C0E0F0381C0E0703000000004E
:1046700000000000000103070E1C3830000000009D
:1046800000000000606060606060606060000000CA
:1046900000000000060606060606060606000000E4
:1046A0000000000003070E1C38F0E0C0000000000E
:1046B0000000000030381C0E07030100000000005D
:1046C0000000001C1E070383C3E3773E1C000000AC
:1046D000000000000000003737000000000000006C
:1046E000000000F8FE07F3FB1BFBFB07FEF80000D1
:1046F0000000000F1F18333736373736030100002C
:104700000000000000E0FC1F1FFCE00000000000B3
:10471000000000383F0706060606073F3800000085
:10472000000000FFFFC3C3C3C3E7FEBC00000000DE
:104730000000003F3F3030303030391F0F000000A4
:10474000000000F0FC0E07030303070E0C0000003E
:10475000000000030F1C38303030381C0C00000003
:10476000000000FFFF03030303070EFCF00000003E
:104770000000003F3F30303030381C0F0300000095
:10478000000000FFFFC3C3C3C3C3C3030300000093
:104790000000003F3F30303030303030300000001B
:1047A000000000FFFFC3C3C3C3C3C3030300000073
:1047B0000000003F3F00000000000000000000007B
:1047C000000000F0FC0E0703C3C3C3C7C60000000F
:1047D000000000030F1C38303030303F3F00000035
:1047E000000000FFFFC0C0C0C0C0C0FFFF0000004D
:1047F0000000003F3F0000000000003F3F000000BD
:1048000000000000000303FFFF030300000000009E
:10481000000000000030303F3F303000000000005A
:104820000000000000000000000000FFFF0000008A
:104830000000000E1E3830303030381F07000000F6
:10484000000000FFFFC0E0F0381C0E07030000006E
:104850000000003F3F000103070E1C38300000003D
:10486000000000FFFF00000000000000000000004A
:104870000000003F3F30303030303030300000003A
:10488000000000FFFF1E78E0E0781EFFFF00000040
:104890000000003F3F0000010100003F3F0000001A
:1048A000000000FFFF0E38F0C00000FFFF00000016
:1048B0000000003F3F00000003071C3F3F000000D6
:1048C000000000F0FC0E070303070EFCF0000000E0
:1048D000000000030F1C383030381C0F03000000AC
:1048E000000000FFFF8383838383C7FE7C000000FA
:1048F0000000003F3F010101010101000000000034
:10490000000000F0FC0E070303070EFCF00000009F
:10491000000000030F1C3830363E1C3F33000000FF
:10492000000000FFFF8383838383C7FE7C000000B9
:104930000000003F3F010103070F1D383000000059
:104940000000003C7EE7C3C3C3C3C78E0C00000059
:104950000000000C1C3830303030391F0F000000D0
:1049600000000000030303FFFF0303030000000037
:10497000000000000000003F3F00000000000000B9
:10498000000000FFFF000000000000FFFF0000002B
:10499000000000071F3830303030381F070000009B
:1049A000000000073FF8C00000C0F83F070000000B
:1049B0000000000000010F3E3E0F0100000000005B
:1049C000000000FFFF000080800000FFFF000000EB
:1049D0000000003F3F1C060303061C3F3F00000091
:1049E000000000030F1C30E0E0301C0F030000004B
:1049F000000000303C0E030101030E3C30000000BB
:104A0000000000030F3CF0C0C0F03C0F03000000AA
:104A1000000000000000003F3F0000000000000018
:104A200000000003030303C3E3331F0F0300000070
:104A3000000000303C3E3331303030303000000078
:104A40000000000000000000000000000000000066
:104A50000000000000000000000000000000000056
:104A60000000000E1C3870E0C08000000000000054
:104A700000000000000000000103070E1C180000E9
:104A80000000000000000000000000000000000026
:104A90000000000000000000000000000000000016
:104AA0000000000000000000000000000000000006
:104AB00000000000000000000000000000000000F6
:104AC00000000000000000000000000000000000E6
:104AD000000000C0C0C0C0C0C0C0C0C0C0C0000096
:104AE00000000000000000000000000000000000C6
:104AF00000000000000000000000000000000000B6
:104B00000000000040606060606060E0C000000085
:104B10000000001C3E3333333333333F3F0000008B
:104B2000000000FFFFC060606060E0C08000000027
:104B30000000003F3F3030303030381F0F000000A1
:104B400000000080C0E06060606060C08000000025
:104B50000000000F1F3830303030301808000000DF
:104B600000000080C0E0606060E0C0FFFF00000067
:104B70000000000F1F3830303030303F3F00000061
:104B800000000080C0E06060606060C080000000E5
:104B90000000000F1F3B3333333333130100000099
:104BA000000000C0C0FCFEC7C3C30300000000003B
:104BB00000000000003F3F00000000000000000077
:104BC00000000080C0E06060606060E0E000000025
:104BD00000000003C7CECCCCCCCCE67F3F00000069
:104BE000000000FFFFC0606060E0C08000000000C7
:104BF0000000003F3F00000000003F3F00000000B9
:104C000000000000000060ECEC000000000000006C
:104C1000000000000030303F3F3030000000000056
:104C2000000000000000000060ECEC00000000004C
:104C3000000000000060E0C0C0FF7F000000000036
:104C400000000000FFFF0080C0E0600000000000E6
:104C5000000000003F3F03070F1C38300000000039
:104C600000000000000003FFFF0000000000000043
:104C7000000000000030303F3F30300000000000F6
:104C8000000000E0C0E0E0C0C0E0E0C08000000044
:104C90000000003F3F00003F3F00003F3F0000009A
:104CA00000000000E0E060606060E0C080000000A4
:104CB000000000003F3F00000000003F3F000000F8
:104CC00000000080C0E060606060E0C08000000024
:104CD0000000000F1F3830303030381F0F00000048
:104CE000000000E0E06060606060E0C08000000004
:104CF000000000FFFF0C181818181C0F0700000018
:104D000000000080C0E06060606060E0E0000000E3
:104D1000000000070F1C181818180CFFFF000000F7
:104D200000000000E0E0C060606060E0C0000000E3
:104D3000000000003F3F00000000000000000000F5
:104D4000000000C0E06060606060400000000000A3
:104D50000000001133333333333F1E0000000000E6
:104D60000000006060FEFE60606000000000000067
:104D700000000000001F3F30303030000000000015
:104D8000000000E0E0000000000000E0E0000000A3
:104D90000000000F1F3830303030183F3F00000057
:104DA00000000060E0800000000080E06000000083
:104DB0000000000001071E38381E07010000000037
:104DC000000000E0E00000E0E00000E0E0000000A3
:104DD000000000071F381C0F0F1C381F07000000C1
:104DE00000000060E0C0800080C0E06000000000C3
:104DF00000000030381D0F070F1D38300000000084
:104E00000000000060E080000080E0600000000022
:104E1000000000000081E77E1E0701000000000086
:104E20000000006060606060E0E060200000000062
:104E300000000030383C36333130303000000000A4
:104E40000000000080C0FC7E070303030000000098
:104E50000000000000011F3F706060600000000063
:104E60000000000000000000000000000000000042
:104E70000000000000000000000000000000000032
:104E80000000000000000000000000000000000022
:104E90000000000000000000000000000000000012
:105E40000000000000000000FEFE0606060600003E
:105E50000000000003060C183F3F00000000000097
:105E60000000000000000000000000000000000032
:105E70000000000000000000000000000000000022
:105E80000000000000000000000000000000000012
:105E90000000000000000000000000000000000002
:105EA00000000000000000000000000000000000F2
:105EB00000000000000000000000000000000000E2
:105EC00000000000000000000000000000000000D2
:105ED00000000000000000000000000000000000C2
:105EE000000080E08093F7010D990C94742F84E6F4
:105EF00090E00E94B0490E941F4A81E08093F8011F
:105F000082E38A9384E18A9380E08A93ECECFAE15D
:105F10000E94B64C882780933F010E94974A0091C7
:105F2000F701023011F00C94A82FA8EFB1E08C918A
:105F30008F5F8C930091F801063018F011F00C94EB
:105F4000A32F0C94A62F81E08093F8010E941F4A92
:105F50000091F701033011F00C94BE2F8091F801ED
:105F600081508093F8010091F801003011F00C94F9
:105F7000BC2F86E08093F8010E941F4A0091F70130
:105F8000043011F00C94D92F81E08093D2010E944B
:105F9000DC3E8FE08093D2010E94DC3E8EE1809354
:105FA000D2010E94DC3E80E08093F7010E941F4AEC
:105FB00008950091F701023081E009F080E08F93AD
:105FC0000091F701033081E009F080E09F91892B77
:105FD000882311F40C946D300091F801013011F018
:105FE0000C94033082E38A9384E18A9380E08A935D
:105FF000ECECFAE10E94B64C882780933F010E94A6
:10600000974A0C946A30023011F00C94183082E3F5
:106010008A9384E18A9380E08A93E2EFF9E10E9417
:10602000B64C882780933F010E94974A0C946A30AF
:10603000033011F00C942D3082E38A9384E18A932B
:1060400080E08A93E4E4FBE10E94B64C88278093C9
:106050003F010E94974A0C946A30043011F00C946E
:10606000423082E38A9384E18A9380E08A93E6E770
:10607000FAE10E94B64C882780933F010E94974A1C
:106080000C946A30053011F00C94573082E38A93F7
:1060900084E18A9380E08A93E2E0F9E10E94B64CC1
:1060A000882780933F010E94974A0C946A300630FB
:1060B00011F00C946A3082E38A9384E18A9380E041
:1060C0008A93E6E6F8E10E94B64C882780933F0168
:1060D0000E94974A80E08093F7010091F701013018
:1060E00011F00C94A83080E08093F7010E941F4AC1
:1060F0000091F801013011F00C9482300E94A23C12
:106100000C94A830023011F00C948A300E94A63C06
:106110000C94A830033011F00C9492300E94223D70
:106120000C94A830043011F00C949A300E949E3DDB
:106130000C94A830053011F00C94A2300E947E43DC
:106140000C94A830063011F00C94A8300E94C43191
:106150000E94D9480C948F2F0895A1E5B1E00D91CC
:106160001C91063050E0150781E009F080E08F9324
:10617000A9E4B1E00D911C910F3150E0150781E0C9
:1061800009F080E09F918923882311F40C94053154
:1061900000914301003081E009F080E08F9300918D
:1061A0004201003081E009F080E09F9189238F93C4
:1061B000A9ECB1E08C9186FB81E00EF480E09F9128
:1061C0008923882311F40C9403317091C901706400
:1061D0007093C901A9ECB1E08C9186FB16F00C9488
:1061E000033187E18093430180E0809342018EE197
:1061F00090E0A9E4B1E08D939C930E9461070E9416
:10620000CD050E9409060C94243100914301003011
:1062100081E009F080E08F9300914201003081E03D
:1062200009F080E09F918923882311F40C94243194
:10623000A0E4B1E08C918F5F8C93E0E0F0E0A0E40B
:10624000B1E07BE70E94404DA1E5B1E00D911C91CA
:10625000013050E0150781E009F080E08F93A9E458
:10626000B1E00D911C91023050E0150781E009F07A
:1062700080E09F918923882311F40C94763100915A
:106280004301003081E009F080E08F9300914201EA
:10629000003081E009F080E09F9189238F93A9EC81
:1062A000B1E08C9186FB81E00EF480E09F91892320
:1062B000882311F40C9474317091C9017064709347
:1062C000C901A9ECB1E08C9186FB16F00C947431F5
:1062D00081E08093430180E0809342010E94610746
:1062E0000E94CD050E9409060C949531009143014E
:1062F000003081E009F080E08F930091420100308E
:1063000081E009F080E09F918923882311F40C94A7
:106310009531A0E4B1E08C918F5F8C93E0E0F0E0E8
:10632000A0E4B1E07BE70E94404D009143010130C1
:1063300081E009F080E08F9300914201013081E01B
:1063400009F080E09F9189238F93A9ECB1E08C91B3
:1063500086FB81E00EF080E09F918923882311F471
:106360000C94C3317091C9017F7B7093C901A0E483
:10637000B1E08C918F5F8C93E0E0F0E0A0E4B1E0BD
:106380007BE70E94404D089580E08093F70181E013
:106390008093F8010091F801013011F00C94E13183
:1063A00083E080933D0181E080933E0188278093C4
:1063B0003F01E6E8FCE90E94B64C0E947F490C943C
:1063C0004832023011F00C94F63183E080933D01A5
:1063D00081E080933E01882780933F01E6E9FCE954
:1063E0000E94B64C0E947F490C944832033011F051
:1063F0000C940B3283E080933D0181E080933E0159
:10640000882780933F01E0EAFCE90E94B64C0E9495
:106410007F490C944832043011F00C94203283E010
:1064200080933D0181E080933E01882780933F0166
:10643000ECEAFCE90E94B64C0E947F490C94483279
:10644000053011F00C94353283E080933D0181E0FA
:1064500080933E01882780933F01EAEBFCE90E948C
:10646000B64C0E947F490C944832063011F00C94CF
:10647000483283E080933D0181E080933E0188278C
:1064800080933F01E8ECFCE90E94B64C0E947F49F2
:106490000E94D9480091F701043011F00C94533256
:1064A0000E941F4A08950091F701023011F00C94E8
:1064B0006032A8EFB1E08C918F5F8C930E941F4AED
:1064C0000091F701033011F00C946D328091F801C6
:1064D00081508093F8010E941F4A81E080933D0122
:1064E00081E080933E0181E080933F01E4EDFCE98F
:1064F0000E94B64C0E947F490091F801003011F0D3
:106500000C94853286E08093F8010091F801063002
:1065100018F011F00C948E320C94913281E080933B
:10652000F8010091F701013011F00C940E33009145
:10653000F801013011F00C94A1320E947E350C94C8
:106540000E33023011F00C94EA3283E080933D0167
:1065500081E080933E01882780933F01E6EEFCE9CD
:106560000E94B64C0E947F49E3E1F0E0A0E1BB2726
:1065700080E08C937BE70E94404DE4E1F0E0A0E1F5
:10658000BB2780E08C937BE70E94404DE5E1F0E083
:10659000A0E1BB2780E08C937BE70E94404D80E028
:1065A0008093F90188EE8093E2018EE68093CE011C
:1065B0008BE18093D2010E94DC3E88EE8093E20161
:1065C0008FE68093CE018BE18093D2010E94DC3E66
:1065D0000C940E33033011F00C94F2320E941133FC
:1065E0000C940E33043011F00C94FA320E94FA33FA
:1065F0000C940E33053011F00C9405338EE6809325
:10660000FA010E948F340C940E33063011F00C9472
:106610000E338FE68093FA010E948F340C94CA31B6
:1066200008950E94D9480091F701043011F00C94AC
:106630002133E5E1F0E0A9EFB1E07BE70E94404DB6
:1066400008950091F701023011F00C943333A9EF53
:10665000B1E08C918F5F8C93E5E1F0E0A9EFB1E0C0
:106660007BE70E94404D0091F701033011F00C943C
:1066700045338091F90181508093F901E5E1F0E023
:10668000A9EFB1E07BE70E94404D0091F901023390
:1066900018F011F00C944E330C94513381E0809338
:1066A000F9010091F901013010F00C945A3381E0A6
:1066B0008093F901E5E1F0E0A9EFB1E00E94514DCE
:1066C00081E080933D0181E080933E0181E08093F1
:1066D0003F01E6EFFCE90E94B64C0E947F4983E04F
:1066E00080933D0181E080933E01882780933F01A4
:1066F000E8E0FDE90E94B64C0E947F49A8EFBFE0A8
:10670000E9EFF1E00E94D74C0E947749E4E1FDE90E
:106710000E94B64C0E947F490091F701013011F0B0
:106720000C94F73383E080933D0181E080933E0138
:10673000882780933F01E8E1FDE90E94B64C0E9462
:106740007F4980E08093F7010091F901003011F05A
:106750000C94AD3381E08093F901E5E1F0E0A9EF1D
:10676000B1E07BE70E94404D8091F9018093CD011B
:1067700081E08093D2010E94DC3E0E94D9480091C2
:10678000F901023318F011F00C94C8330C94CB3398
:1067900081E08093F9018091F9018093CD0183E03C
:1067A0008093D2010E94DC3EE3E0F0E00E94864943
:1067B00083E080933D0181E080933E0188278093B0
:1067C0003F01EAE2FDE90E94B64C0E947F49A8EF32
:1067D000BFE0E9EFF1E00E94D74C0E9477490091B9
:1067E000F701043011F00C94B8330E941F4A0C9446
:1067F000113308958FE08093D2010E94DC3E81E046
:106800008093D2010E94DC3E8EE68093CE01E3E1CC
:10681000F0E0ADECB1E00E94514D85E080933D0188
:1068200081E080933E01882780933F01E6E3FDE904
:106830000E94B64C0E947F49A8EFBFE0EDECF1E06A
:106840000E94D74C0E9477498AE18093D2010E942E
:10685000DC3E8FE68093CE01E4E1F0E0ADECB1E008
:106860000E94514D86E080933D0181E080933E017E
:10687000882780933F01EEE3FDE90E94B64C0E9419
:106880007F49A8EFBFE0EDECF1E00E94D74C0E94F9
:1068900077498AE18093D2010E94DC3E8AE18093AD
:1068A000D2010E94DC3E85E080933D0181E080932F
:1068B0003E01882780933F01E4E4FDE90E94B64C45
:1068C0000E947F4986E080933D0181E080933E01F4
:1068D000882780933F01E6E5FDE90E94B64C0E94BF
:1068E0007F4987E080933D0181E080933E018827C6
:1068F00080933F01E8E6FDE90E94B64C0E947F4983
:106900000E94D9480091F701043011F00C948C34A6
:106910000E941F4A0C948E340C94803408950E9477
:106920001F4A81E08093F8010E94D9480091F70145
:10693000043011F00C949F340E941F4A0895009176
:10694000F701023011F00C94B334A8EFB1E08C9150
:106950008F5F8C93E6E1F0E0A8EFB1E07BE70E9467
:10696000404D0E941F4A0091F701033011F00C9432
:10697000C7348091F80181508093F801E6E1F0E09E
:10698000A8EFB1E07BE70E94404D0E941F4AE6E17C
:10699000F0E0A8EFB1E00E94514D0091FA010E36EF
:1069A00011F00C94E23481E080933D0181E080930A
:1069B0003E0181E080933F01EAE7FDE90E94B64C89
:1069C0000E947F490091FA010F3611F00C94F734C0
:1069D00081E080933D0181E080933E0181E08093DE
:1069E0003F01ECE8FDE90E94B64C0E947F4985E03A
:1069F00080933D0181E080933E01882780933F0191
:106A0000EEE9FDE90E94B64C0E947F49A8EFBFE085
:106A1000E8EFF1E00E94D74C0E947749E4E1FDE9FC
:106A20000E94B64C0E947F490091F701013011F09D
:106A30000C94753586E080933D0181E080933E01A2
:106A4000882780933F01E8EAFDE90E94B64C0E9446
:106A50007F490091FA010E3611F00C944A358FE00F
:106A60008093D2010E94DC3E81E08093D2010E949B
:106A7000DC3E8EE68093CE0184EB8093CF0188E1EB
:106A80008093D2018091F8018093CD010E94DC3E79
:106A90000C9475350091FA010F3611F00C94753590
:106AA0008FE08093D2010E94DC3E81E08093D2018E
:106AB0000E94DC3E8FE68093CE0187EB8093CF016E
:106AC0008DE18093D2018091F8018093CD010E94E5
:106AD000DC3E80EA8093CF0189E18093D2018091EE
:106AE000F8018093CD010E94DC3E80E08093F701A5
:106AF0000C94943408950E941F4A089581E0809375
:106B0000F8010E941F4A0E94D9480091F701043001
:106B100011F00C9493358FE08093D2010E94DC3EFB
:106B20000E941F4A08950091F701013011F00C9462
:106B3000CB350091F801013011F00C94BC3582EF97
:106B40008093E20188E68093CE0186E18093D201B2
:106B50000E94DC3E8BE18093D2010E94DC3E85E600
:106B60008093CE0182EF8093E2018BE18093D2018A
:106B70000E94DC3E0C94CB35023011F00C94C735EA
:106B800085E18093D2010E94DC3E0C94CB3503302A
:106B900011F00C94CB3581E080933D0181E080932E
:106BA0003E0181E080933F01A8EFBFE0BA93AA9332
:106BB000D201E4EBFDE90E94B64C0E94064B85E150
:106BC0000E94F64A0E94160E249685E10E94F24A1F
:106BD0000E9477490091F701023011F00C940336BE
:106BE000A8EFB1E08C918F5F8C930091F801023097
:106BF00018F011F00C94FE350C94013681E080936E
:106C0000F8010E941F4A0091F701033011F00C9423
:106C100019368091F80181508093F8010091F801B4
:106C2000003011F00C94173682E08093F8010E9436
:106C30001F4A0091F801013011F00C94403683E0B6
:106C400080933D0181E080933E01882780933F013E
:106C5000A8EFBFE0BA93AA93D201E6ECFDE90E9447
:106C6000B64C0E94064B85E10E94F64A0E94160E21
:106C7000249685E10E94F24A0E9477490C9463367B
:106C8000023011F00C94633683E080933D0181E083
:106C900080933E01882780933F01A8EFBFE0BA931D
:106CA000AA93D201E8EDFDE90E94B64C0E94064B82
:106CB00085E10E94F64A0E94160E249685E10E9404
:106CC000F24A0E9477490C948335089580E08093BE
:106CD000CA010E941F4A0091CD01053311F00C94A6
:106CE000923681E080933D0181E080933E0181E016
:106CF00080933F01A8EFBFE0BA93AA93D201EAEED6
:106D0000FDE90E94B64C0E94064B85E10E94F64ABE
:106D10000E94160E249685E10E94F24A0E9477494D
:106D20000C94DA36063311F00C94B73681E0809378
:106D30003D0181E080933E0181E080933F01A8EF17
:106D4000BFE0BA93AA93D201ECEFFDE90E94B64CE2
:106D50000E94064B85E10E94F64A0E94160E249678
:106D600085E10E94F24A0E9477490C94DA36043396
:106D700011F00C94DA3681E080933D0181E080933C
:106D80003E0181E080933F01A8EFBFE0BA93AA9350
:106D9000D201EEE0FEE90E94B64C0E94064B85E16E
:106DA0000E94F64A0E94160E249685E10E94F24A3D
:106DB0000E947749A8E7B1E00E941049A8E7B1E036
:106DC0000D911C91053050E0150718F011F00C944E
:106DD000EB360C94FE3680E090E0A8E7B1E08D93AE
:106DE0009C93A9ECB1E08C9187FB882780F9809572
:106DF00080FBA9ECB1E08C9187F98C930091DA01CA
:106E0000013010F00C94073783E08093DA01009191
:106E1000DA01033018F011F00C9410370C9413378A
:106E200081E08093DA010091D6010B3318F011F064
:106E30000C941C370C941F3780E08093D60100918E
:106E4000D7010B3318F011F00C9428370C942B3722
:106E500080E08093D7010091D8010B3318F011F036
:106E60000C9434370C94373780E08093D80100912C
:106E7000D9010B3318F011F00C9440370C944337C0
:106E800080E08093D901AAE7B1E088278C93009134
:106E9000CA01013081E009F080E08F93A9ECB1E0F4
:106EA0008C9187FB81E00EF480E09F9189238823F9
:106EB00011F40C946737AAE7B1E00E945E49E0E262
:106EC000FEE90E94B64C0E94064B0C949737009145
:106ED000DA01013011F00C947737AAE7B1E00E9493
:106EE0005E49E8E2FEE90E94B64C0E94064B009122
:106EF000DA01023011F00C948737AAE7B1E00E9462
:106F00005E49E2E3FEE90E94B64C0E94064B009106
:106F1000DA01033011F00C949737AAE7B1E00E9430
:106F20005E49ECE3FEE90E94B64C0E94064BEEE59A
:106F3000F8E20E94B64CAAE3B1E0ED93FD938BB763
:106F40008C9383E080933D0181E080933E0188270C
:106F500080933F01AAE7B1E00E947949EEE5F8E2AB
:106F60000E94B64CAAE3B1E0ED93FD938BB78C93EE
:106F70000091DA01033011F00C94363BAAE7B1E03E
:106F8000E6E4FEE90E94B64C0E94064B0091CA015D
:106F9000023081E009F080E08F93A9ECB1E08C91A0
:106FA00087FB81E00EF480E09F918923882311F410
:106FB0000C94E637AAE7B1E00E945E49E4E1FDE9FE
:106FC0000E94B64C0E94064B0C940438AEEBB1E024
:106FD000E6EDF1E00E94D74CEEEBF1E0A8EFBFE068
:106FE0000E94204DE8EFFFE0AEEBB1E01127222731
:106FF00002E033270E94264BEEEBF1E0AAE7B1E076
:107000000E945E490E94204DAAE7B1E00E945E49BD
:10701000EEE4FEE90E94B64C0E94064B0091CA01C4
:10702000033081E009F080E08F93A9ECB1E08C910E
:1070300087FB81E00EF480E09F918923882311F47F
:107040000C942E38AAE7B1E00E945E49E4E1FDE924
:107050000E94B64C0E94064B0C944C38AEEBB1E04B
:10706000E7EDF1E00E94D74CEEEBF1E0A8EFBFE0D6
:107070000E94204DE8EFFFE0AEEBB1E011272227A0
:1070800002E033270E94264BEEEBF1E0AAE7B1E0E5
:107090000E945E490E94204D86E080933D0181E080
:1070A00080933E01882780933F01A8EFBFE0BA9309
:1070B000AA93EAE7F1E0D2010E94204D85E10E9407
:1070C000F64A0E94160E249685E10E94F24A0E941A
:1070D0007749AAE7B1E0E0E5FEE90E94B64C0E94DC
:1070E000064B0091CA01043081E009F080E08F93E3
:1070F000A9ECB1E08C9187FB81E00EF480E09F91D8
:107100008923882311F40C949138AAE7B1E00E94F6
:107110005E49E4E1FDE90E94B64C0E94064B0C94E6
:10712000AF38AEEBB1E0E8EDF1E00E94D74CEEEB0A
:10713000F1E0A8EFBFE00E94204DE8EFFFE0AEEBEA
:10714000B1E01127222702E033270E94264BEEEB05
:10715000F1E0AAE7B1E00E945E490E94204DAAE753
:10716000B1E00E945E49EEE4FEE90E94B64C0E9446
:10717000064B0091CA01053081E009F080E08F9351
