:100000000C94460018950000189500001895000003
:10001000189500001895000018950000189500002C
:10002000189500001895000018950000189500001C
:10003000189500001895000018950000189500000C
:1000400018950000189500001895000018950000FC
:1000500018950000189500001895000018950000EC
:1000600018950000189500001895000018950000DC
:1000700018950000189500001895000018950000CC
:100080001895000018950000189500008FEF8DBF9F
:10009000C0ECE0E14E2E80E18EBFD0E1F0E15F2EBA
:1000A000A89584B7082E877F84BF88E1992781BDF2
:1000B00091BDEEEFFFE0A0E0B1E088278D9331978E
:1000C000E9F787E489B980E08093900088E18AB9F4
:1000D000662481E0E3E30E946158A1E0B1E0E7E13A
:1000E000F1E098E00E946F5981E0E3E30E946658D6
:1000F000AAE0B1E0E7E1F1E098E00E946F597AB33D
:1001000077677ABB0E940F56E2ECFCE20E94FF5830
:10011000A0E7B1E0ED93FD938BB78C930E94295635
:100120008FEF809361008FEF8ABB15981698179810
:10013000B898D39A70916400746070936400A49A24
:10014000A09A709164007160709364008FE1809355
:1001500096018CE1809397018FE1809398018EE165
:10016000809399018FE180939A018EE180939B01A6
:100170008FE180939C018FE180939D018EE18093BC
:100180009E018FE180939F018EE18093A0018FE11A
:100190008093A101A0EBB1E0E2E6F4EB0E94FF58EE
:1001A0000E944F5778948CEF80930C028CED8093D3
:1001B0000D02E0E0F0E0A6E7B1E07BE70E9489599C
:1001C000DB9A0E946F560E94ED4A80E08A9380E09D
:1001D0008A9380E08A93E0E4F7E10E94FF58882741
:1001E000809375010E94E7568CEB92E00E940056C6
:1001F0000E946F5684EF91E00E94005684E690E0E2
:100200000E9400560E94A3310E94B93440916402BA
:1002100000917701041711F40C9414010E94B63276
:100220000E9413370E94E637809177018093640221
:100230000E94D34900916A020A3080E010F009F070
:1002400081E08F9300916A020F3081E008F080E036
:100250009F918923882311F40C9430010E948C4DC6
:1002600000916A02043180E010F009F081E08F9380
:1002700000916A02093181E008F080E09F918923B2
:10028000882311F40C9446010E94594B0C94FE00F3
:100290000E94FE00ADE6B2E08C918F5F8C93ACE6DD
:1002A000B2E08C918F5F8C9331E0A8E0B2E00E94C5
:1002B000B55500916C02053081E009F080E08F9324
:1002C00000910802063E81E009F080E09F918923B9
:1002D000882311F40C94710170913A017860709345
:1002E0003A01009108020C3F11F00C947A0181E070
:1002F00080936C0280910802ACE6B2E0AD90BB2422
:10030000A9E4B2E0AA0DBB1D8C93AAE3B1E08C91E5
:1003100083FB81E00EF080E08F9300914A020C3F56
:1003200081E009F080E09F918923882311F40C94E7
:10033000B10180E080936C0280914B0280930A02AD
:1003400080914C0280930B0280914D0280930902B0
:100350000E94314870913A01777F70933A010E9470
:100360006F560895A5E3B1E00D911C914AE050E06D
:100370000E944557A5E3B1E00D931C93A5E3B1E0BE
:100380000D911C9140E150E00E947455A5E3B1E04D
:100390004D935C93AFE1B1E0E5E3F1E00E941959C0
:1003A000EFE1F1E0A8EFBFE00E946959E8EFFFE05C
:1003B000AFE1B1E01127222702E031E00E946F5740
:1003C0000895A0E1B0E0BA93AA93A1E8B1E0BA938E
:1003D000AA930E9448542496003011F00C94F50121
:1003E0008CE1809397010C94F8018DE18093970143
:1003F000A5E8B1E00D911C9101501040A0E9B1E0D9
:100400000D931C9380E090E0AAE8B1E08D939C935B
:1004100081E090E0AEE8B1E08D939C93A0E9B1E07B
:100420004D915C91AEE8B1E00D911C910417150758
:1004300018F011F00C943702AAE8B1E00D911C916C
:10044000AEE8B1E0AD90BD90A5E9B1E0AA0DBB1D4D
:100450004D915527040F151FAAE8B1E00D931C9389
:10046000AEE8B1E00E94605510F40C940E02AAE8C8
:10047000B1E00D911C91ADE7B1E04D915C91040F9D
:10048000151FAAE8B1E00D931C93AAE8B1E00D9105
:100490001C910F3450E0150718F011F00C94520223
:1004A0000C946802A1E8B1E00D911C910D56124028
:1004B000A3E8B1E00D931C93AAE8B1E00D911C9163
:1004C0000F541040ACE8B1E00D931C930C94A302C0
:1004D000A1E8B1E00D911C910E561240A3E8B1E0E5
:1004E0000D931C93A1E8B1E00D911C9101501040B7
:1004F000A8EAB1E00D931C93AAEAB1E0BA93AA93DB
:10050000A8EAB1E0BA93AA930E94485424960091B5
:10051000AA01003011F00C949902AAE8B1E00D9103
:100520001C91025E1E4FACE8B1E00D931C930C943D
:10053000A302AAE8B1E00D911C91015E1E4FACE848
:10054000B1E00D931C9381E090E0A7E8B1E08D93BA
:100550009C93ACE8B1E00D911C910E3150E0150771
:1005600018F011F00C94B6020C94DC02A7E8B1E08C
:100570000D911C91073050E0150710F00C94CC023F
:10058000ACE8B1E00D911C910F511040ACE8B1E026
:100590000D931C930C94D602ACE8B1E00D911C9124
:1005A0000E511040ACE8B1E00D931C93A7E8B1E008
:1005B0000E9460550C94A902ACE8B1E00D911C9129
:1005C000003050E0150711F00C940403A7E8B1E0E7
:1005D0000E946755A7E8B1E00D911C91073050E0EB
:1005E000150710F00C94FC028FE190E0AFE7B1E04A
:1005F0008D939C930C9402038EE190E0AFE7B1E001
:100600008D939C930C940C03ACE8B1E08D919C917C
:10061000AFE7B1E08D939C93089580E090E0ACE863
:10062000B1E08D939C93A7E8B1E00D911C91063049
:1006300050E0150718F011F00C9420030C944C03B3
:100640008AEB90E0ACE8B1E08D939C93A7E8B1E031
:100650000D911C9107501040A8EAB1E00D931C9336
:10066000A8EAB1E00D911C914EE150E00E9445577F
:10067000A8EAB1E00D931C93ACE8B1E00D911C9198
:10068000A8EAB1E04D915C91040F151FACE8B1E010
:100690000D931C930C947003A7E8B1E00D911C918D
:1006A00001501040A8EAB1E00D931C93A8EAB1E014
:1006B0000D911C914FE150E00E944557A8EAB1E02E
:1006C0000D931C93ACE8B1E00D911C91A8EAB1E048
:1006D0004D915C91040F151FACE8B1E00D931C9394
:1006E000ACE8B1E00D911C91AFE7B1E04D915C91A8
:1006F000040F151FACE8B1E00D931C93ACE8B1E01A
:100700000D911C910E3151E0150718F011F00C9469
:100710008B030C94A103A3E8B1E00D911C91025945
:100720001D4FA1E8B1E00D931C93ACE8B1E00D9131
:100730001C910E511140AAE8B1E00D931C930C944A
:10074000B503A3E8B1E00D911C9103591D4FA1E839
:10075000B1E00D931C93ACE8B1E00D911C91015BED
:100760001F4FAAE8B1E00D931C93A0E1B0E0BA934B
:10077000AA93A1E8B1E0BA93AA930E9448542496A0
:10078000003011F00C94C9038CE1809397010C9414
:10079000CC038DE18093970181E090E0A5E8B1E082
:1007A0008D939C93A5E8B1E00D911C910C3050E025
:1007B000150718F011F00C940404AAE8B1E00D91AB
:1007C0001C910F3150E0150710F00C94E9030C94C4
:1007D0000404AAE8B1E00D911C91A5E8B1E0AD9048
:1007E000BD90A5E9B1E0AA0DBB1D4D915527041B95
:1007F000150BAAE8B1E00D931C93A5E8B1E00E94A7
:10080000605510F40C94D203A5E8B1E0AD90BD9012
:10081000A5E9B1E0AA0DBB1D4D915527AAE8B1E0AD
:100820000D911C910417150718F011F00C941A047F
:100830000C943204AAE8B1E00D911C91AEE8B1E04D
:10084000AD90BD90A5E9B1E0AA0DBB1D4D91552716
:10085000041B150BAAE8B1E00D931C93A5E8B1E0C9
:100860000E946055AAE8B1E08D919C91ADE7B1E09E
:100870008D939C930895404000AA1800C0E0AA01FF
:10088000E0F0AA02F0E0C0AA04C080AA018000AA99
:100890002F0080C0C3FFAA06FFC787AA01870F3FAA
:1008A000FFAA01FFFEFCE000AA210080C0E0AA022E
:1008B000E0F0AA04F0F7AA01F7FFAA08FFF7AA01DF
:1008C000F7F0AA01F0FFAA04FFE0AA01E0C000AA25
:1008D0001C003E3FAA043F0F07AA0407C7E7FFAA70
:1008E00008FFE707AA0207FFAA04FF87070300AA79
:1008F0001B00E0F8FEFFAA01FFFEF8E000AA0500D9
:1009000001FFAA08FF00AA030001030FAA010F1F9D
:100910003FAA013F3EAA053E3C00AA1500030FAACC
:10092000040F070300AA050080FFAA08FF8000AAA1
:100930003100F8FEFFAA0CFFF87000AA5900202031
:1009400000AA0B0080FCAA02FCB838AA0138F0E02B
:1009500000AA0F006070787C3CAA013C3DFFAA040D
:10096000FFBD3CFFAA01FFBC1800AA0D001C3FAA56
:10097000013F1C00AA020081FFAA03FF00AA010098
:10098000010307AA010706AA020600AA0F00040F26
:10099000AA060F0C00AA0C00282000AA0A0080AAB0
:1009A000088000AA01008000AA03008000AA0D00B0
:1009B0000FAA010F831D3EAA023E9D830FAA010FBD
:1009C00000100906AA0106091100AA09002060C842
:1009D00098B2246C49AA04496C26B298C8602000D9
:1009E000AA100001AA02010302AA02020301AA023C
:1009F0000100AA2A0000202000AA080080C0AA073F
:100A0000C08000AA040080C000AA0E0007AA010747
:100A100041CE9E9FCE4107AA010700AA0100020411
:100A2000020100AA0C001830246D495A52AA035240
:100A30005A496D2432180800AA280000202000AA74
:100A4000090080C0E000AA1400F0F8AA02F8FCFE39
:100A5000AA01FEFFAA03FF00AA0100040E1C3870C1
:100A6000E0C0AA01C0E07030180C0600AA04000F14
:100A7000AA030F1F3F7FFFAA03FF00AA01002070F7
:100A8000381C0E0703AA0103070E1C38706000AA69
:100A90000C000103AA010300AA120000202000AAF2
:100AA000090080C0E000AA080080C08000AA0800F9
:100AB000F0F8AA02F8FCFEAA01FEFFAA03FF000854
:100AC0001CF8F002071EFCF001031FFEF800AA0547
:100AD000000FAA030F1F3F7FFFAA03FF00181C0F80
:100AE0000760707C1F07C0E0F83F0F00AA0D0001EF
:100AF00003AA010300AA080001AA020100AA060035
:100B0000404000AA100080C000FCAA06FCF800C00B
:100B10008000AA2B0080F0F8FCFFAA03FF00FFAAC8
:100B200007FF00FFAA02FFFEFCF8E000AA24000F66
:100B3000AA010FCFAA07CFCECCCDAA05CDCCCECF60
:100B4000AA06CF8F0FAA010F00AA2200070F1F7F4E
:100B5000FFAA12FF7F1FAA011F0F00AA070080E053
:100B6000AA02E000AA1C0003078F1F3F7FAA037F91
:100B7000FFAA01FF7FAA027F3F1F9F870300AA01F0
:100B8000000C3E7CFCF8F0AA03F0F8FFAA03FFFE7D
:100B9000F8F0AA02F0F8AA01F8FC7E1E0C00AA04E4
:100BA0000080E0F0F8AA01F8FCAA07FCFEFFAA0208
:100BB000FFFEAA02FEFCAA04FCFEAA01FE0603AA8E
:100BC000010373AA0173F0AA01F0F8AA01F8FEFF6D
:100BD000AA04FF0703AA010301AA020103078FFF6A
:100BE000AA04FFFCF8AA01F8F0AA01F070AA0170AB
:100BF000F0FFAA1AFFFEAA02FEFCAA01FC3C1C8020
:100C0000C0F3FFAA02FF7FAA017FFFFEFCAA04FC3B
:100C1000FEFF7FAA017FFFAA02FFE3C000AA040033
:100C20003FAA1F3F3C38302123333138AA01383CDA
:100C3000AA013C30000F3FAA023F0300AA040001B2
:100C4000AA010103AA01030100AA0300202000AAAF
:100C5000030080C0AA01C0E0AA05E0C0AA01C080CC
:100C6000AA0180C0AA01C0E0AA05E0C0AA01C08014
:100C700000AA06001E1FAA011F03010080C0AA01CE
:100C8000C0E0E1E7FFAA01FFE7E1E0C0AA01C08000
:100C90000001031FAA011F1E00AA0500C0AA05C06B
:100CA000C7AA01C7C3C0AA01C0C1FFAA01FFC1C032
:100CB000AA01C0C3C7AA01C7C0AA05C000AA0500EF
:100CC00001AA010103070FAA110F070301AA0101DD
:100CD00000AA0200202000AA0C0080C0E0AA01E0C7
:100CE000C08000AA0100E0F0E000AA0B0080C0E094
:100CF000F078BC9E4FE7F7FB3DAA013DFBF7E74FBD
:100D00009EBD79F0E0C08000AA080001AA0101FEA2
:100D1000FFAA01FFF7AA01F7EE83397DAA017D3909
:100D200083EEF7AA01F7FFAA01FFFE01AA01010065
:100D3000AA0B0003070FAA040F0C0DAA010D0C0F3C
:100D4000AA040F070300AA060000202000AA07003B
:100D5000E0AA09E000AA0300C0AA01C0A0F0E08058
:100D600000AA0700F8F0E0AA01E001F1AA01F1F7FA
:100D7000AA03F7F1AA01F1E1E0AA01E0E2E3ECCF76
:100D8000B73C1F0700AA07001FAA011F07AA0107F7
:100D9000000FAA070F07AA01071FAA011F9FDFAABA
:100DA00001DF1F1E00AA1900070FAA030F00AA06E1
:100DB0000000202000AA0A001070F0AA01F0E0C094
:100DC00000AA170080C4CEAA01CE9C30FFFE3C8E44
:100DD000AA028E0600AA1300C1AA02C1E3FCDFC763
:100DE000C3AA01C383AA01830100AA100001AA0FAC
:100DF0000100AA080000202000AA0600F0604000C0
:100E0000AA070040787000AA0E000C1C1830E7EF0B
:100E1000AA01EFE730180CAA010C18B0F7FFEFF7A2
:100E200038180C00AA0E00FFAA03FF00AA0300084E
:100E30008FFF1FFFAA01FF0F00AA100001AA0301E4
:100E400000AA040001AA010100AA01000100AA09E8
:100E50000000202000AA0A0080C0E0AA01E0F0AA59
:100E600002F01000AA1000101800AA0100407CFF38
:100E7000AA01FF7FFFAA03FFFCC0800C00AA0100AB
:100E8000406000AA090070F8FCFEFFAA02FFFEAA5B
:100E900001FEFFFEAA01FEFDF3778FFFFEFCAA0113
:100EA000FCF878703000AA0B0001AA040103AA0123
:100EB000030100AA010001AA040100AA09002020E0
:100EC00000AA050040C080AA018000AA0300203CBF
:100ED0003000AA040080AA01804000AA090080AA6C
:100EE0000180C0AA01C00103F1F8FCFEAA06FEFCC5
:100EF000F8F10301C0AA01C080AA018000AA08007D
:100F000001AA0101C0E0470F1F3FAA063F1F0F477C
:100F1000E0C0810100AA0B000100AA0600030F0334
:100F200000AA06000100AA060000202000AA110065
:100F3000C0E07030AA02302080C0AA01C080AA019F
:100F40008000AA010080C0E070B098D8EC6CAA01C3
:100F50006C0C76F6C676F68606FFAA01FFCCAA01CF
:100F6000CC98AA0198FFAA01FF99B071E7C7801F2A
:100F70003F70E0DF9FB060AA0260C0AA01C0C3AAB0
:100F800001C3CECFC1C0AA04C061AA016167B79FE7
:100F9000DFE0703F1F00AA040001AA010103AA03B9
:100FA0000306AA090603AA030301AA010100AA0471
:100FB0000000202000AA0500F8AA06F8B8AA01B887
:100FC00038AA0538F8AA01F800AA0E00FFAA09FFFE
:100FD000E0AA04E0EFAA01EFE0FCAA01FCF8F0E0CF
:100FE00000AA0800FFAA09FFC1AA04C1FDAA01FDC9
:100FF000010FAA010F070100AA090003AA010307B4
:10100000AA01070FAA010F1FAA011F3FAA013F0152
:10101000AA060100AA080000408000AAAB00C08018
:10102000AA1880C000AA6400FFAA05FFFDAA01FD5E
:10103000F9AA02F9F1AA01F1E1AA01E101AA090163
:10104000FFAA01FF00AA6400FFAA0EFF00AA010088
:10105000F0AA07F0F3AA01F3F0AA02F0FFFEFCF8F1
:10106000F0E04000AA5A00FFAA0EFF00AA0100010A
:10107000AA0701F9AA01F901AA02011F0F0703013A
:1010800000AA5C001FAA011F3FAA013F7FAA027F9E
:10109000FFAA07FF0CAA090C0FAA010F00AA6D00F6
:1010A00001AA010103AA010307AA010700AAC400BB
:1010B000404000AA490080AA0180C0E0AA02E0F0F6
:1010C000AA07F0E0AA01E0C0AA01C08000AA0400BB
:1010D00080C0AA01C0E0AA01E0F0AA07F0E0AA02DD
:1010E000E0C080AA018000AA1000E0F8FEFFAA027A
:1010F000FF3F0FAA010F0703AA060307AA01070F64
:101100001F3FFFAA01FFFEFCFEFFAA01FF3F1F0FCA
:1011100007AA010703AA0603070F1F3FFFAA02FF42
:10112000FCF8E000AA0B000F1FAA031F0F00AA087B
:101130000080C0AA02C0E0AA02E0C0C3FFAA04FF68
:10114000C1C0E0AA01E0C0AA02C080AA018000AA32
:1011500008000F1FAA031F0600AA1600F8FEFFAA28
:1011600002FF7F0F07AA02070F3FFFAA04FF1F0F0E
:1011700007AA02070F7FFFAA02FFFEF800AA1700C6
:1011800080AA0B8081AA028180AA0780FFAA04FF9F
:1011900080AA068081AA038180AA0B8000AA0A0087
:1011A000020F1FAA031F3F7FFFAA26FF7F3F1FAA30
:1011B000021F0FAA010F00AA12000103AA220301B5
:1011C00000AA0D00202000AA0900F8FE0603AA01CB
:1011D0000306FEFC00AA010098AA059800AA0F00C9
:1011E000FFAA01FF00F8AA01F800FFAA01FF00AA68
:1011F00001001999AA049900AA0B00C0F01CCCE7C1
:10120000F3F8FFAA01FFF8F3E7CC1CF0C101AA0331
:101210000100AA0B00030F3833674FDFAA03DF4F2B
:101220006733380F0300AA090000101000AA01005C
:10123000E0F8AA01F8FCBC7CAA017CBCFCF8AA017D
:10124000F8E000AA0300071FAA011F3F3D3EAA01C4
:101250003E3D3F1FAA011F0700AA01001010FEFF1C
:10126000AA03FF7F3FAA013F1F0FFFAA04FFFE7FD3
:10127000FFAA03FFFEFCAA01FCF8F0FFAA04FF7F0F
:101280001010FEFFAA04FF0F1F3FAA013F7FFFAA15
:1012900003FFFE7FFFAA04FFF0F8FCAA01FCFEFF9B
:1012A000AA03FF7F10100098AA0D9800AA01001948
:1012B000AA0D1900408000AA320080C080AA0180D7
:1012C00000AA100080C08000AA68000103070F0E6A
:1012D0001C3870E0C080AA0180C0E0F070381C0E9D
:1012E00007030100AA5500F0FCAA01FCFEAA02FEB9
:1012F0007E3E1EAA141E1FAA041F1EAA091E3E7EA1
:10130000FEAA04FE3E1EAA031E3E7EFEAA01FEFCAD
:10131000F800AA4100FFAA04FF00AA2900FFAA03BF
:10132000FF3E1CAA031C3C7FFFAA03FF00AA41004A
:10133000FFAA04FF00AA2900FFAA03FFFEFCAA01DE
:10134000FCF8FCAA01FCFFAA04FF00AA4100FFAAC6
:1013500004FF8000AA270080FFAA0EFF00AA410018
:10136000071F3FAA033F3EAA013E3CAA013C38AA00
:101370001F383CAA013C3EAA013E3FAA0D3F1F0F69
:1013800000AAA100408000AA240078F0E0C08000FC
:10139000AA200080F0FCAA01FCE08000AA5400FF13
:1013A000AA01FF7F3FAA013F1E9C989080AA01805E
:1013B00000AA1700303E9FAA059F3C3000AA4800B3
:1013C00080C0AA03C080AA018000AA02000100FC1C
:1013D000FEFFAA08FFFEFC00AA040080AA0180C04C
:1013E000AA04C080AA018000AA030030FCFEFFAA64
:1013F00007FFFEFC3000AA030080AA0180C0AA03F8
:10140000C08000AA3B000307AA01070F1FAA011F03
:101410003F7FFEFCAA01FCF8F0E1E3AA01E3E7AAA2
:1014200004E7E3AA01E3F1F0F8FCFE7E7F3F1FAA88
:10143000011F0F070FAA010F1F3FAA013F7EAA013C
:101440007EFCF8AA01F8F1F3AA02F3F7AA01F7F378
:10145000AA02F3F1F8AA01F8FC7EAA017E3FAA01D4
:101460003F1F0FAA010F07030100AA45000103FF58
:10147000AA0CFF01AA010100AA0D0080F0FFAA0D2D
:10148000FFF08000AA5000FFAA04FF1FAA011FFF5F
:10149000AA05FF00AA0D00E0FCFFAA11FFF8C0009A
:1014A000AA4D00C0FFAA04FF00AA0100FFAA05FF81
:1014B00000AA0C0001AA0401FFAA04FF7F03AA01ED
:1014C00003FFAA05FF01AA030100AA4D003F7FAA5E
:1014D000047F00AA01003F7FAA047F00AA10003FFA
:1014E0007FAA037F3F00AA03003F7FAA037F3E003D
:1014F000AA290000408000AA3E0080F0F88000AADF
:1015000069001870F0E0AA01E0C0AA01C08000AA3A
:1015100008000E0FAA030F0C00AA080080AA018081
:10152000C0AA01C0E0AA01E0F01000AA5900030F10
:10153000AA010F070301C0E0F0AA01F0F8FCAA021B
:10154000FCFEAA07FEFCAA01FCF8AA01F8F0E0AA3A
:1015500001E0800103070FAA010F0300AA500080D9
:10156000AA0380C0AA02C0E0AA01E000AA0400F019
:10157000FEFFAA19FFFCE000AA0300E0AA02E0C0F7
:10158000AA02C080AA028000AA470001AA020103A1
:10159000AA020307AA010700AA04001F7FFFAA19D5
:1015A000FF3F0F00AA030007AA020703AA020301D4
:1015B000AA010100AA5200C0F0AA01F0E0C0810314
:1015C000070F1FAA011F3FAA013F7FAA087F3FAA5A
:1015D000023F1F0FAA010F0783C0E0F0F8F0C00020
:1015E000AA59000C07AA020703AA010301AA0101D4
:1015F00000AA080038F8AA03F83800AA090001AACE
:10160000010103AA010307AA01070C00AA6900014E
:10161000070F0100AA3C0000408000AA3E0080AAFB
:101620000280C0AA05C04000AA6500301000AA02CE
:101630000080C0E0F0F8FCAA01FCFEAA01FEFFAAAF
:1016400008FF0F0100AA5C008000AA080080E0F8F3
:10165000FEFFAA12FF00AA050080E0C0E08000AAF9
:1016600004000C0400AA4A00020E0F0E0200AA0594
:1016700000F0FFAA16FFFEF0C000AA04000100AAB5
:10168000040080F0AA01F0E0F0D08000AA4B00C076
:10169000E0F0AA01F0F8AA02F8F9AA02F9F3E3C708
:1016A000E7E3F3AA05F3E3E7C78F0F1F7FFFAA065F
:1016B000FFFEF8F0E0C0AA01C08000AA0400010308
:1016C0000100AA4600F0F8FCAA01FCFEAA02FEFFF7
:1016D000AA19FFFCF8F1F3E3C70F1FFFAA09FFFEE9
:1016E000AA01FEFCAA01FCF8AA03F8F0AA02F07015
:1016F0003000AA3F00071F3FAA013F7FAA057FFFD6
:10170000AA14FF7F3FAA033F1F8F87C0F0FFAA08DC
:10171000FF7FAA027F3FAA013F1F0FAA010F070305
:101720000100AA4E0001AA02010301AA040103AAB2
:1017300007030100AA050001AA090100AA3100005F
:10174000408000AAA400E0AA06E000F0AA03F0107E
:10175000FCFEAA12FE00F0AA03F000E0AA06E000D8
:10176000AA510080AA05808100E3AA03E340FFAAF2
:1017700013FF00E3AA03E3008180AA058000AA51B9
:101780000003AA060300878FAA028F04FFAA03FFA3
:101790007FAA027F3FAA023F7FAA027FFFAA05FF1E
:1017A0007F000FAA030F0003AA060300AA51000638
:1017B000AA02060EAA020E0F001FAA031F18070393
:1017C000F1F8FCBEDEEFAA01EFFFFE7E3C1C010338
:1017D00001F8FCFE3E0FAA040F1FFEFCAA01FCFE4E
:1017E0001F0FAA040F3EFEFCF800AA49001CAA061F
:1017F0001C007EAA037E3E00AA010003070F1FAA59
:10180000011F3F3D3C1E1F0F0600AA02001FAA0237
:101810001F00AA06001FAA031F00AA06001FAA0293
:101820001F00AA500003AA01037FAA017F4303AA55
:101830000103387C54AA01545C1800787C446C681D
:10184000007FAA017F0CAA010C7C50007CAA017CBD
:101850000C7C78007D7F00387C44AA01446C280011
:10186000AAA90000404000AA090080AA0180C0E0A7
:10187000AA01E0F0AA01F0F8AA01F8FC7EAA017E14
:101880003FFFAA01FFFEF8F0C080AA0580C0F0FC6F
:10189000FEFF7F3F7EAA017EFCF8AA01F8F0AA01B4
:1018A000F0E0AA01E0C080AA018000AA1100061F92
:1018B0003FFFAA03FFE3C30100AA050001070F1FB2
:1018C000AA011F0FAA050F1FAA011F0F070100AAD7
:1018D000050001C3F3FFAA03FF3F0F0200AA0700A0
:1018E00080C0AA07C0E0F0FCFFAA01FF7F1F0F0322
:1018F00000AA0C00C0E0F0F8AA02F8783818080036
:10190000AA0400070F1F7FFFAA01FFFCF0E0C0AA96
:1019100007C080FFAA04FF07AA0607030100AA0D5B
:101920000080C0FFAA05FFF0AA01F0E0AA01E0F0E4
:10193000F8FCFE7F0E00AA0300010307AA0607FFBA
:10194000AA09FFF0AA06F0E0C000AA050080C0E0E6
:10195000F0F8FCFEFFAA02FF7F3F1F0F0703AA0556
:101960000301AA010100AA0600C0E0F0AA06F0FFE8
:10197000AA04FF0001AA070103079FFFAA02FFFCB8
:10198000F870020F1F39AA01393F1F0F070301002A
:10199000AA100070F8FCFFAA02FF9F070301AA0724
:1019A0000100AA08002078FEFFAA03FFE7E1C0AA11
:1019B00001C08000AA0300C0F0F8FCAA01FCF8AA4C
:1019C00005F8FCAA01FCF8F0C08000AA020080C063
:1019D000AA01C0E0E3FFAA03FFFE7C3000AA1300C7
:1019E0000103AA010307AA01070FAA010F1F3FAABB
:1019F000013F7E7FAA017F3F1F070100AA0500016A
:101A0000070F3F7FAA017F7E3FAA013F1F0FAA0158
:101A10000F07AA010703AA01030100AA0B00404017
:101A200000AA0200C0E0F8AA01F8FCFEAA02FEFF2C
:101A3000AA05FFFEAA02FEFCF8F0E000AA0F00E0F3
:101A4000F0F8FCFEAA02FEFFAA05FFFEAA02FEFCB9
:101A5000F8AA01F8E0C000AA0400FFAA07FF7F3F30
:101A60001F0FAA010F078783C3C1E1E0F0AA01F0AD
:101A7000F8AA04F8FCAA05FCF8AA04F8F0AA02F0F7
:101A8000E1AA01E1C183AA0183070FAA010F1F3F49
:101A90007FFFAA07FF00AA040003070FAA010F0790
:101AA0000180C0F0F8FCFEFFAA02FF7F3FAA013FC1
:101AB0001F0FAA010F07AA010703AA040383AA02A2
:101AC0008303AA030307AA01070FAA010F1FAA0194
:101AD0001F3F7FFFAA02FFFEFCF8F0E08001030F2A
:101AE000AA010F070300AA080080F8FEFFAA04FF5E
:101AF0003F07030100AA0B00FEFFAA02FF0200AA93
:101B00000B0003071FFFAA04FFFEF8C000AA0B008A
:101B1000FFAA06FF0100AA0E0078FFAA03FFF8F053
:101B2000E0C0AA01C08000AA0A00FFAA06FF00AA1E
:101B30000B00033FFFAA05FFF0C08000AA0D0001C3
:101B4000AA01010001AA01010307AA01070F1FAAA8
:101B5000011F1E0C00AA0300C0F0FEFFAA04FF3FF5
:101B60000700AA0E0003071F3F7FFFAA02FFFEFC2B
:101B7000F8AA01F8F0E0AA01E0C0AA01C080AA0B0F
:101B800080C0AA01C0E0AA01E0F0AA01F0F8FCFEC2
:101B9000FFAA02FF7F3F1F0F0300AA140078FCFF7B
:101BA000AA01FF7F3F1F0FAA010F1FAA021F3FAA12
:101BB000033F7FAA077F3FAA033F1FAA021F0FAA66
:101BC000010F1F3F7FFFAA01FFFC7800AA0B000056
:101BD000202000AA070080C0AA01C0E0AA01E0609E
:101BE000AA0260E0AA01E0C0AA01C08000AA110018
:101BF0000103AA0103EDEEAA01EEE7AA02E7EEAAAD
:101C000001EEED03830100AA1300FFAA03FFD9FF31
:101C1000EFD7BF70FFAA01FFFE00AA120003AA08B7
:101C2000030407AA03070400AA060000404000AA14
:101C30005600020F3FAA013FFFFEAA01FEFCF8E09A
:101C400000AA3200103078AA0178F8AA01F8F0AAA8
:101C500001F000AA0200FFFCE000E0F078587CAA46
:101C6000017C783800AA270040E0F0AA02F0E0C02A
:101C70008001AA0101070CFFAA01FF3F060180AA0B
:101C80000180C0AA02C08000AA2A0001AA040102A1
:101C90000C10F0FCFF31180C05AA010507AA030778
:101CA000030100AA2800C0E0AA01E0F0E0AA01E0D8
:101CB000C0F8FEFFE3E0F0AA04F0E0C0AA01C08093
:101CC00000AA25000203AA1C0300AA5200004040FB
:101CD00000AA580080C0E0F0F8FCAA03FCF8F0E08D
:101CE000C08000AA020078FEAA02FEFC00AA1F0023
:101CF00080C0AA01C0E0F0F8FCFEFF7FAA017F3F90
:101D00009F8FC7E7F3AA01F3E7C78F9F3F7FAA0121
:101D10007FFFFEFCF8F1E3C7C08000AA1700F0F8CF
:101D2000AA01F8FCFEFF7F3F1F9FCFE7E371387CDD
:101D3000FEFFAA04FF07AA0107FFAA04FFFE7C38E2
:101D4000F1E3E7CF9F1F3F7FFFFEFCF8AA01F8F009
:101D500000AA110001AA0401F8FCFEFFAA01FF3F3E
:101D6000AA033F3EFC381D8FE7E3F3AA03F3E3E742
:101D70008F1D38FC3E3FAA033FFFAA01FFFEFC0077
:101D800001AA040100AA1600FFAA0AFFF0E0C79FFB
:101D90001F3FAA033F1F9FC7E0F0FFAA09FF00AA49
:101DA0001C000F3F7FAA0B7F7060AA016067AA0129
:101DB0006760AA0160707FAA0A7F3FAA013F00AA5C
:101DC0004E00404000AA6400E0F8FC1E0607AA038B
:101DD000070EAA010E0C0080C0AA01C0E0AA02E012
:101DE000C0AA01C08000AA0E0080AA0280C0AA0179
:101DF000C0E0AA01E060AA016070AA017030AA01E7
:101E00003038AA063818AA0318381800FFAA02FFAB
:101E100070AA0170E0AA01E0C0AA01C080AA0180F6
:101E2000FCFFAA01FF01AA01018000AA020001072C
:101E30001F1E00AA030080C0E070381C0E0687C376
:101E4000AA01C3E1717038AA01381CAA011C0C0058
:101E5000AA02003E7FF7E000083EFFE3C000AA03AD
:101E6000007FFFAA01FF70AA0170E0AA01E0C1AAE9
:101E700001C183AA0183FFAA02FF00C3AA01C3878D
:101E80000F0E1C3878F0C0800018FFAA01FF8100F7
:101E9000AA03007EFFE78100AA0B000607AA01073C
:101EA00000107CFFC70300AA0A0001AA010103AACF
:101EB00001031FAA021F0081E7FF7E00AA03008121
:101EC000FFAA01FF18000103070E1C387060E1C370
:101ED000AA01C3878E0C1C1838AA013830AA013019
:101EE00070AA017060AA0260E0AA0BE060AA02601A
:101EF00070AA017030AA013038AA0138181C0C8E63
:101F000087C3AA01C3E16070381C0E07030100AA51
:101F10000A0001AA020103AA010307AA0107060E8B
:101F2000AA020E0CAA010C1CAA061C18AA03181C53
:101F3000AA061C0CAA010C0EAA020E0607AA01078B
:101F400003AA010301AA020100AA4900404000AA15
:101F50005000F8AA12F800AA0800E0AA02E08004E3
:101F60003E7CFCE08000AA11008000AA060003AAC3
:101F700005033FAA063F03AA050300AA04000406BE
:101F8000AA01060060F97F3F0080E0FF7F1F00AAE2
:101F90001100FFAA02FFFCAA02FCF800AA0100FC43
:101FA000FEFFAA0CFFFEFC00AA0100FCAA05FCF83B
:101FB000AA02F8F0E0C00607AA01070300AA13006E
:101FC000FFAA02FF1FAA031F00AA01001F7FAA0E7B
:101FD0007F3F00AA01001FAA011F9FFFAA09FFFC63
:101FE0008000AA140001AA010100AA1A0001AA0394
:101FF00001C1AA01C1F1AA01F1E1C101AA030100D5
:10200000AA3300083E7FAA017FFFAA02FF7FAA0130
:102010007F3E00AA4D00F894108000AA0B0080C0FB
:10202000AA01C04000AA220080AA018000AA2400C0
:102030008000AA1200E0AA02E0C0AA02C080AA01A1
:102040008000AA130001AA01010306070501AA05E1
:102050000100AA1700040602030100AA010001AA58
:1020600001010302060400AA130001AA02010206EC
:1020700004AA0104060301AA010100AA130007AA89
:10208000010703AA020301AA020100AA0900FFCF67
:1020900082E00E943F5782E00E943F5782E00E9408
:1020A0003F5781E00E943F5781E00E943F5781E007
:1020B0000E943F5781E00E943F57A889B98988272D
:1020C0008C93AE85BF850E94C059AE81BF818C9331
:1020D000AE81BF818C91AA81BB818C93AA81BB8187
:1020E0004C9101E0041718F011F00C945B16AC85CC
:1020F000BD8588278C93AA85BB8588278C93A88566
:10210000B98588278C93AA81BB810C9141E0041B7F
:10211000AC81BD810C93AC81BD810C91003011F07C
:102120000C949C10AC85BD85E2E7F4EB0E94FF584F
:102130000E944F570C94A710AC81BD818C91EE8505
:10214000FF8501E00A93AD85BE850E947459AA817E
:10215000BB810C9141E0040FAC81BD810C93AC813B
:10216000BD818C91EE85FF8501E00A93AB85BC852E
:102170000E947459AC85BD85E2E7F4EB0E94FF58DC
:102180000E94C65981E009F080E08F93AC85BD853F
:10219000E4E7F4EB0E94FF580E94C65981E009F081
:1021A00080E09F91892B8F93AC85BD85E6E7F4EBAA
:1021B0000E94FF580E94C65981E009F080E09F917B
:1021C000892B8F93AC85BD85E8E7F4EB0E94FF581F
:1021D0000E94C65981E009F080E09F91892B8F937E
:1021E000AC85BD85EAE7F4EB0E94FF580E94C65912
:1021F00081E009F080E09F91892B8F93AC85BD85AC
:10220000ECE7F4EB0E94FF580E94C65981E009F008
:1022100080E09F91892B8F93AC85BD85EEE7F4EB31
:102220000E94FF580E94C65981E009F080E09F910A
:10223000892B8F93AC85BD85E0E8F4EB0E94FF58B5
:102240000E94C65981E009F080E09F91892B8F930D
:10225000AC85BD85E2E8F4EB0E94FF580E94C659A8
:1022600081E009F080E09F91892B882311F40C9480
:102270007011AA85BB85E2E7F4EB0E94FF580E942B
:10228000C65981E009F080E08F9381E00E943F57BA
:1022900080E0A881B9818D9388278C93E881F981AA
:1022A000AC85BD850E94C8590FB681E0481A80E010
:1022B000580A22960FBE81E009F080E09F91892B99
:1022C000882311F40C946A1183E0A881B9818C935E
:1022D0000C946E1180E0A881B9818C930C94A511A7
:1022E000AA85BB85E2E7F4EB0E94FF580E94C6591D
:1022F00081E009F080E08F9381E00E943F5780E009
:10230000A881B9818D9388278C93E881F981AC8568
:10231000BD850E94C8590FB681E0481A80E0580A6E
:1023200022960FBE81E009F080E09F91892B8823DF
:1023300011F40C94A11182E0A881B9818C930C94C2
:10234000A51181E0A881B9818C93AA81BB818C9170
:10235000EE85FF8501E00A93A985BA850E9474592C
:10236000A885B985E2E8F4EB0E94FF580E94C6599F
:1023700011F00C94E111A881B9810C91013011F098
:102380000C94DF11AC85BD85E4E8F4EB0E94FF58A6
:102390000E94C65911F00C94D91182EAA885B9851A
:1023A0008D9388278C93AA81BB810E945C550C94E5
:1023B000DF118DEAA885B9858D9388278C930C94BD
:1023C0004C16E6E8F4EB0E94FF580E94C65911F043
:1023D0000C940812A881B9810C91003081E008F4B6
:1023E00080E08F93A881B9810C91013081E010F0D9
:1023F00009F080E09F918923882311F40C94061240
:1024000080E8A885B9858D9388278C930C944C1609
:10241000E8E8F4EB0E94FF580E94C65911F00C94B2
:102420002F12A881B9810C91003081E008F480E07E
:102430008F93A881B9810C91013081E010F009F0EF
:1024400080E09F918923882311F40C942D1283E856
:10245000A885B9858D9388278C930C944C16EAE84F
:10246000F4EB0E94FF580E94C65911F00C945612CA
:10247000A881B9810C91003081E008F480E08F934D
:10248000A881B9810C91013081E010F009F080E061
:102490009F918923882311F40C94541284E8A88511
:1024A000B9858D9388278C930C944C16ECE8F4EB4B
:1024B0000E94FF580E94C65911F00C947D12A88109
:1024C000B9810C91003081E008F480E08F93A881FD
:1024D000B9810C91013081E010F009F080E09F910A
:1024E0008923882311F40C947B1285E8A885B9858B
:1024F0008D9388278C930C944C16EEE8F4EB0E9495
:10250000FF580E94C65911F00C94A412A881B981F9
:102510000C91003081E008F480E08F93A881B981AC
:102520000C91013081E010F009F080E09F91892347
:10253000882311F40C94A21286E8A885B9858D939E
:1025400088278C930C944C16E0E9F4EB0E94FF581A
:102550000E94C65911F00C94CB12A881B9810C913C
:10256000003081E008F480E08F93A881B9810C915C
:10257000013081E010F009F080E09F9189238823E9
:1025800011F40C94C91287E8A885B9858D93882722
:102590008C930C944C16E2E9F4EB0E94FF580E94D5
:1025A000C65911F00C94F212A881B9810C91003037
:1025B00081E008F480E08F93A881B9810C9101300B
:1025C00081E010F009F080E09F918923882311F4C5
:1025D0000C94F01288E8A885B9858D9388278C9390
:1025E0000C944C16E4E9F4EB0E94FF580E94C65983
:1025F00011F00C941913A881B9810C91003081E07D
:1026000008F480E08F93A881B9810C91013081E0BA
:1026100010F009F080E09F918923882311F40C9435
:10262000171389E8A885B9858D9388278C930C9416
:102630004C16E6E9F4EB0E94FF580E94C65911F0CF
:102640000C944013A881B9810C91003081E008F40A
:1026500080E08F93A881B9810C91013081E010F066
:1026600009F080E09F918923882311F40C943E1394
:102670008AE8A885B9858D9388278C930C944C168D
:10268000E8E9F4EB0E94FF580E94C65911F00C943F
:102690006713A881B9810C91003081E008F480E0D3
:1026A0008F93A881B9810C91013081E010F009F07D
:1026B00080E09F918923882311F40C9465138BE8A3
:1026C000A885B9858D9388278C930C944C16EAE9DC
:1026D000F4EB0E94FF580E94C65911F00C948E131F
:1026E000A881B9810C91003081E008F480E08F93DB
:1026F000A881B9810C91013081E010F009F080E0EF
:102700009F918923882311F40C948C138CE8A8855D
:10271000B9858D9388278C930C944C16ECE9F4EBD7
:102720000E94FF580E94C65911F00C94B513A8815D
:10273000B9810C91003081E008F480E08F93A8818A
:10274000B9810C91013081E010F009F080E09F9197
:102750008923882311F40C94B3138FE8A885B985D5
:102760008D9388278C930C944C16EEE9F4EB0E9421
:10277000FF580E94C65911F00C94E513A881B98145
:102780000C91003011F00C94CD1383E9A885B98524
:102790008D9388278C930C94E313013011F00C94E3
:1027A000D91382E9A885B9858D9388278C930C94D9
:1027B000E313023011F00C94E31381E9A885B98585
:1027C0008D9388278C930C944C16E0EAF4EB0E94CE
:1027D000FF580E94C65911F00C941514A881B981B4
:1027E0000C91003011F00C94FD1389E9A885B9858E
:1027F0008D9388278C930C941314013011F00C9452
:10280000091485E9A885B9858D9388278C930C9444
:102810001314023011F00C94131484E9A885B985BF
:102820008D9388278C930C944C16E2EAF4EB0E946B
:10283000FF580E94C65911F00C943C14A881B9812C
:102840000C91003081E008F480E08F93A881B98179
:102850000C91013081E010F009F080E09F91892314
:10286000882311F40C943A148DE9A885B9858D93C9
:1028700088278C930C944C16E4EAF4EB0E94FF58E2
:102880000E94C65911F00C946314A881B9810C916F
:10289000003081E008F480E08F93A881B9810C9129
:1028A000013081E010F009F080E09F9189238823B6
:1028B00011F40C9461148EE9A885B9858D9388274D
:1028C0008C930C944C16E6EAF4EB0E94FF580E949D
:1028D000C65911F00C948A14A881B9810C9100306A
:1028E00081E008F480E08F93A881B9810C910130D8
:1028F00081E010F009F080E09F918923882311F492
:102900000C94881480EAA885B9858D9388278C93C8
:102910000C944C16E8EAF4EB0E94FF580E94C6594A
:1029200011F00C94B114A881B9810C91003081E0B0
:1029300008F480E08F93A881B9810C91013081E087
:1029400010F009F080E09F918923882311F40C9402
:10295000AF1488EBA885B9858D9388278C930C9448
:102960004C16E4E8F4EB0E94FF580E94C65911F09F
:102970000C94D814A881B9810C91003081E008F43E
:1029800080E08F93A881B9810C91013081E010F033
:1029900009F080E09F918923882311F40C94D614C8
:1029A00083EAA885B9858D9388278C930C944C165F
:1029B000EAEAF4EB0E94FF580E94C65911F00C9409
:1029C000FF14A881B9810C91003081E008F480E007
:1029D0008F93A881B9810C91013081E010F009F04A
:1029E00080E09F918923882311F40C94FD1484EADC
:1029F000A885B9858D9388278C930C944C16ECEAA6
:102A0000F4EB0E94FF580E94C65911F00C94261551
:102A1000A881B9810C91003081E008F480E08F93A7
:102A2000A881B9810C91013081E010F009F080E0BB
:102A30009F918923882311F40C94241586EAA88594
:102A4000B9858D9388278C930C944C16EEEAF4EBA1
:102A50000E94FF580E94C65911F00C944A15A88193
:102A6000B9810C91003011F00C943E158AEAA885CA
:102A7000B9858D9388278C930C944815013011F0FB
:102A80000C94481587EAA885B9858D9388278C937F
:102A90000C944C16E0EBF4EB0E94FF580E94C659D0
:102AA00011F00C947D15A881B9810C91003081E062
:102AB00008F480E08F93A881B9810C91013081E006
:102AC00010F009F080E09F918923882311F40C9481
:102AD000711588EAA885B9858D9388278C930C9405
:102AE0007B15023011F00C947B158CEAA885B98512
:102AF0008D9388278C930C944C16E2EBF4EB0E9498
:102B0000FF580E94C65911F00C94A415A881B981F0
:102B10000C91003081E008F480E08F93A881B981A6
:102B20000C91013081E010F009F080E09F91892341
:102B3000882311F40C94A21589EBA885B9858D938F
:102B400088278C930C944C16E4EBF4EB0E94FF580E
:102B50000E94C65911F00C94B5158EEAA885B98566
:102B60008D9388278C930C944C16E6EBF4EB0E9423
:102B7000FF580E94C65911F00C94C6158FEAA8851B
:102B8000B9858D9388278C930C944C16E8EBF4EB65
:102B90000E94FF580E94C65911F00C94D71580EB83
:102BA000A885B9858D9388278C930C944C16EAEBF5
:102BB000F4EB0E94FF580E94C65911F00C94E815DE
:102BC00081EBA885B9858D9388278C930C944C163E
:102BD000ECEBF4EB0E94FF580E94C65911F00C94E4
:102BE000F91582EBA885B9858D9388278C930C9471
:102BF0004C16EEEBF4EB0E94FF580E94C65911F000
:102C00000C940A1683EBA885B9858D9388278C933D
:102C10000C944C16E0ECF4EB0E94FF580E94C6594D
:102C200011F00C941B1684EBA885B9858D93882729
:102C30008C930C944C16E2ECF4EB0E94FF580E942B
:102C4000C65911F00C942C1685EBA885B9858D9387
:102C500088278C930C944C16E4ECF4EB0E94FF58FC
:102C60000E94C65911F00C943D1686EBA885B985D3
:102C70008D9388278C930C944C16E6ECF4EB0E9411
:102C8000FF580E94C65911F00C944C1687EBA8858A
:102C9000B9858D9388278C93E885F985A889B989AA
:102CA0000E94AE550E946959AA81BB810E945C5561
:102CB00010F00C946E108AE0481A80E0580A2E96A4
:102CC000089501080800000000000000000006064A
:102CD000003C4242240000070300070300000024D8
:102CE0007E247E24000000242B6A12000000006372
:102CF00013086463000000364956205000000000AD
:102D000007030000000000003E410000000000003A
:102D1000413E0000000000083E1C3E080000000884
:102D2000083E080800000000E06000000000000805
:102D30000808080800000000606000000000002093
:102D4000100804020000003E5149453E000000000A
:102D5000427F4000000000625149494600000022C5
:102D6000494949360000001814127F100000002F56
:102D7000494949310000003C4A49493000000001FE
:102D80007109050300000036494949360000000674
:102D90004949291E000000006C6C00000000000082
:102DA000EC6C000000000008142241000000002428
:102DB0002424242400000000412214080000000202
:102DC000015909060000003E415D551E0000007ECD
:102DD0001111117E0000007F494949360000003E74
:102DE000414141220000007F4141413E0000007FFF
:102DF000494949410000007F090909010000003EDE
:102E00004149497A0000007F0808087F000000005F
:102E1000417F4100000000304040403F0000007F03
:102E2000081422410000007F404040400000007F25
:102E30000204027F0000007F0204087F0000003EC1
:102E40004141413E0000007F090909060000003EA3
:102E50004151215E0000007F09091966000000262B
:102E60004949493200000001017F01010000003F93
:102E70004040403F0000001F2040201F0000003F56
:102E8000403C403F0000006314081463000000074A
:102E90000870080700000071494543000000000069
:102EA0007F414100000000020408102000000000E3
:102EB00041417F0000000004020102040000808004
:102EC00080808080808000000307000000000020D8
:102ED000545454780000007F4444443800000038C3
:102EE00044444428000000384444447F0000003833
:102EF00054545408000000087E090900000000181E
:102F0000A4A4A47C0000007F04047800000000005A
:102F1000007D40000000004080847D000000007FB4
:102F20001028440000000000007F40000000007CEA
:102F3000041804780000007C0404780000000038C5
:102F400044444438000000FC444444380000003845
:102F5000444444FC00000044784404080000000895
:102F600054545420000000043E4424000000003C5F
:102F700040207C000000001C2040201C0000003C81
:102F80006030603C0000006C10106C000000009C81
:102F9000A0603C000000006454544C000000000895
:102FA0003E414100000000000077000000000000EA
:102FB00041413E0800000002010201000000003C07
:102FC0002623263C000020202020A02020180018C6
:102FD0002060A0602018000060D040000000202089
:102FE0002060A060201820202024202420182020E9
:102FF00020242224201820202028A4141830202047
:103000002068A454183020202028241418302020B0
:10301000202825141830202020302030201820208F
:103020002030243224182020302030282818000096
:103030007098AACAAC180000000080844234202096
:10304000302030282A1800302020242A3432000072
:10305000000060AC94AC2020202C142C20202020D8
:103060002020203028280000000060AC96AC2020F2
:10307000202C152C2020003C41217D000000003D2B
:1030800041207C0000000030202020283432202005
:10309000202020302A28003C41403D00000000183C
:1030A00024662400000000483E49496200002020B8
:1030B000202020382A3820202020203A283A00409A
:1030C000887E0902000020202020202834320000C1
:1030D000007068000000000000243820201E20201E
:1030E00020202020201E2020202020504830007A40
:1030F00011227900000020202020242020182020E8
:10310000304C78483020202020A020A02018003CFF
:10311000040404040000202020304C7848300010C3
:1031200028441028440000608080A0501020000037
:1031300000001E2020200000304830000000000069
:1031400000FC00000000000000FC101C000000FC5F
:10315000101C101C000000FC10181414000000E0EB
:1031600098C498E000000080D86424080000000C97
:1031700070C0700C000000C0380C38C000000000A7
:103180001C14FC00000020202020243A343220208F
:10319000342A2A202018000000B8B400000000449F
:1031A0002810442810000A0B080F00000000080F28
:1031B000080F000000000A0A0A0F000000000000CB
:1031C0000CB2020400000000000F0808000000001C
:1031D00020140A0A00000004023E02010000000060
:1031E000003E0000000000000A05009CA27C0000D8
:1031F000003E000000000066858098A4640800007E
:1032000000003E00000000182020A0202018000030
:10321000020002182438001820242024201820201E
:10322000202422242018000070988AAA8C180000FC
:1032300070988A8A8C18000000609495981000009D
:103240000000204048300000000020404A300000CC
:10325000000080804038000000008080403A00601C
:1032600080702030201800608070243224180060A4
:103270008060302828180060806030282A1808FFF5
:1032800000FF080800000020203E302828182020D9
:10329000203E30282A180000000040B0A8A80000F6
:1032A000000040B0AAA8F0F0F0F0F0F0000000102C
:1032B000202020382A3800007080BAA8BA700F0F7A
:1032C0000F0F0F0F00000018242418240000000026
:1032D00060808080807E007F01010300000000008C
:1032E000E01030484830000000708084807000009A
:1032F0000000001824380000000000B8A47C00087A
:103300000478040000000008557755080000003ECE
:1033100049493E000000004C7202724C000000223D
:103320005559300000000060808098A46408006057
:10333000808098A464080000000000000000003CA9
:1033400002023C00000000000018143C2020000095
:10335000242E2400000000514A4A4400000000448A
:103360004A4A51000000000000FC02040000002056
:10337000403F000000000008082A08080000002460
:1033800012241200000000060909060000000000D7
:1033900018180000000000000800000000000030C5
:1033A000403E0202000000010E010E000000000974
:1033B0000D0A00000000003C3C3C3C000000020CF8
:1033C00018000000000000000000000000000000E5
:1033D0000000000000000000000000000606F0F8F9
:1033E0001C0C0C1C18000000000003070E0C0C0E37
:1033F00006000000003C3C00003C3C0000000000D7
:103400000000000000000000000000001090F07EAE
:103410001E90F07E1E1000021E1F03021E1F0302DC
:103420000000000078FCCCFFFFCCCC88000000003E
:10343000040C0C3F3F0C0F07000000003838380028
:1034400080C0E070381C0030381C0E07030138388B
:103450003800000000B8FCC6E23E1C00000000007E
:103460001F3F3121371E1C36220000000000273F7D
:103470001F0000000000000000000000000000002D
:103480000000000000F0FCFE070101000000000049
:1034900000030F1F3820200000000000000101077A
:1034A000FEFCF00000000000002020381F0F030089
:1034B0000000000098B8E0F8F8E0B89800000000BC
:1034C0000C0E030F0F030E0C00000000808080F034
:1034D000F0808080000000000101010F0F01010158
:1034E00000000000000000000000000000000000DC
:1034F0000000B8F8780000000000000080808080A4
:1035000080808080000000000101010101010101B3
:1035100000000000000000000000000000000000AB
:103520000000383838000000000000000000008073
:10353000C0E070381C0E00181C0E070301000000CC
:1035400000000000000000E0C0800000000000005B
:10355000000003070707000000000000000C3FFC0C
:10356000F080000000000000000000000F7F00005D
:1035700000000000061F3EFCFC3C3C1F0E0000004B
:10358000000000011F7F000000000C1FFEFCF83847
:103590001F1C1C1C0F00000000077F000000000023
:1035A00000000C1F7EFCF8383E3B1B1A0800000090
:1035B00000033F7E00000000000000C0703E1F0EB0
:1035C0001E3C78F0C0001F797070783C70707038C5
:1035D0001F00000038FEFFE7E7676620200000605C
:1035E0001E0F01010000000000000C3FFEF8E0008B
:1035F00000E0F83E0F00000000031F7F0F030000F3
:103600000000000080E0787FFCE080000000783E51
:103610000F030000030F3F7E180000F0FCEEC7CF41
:10362000FEF8000000000000010101010F7FF860BA
:10363000000000000000F0F0F0F0000000000000CA
:1036400000003C3C3C3C00000000020C1800000064
:10365000000000000000000000000000000000006A
:10366000000000000000070F1931E1FFFFE13119F0
:103670000F07000000003F3F3F3F00000000000038
:10368000000000000000C0E0E0C000001E1F1F1E80
:1036900000001F1F1F1F0000F0F8F8F00000FEFFE1
:1036A000FFFE00001F1F1F1F00001F1F1F1F00061F
:1036B0000E9CF8FFFF63F69C080000060703010F4D
:1036C0000F0C060301000000386C6C3880C0E070FD
:1036D000381C0000181C0E0703011C36361C0000A5
:1036E0000000000000000000000000001E1F1F1E60
:1036F0000000000000000000F0FC0E0703030307B9
:103700000E0C0000070F1C38303030381C0C000045
:10371000F0F8F8F000000000000000001F1F1F1F5D
:1037200000000000000000000098989898989E9E65
:103730009C9800000001030707010101010100003E
:103740002060C0800080C0602000000010180C07BE
:1037500003070C181000000000808080F0F08080CB
:1037600080000000000101010F0F010101000000B5
:10377000F0F81C0E06060606FEFE00001F1F1818B5
:10378000181818181F1F000000808080808080801B
:1037900080000000000101010101010101000000A1
:1037A00000000000000000000000000000000038E1
:1037B000383800000000000000000080C0E07038D1
:1037C0001C0E00001C0E070301000000000000009A
:1037D000F8FE0683C363331EFEF80000071F1B318B
:1037E000303030181F070000000C0C0EFFFF0000E7
:1037F00000000000003030303F3F3030300000002B
:103800001C1E070383C3E3773E1C0000383C3E3791
:1038100033313030303000000C0E07C3C3C3C3E770
:103820007E3C00000C1C3830303030391F0E000058
:10383000C0E070381C0EFFFF0000000007070606FE
:1038400006063F3F06060000787F6763636363E315
:10385000C38300000C1C3830303030381F0F00009C
:10386000C0F0F8DCCEC7C3C3800000000F1F3930A2
:10387000303030391F0F00000303030303C3F33F4D
:103880000F0300000000303C0F03000000000000A8
:1038900000BCFEE7C3C3E7FEBC0000000F1F3930C9
:1038A000303030391F0F00003C7EE7C3C3C3C3E78D
:1038B000FEFC000000303030381C0E0703000420EE
:1038C0008000000000000000000000000000000078
:1038D00000000000000000000000000000000000E8
:1038E00000000000000000000000000000000000D8
:1038F00000000000000000000000000000000000C8
:1039000000000000000000000000000000000000B7
:1039100000000000000000000000000000000000A7
:103920000000000000000000000000000000000097
:103930000000000000000000000000000000000087
:1039400000000006060000F8FC0C0C9C980000002B
:103950000000000000000000000000000000000067
:103960000000000000000001030303030100000049
:103970000000000000000000000000000000000047
:103980000000000000000000000000000000000037
:103990000000000000000000000000000000000027
:1039A0000000000000000000000000000000000017
:103F6000000000000000C0C0C0C0C0C0C0C0C0C0D1
:103F7000C0C00000000000000000000000000000C1
:103F80000000000000000303030303030303030313
:103F9000030300000000000000000000000000001B
:103FA0000000000000000000000000000000000011
:103FB0000000000000000000000000000000000001
:103FC00000000000000000000000000000000000F1
:103FD00000000000000000000000000000000000E1
:103FE00000000000000000000000000000000000D1
:103FF00000000000000000000000000000000000C1
:1040000000000000000000000000C0C0C0C0C0C030
:1040100000000000000000000000000000000000A0
:10402000000000000000000000000F0F0F0F0F0F36
:104030000000000000000000000000000000000080
:104040000000000000000000000000000000000070
:104050000000000000000000000000000000000060
:104060000000000000000000000000000000000050
:104070000000000000000000000000000000000040
:104080000000000000000000000000000000000030
:104090000000000000000000000000000000000020
:1040A0000000000000000000000000000000000010
:1040B0000000000000000000000000000000000000
:1040C00000000000C0C0FCFC3C3C0F0F0F0F0F0FA6
:1040D0000F0F0F0FFCFCFCFCC0C000000000000034
:1040E00000000000FFFFFFFF00000000C0C0F0F074
:1040F0003C3C0F0F0303FFFFFFFF00000000000028
:10410000000000003F3FFFFFFCFC0F0F0303000017
:1041100000000000C0C0FFFF3F3F000000000000A3
:10412000000000000000030303030F0F0F0F0F0F29
:104130000F0F0F0F03030303000000000000000037
:104140000000000000000000F0F0F0F0FCFCFFFFB9
:10415000FFFF000000000000000000000000000061
:104160000000000000000000000000000000FFFF51
:10417000FFFF000000000000000000000000000041
:104180000000000000000000000000000000FFFF31
:10419000FFFF000000000000000000000000000021
:1041A00000000000000000000F0F0F0F0F0F0F0F97
:1041B0000F0F0F0F0F0F0F0F000000000000000087
:1041C00000000000F0F0FCFC3F3F0F0F0F0F0F0F3F
:1041D0000F0F0F0F3F3FFCFCF0F00000000000004D
:1041E0000000000003030303000000000000C0C043
:1041F000F0F0FCFC3F3F0F0F030300000000000045
:10420000000000000000C0C0F0F0FCFC3F3F0F0FBA
:104210000303000000000000000000000000000098
:10422000000000000F0F0F0F0F0F0F0F0F0F0F0FDA
:104230000F0F0F0F0F0F0F0F0F0F000000000000E8
:1042400000000000F0F0FCFC3F3F0F0F0F0F0F0FBE
:104250000F0F0F0F3F3FFCFCF0F0000000000000CC
:1042600000000000000000000000F0F0F0F0F0F0AE
:10427000F0F0F0F0FCFC3F3F0F0F000000000000EA
:1042800000000000F0F0F0F0C0C0000000000000EE
:1042900000000000C3C3FFFFFCFC000000000000A2
:1042A00000000000000003030F0F0F0F0F0F0F0F90
:1042B0000F0F0F0F0F0F030300000000000000009E
:1042C00000000000000000000000C0C0F0F0FCFC96
:1042D0003F3FFFFFFFFF0000000000000000000064
:1042E00000000000F0F0FCFC3F3F0F0F0303000054
:1042F0000000FFFFFFFF00000000000000000000C2
:10430000000000000F0F0F0F0F0F0F0F0F0F0F0FF9
:104310000F0FFFFFFFFF0F0F0F0F00000000000047
:10432000000000000000000000000000000000008D
:1043300000000F0F0F0F0000000000000000000041
:1043400000000000FFFFFFFF0F0F0F0F0F0F0F0FF9
:104350000F0F0F0F0F0F0F0F0F0F000000000000C7
:10436000000000000F0F3F3F3C3C3C3C3C3C3C3CD1
:104370003C3C3C3CFCFCF0F0C0C0000000000000F5
:1043800000000000F0F0F0F0C0C0000000000000ED
:1043900000000000C0C0FFFFFFFF000000000000A1
:1043A00000000000000003030F0F0F0F0F0F0F0F8F
:1043B0000F0F0F0F0F0F030300000000000000009D
:1043C0000000000000000000C0C0F0F0FCFC3F3F17
:1043D0000F0F0F0F0F0F0000000000000000000083
:1043E00000000000F0F0FFFFFFFFF3F3F0F0F0F04B
:1043F000F0F0F0F0F0F0C0C000000000000000009D
:1044000000000000FFFFFFFFC3C30000000000002A
:1044100000000000C3C3FFFFFFFF0000000000001A
:1044200000000000000003030F0F0F0F0F0F0F0F0E
:104430000F0F0F0F0F0F030300000000000000001C
:10444000000000000F0F0F0F0F0F0F0F0F0F0F0FB8
:104450000F0F0F0FFFFFFFFF0F0F00000000000006
:10446000000000000000000000000000000000004C
:10447000F0F0FFFF0F0F0000000000000000000040
:10448000000000000000000000000000F0F0FFFF4E
:104490000F0F0000000000000000000000000000FE
:1044A000000000000000000000000F0F0F0F0000D0
:1044B00000000000000000000000000000000000FC
:1044C000000000000000F0F0FCFC3F3F0F0F0F0F5A
:1044D0000F0F3F3FFCFCF0F0000000000000000068
:1044E000000000000000CFCFFFFFFCFCF0F0F0F078
:1044F000F0F0FCFCFFFFCFCF000000000000000048
:1045000000000000FFFFFFFFC3C300000000000029
:1045100000000000C3C3FFFFFFFF00000000000019
:1045200000000000000003030F0F0F0F0F0F0F0F0D
:104530000F0F0F0F0F0F030300000000000000001B
:1045400000000000F0F0FCFC3F3F0F0F0F0F0F0FBB
:104550000F0F0F0F3F3FFCFCF0F0000000000000C9
:10456000000000000F0F3F3FFCFCF0F0F0F0F0F017
:10457000F0F0F0F0FCFCFFFFFFFF00000000000087
:104580000000000000000000000000000000C0C0AB
:10459000F0F0FCFC3F3F0F0F0000000000000000A7
:1045A00000000000000000000F0F0F0F0F0F0F0F93
:1045B00003030000000000000000000000000000F5
:1045C00000000000000000000000000000000000EB
:1045D00000000000000000000000000000000000DB
:1045E00000000000000000000000000000000000CB
:1045F00000000000000000000000000000000000BB
:1046000000000000000000000000000000000000AA
:10461000000000000000000000000000000000009A
:10462000000000000000000000000000000000008A
:10463000000000000000000000000000000000007A
:10464000000000000000000000000000000000006A
:10465000000000000000000000000000000000005A
:10466000000000000000000000000000000000004A
:10467000000000000000000000000000000000003A
:10468000000000000000000000000000000000002A
:10469000000000000000000000000000000000001A
:1046A000000000000000000000000000000000000A
:1046B00000000000000000000000000000000000FA
:1046C00000000000000000000000000000000000EA
:1046D00000000000000000000000000000000000DA
:1046E00000000000000000000000000000000000CA
:1046F00000000000000000000000000000000000BA
:1047000000000000000000000000000000000000A9
:104710000000000000000000000000000000000099
:104720000000000000000000000000000000000089
:104730000000000000000000000000000000000079
:104740000000021020000000000000000000000037
:104750000000000000000000000000000000000059
:104760000000000000000303007EFFC3C3660000DA
:104770000000000000000000000000000000000039
:104780000000000000000000003C3C00003C3C0039
:104790000000000000000000000000000000000019
:1047A00000000000000000001090F07E1E90F07EDF
:1047B0001E100000000000021E1F03021E1F030245
:1047C000000000000000000078FCCCFFFFCCCC888B
:1047D0000000000000000000040C0C3F3F0C0F071D
:1047E00000000000000000003838380080C0E07091
:1047F000381C000000000030381C0E070301383858
:10480000380000000000000000B8FCC6E23E1C00BA
:1048100000000000000000001F3F3121371E1C3641
:1048200022000000000000000000273F1F000000E1
:104830000000000000000000000000000000000078
:10484000000000000000000000F0FCFE0701010075
:10485000000000000000000000030F1F38202000AF
:10486000000000000000000000010107FEFCF00055
:104870000000000000000000002020381F0F03008F
:10488000000000000000000098B8E0F8F8E0B898D8
:1048900000000000000000000C0E030F0F030E0CC0
:1048A0000000000000000000808080F0F080808028
:1048B00000000000000000000101010F0F010101D4
:1048C00000000000000000000000000000000000E8
:1048D00000000000000000000000B8F878000000B0
:1048E00000000000000000008080808080808080C8
:1048F00000000000000000000101010101010101B0
:1049000000000000000000000000000000000000A7
:1049100000000000000000000000383838000000EF
:10492000000000000000000000000080C0E07038BF
:104930001C0E0000000000181C0E07030100000000
:1049400000000000000000F8FE060383C363331E6E
:10495000FEF80000000000071F1E33313030301811
:104960001F07000000000000000C0C0EFFFF0000FD
:104970000000000000000000003030303F3F3030C9
:10498000300000000000001C1E07030383C3E37710
:104990003E1C000000000030383C3E3733313030E0
:1049A000303000000000000C0E07C3C3C3C3C3E7D0
:1049B0007E3C00000000000C1C38303030303039B4
:1049C0001F0E0000000000C0E070381C0E07FFFF43
:1049D00000000000000000030303030303033F3F44
:1049E000030300000000003F7F636363636363E3CE
:1049F000C38300000000000C1C38303030303038E9
:104A00001F0F0000000000C0F0F8DCCEC7C3C3C316
:104A1000800000000000000F1F3930303030303986
:104A20001F0F0000000000030303030303C3F33F51
:104A30000F030000000000000000303C0F030000E6
:104A40000000000000000000BCFEE7C3C3C3E7FE97
:104A5000BC0000000000000F1F393030303030390A
:104A60001F0F00000000003C7EE7C3C3C3C3C3E7C1
:104A7000FEFC00000000000000303030381C0E0743
:104A800003000000000000000000707070000000D3
:104A9000000000000000000000001C1C1C000000C2
:104AA00000000000000000000000707070000000B6
:104AB000000000000000000000009CFC7C000000E2
:104AC0000000000000000000C0E0F0381C0E0703EA
:104AD0000000000000000000000103070E1C383039
:104AE00000000000000000006060606060606060C6
:104AF0006000000000000000060606060606060626
:104B0000060000000000000003070E1C38F0E0C0A3
:104B1000000000000000000030381C0E07030100F8
:104B2000000000000000001C1E070383C3E3773E63
:104B30001C000000000000000000003737000000EB
:104B400000000000000000F8FE07F3FB1BFBFB0762
:104B5000FEF800000000000F1F18333736373736D5
:104B6000030100000000000000E0FC1F1FFCE0004B
:104B700000000000000000383F0706060606073F59
:104B800038000000000000FFFFC3C3C3C3E7FEBC42
:104B9000000000000000003F3F3030303030391F4F
:104BA0000F000000000000F0FC0E07030303070ED7
:104BB0000C000000000000030F1C38303030381C9F
:104BC0000C000000000000FFFF03030303070EFCBE
:104BD000F00000000000003F3F30303030381C0F44
:104BE00003000000000000FFFFC3C3C3C3C3C3032F
:104BF000030000000000003F3F30303030303030E4
:104C000030000000000000FFFFC3C3C3C3C3C303E1
:104C1000030000000000003F3F0000000000000013
:104C200000000000000000F0FC0E0703C3C3C3C770
:104C3000C6000000000000030F1C38303030303F49
:104C40003F000000000000FFFFC0C0C0C0C0C0FFA8
:104C5000FF0000000000003F3F0000000000003F98
:104C60003F00000000000000000303FFFF030300FB
:104C700000000000000000000030303F3F303000F6
:104C8000000000000000000000000000000000FF25
:104C9000FF0000000000000E1E3830303030381F9A
:104CA00007000000000000FFFFC0E0F0381C0E0706
:104CB000030000000000003F3F000103070E1C3806
:104CC00030000000000000FFFF00000000000000B6
:104CD000000000000000003F3F3030303030303006
:104CE00030000000000000FFFF1E78E0E0781EFFAB
:104CF000FF0000000000003F3F0000010100003FF6
:104D00003F000000000000FFFF0E38F0C00000FF71
:104D1000FF0000000000003F3F00000003071C3FB1
:104D20003F000000000000F0FC0E070303070EFC2C
:104D3000F0000000000000030F1C383030381C0F5A
:104D400003000000000000FFFF8383838383C7FE0E
:104D50007C0000000000003F3F0101010101010053
:104D600000000000000000F0FC0E070303070EFC2B
:104D7000F0000000000000030F1C3830363E1C3FDE
:104D800033000000000000FFFF8383838383C7FE9E
:104D90007C0000000000003F3F010103070F1D38A9
:104DA000300000000000003C7EE7C3C3C3C3C78ED1
:104DB0000C0000000000000C1C3830303030391F6F
:104DC0000F00000000000000030303FFFF030303C4
:104DD00000000000000000000000003F3F00000055
:104DE00000000000000000FFFF000000000000FFC6
:104DF000FF000000000000071F3830303030381F3F
:104E000007000000000000073FF8C00000C0F83FA6
:104E1000070000000000000000010F3E3E0F0100EF
:104E200000000000000000FFFF000080800000FF85
:104E3000FF0000000000003F3F1C060303061C3F6C
:104E40003F000000000000030F1C30E0E0301C0FAA
:104E500003000000000000303C0E030101030E3C83
:104E600030000000000000030F3CF0C0C0F03C0F19
:104E700003000000000000000000003F3F000000B1
:104E80000000000000000003030303C3E3331F0F0F
:104E900003000000000000303C3E33313030303041
:104EA00030000000000000000000000000000000D2
:104EB00000000000000000000000000000000000F2
:104EC000000000000000000E1C3870E0C0800000F0
:104ED0000000000000000000000000000103070EB9
:104EE0001C1800000000000000000000000000008E
:104EF00000000000000000000000000000000000B2
:104F000000000000000000000000000000000000A1
:104F10000000000000000000000000000000000091
:104F20000000000000000000000000000000000081
:104F300000000000000000C0C0C0C0C0C0C0C0C0B1
:104F4000C0C00000000000000000000000000000E1
:104F50000000000000000000000000000000000051
:104F6000000000000000000040606060606060E0E1
:104F7000C00000000000001C3E3333333333333FA6
:104F80003F000000000000FFFFC060606060E0C004
:104F9000800000000000003F3F3030303030381FCC
:104FA0000F00000000000080C0E06060606060C032
:104FB000800000000000000F1F3830303030301803
:104FC0000800000000000080C0E0606060E0C0FFFA
:104FD000FF0000000000000F1F3830303030303F3D
:104FE0003F00000000000080C0E06060606060C0C2
:104FF000800000000000000F1F3B333333333313B6
:1050000001000000000000C0C0FCFEC7C3C30300D5
:105010000000000000000000003F3F000000000012
:105020000000000000000080C0E06060606060E0A0
:10503000E000000000000003C7CECCCCCCCCE67F63
:105040003F000000000000FFFFC0606060E0C08023
:10505000000000000000003F3F00000000003F3F54
:105060000000000000000000000060ECEC00000008
:1050700000000000000000000030303F3F303000F2
:1050800000000000000000000000000060ECEC00E8
:1050900000000000000000000060E0C0C0FF7F00D2
:1050A0000000000000000000FFFF0080C0E0600082
:1050B00000000000000000003F3F03070F1C3830D5
:1050C0000000000000000000000003FFFF000000DF
:1050D00000000000000000000030303F3F30300092
:1050E00000000000000000E0C0E0E0C0C0E0E0C060
:1050F000800000000000003F3F00003F3F00003FF5
:105100003F00000000000000E0E060606060E0C080
:1051100080000000000000003F3F00000000003F52
:105120003F00000000000080C0E060606060E0C000
:10513000800000000000000F1F3830303030381F72
:105140000F000000000000E0E06060606060E0C010
:1051500080000000000000FFFF0C181818181C0F3A
:105160000700000000000080C0E06060606060E058
:10517000E0000000000000070F1C181818180CFFB2
:10518000FF00000000000000E0E0C060606060E040
:10519000C0000000000000003F3F000000000000D1
:1051A00000000000000000C0E0606060606040003F
:1051B000000000000000001133333333333F1E0082
:1051C000000000000000006060FEFE606060000003
:1051D0000000000000000000001F3F3030303000B1
:1051E00000000000000000E0E0000000000000E01F
:1051F000E00000000000000F1F3830303030183F52
:105200003F00000000000060E0800000000080E03F
:10521000600000000000000001071E38381E070172
:1052200000000000000000E0E00000E0E00000E01E
:10523000E0000000000000071F381C0F0F1C381F83
:105240000700000000000060E0C0800080C0E06057
:105250000000000000000030381D0F070F1D38301F
:10526000000000000000000060E080000080E060BE
:1052700000000000000000000081E77E1E07010022
:10528000000000000000006060606060E0E06020FE
:105290000000000000000030383C36333130303040
:1052A000000000000000000080C0FC7E0703030334
:1052B000000000000000000000011F3F70606060FF
:1052C00000000000000000000000000000000000DE
:1052D00000000000000000000000000000000000CE
:1052E00000000000000000000000000000000000BE
:1052F00000000000000000000000000000000000AE
:1062A000000000000000000000000000FEFE0606E6
:1062B000060600000000000003060C183F3F000027
:1062C00000000000000000000000000000000000CE
:1062D00000000000000000000000000000000000BE
:1062E00000000000000000000000000000000000AE
:1062F000000000000000000000000000000000009E
:10630000000000000000000000000000000000008D
:10631000000000000000000000000000000000007D
:10632000000000000000000000000000000000006D
:10633000000000000000000000000000000000005D
:106340000000000000000E94DF5910ED0E94F75984
:1063500010E00E94F7590E94DF5911ED0E94F75991
:106360000E94165AA7E7B1E01C930E94165AA8E7AC
:10637000B1E01C930E94165AA9E7B1E01C930E9459
:10638000165AACE7B1E01C930E94165AADE7B1E093
:106390001D9388278C930E94165AA5E8B1E01D939F
:1063A00088278C930E94145AAAE7B1E01D9388278E
:1063B0008C930E94EE59909177010E94F055A7E7C7
:1063C000B1E08C93909178010E94F055A8E7B1E07C
:1063D0008C93909179010E94F055A9E7B1E08C93DC
:1063E00090917D010E94F055ADE7B1E08D93882733
:1063F0008C93909185010E94F055A5E8B1E08D93B2
:1064000088278C9390917A010E94F055AAE7B1E019
:106410008D9388278C9300ED17E0AAE7B1E04D91AA
:106420005C91040F151FA1E8B1E00D931C93A7E840
:10643000B1E00D911C91013050E0150781E009F0A9
:1064400080E08F93AFE7B1E00D911C91023050E0F6
:10645000150781E009F080E09F9189238F930091D7
:106460007901003081E009F080E09F9189238F93CA
:1064700000917801003081E009F080E09F9189234C
:106480008F93A3E6B2E08C9186FB81E00EF480E06E
:106490009F918923882311F40C945A3270916302DE
:1064A000706470936302A9E7B1E08C918F5F8C9365
:1064B0000E948A34A7E8B1E00D911C91063050E0AB
:1064C000150781E009F080E08F93AFE7B1E00D910F
:1064D0001C910F3150E0150781E009F080E09F9199
:1064E00089238F9300917901003081E009F080E0E9
:1064F0009F9189238F9300917801003081E009F00A
:1065000080E09F9189238F93A3E6B2E08C9186FB74
:1065100081E00EF480E09F918923882311F40C948C
:106520009D3270916302706470936302809179016F
:106530008150809379010E948A3400917901013061
:1065400081E009F080E08F9300917801013081E0D3
:1065500009F080E09F918923882311F40C94B532CF
:10656000709163027F7B709363020895E2ECFCE21A
:106570000E94FF58A0E7B1E0ED93FD938BB78C9399
:1065800000917901093018F011F00C94C9320C9483
:10659000DC3281E08093730181E08093740188276D
:1065A00080937501A8EFBFE0E9E7F1E00E94205970
:1065B0000E94C7550C94F33281E08093730181E00F
:1065C00080937401882780937501E4EBF4EB0E94BB
:1065D000FF580E94CF55A8EFBFE0E9E7F1E00E9425
:1065E00020590E94C7550091770142E00E94B0599E
:1065F000A0E0B2E08C9300910002013011F00C9405
:10660000123381E08093730180E1809374018827C5
:1066100080937501E2E7F4EB0E94FF580E94CF558A
:106620000C94213381E08093730180E180937401A5
:10663000882780937501E8ECF4EB0E94FF580E94D4
:10664000CF5500917801093018F011F00C942A33DD
:106650000C94433381E08093730188E1809374014B
:10666000882780937501A8EFBFE0E8E7F1E00E947A
:1066700020590E94C755E2E7F4EB0E94FF580E94A0
:10668000CF550C94603381E08093730188E180934F
:106690007401882780937501E4EBF4EB0E94FF58A6
:1066A0000E94CF55A8EFBFE0E8E7F1E00E94205933
:1066B0000E94C755E2E7F4EB0E94FF580E94CF55B5
:1066C00081E08093730180E3809374018827809335
:1066D0007501A8EFBFE0E3E8F1E00E9413590E94C2
:1066E000C755EAECF4EB0E94FF580E94CF55A7E88B
:1066F000B1E00D911C910A3050E0150710F00C9498
:10670000A03381E08093730188E58093740188272A
:1067100080937501E4EBF4EB0E94FF580E94CF5583
:10672000A8EFBFE0E7E8F1E00E9413590E94C755C7
:10673000EAECF4EB0E94FF580E94CF550C94B7335B
:1067400081E08093730188E58093740188278093AA
:106750007501A8EFBFE0E7E8F1E00E9413590E943D
:10676000C755EAECF4EB0E94FF580E94CF55AFE703
:10677000B1E00D911C910A3050E0150710F00C9417
:10678000DA3381E08093730180E780937401882776
:1067900080937501E4EBF4EB0E94FF580E94CF5503
:1067A000A8EFBFE0EFE7F1E00E9413590E94C75540
:1067B0000C94EB3381E08093730180E78093740144
:1067C000882780937501A8EFBFE0EFE7F1E00E9412
:1067D00013590E94C75500917601013011F00C94B5
:1067E000FB33A1ECB1E0ECECF4EB0E94FF580E940B
:1067F0004F570C944D34023011F00C940934A1EC35
:10680000B1E0E0EDF4EB0E94FF580E944F570C946A
:106810004D34033011F00C941734A1ECB1E0E4EDE9
:10682000F4EB0E94FF580E944F570C944D340430F3
:1068300011F00C942534A1ECB1E0E8EDF4EB0E94EA
:10684000FF580E944F570C944D34053011F00C94B2
:106850003334A1ECB1E0ECEDF4EB0E94FF580E9460
:106860004F570C944D34063011F00C944134A1EC88
:10687000B1E0E0EEF4EB0E94FF580E944F570C94F9
:106880004D34073011F00C944D34A1ECB1E0E4EE3E
:10689000F4EB0E94FF580E944F570895A1E8B1E021
:1068A0000D911C91005D1740AAE7B1E00D931C9378
:1068B00080917D010E94E955ADE7B1E08D93882775
:1068C0008C93809185010E94E955A5E8B1E08D93F4
:1068D00088278C9380917A010E94E955AAE7B1E05C
:1068E0008D9388278C930E94DF5910ED0E94F759F1
:1068F00014E00E94F75910917D010E94F759109100
:1069000085010E94F75910917A010E94F7590E945F
:10691000EE59089580E080937701809177010E947D
:10692000E955A7E7B1E08C93809178010E94E95581
:10693000A8E7B1E08C93809179010E94E955A9E71D
:10694000B1E08C930E94DF5910ED0E94F75910E0DE
:106950000E94F759109177010E94F7591091780120
:106960000E94F759109179010E94F7590E94EE593F
:106970000895A0E1B0E0BA93AA93A1E8B1E0BA9378
:10698000AA930E9448542496003011F00C94CD3400
:106990008CE1809397010C94D0348DE18093970122
:1069A000A5E8B1E00D911C9101501040A0E9B1E0C3
:1069B0000D931C9380E090E0AAE8B1E08D939C9346
:1069C00081E090E0AEE8B1E08D939C93A0E9B1E066
:1069D0004D915C91AEE8B1E00D911C910417150743
:1069E00018F011F00C940F35AAE8B1E00D911C914C
:1069F000AEE8B1E0AD90BD90A5E9B1E0AA0DBB1D38
:106A00004D915527040F151FAAE8B1E00D931C9373
:106A1000AEE8B1E00E94605510F40C94E634AAE8A8
:106A2000B1E00D911C91ADE7B1E04D915C91040F87
:106A3000151FAAE8B1E00D931C93AAE8B1E00D91EF
:106A40001C910F3450E0150718F011F00C942A3502
:106A50000C944035A1E8B1E00D911C910D56124007
:106A6000A3E8B1E00D931C93AAE8B1E00D911C914D
:106A70000F541040ACE8B1E00D931C930C947B359F
:106A8000A1E8B1E00D911C910E561240A3E8B1E0CF
:106A90000D931C93A1E8B1E00D911C9101501040A1
:106AA000A8EAB1E00D931C93AAEAB1E0BA93AA93C5
:106AB000A8EAB1E0BA93AA930E94485424960091A0
:106AC000AA01003011F00C947135AAE8B1E00D91E3
:106AD0001C91025E1E4FACE8B1E00D931C930C9428
:106AE0007B35AAE8B1E00D911C91015E1E4FACE828
:106AF000B1E00D931C9381E090E0A7E8B1E08D93A5
:106B00009C93ACE8B1E00D911C910E3150E015075B
:106B100018F011F00C948E350C94B435A7E8B1E060
:106B20000D911C91073050E0150710F00C94A4351E
:106B3000ACE8B1E00D911C910F511040ACE8B1E010
:106B40000D931C930C94AE35ACE8B1E00D911C9103
:106B50000E511040ACE8B1E00D931C93A7E8B1E0F2
:106B60000E9460550C948135ACE8B1E00D911C9108
:106B7000003050E0150711F00C94DC35A7E8B1E0C7
:106B80000E946755A7E8B1E00D911C91073050E0D5
:106B9000150710F00C94D4358FE190E0AFE7B1E029
:106BA0008D939C930C94DA358EE190E0AFE7B1E0E1
:106BB0008D939C930C94E435ACE8B1E08D919C915D
:106BC000AFE7B1E08D939C93089580E090E0ACE84E
:106BD000B1E08D939C93A7E8B1E00D911C91063034
:106BE00050E0150718F011F00C94F8350C94243689
:106BF0008AEB90E0ACE8B1E08D939C93A7E8B1E01C
:106C00000D911C9107501040A8EAB1E00D931C9320
:106C1000A8EAB1E00D911C914EE150E00E94455769
:106C2000A8EAB1E00D931C93ACE8B1E00D911C9182
:106C3000A8EAB1E04D915C91040F151FACE8B1E0FA
:106C40000D931C930C944836A7E8B1E00D911C916C
:106C500001501040A8EAB1E00D931C93A8EAB1E0FE
:106C60000D911C914FE150E00E944557A8EAB1E018
:106C70000D931C93ACE8B1E00D911C91A8EAB1E032
:106C80004D915C91040F151FACE8B1E00D931C937E
:106C9000ACE8B1E00D911C91AFE7B1E04D915C9192
:106CA000040F151FACE8B1E00D931C93ACE8B1E004
:106CB0000D911C910E3151E0150718F011F00C9454
:106CC00063360C947936A3E8B1E00D911C9102591A
:106CD0001D4FA1E8B1E00D931C93ACE8B1E00D911C
:106CE0001C910E511140AAE8B1E00D931C930C9435
:106CF0008D36A3E8B1E00D911C9103591D4FA1E819
:106D0000B1E00D931C93ACE8B1E00D911C91015BD7
:106D10001F4FAAE8B1E00D931C93A0E1B0E0BA9335
:106D2000AA93A1E8B1E0BA93AA930E94485424968A
:106D3000003011F00C94A1368CE1809397010C94F3
:106D4000A4368DE18093970181E090E0A5E8B1E061
:106D50008D939C93A5E8B1E00D911C910C3050E00F
:106D6000150718F011F00C94DC36AAE8B1E00D918B
:106D70001C910F3150E0150710F00C94C1360C94A3
:106D8000DC36AAE8B1E00D911C91A5E8B1E0AD9028
:106D9000BD90A5E9B1E0AA0DBB1D4D915527041B7F
:106DA000150BAAE8B1E00D931C93A5E8B1E00E9491
:106DB000605510F40C94AA36A5E8B1E0AD90BD90F2
:106DC000A5E9B1E0AA0DBB1D4D915527AAE8B1E098
:106DD0000D911C910417150718F011F00C94F23660
:106DE0000C940A37AAE8B1E00D911C91AEE8B1E02D
:106DF000AD90BD90A5E9B1E0AA0DBB1D4D91552701
:106E0000041B150BAAE8B1E00D931C93A5E8B1E0B3
:106E10000E946055AAE8B1E08D919C91ADE7B1E088
:106E20008D939C930895A9E3B1E08C918F5F8C932F
:106E3000009139010C3018F011F00C9421370C94AA
:106E4000243781E08093390181E0E3E30E94BC575D
:106E50005CEC81E0E3E30E94E45754E481E0E3E387
:106E60000E94E4578EE190E00E94005681E0E3E347
:106E70000E94BC5755E581E0E3E30E94E45781E0BE
:106E8000E3E3A1E0B1E00E94D6585EEB81E0E3E3EA
:106E90000E94E45781E0A5E3B1E0E3E322E02A9316
:106EA0000E940C58A5E3B1E08D919C91ABE3B1E059
:106EB0008D939C930E94B201EFE1F1E0A6E2B1E074
:106EC0000E946959A3E6B2E08C9187FB16F40C94FA
:106ED0008637E2E4F7E40E94FF58A0E7B1E0ED93C3
:106EE000FD938BB78C9383E08093730181E0809353
:106EF0007401882780937501A6E2B1E00E94C9550C
:106F0000E8EEF4EB0E94FF580E94CF5581E0E3E3E6
:106F10000E94BC5755E581E0E3E30E94E45781E01D
:106F2000E3E3AAE0B1E00E94D6585EEB81E0E3E340
:106F30000E94E45781E0A5E3B1E0E3E322E02A9375
:106F40000E940C58A5E3B1E08D919C91ADE3B1E0B6
:106F50008D939C930E94B201EFE1F1E0ADE2B1E0CC
:106F60000E946959A3E6B2E08C9187FB16F00C945D
:106F7000E53780E68A9380E28A9380E08A93EAE2AA
:106F8000FFE00E94FF588827809375010E94E75612
:106F9000E2E4F7E40E94FF58A0E7B1E0ED93FD932F
:106FA0008BB78C9383E08093730181E080937401AD
:106FB000882780937501ADE2B1E00E94C955E8EEE3
:106FC000F4EB0E94FF580E94CF550895A3E6B2E06B
:106FD0008C9187FB16F00C94F83740916701ADE275
:106FE000B1E00C91041711F00C94F8370E9455553C
:106FF0004091790100913002041781E009F080E0AE
:107000008F934091780100913102041781E009F0DB
:1070100080E09F9189238F9300912502033081E0C6
:1070200009F080E09F918923882311F40C94223881
