:100000000C942A001895000018950000189500001F
:10001000189500001895000018950000189500002C
:10002000189500001895000018950000189500001C
:10003000189500001895000018950000189500000C
:1000400018950000189500001895000018950000FC
:10005000189500008FE58DBFC0E2E8EB4E2E88E0DA
:100060008EBFD8E0F7E05F2EA89584B7082E877F73
:1000700084BF88E1992781BD91BDEEEFF7E0A0E64E
:10008000B0E088278D933197E9F787E489B980E05C
:1000900080BD88E18AB90E94BF036624D09AD19AB4
:1000A000D29A8E9A8A988F98A098E6ECF0E088E42D
:1000B0000E940D0458E0C895802D0E9407043196D7
:1000C0005A95C9F704C01F150E0404040404EAEE8F
:1000D000F0E080E50E940D0458E0C895802D0E9454
:1000E000070431965A95C9F704C0010101050505B9
:1000F0001515EEE0F1E088E50E940D0458E0C89582
:10010000802D0E94070431965A95C9F704C0200E2D
:100110000A1515111F20E2E3F1E080E60E940D04AC
:1001200058E0C895802D0E94070431965A95C9F76A
:1001300004C02011191513112020D898D998DA98E5
:10014000829A879A989A82E08093D3037091F203FF
:100150007F777093F203E3E1F0E0A0E1B0E00E946A
:100160009C04013011F00C94C000E3E1F0E0A0E148
:10017000BB2781E08C937BE70E9480040C94C9002C
:10018000E3E1F0E0A0E1BB2780E08C937BE70E94F5
:100190008004E1E0F0E0A0E1B0E00E949C040130C6
:1001A00011F00C94DB00A5EEB3E0E6EEF9E00E945E
:1001B00049040C94E100A5EEB3E0EAEEF9E00E94F8
:1001C00049048CE00E940D04E9E1F0E0AEEEB3E0FA
:1001D00093E00E94A604AEEEB3E0EEEEF9E00E94DA
:1001E000B60411F00C9400010E94A403E2EFF9E0C0
:1001F0000E949D03E2E0F0E00E94B6030C941E0111
:10020000A42DB52DE0E0FAE00E944904E4E1F0E01D
:10021000D2017BE70E9491040E94A403E6E0FAE089
:100220000E949D038FEB17E00E94B303E0E0FAE029
:100230000E949D03E2E0F0E00E94B603E4E1F0E0FA
:10024000A9EEB3E094E00E94A604E5E0F0E0A4E2A9
:10025000B3E09DE00E94A604E2E0F0E0A3E2B3E098
:100260000E949C0400912303013011F00C94410181
:10027000D89AA5EDB3E0E6EEF9E00E9449040C94AB
:100280004801D898A5EDB3E0E8E1FAE00E944904FE
:10029000E3E0F0E0A3E2B3E00E949C0400912303BA
:1002A000013011F00C945D01D99AA9EDB3E0E6EEAE
:1002B000F9E00E9449040C946401D998A9EDB3E0D7
:1002C000EAEEF9E00E944904E4E0F0E0A3E2B3E0E2
:1002D0000E949C0400912303013011F00C947901D9
:1002E000DA9AADEDB3E0E6EEF9E00E9449040C9431
:1002F0008001DA98ADEDB3E0E8E1FAE00E9449044C
:100300000E94A4038FE713E00E94B303ECE1FAE03C
:100310000E949D038FEB16E00E94B303EAE2FAE02D
:100320000E949D03969AE2E0F0E00E94B603969840
:10033000E4E3FAE00E9487030E948E03E2E0F0E02B
:100340000E94B603E8E3FAE00E9487030E948E034E
:10035000E2E0F0E00E94B603E4E4FAE00E948703E2
:100360000E948E03E2E0F0E00E94B603EEE4FAE0C1
:100370000E9487030E948E03E2E0F0E00E94B60331
:10038000E4E5FAE00E9487030E948E03E2E0F0E0D9
:100390000E94B603E8E6FAE00E9487030E948E03FB
:1003A000E1E0F0E00E94B603E4E3FAE00E94870394
:1003B0000E948E03E1E0F0E00E94B6030E94A403D5
:1003C000A0E6B0E0E2E7FAE00E944904E8E6FAE0DD
:1003D0000E9487030E948E03E1E0F0E00E94B603D2
:1003E00084E690E00E943A04A0E6B0E0EAE00E94D1
:1003F00064030E94A403A0E6B0E00E949703E2E039
:10040000F0E00E94B6030C94E6010C940502F89407
:10041000FFCFE1E0F0E00E94B603E6E7FAE00E94D9
:10042000870382E20E949103E0E8FAE00E948703DA
:1004300082E20E9491030E948E0388EC90E00E9469
:100440003A04ECE8FAE00E9487038AE10E949103F3
:100450000E948E03E5E0F0E00E94B603E4E3FAE0D8
:100460000E9487030E948E03E1E0F0E00E94B60341
:100470000895AEEAB1E088278C930E947703A3E247
:10048000B3E08C9300912303003018F011F00C942A
:100490004B020C947502009123030D3011F00C9463
:1004A0005C02AEEAB1E08C91803011F40C945A02F7
:1004B0000C9477020C9475020A3011F00C946B02C4
:1004C000AEEAB1E08C91803011F40C9469020C9486
:1004D00077020C947502A3E2B3E08C91AEEAB1E02E
:1004E0000E945B038D9388278C930C943D020895A2
:1004F000E0E9FAE00E948703ABE6B0E00E948103E6
:10050000E4E9FAE00E9487030E948E03EAE0F0E04B
:100510000E94B603E6E9FAE00E9487030E948E0378
:100520000895E8E3FAE00E9487030E948E03E1E069
:10053000F0E00E94B603ADE0B1E0EAE9FAE00E9423
:1005400049040E9409020E94A403EAECFAE00E9416
:100550009D03E2E0F0E00E94B603ECEDFAE00E94B9
:1005600087030E948E030E943902AEEAB1E0EEEEEC
:10057000F9E00E94B60411F40C943403EEEAF1E0C1
:10058000ABE6B0E00E9462040E943902EBE6F0E0C4
:100590009CE204E13AE0A0E5B2E00E94CC04A3E2D0
:1005A000B3E02C93E5E6F2E0ABE6B0E00E94620433
:1005B000ABE6B0E00E94B004A3E2B3E08C93A3E208
:1005C000B3E08C9182508C9382E0EBE6F0E00091F6
:1005D00023030A93ABE6B0E00E946B04ECEBF0E07F
:1005E000ABE6B0E00E94B80411F40C94F9020C944C
:1005F0000502EEEAF1E0AEEAB1E00E945304AEEA91
:10060000B1E0E6EEFAE00E94B60411F00C940A03A1
:100610000C940502E4E1F0E0AEEAB1E07BE70E9471
:100620009104E4E1F0E0A9EEB3E094E00E94A604B6
:10063000A42DB52DEEEEF9E00E944904E9E1F0E0C9
:10064000D2017BE70E9491040E94A403EEEEFAE03F
:100650000E949D03ADE0B1E0ECEFFAE00E94490496
:100660000E9409020C9405020C94A9020895E8E185
:10067000FBE00E9487030E948E030E9439020E94C1
:100680003902EEEAF1E00DE4A2E3B3E00E94720465
:10069000A2E3B3E00E94B004EA2FFB2F37970FEFDD
:1006A000A2E3B3E00E947204E2E3F3E0A2E3B3E06A
:1006B0000E94670408958F938D918823E9F711971D
:1006C0008F910895A0EAB7E016D08D3039F0EE236F
:1006D000D9F38D93EA9563FE24D0F6CF63FC04C072
:1006E0008DE01FD08AE01DD088278C93089588273D
:1006F0005F9B089500C05F9BFECF8CB10895A0EA78
:10070000B7E08D91882311F00CD0FBCF08950E94A3
:100710004F04802D11F005D0FACF08958DE001D05F
:100720008AE05D9BFECF8CB90895A0EAB7E08D9179
:10073000882311F06CD0FBCF08950E944F04802DC8
:1007400011F065D0FACF089581E067D015D080E828
:1007500064C08FE7213039F08FEB223021F08FE831
:10076000233009F08FEC810F0C940D0488EE93E098
:1007700081D03197D9F7089583E099277BC08AEF1C
:1007800090E00E943A04BB9ABA9AB99AB89ABC9A75
:10079000BD9AC59885E090E00E943A04C498C39839
:1007A000C298C19AC09AC49AEF93FF93E1E1F1E035
:1007B0000E942E04FF91EF91C49859D0C49AEF93F0
:1007C000FF93E1E1F1E00E942E04FF91EF91C498C4
:1007D0004ED0C49AEF93FF93E1E1F1E00E942E0422
:1007E000FF91EF91C49843D0C098C49AEF93FF93C0
:1007F000E1E1F1E00E942E04FF91EF91C49837D01F
:1008000088E20BD08EE009D086E007D00895C59A23
:10081000829505D004D02BD00895C598F9CF859541
:1008200010F4C09A01C0C098859510F4C19A01C017
:10083000C198859510F4C29A01C0C298859510F4AC
:10084000C39A01C0C398C49AEF93FF93E1E1F1E02A
:100850000E942E04FF91EF91C49808953197F1F70B
:100860000895689462F80895E89462F8089581E024
:1008700090E000C0EF93FF93EE27E82BE92B31F0D7
:10088000EDECFAE03197F1F70197D1F7FF91EF9195
:1008900008950E944F040D920020D9F70895C8953D
:1008A000319600200895819104D08D938823D9F743
:1008B0000895813418F08B3508F4806208958827F4
:1008C0008D93089581918D938823E1F70895819107
:1008D0008032E9F3F8CF09919191992351F08A95EB
:1008E000D9F73197002329F081918D930A958823B8
:1008F000C9F7E5CFE199FECFEEBBFFBB3196089576
:1009000091E001C092E07B3751F47FB7F894F2DFB9
:100910008D918DBBE29AE19A9A95C9F77FBF7727AF
:100920000895E8DF8D917B3729F48DBBE29AE19A37
:100930008823B9F77727089591E001C092E0DADFC4
:10094000E09A8DB38D939A95D1F70895D3DFE09A0D
:100950008DB38D93882319F09A95C1F79D930895CF
:100960008FEF83959D919923E1F70895689401C0D5
:10097000E894AF93BF938D9116F0919103C00E94BC
:100980004F04902D891718F011F48823A1F7BF9117
:10099000AF910895689401C0E8942227102F23177F
:1009A00009F4089526F40E944F04802D01C081911E
:1009B000803081F0891741F070E08D931A9591F79E
:1009C000239571E01D93EACF01D0E8CF703011F08C
:1009D00077270895772331F42395882713958D93EE
:1009E0001A95E9F708956F6E00004F6666004F4B49
:1009F000000048415645204F4C442050415353007D
:100A000031313131000044656661756C742050618C
:100A100073732049733A00006F666600496E69740B
:100A200069616C697A696E6700004D6F64656D2E4F
:100A30002E2E00004154000041542B434D47443DAD
:100A4000302C340041542B435245473F0000415461
:100A50004530000041542B434E4D49203D312C314F
:100A60002C302C302C30000041542B434D47463D58
:100A700031006E6F000041542B434D47533D000041
:100A80003039333736393231353033006869000058
:100A9000417464003B0041746800506C656173658B
:100AA0002053656E64204E65772050617373202D4E
:100AB000342052616768616D69204F722053656E02
:100AC000642043616E63656C000057616974204661
:100AD0006F72204E657720706173730041542B4311
:100AE0004D47523D310043616E63656C00005061BB
:100AF0007373205265636976656400005355434300
:100B0000455346554C4C204368656E6765642050DC
:100B1000617373776F7264004154442A3134302A10
:040B2000312300007D
:00000001FF
