:1000000012C0189518951895189518951895189563
:100010001895C3C0189518951895189518951895A2
:100020001895189518958FE58DBFC8E3E0E24E2E20
:1000300084E08EBFD4E0F4E05F2EA89584B7082E4C
:10004000877F84BF88E1992781BD91BDEEEFF3E002
:10005000A0E6B0E088278D933197E9F76624889869
:1000600089988D98A59AA49AA39AA29AA19AA09ADF
:10007000789479B7716079BF85E083BF882783BFA3
:10008000AB9AAC9AAD9AE5E0F0E06DD1AB98AC9844
:10009000AD98AB9AA89AE2E0F0E065D1AC9AA99A43
:1000A000E2E0F0E060D1AD9AAA9AE2E0F0E05BD144
:1000B000AB98A898E2E0F0E056D1AC98A998E2E0BD
:1000C000F0E051D1AD98AA98E2E0F0E04CD185E0A3
:1000D00083BF809B1FC088EC90E054D1A0E3B0E0C8
:1000E0000C9100FB81E00EF080E08F93A5E3B0E07F
:1000F0000C9100FB81E00EF480E09F91892388231E
:1001000009F408C0A89AAB9A88E592E0A0E6B0E0AE
:100110008D939C93A0E3B0E00C9101FB81E00EF085
:1001200080E08F93A5E3B0E00C9101FB81E00EF439
:1001300080E09F918923882309F40DC088EC90E02A
:1001400021D1819B08C0A99AAC9A88E592E0A2E6E9
:10015000B0E08D939C93A0E3B0E00C9105FB81E0AF
:100160000EF080E08F93A5E3B0E00C9102FB81E0FC
:100170000EF480E09F918923882309F40DC088EC58
:1001800090E000D1859B08C0AA9AAD9A88E592E0DC
:10019000A4E6B0E08D939C939CCF0F921F922F9278
:1001A0003F924F925F927F92AF92BF920F931F93B5
:1001B0002F933F934F935F936F937F938F939F936F
:1001C000AF93BF93CF93DF93EF93FF938FB78F934B
:1001D000A6E6B0E08C918F5F8C93009166004AE0B8
:1001E000E0D0A7E6B0E08C9300916700003009F002
:1001F0003FC0A5E3B0E00C9100FB81E00EF080E091
:100200008F93A0E3B0E00C9100FB81E00EF080E062
:100210009F918923882309F401C0AB98A5E3B0E03E
:100220000C9101FB81E00EF080E08F93A0E3B0E041
:100230000C9101FB81E00EF080E09F9189238823DF
:1002400009F401C0AC98A5E3B0E00C9102FB81E099
:100250000EF080E08F93A0E3B0E00C9105FB81E00D
:100260000EF080E09F918923882309F401C0AD98A6
:10027000009166000E3109F051C080E08093660065
:10028000A0E6B0E00D911C91003050E0150710F091
:1002900009F001C00FC0A0E6B0E05ED0AB9AA0E6C6
:1002A000B0E00D911C91003050E0150709F002C03C
:1002B000AB98A898A2E6B0E00D911C91003050E0F8
:1002C000150710F009F001C00FC0A2E6B0E044D05D
:1002D000AC9AA2E6B0E00D911C91003050E01507F9
:1002E00009F002C0AC98A998A4E6B0E00D911C9169
:1002F000003050E0150710F009F001C00FC0A4E66F
:10030000B0E02AD0AD9AA4E6B0E00D911C91003087
:1003100050E0150709F002C0AD98AA988F918FBFE1
:10032000FF91EF91DF91CF91BF91AF919F918F910D
:100330007F916F915F914F913F912F911F910F91FD
:10034000BF90AF907F905F904F903F902F901F9005
:100350000F901895F894FFCFED91FC91E150F0408B
:10036000FC93EE93089588EE93E00CD03197D9F783
:1003700008953197F1F70895689462F80895E89424
:1003800062F80895EF93FF93EE27E82BE92B31F005
:10039000E0EDF7E03197F1F70197D1F7FF91EF9199
:1003A0000895FF93881BF9E0001FFA9511F4FF915F
:1003B0000895881F841B18F4840F8894F5CF08943F
:0203C000F3CF79
:00000001FF
