:1000000012C0189518951895189518951895189563
:100010009EC11895189518951895189518951895C6
:100020001895189518958FE58DBFCCEFECE44E2E02
:1000300084E08EBFD3E0F3E05F2EA89584B7082E4E
:10004000877F84BF88E1992781BD91BDEEEFF3E002
:10005000A0E6B0E088278D933197E9F7662480E029
:100060008FBD85E08EBD789479B7746079BF8FEBD2
:1000700090EE9DBD8CBD85E08EBD8E9A8D9AB99A0D
:10008000BA9AA59AAD98A19AA99880EC90E0A4E6B6
:10009000B0E08D939C9380E0E6E32FD7A6E6B0E036
:1000A000ECE7F0E098E028D880E0E6E32BD7AFE675
:1000B000B0E0ECE7F0E098E01FD8A39AA49A8EB5E0
:1000C000887F8EBDAD9AAB9AEF93E8E0EA95F1F7A1
:1000D000EF91AD9884E4D2018C9381E005D6BED433
:1000E000229681E0FDD5AD9AAB9AEF93E8E0EA95D0
:1000F000F1F7EF91AD9880ECD2018C9381E0F4D5CB
:10010000ADD4229681E0ECD586E0D2018C9381E0DB
:10011000EBD5A4D4229681E0E3D5EF93E8E0EA950D
:10012000F1F7EF91AD9AAB9AEF93E8E0EA95F1F72A
:10013000EF91AD9882ECD2018C9381E0D5D58ED42D
:10014000229681E0CDD582E0D2018C9381E0CCD59E
:1001500085D4229681E0C4D5EF93E8E0EA95F1F7E3
:10016000EF91AD9AAB9AEF93E8E0EA95F1F7EF9152
:10017000AD9884ECD2018C9381E0B6D56FD42296F1
:1001800081E0AED580E0D2018C9381E0ADD566D41C
:10019000229681E0A5D5EF93E8E0EA95F1F7EF919B
:1001A000AD9AAB9AEF93E8E0EA95F1F7EF91AD984D
:1001B00086ECD2018C9381E097D550D4229681E0D1
:1001C0008FD586E0D2018C9381E08ED547D42296DC
:1001D00081E086D5EF93E8E0EA95F1F7EF91AD9AEB
:1001E000AB9AEF93E8E0EA95F1F7EF91AD9888ECE0
:1001F000D2018C9381E078D531D4229681E070D5FC
:1002000087E0D2018C9381E06FD528D4229681E0DB
:1002100067D5EF93E8E0EA95F1F7EF91AD9AAB9AE5
:10022000EF93E8E0EA95F1F7EF91AD988AECD2010F
:100230008C9381E059D512D4229681E051D585E086
:10024000D2018C9381E050D509D4229681E048D523
:10025000EF93E8E0EA95F1F7EF91AD9AAB9AEF935F
:10026000E8E0EA95F1F7EF91AD988CECD2018C9330
:1002700081E03AD5F3D3229681E032D586E0D201EF
:100280008C9381E031D5EAD3229681E029D5EF9392
:10029000E8E0EA95F1F7EF91AD9AAB9AEF93E8E0D9
:1002A000EA95F1F7EF91AD988EECD2018C9381E055
:1002B0001BD5D4D3229681E013D580E0D2018C9354
:1002C00081E012D5CBD3229681E00AD5EF93E8E006
:1002D000EA95F1F7EF91AD9AAB9AEF93E8E0EA95E2
:1002E000F1F7EF91AD988FE8D2018C9381E0FCD4C7
:1002F000B5D3229681E0F4D481E090E0A1EBB0E0A8
:100300008D939C93A1EBB0E00D911C91083050E0CF
:10031000150710F009F005C0A1EBB0E068D408F4AF
:10032000F1CFE1E0F0E0B6D4ADEAB0E08D919C9180
:10033000D2018D939C9382E0D7D4CED0229682E0D6
:10034000CFD484EF91E0B5D4EFCFF894FFCF0F92E4
:100350001F922F923F924F925F927F92AF92BF92E5
:100360000F931F932F933F934F935F936F937F93BD
:100370008F939F93AF93BF93CF93DF93EF93FF93AD
:100380008FB78F938EB5887F8EBD9FD3ADEAB0E0D7
:100390000D911C91023F5FEF150714F009F001C0A9
:1003A00004C0969A959AC19AC29AADEAB0E00D91AE
:1003B0001C91003F5FEF15070CF401C004C0969834
:1003C0009598C19AC29AADEAB0E00D911C91003F98
:1003D0005FEF150780E014F009F081E08F93A9E941
:1003E000B0E08C9187FB81E00EF480E09F9189233F
:1003F0008F93A9E9B0E08C9186FB81E00EF080E05C
:100400009F918923882309F401C0C198ADEAB0E027
:100410000D911C91033F5FEF150780E014F009F088
:1004200081E08F93A9E9B0E08C9187FB81E00EF425
:1004300080E09F9189238F93A9E9B0E08C9186FB9E
:1004400081E00EF080E09F918923882309F401C0A8
:10045000C2988FEB90EE9DBD8CBD85E08EBD8F91D7
:100460008FBFFF91EF91DF91CF91BF91AF919F919E
:100470008F917F916F915F914F913F912F911F913C
:100480000F91BF90AF907F905F904F903F902F90D3
:100490001F900F90189580E8D2018C9381E024D4AE
:1004A000DDD2229681E01CD40895AB9AAD9AEF93E9
:1004B000E8E0EA95F1F7EF91AD988FE8D2018C93DF
:1004C00081E012D4CBD2229681E00AD4EF93E8E007
:1004D000EA95F1F7EF91089581E006D484E004D421
:1004E000ADEAB0E00D911C91003050E015070CF41E
:1004F00001C01AC0A881B981E2E2F1E105D4ADEAF8
:10050000B0E08D919C919FD3082F192F17FB1EF4FB
:100510002FEF3FEF02C022273327E0E1F0E0A88170
:10052000B981B1D392D510C0ADEAB0E00D911C9164
:10053000003050E0150714F009F001C005C0EDEAE5
:10054000F0E0A881B98185D5E881F981A4E3B3E021
:10055000CDD5E4E3F3E0A881B98113E0222700E0E0
:100560003327EBD3A881B981D6D5AA81BB818C93DF
:10057000AA81BB818C918F5F8C9381E090E0A1EB8D
:10058000B0E08D939C93AA81BB814D915527A1EB3F
:10059000B0E00D911C910417150710F009F097C0F9
:1005A00080E3482F4F93E894E881F981AA81BB81C9
:1005B0000C914091B100041BA4D5082F4F91041752
:1005C00009F004C08FE38093AF0071C081E3482F2E
:1005D0004F934F91041709F004C080E38093AF005C
:1005E00066C082E3482F4F934F91041709F004C06F
:1005F0008BE58093AF005BC083E3482F4F934F910F
:10060000041709F004C089E78093AF0050C084E369
:10061000482F4F934F91041709F004C084E780934B
:10062000AF0045C085E3482F4F934F91041709F061
:1006300004C08DE68093AF003AC086E3482F4F9305
:100640004F91041709F004C08FE68093AF002FC0CC
:1006500087E3482F4F934F91041709F004C08CE3B0
:100660008093AF0024C088E3482F4F934F91041725
:1006700009F004C08FE78093AF0019C089E3482FC9
:100680004F934F91041709F004C08DE78093AF009A
:100690000EC08DE2482F4F934F91041709F004C00C
:1006A00080E48093AF0003C080E08093AF0080912E
:1006B000AF00A1EBB0E0AD90BD90A9E9B0E0AA0D0C
:1006C000BB1D8C93A1EBB0E092D208F45CCF06D0B6
:1006D00085E0481A80E0580A2496089580E090E06A
:1006E000A1EBB0E08D939C93A1EBB0E00D911C9138
:1006F000073050E0150710F009F0B5C0A1EBB0E0ED
:10070000AD90BD90AAE9B0E0AA0DBB1D8C9180FB15
:100710008091B100A2EAB0E00AD3FFD20C9016F0AB
:10072000092201C0082A0C92A1EBB0E0AD90BD9067
:10073000AAE9B0E0AA0DBB1D8C9181FB8091B100AC
:10074000A3EAB0E0F4D2E9D20C9016F0092201C07D
:10075000082A0C92A1EBB0E0AD90BD90AAE9B0E000
:10076000AA0DBB1D8C9182FB8091B100A4EAB0E080
:10077000DED2D3D20C9016F0092201C0082A0C92C6
:10078000A1EBB0E0AD90BD90AAE9B0E0AA0DBB1D11
:100790008C9183FB8091B100A5EAB0E0C8D2BDD2B4
:1007A0000C9016F0092201C0082A0C92A1EBB0E0CF
:1007B000AD90BD90AAE9B0E0AA0DBB1D8C9184FB61
:1007C0008091B100A6EAB0E0B2D2A7D20C9016F0A8
:1007D000092201C0082A0C92A1EBB0E0AD90BD90B7
:1007E000AAE9B0E0AA0DBB1D8C9185FB8091B100F8
:1007F000A7EAB0E09CD291D20C9016F0092201C079
:10080000082A0C92A1EBB0E0AD90BD90AAE9B0E04F
:10081000AA0DBB1D8C9186FB8091B100A8EAB0E0C7
:1008200086D27BD20C9016F0092201C0082A0C92C5
:10083000A1EBB0E0AD90BD90AAE9B0E0AA0DBB1D60
:100840008C9187FB8091B100A9EAB0E070D265D2AB
:100850000C9016F0092201C0082A0C92A1EBB0E01E
:10086000C6D108F441CFAD9AAB9AEF93E8E0EA9590
:10087000F1F7EF91AD9884E4D2018C9381E034D20A
:10088000EDD0229681E02CD2AD9AAB9AEF93E8E0BE
:10089000EA95F1F7EF91AD9880ECD2018C9381E06D
:1008A00023D2DCD0229681E01BD28091A200D2011B
:1008B0008C9381E019D2D2D0229681E011D2AD9AE8
:1008C000AB9AEF93E8E0EA95F1F7EF91AD9882ECFF
:1008D000D2018C9381E008D2C1D0229681E000D26F
:1008E0008091A300D2018C9381E0FED1B7D02296F3
:1008F00081E0F6D1AD9AAB9AEF93E8E0EA95F1F793
:10090000EF91AD9884ECD2018C9381E0EDD1A6D02B
:10091000229681E0E5D18091A400D2018C9381E000
:10092000E3D19CD0229681E0DBD1AD9AAB9AEF93D4
:10093000E8E0EA95F1F7EF91AD9886ECD2018C935F
:1009400081E0D2D18BD0229681E0CAD18091A500DE
:10095000D2018C9381E0C8D181D0229681E0C0D1B0
:10096000AD9AAB9AEF93E8E0EA95F1F7EF91AD9885
:1009700088ECD2018C9381E0B7D170D0229681E0CF
:10098000AFD18091A600D2018C9381E0ADD166D029
:10099000229681E0A5D1AD9AAB9AEF93E8E0EA9573
:1009A000F1F7EF91AD988AECD2018C9381E09CD164
:1009B00055D0229681E094D18091A700D2018C93EA
:1009C00081E092D14BD0229681E08AD1AD9AAB9A48
:1009D000EF93E8E0EA95F1F7EF91AD988CECD20156
:1009E0008C9381E081D13AD0229681E079D18091B7
:1009F000A800D2018C9381E077D130D0229681E09B
:100A00006FD1AD9AAB9AEF93E8E0EA95F1F7EF91E9
:100A1000AD988EECD2018C9381E066D11FD02296E6
:100A200081E05ED18091A900D2018C9381E05CD1FC
:100A300015D0229681E054D1AD9AAB9AEF93E8E0BD
:100A4000EA95F1F7EF91AD9888E8D2018C9381E0B7
:100A50004BD104D0229681E043D1089581E044D166
:100A600080E0A881B9818C93A881B9810C9107306D
:100A700010F009F024C0AB98A881B9818C91AA81AB
:100A8000BB8155D14AD10C900822689409F4E894AE
:100A9000A5E3B0E08C9184F98C93EF93E8E0EA95BC
:100AA000F1F7EF91AB9AEF93E8E0EA95F1F7EF9168
:100AB000A881B9818C918F5F8C9308F4D5CF81E0A8
:100AC000481A80E0580A2296089580E0E6E381D132
:100AD0005CEC80E0E6E39FD154E480E0E6E39BD168
:100AE0008EE190E0E6D080E0E6E373D155E580E06A
:100AF000E6E391D180E0E6E3A6E6B0E073D262FAE5
:100B00000EF419C05EEB80E0E6E385D180E0ABEA4D
:100B1000B0E0E6E322E02A93A2D1ABEAB0E08D9107
:100B20009C91ADEAB0E08D939C9306D0E4E8F0E0B0
:100B3000ABE8B0E0DBD20895ABEAB0E00D911C91D8
:100B40004AE050E0D7D0ABEAB0E00D931C93ABEA9B
:100B5000B0E00D911C9140E150E055D0ABEAB0E01F
:100B60004D935C93ABEAB0E08D919C91ADEAB0E01F
:100B70008D939C93ADEAB0E00D911C914AE050E05A
:100B800042D0ADEAB0E04D935C93EBEAF0E0A4E82C
:100B9000B0E05FD2E4E8F0E0A4E3B3E0A7D2E4E39E
:100BA000F3E0A4E8B0E01127222702E031E0C5D04D
:100BB0000895ADEAB0E00D911C91023F5FEF15077B
:100BC00014F009F001C004C096989598C198C29895
:100BD000ADEAB0E00D911C91003F5FEF15070CF4FA
:100BE00001C004C0969A959AC19AC29A0895ED914F
:100BF000FC91EF5FFF4FFC93EE93089508D07AD0FD
:100C000000FC10D0089503D024D001F8F9CF0024BF
:100C1000E89457FF02C009D0689400F80BD010F890
:100C20000124089502D009D00895509540954F5F52
:100C30005F4F0895E89417FF0895009510950F5F92
:100C40001F4F6894089599231AF480959095019602
:100C50000895352F242FE894452B11F468940895B6
:100C6000512F402F0027112780E1440F551F001FEF
:100C7000111F021B130B416018F4020F131F4E7F4C
:100C80008A9599F708958F938D918823E9F71197A5
:100C90008F91089588EE93E00CD03197D9F708959D
:100CA0003197F1F70895689462F80895E89462F82E
:100CB0000895EF93FF93EE27E82BE92B31F0E0ED59
:100CC000F7E03197F1F70197D1F7FF91EF91089590
:100CD00001911191219130810895481A590A08957E
:100CE000481A8827580A089599275A924A92480E16
:100CF000591E08950F92B801469F8001479F100D1D
:100D0000569F100D0F90089504D00D920020E1F72A
:100D10000895C89531960020089591E0882321F028
:100D20008894991F8A95E9F7892F909508958830BE
:100D300018F011968850FBCF08952E2E3F2E99273C
:100D400081918D3209F093958823D1F79A95E22D00
:100D5000F32D112361F0091718F011F0101B01C0D9
:100D6000191B28F021F080E28D931A95E9F7808114
:100D70008D3219F48D93319604C0222311F08BE249
:100D80008D93091738F031F0091B21F080E38D9322
:100D90000A95E9F781918D938823E1F7332351F088
:100DA000EA2FFB2F319633958E9182933A95E1F796
:100DB0008EE28C9308950181082B018312811923FF
:100DC0001283EF93FF93E8E0F0E06ADFFF91EF9189
:100DD00008956CDFFF27A1DFEEDFEF93FF93ECEBCD
:100DE000F3E05EDFFF91EF91182B1283092301835B
:100DF000EF93FF93E8E8F0E053DFFF91EF9110816C
:100E0000182309F050DFEF93FF93E0E3F3E048DFAE
:100E1000FF91EF91089581DFFF2721E048E005C0B1
:100E20007CDFFF2729915D9148E0C5DF579510F4DD
:100E3000182B1283EF93FF93E8E6F0E031DFFF9188
:100E4000EF91182B1283EF93FF93E0E1F0E028DF9E
:100E5000FF91EF914A9549F72A9529F708955DDFAB
:100E6000FF27299148E05527A6DF09230183EF9347
:100E7000FF93EEE0F0E014DFFF91EF918894108192
:100E8000182309F008945795EF93FF93EAE6F0E0F2
:100E900007DFFF91EF914A9539F75D932A9511F796
:100EA000089589DF09230183EF93FF93EEE0F0E0DB
:100EB000F7DEFF91EF91E8941081182309F0689410
:100EC000EF93FF93EAE6F0E0EBDEFF91EF910895F8
:100ED00072DF16F4182B1283EF93FF93E8E6F0E02D
:100EE000DFDEFF91EF91182B1283EF93FF93E0E188
:100EF000F0E0D6DEFF91EF910895332730937B0029
:100F00003093780066DF0EF458C03091780030FDE1
:100F100054C0662760937A0063956093790021E05E
:100F200050EF48E082DFBDDF31F9BBDF32F9632FDC
:100F30006670663009F441C0603019F031FB40D072
:100F400025C06091790070917B006717B1F0C0F403
:100F50008F939F93862F8A95ACE7B0E0E8DEDDDEC5
:100F60007C9178236894772329F4E8946091790040
:100F700060937A009F918F9109C0689421D006C038
:100F8000E8941ED06091790060937A00A1DF6091AF
:100F90007900639560937900613409F0C4CF609162
:100FA0007A0060937B006623E89409F4689430F932
:100FB00030937800E89462F80895689462F8089590
:100FC0008F939F93ACE7B0E0809179008A95AFDE74
:100FD000A4DE7C9116F4782B01C079237C939F9139
:100FE0008F910895AF93BF93EF93FF9338E0ECE7B1
:100FF000F0E00D9101933A95E1F7FF91EF9130E424
:1010000030937B003327309378007CDF38E0BF914A
:10101000AF91ECE7F0E00D914191041719F43A9586
:10102000D1F7089540DE0895000F111F221F331FCE
:10103000089500951095209530950F5F1F4F2F4F05
:101040003F4F0895019110810DC042DE0DC040DE7A
:1010500010C00191108117FF05C03FEF2FEF04C0B2
:10106000008111272227332737FF03C0E2DF8DE2FB
:101070008D93CF92DF92EF92AA24BB24CC24DD245F
:10108000EE2440E2EAE0FF2755E093E38081890FF8
:1010900087FD9F7083FD907F891B81935A95A9F7E7
:1010A000C3DFAA1CBB1CCC1CDD1CEE1C4A9551F7EF
:1010B000E894EFE0FF2782910CD0EB30E0F71EF0D0
:1010C00068948A2D0AD088278D93EF90DF90CF9077
:1010D0000895982F829501D0892F8F70805D26F01A
:1010E000803309F4089568948D93089581918D93C8
:1010F0008823E1F7089594E081918D939A95E1F723
:10110000089516F406DE01C00190802D803011F0A4
:101110000A95B9F708958FEF83959D919923E1F78B
:0411200008952D0001
:00000001FF
