:100000000C94460018950000189500001895000003
:10001000189500001895000018950000189500002C
:10002000189500001895000018950000189500001C
:10003000189500001895000018950000189500000C
:1000400018950000189500000C94680018950000A1
:1000500018950000189500001895000018950000EC
:1000600018950000189500001895000018950000DC
:1000700018950000189500001895000018950000CC
:100080001895000018950000189500008FEF8DBF9F
:10009000C8EDE0EC4E2E80E18EBFD0E1F0E15F2EA6
:1000A000A89584B7082E877F84BF88E1992781BDF2
:1000B00091BDEEEFFFE0A0E0B1E088278D9331978E
:1000C000E9F766247894579A0C9464000E946400BF
:1000D0000F921F922F923F924F925F927F92AF9218
:1000E000BF920F931F932F933F934F935F936F9301
:1000F0007F938F939F93AF93BF93CF93DF93EF93B0
:10010000FF938FB78F938BB78F9388278BBF8F9178
:100110008BBF8F918FBFFF91EF91DF91CF91BF91F7
:10012000AF919F918F917F916F915F914F913F918F
:100130002F911F910F91BF90AF907F905F904F9044
:100140003F902F901F900F901895F894FFCF319704
:10015000F1F70895689462F80895E89462F80895B4
:100160000F9301E00BBF0F91889408950F93002720
:08017000F9CF0F9302E0F6CF76
:00000001FF
