:100000000C94FE090C9400000C9400000C94000069
:100010000C9400000C9400000C9400000C94000060
:100020000C9400000C94BE0C0C9400000C94000086
:100030000C9400000C9400000C9400000C94000040
:100040000C9400000C9400000C9400000C94000030
:100050000C94000005072060000000000000000470
:100060000404040400040A0A0A000000000A0A1F2B
:100070000A1F0A0A041E050E140F040313080402C3
:1000800019180609050215091606040200000000E9
:100090000804020202040802040808080402000A14
:1000A000041F040A000004041F04040000000000F0
:1000B0000604020000001F00000000000000060609
:1000C00000001008040201000E11191513110E048E
:1000D00006040404040E0E11100804021F1F080475
:1000E0000810110E080C0A091F08081F010F101034
:1000F000110E0C02010F11110E1F10080402020252
:100100000E11110E11110E0E11111E10080600060F
:100110000600060600000606000604021008040297
:1001200004081000001F001F000001020408040260
:10013000010E1110080400040E11101615150E0EF4
:100140001111111F11110F11110F11110F0E1101AA
:100150000101110E070911111109071F01010F01FA
:10016000011F1F0101070101010E11010119110EEB
:100170001111111F1111110E04040404040E1C08A6
:100180000808080906110905030509110101010103
:1001900001011F111B151111111111111315191145
:1001A000110E11111111110E0F11110F0101010E7C
:1001B0001111111509160F11110F0509111E010159
:1001C0000E10100F1F040404040404111111111166
:1001D000110E11111111110A0411111115151B1114
:1001E00011110A040A111111110A040404041F1048
:1001F000080402011F1C04040404041C000102047E
:1002000008100007040404040407040A1100000095
:10021000000000000000001F0204080000000000B1
:10022000000E101E111E01010D1311110F00000E02
:100230000101110E1010161911111E00000E111FD0
:10024000010E0C12020702020200001E111E100C09
:1002500001010D131111110400060404040E08001D
:100260000C080809060202120A060A12060404040F
:1002700004040E00000B1515111100000D131111CF
:100280001100000E1111110E00000F110F010100DD
:100290000016191E101000000D1301010100000EC0
:1002A000010E100F0202070202120C0000111111C0
:1002B000191600001111110A040000111115150A78
:1002C0000000110A040A11000011111E100E000096
:1002D0001F0804021F0804040204040804040404A0
:1002E00004040402040408040402021508000000C7
:1002F000001F11111111111F8000400000000000AB
:1003000000000000000000000000000000000000ED
:1003100000000000000000000000000000000000DD
:1003200000000000000000000000000000000000CD
:1003300000000000000000000000000000000000BD
:1003400000000000000000000000000000000000AD
:10035000000000000000000000000000000000009D
:10036000000000000000000000000000000000008D
:10037000000000000000000000000000000000007D
:10038000000000000000000000000000000000006D
:100390000000F8FF3F000000000000000000000027
:1003A0000000FCFF3F000000000000000000000013
:1003B0000000FCFF3F000000000000000000000003
:1003C00000E0FFFFBF070000000000000000000089
:1003D000E0EFFDFFBFF70700000000000000000095
:1003E000E0EFFDFFBFF70700000000000000000085
:1003F000E0EFFDFFBFF70700000000000000000075
:1004000000E8FDFFBF170000000000000000000032
:1004100000E0FDFFBF07000000000000000000003A
:100420000000FCFF3F000000000000000000000092
:100430000000FCFF3F000000000000000000000082
:100440000000FCFF3F000000000000000000000072
:1004500000E0FDFFBF0700000000000000000000FA
:1004600000E0FFFFBF0700000000000000000000E8
:10047000E0EFFDFFBFF707000000000000000000F4
:10048000E0EFFDFFBFF707000000000000000000E4
:10049000E0EFFDFFBFF707000000000000000000D4
:1004A00000E0FFFFBF0700000000000000000000A8
:1004B00000C0FDFFBF0700000000000000000000BA
:1004C0000000FCFF3F0000000000000000000000F2
:1004D0000000FCFF3F0000000000000000000000E2
:1004E0000000FCF13F0000000000000000000000E0
:1004F00000E03D801F000000000000000000000040
:1005000000E81D0E871F7E000000000000000000B4
:10051000E0EF8D3FE23FFF0100000000000000001F
:10052000E0EFC5FFF0FFFF03000000000000000047
:1005300000EFE3FFF8FFFF070000000000000000ED
:1005400000E0F3F978F083070000000000000000ED
:100550000000F07E78E0810700000000000000004D
:100560000000703F38E001070000000000000000BC
:100570000000F01F38E0010700000000000000004C
:100580000000F06738E001070000000000000000F4
:1005900000E0F3F338E00107000000000000000075
:1005A000E0EFE3FF38E0010700000000000000007A
:1005B000E0EFC37F38E0010700000000000000000A
:1005C000E0EF833F38E0010700000000000000007A
:1005D00000E0030E0000000000000000000000002A
:1005E00000E001000000000000000000000000002A
:1005F00000000000000000000000000000000000FB
:1006000000F0070003600000000000000000000090
:1006100000F00700034000000000000000000000A0
:1006200000C0F0389F671E000000000000000000BE
:1006300000C0986D9F6F33000000000000000000B4
:1006400000C0F80DB36D03000000000000000000C2
:1006500000C0186C936D3300000000000000000023
:1006600000C0F17CB36D1E0000000000000000001F
:10067000000000000000000000000000000000007A
:10068000000000000000000000000000000000006A
:10069000000000000000000000000000000000005A
:1006A000000000000000000000000000000000004A
:1006B000000000000000000000000000000000003A
:1006C000000000000000000000000000000000002A
:1006D000000000000000000000000000000000001A
:1006E000000000000000000000000000000000000A
:1006F000000000000000000000000000800040003A
:1007000000000000000000000000000000000000E9
:1007100000000000000000000000000000000000D9
:1007200000000000000000000000000000000000C9
:1007300000000000000000000000000000000000B9
:1007400000000000000000000000000000000000A9
:100750000000000000000000000000000000000099
:1007600000000000000000800F00000000000000FA
:1007700000000000000000800F00000000000000EA
:1007800000000000000000800F00000000000000DA
:1007900000000000000000860F03000000000000C1
:1007A000000000000000008F8F0700000000000024
:1007B00000000000000080BFEF0F000000000000FC
:1007C00000000000000000FFFF0700000000000024
:1007D00000000000000004FEFF0300000000000015
:1007E0000000000000C007FCFF011F000000000027
:1007F0000000000000C007F8FF001F00000000001C
:100800000000000000C00FE03F801F00000000005B
:100810000000000000830FC01F800F0600000000D2
:1008200000000000009F0F800F80CF070000000035
:100830000000000080FF1F800F80FF0F00000000FD
:100840000000000080FF1F800FC0FF0F00000000AD
:100850000000000000FE1F800FC0FF03000000002A
:100860000000000000F81F800FC0FF000000000023
:100870000000000000F07F800FF07F00000000000B
:100880000000000000FEFF810FFCFF0300000000DD
:1008900000000000C0FFFF870FFFFF1F00000000E7
:1008A0000000000080FFF3BFEF7FFE0F000000009C
:1008B00000000000803FC0FFFF1FE00F00000000AD
:1008C00000000000800300FFFF07000E0000000092
:1008D00000000000000000FCFF010000000000001C
:1008E00000000000000000F07F0000000000000099
:1008F00000000000000000F8FF0000000000000001
:1009000000000000000000FEFF03000000000000E7
:1009100000000000800F80FFFF1F800F000000001C
:100920000000000080FFF0BFEF7FF80F0000000024
:1009300000000000C0FFFF8F8FFFFF1F00000000BE
:100940000000000080FFFF830FFEFF0F000000008B
:100950000000000000F8FF800FF8FF00000000001A
:100960000000000000F03F800FE07F00000000006A
:100970000000000000FC1F800FC0FF01000000000D
:100980000000000000FF1F800FC0FF0700000000F4
:100990000000000080FF1F800FC0FF0F000000005C
:1009A00000000000809F0F800F80CF0F000000002C
:1009B0000000000000870F800F800F07000000007C
:1009C0000000000000800FE03F800F0000000000EA
:1009D0000000000000C007F07F001F0000000000C2
:1009E0000000000000C007F8FF001F00000000002A
:1009F00000000000000007FEFF03070000000000E9
:100A000000000000000000FFFF07000000000000E1
:100A100000000000000080BFEF0F00000000000099
:100A2000000000000000809FCF0F000000000000C9
:100A3000000000000000008F8F0700000000000091
:100A400000000000000000820F0200000000000013
:100A500000000000000000800F0000000000000007
:100A600000000000000000800F00000000000000F7
:100A70000000000000000000000000000000000076
:100A80000000000000000000000000000000000066
:100A90000000000000000000000000000000000056
:100AA0000000000000000000000000000000000046
:100AB0000000000000000000000000000000000036
:100AC0000000000000000000000000000000000026
:100AD0000000000000000000000000000000000016
:100AE0000000000000000000000000000000000006
:100AF00000000000000000000000000000000000F6
:100B00008000400000000000000000000000000025
:100B100000000000000000000000000000000000D5
:100B200000000000000000000000000000000000C5
:100B300000000000000000000000000000000000B5
:100B400000000000000000000000000000000000A5
:100B50000000000000000000008001C000E0000074
:100B6000000000000000000000C007E003E00100FA
:100B7000000000000000000000800F8007C0070098
:100B8000000000000000000000001E000F800700B1
:100B9000000000000000000000001E001E000F000A
:100BA000000000000000000000001E001E000F00FA
:100BB000000000000000000000001E000F80070081
:100BC000000000000000000000000F8007C00700C8
:100BD000000000000000000000C007C003E00100AA
:100BE000000000000000000000E003F001F8000039
:100BF000000000000000000000F000F8007C000091
:100C000000000000000000000078007C003C0000B4
:100C100000000000000000000078003C001E000002
:100C200000000000000000000078003C001E0000F2
:100C300000000000000000000078007C003C000084
:100C4000000000000000000000F000F8007C000040
:100C5000000000000000000000E003F001F00100CF
:100C60000000000000000000008007C003E0010059
:100C70000000000000000000000000000000000074
:100C8000000000000000000000E001C00380070039
:100C9000000000000000000000F807F00FE01F0057
:100CA000000000000000000000FE1FFC1FF83F00D5
:100CB000000000000000000000FE1F7C3E787C0069
:100CC0000000000000000000001F3C1E783CF00007
:100CD0000000000000000000000F381E781CE0003B
:100CE0000000000000000000E00FF81FF81FE00700
:100CF0000000000000000000F80FF81FF81FE01FC0
:100D00000000000000000000FC0FF81FF81FE03F8B
:100D10000000000000000000FC0FF81FF81FE03F7B
:100D200000000000000000001C0F381E781EE03894
:100D30000000000000000000FC0F781E781EE03D5F
:100D40000000000000000000FC0FF81FF81FE01F6B
:100D50000000000000000000F80FF81FF81FE01F5F
:100D60000000000000000000C00FF81FF81FE003A3
:100D70000000000000000000000E381E781EE00099
:100D80000000000000000000000E381E781EE00089
:100D90000000000000000000000E381E781EE00079
:100DA0000000000000000000000E381E781EE00069
:100DB0000000000000000000000E381E781EE00059
:100DC0000000000000000000000E381E781EE00049
:100DD0000000000000000000000E381E781EE00039
:100DE0000000000000000000000E381E781EE00029
:100DF0000000000000000000000E381E781EE00019
:100E00000000000000000000000E381E781EE00008
:100E10000000000000000000000E381E781EE000F8
:100E20000000000000000000000E381E781EE000E8
:100E30000000000000000000001E3C1E781CF000B6
:100E40000000000000000000003E3E7C3E7CFC00F4
:100E5000000000000000000000FC1FFC1FF87F00E5
:100E6000000000000000000000F80FF00FF01F006D
:100E7000000000000000000000E003C00380070045
:100E80000000000000000000000000000000000062
:100E90000000000000000000000000000000000052
:100EA0000000000000000000000000000000000042
:100EB0000000000000000000000000000000000032
:100EC0000000000000000000000000000000000022
:100ED0000000000000000000000000000000000012
:100EE0000000000000000000000000000000000002
:100EF00000000000000000000000000000000000F2
:100F00000000000080004000000000000000000021
:100F100000000000000000000000000000000000D1
:100F200000000000000000000000000000000000C1
:100F300000000000000000000000000000000000B1
:100F400000000000000000000000000000000000A1
:100F50000000000000000000000000000000000091
:100F60000000000000000000000000000000000081
:100F70000000000000000000000000000000000071
:100F80000000000000000000000000000000000061
:100F9000000000000000000000000000F8FFFFFF5C
:100FA000FFFFFF3F0000000000000000FCFFFFFF0C
:100FB000FFFFFF7F0000000000000000FEFFFFFFBA
:100FC000FFFFFFFF0000000000000000FEFFFFFF2A
:100FD000FFFFFFFF0000000000000000FEFF00F820
:100FE000FFFFFFFF0000000000000000FE1FFEE307
:100FF000FFFFFFFF0000000000000000FEC7FF9F92
:10100000FFFFFFFF0000000000000000FEC3FF190B
:10101000FEFFFFFF0000000000000000FE997FC0FF
:10102000FC0F3EF80000000000000000FEBC3F8FF7
:10103000F9FFFFFF00000000000000007E3EBF77C8
:10104000F2FFFFFF00000000000000003E73DFF32E
:10105000F6FFFFFF0000000000000000BEECDEFB1A
:10106000EDFFFFFF00000000000000009ECECCF965
:10107000CBFFFFFF00000000000000005ECFCDFDB1
:10108000DB1F7FFC00000000000000004ECFC9FE07
:10109000DB0F3EF800000000000000008EDF03C2FE
:1010A0009BFFFFFF0000000000000000AE9F7138B2
:1010B000B8FFFFFF0000000000000000AE3F24FD6D
:1010C000BCFFFFFF0000000000000000A67F8EFBB9
:1010D000BFFFFFFF0000000000000000A67F84F1BA
:1010E0009FFFFFFF0000000000000000060000005E
:1010F000801F3EF8000000000000000026FF8EFB6D
:10110000BFFFFFFF00000000000000006EFF24F1A1
:10111000BFFFFFFF00000000000000006E1C70E435
:10112000BFFFFFFF0000000000000000EEC103CE83
:101130009FFFFFFF0000000000000000CEFF999E0F
:10114000DF1F7EFC0000000000000000DEFFBDBDD0
:10115000DF1F7FFC00000000000000009EFFBCB904
:10116000CFFFFFFF0000000000000000BEFF9E3B1D
:10117000EFFFFFFF00000000000000003E7FCE33C5
:10118000F7FFFFFF00000000000000007E3EF3B705
:10119000F3FFFFFF0000000000000000FEBCF98F1D
:1011A000F9FFFFFF0000000000000000FE99F9CFEA
:1011B000FC0F3EF80000000000000000FEC3F30139
:1011C000FEFFFFFF0000000000000000FEC7079CBC
:1011D000FFFFFFFF0000000000000000FE1FFFC730
:1011E000FFFFFFFF0000000000000000FE7F00F88E
:1011F000FFFFFFFF0000000000000000FEFF8FFF68
:10120000FFFFFFFF0000000000000000FEFFFFFFE7
:10121000FFFFFFFF0000000000000000FCFFFFFFD9
:10122000FFFFFF7F0000000000000000F8FFFFFF4D
:10123000FFFFFF3F00000000000000000000000072
:10124000000000000000000000000000000000009E
:1012500000000000000000000000000000FF03008C
:101260000080FF01000000000000000000FF0300FC
:101270000080FF01000000000000000000FE0300ED
:101280000080FF01000000000000000000000000DE
:10129000000000000000000000000000000000004E
:1012A000000000000000000000000000000000003E
:1012B000000000000000000000000000000000002E
:1012C000000000000000000000000000000000001E
:1012D000000000000000000000000000000000000E
:1012E00000000000000000000000000000000000FE
:1012F00000000000000000000000000000000000EE
:1013000000000000000000006400C80090012003FD
:10131000F8FFFCFFFEFFFFFF000103070F1F3F7FE9
:10132000FF003030200020008090889801000100EC
:10133000000000005361740053756E004D6F6E0025
:1013400054756500576564005468750046726900FD
:10135000636F6F6C657220202020202020202020C9
:1013600000253034642F00253032642F00253032C0
:101370006400253032643A00616C6C2073617665DC
:101380006400253032643A253032643A25303264C4
:10139000002534642F253032642F25303264002537
:1013A000303164250025322E3166256043006865A2
:1013B0006174726500636F6F6C657200686561745B
:1013C000657200002D4E414E000001002D4E414E31
:1013D00000494E460000010002002C1306000400E4
:1013E0002E131B00DA02341306000F0350130A00F9
:1013F0006002781301001E03CA130000F894EE2760
:10140000ECBBF1E0F5BFE5BF8DE0A2E0BB27ED93BB
:101410008A95E9F780E098E0A0E6ED930197E9F777
:10142000E6EDF3E185919591009761F0A591B59175
:1014300005901590BF01F00105900D920197E1F71D
:10144000FB01F0CFEFE5EDBFE8E0EEBFC0E6D2E094
:101450000C94C50C0E941A1C0E94DD1F20F80E94EB
:101460003D19A0E020FCA1E0A13060F0A0E0B0E0D8
:101470000E946F12E0931603F09317036093180312
:10148000709319030895E0E0E0930303E1E0E09333
:1014900002030E9445198399EFC10E94A813839B00
:1014A000FECF0E9445190E944919AA3029F4E2E0B2
:1014B0002E26E0E0E09303030E945119A6E5B3E174
:1014C0000E94FA110E9456190E945F190E94691920
:1014D00081F40E945F190E946E1939F00E9451191F
:1014E000ACE5B3E10E94FA110EC0A0910203A13055
:1014F00051F0E5E0F3E0FA93EA93E1E6F3E10E94CC
:1015000073190E947E190E9483190E9488190E94F3
:101510008F190E94691981F4A09102030E948F190A
:101520000E946E1929F00E9451190E94971910C04B
:10153000A0910203A23061F0E5E0F3E0FA93EA93B0
:10154000E7E6F3E1FA93EA930E949B190E947E1961
:10155000E5E00E94A2190E94A7190E94691981F46E
:10156000A09102030E94A7190E946E1929F00E94FF
:1015700051190E9497190CC0A0910203A33041F0A9
:10158000E5E0F3E00E94AF190E94B6190E947E19AF
:10159000E8E00E94A2190E94BD190E94691991F405
:1015A000A09102030E94BD190E946E1939F00E9499
:1015B0005119ADE5B3E10E94FA1108C0A0910203F0
:1015C000A43021F0E5E0F3E00E94C519EBE00E94B1
:1015D000A2190E94D1190E94691981F4A0910203F5
:1015E0000E94D1190E946E1929F00E9451190E947F
:1015F00097190CC0A0910203A53041F0E5E0F3E09B
:101600000E94D9190E94E0190E947E19E0E00E9410
:10161000E7190E94EC190E94691981F4A091020354
:101620000E94EC190E946E1929F00E9451190E9423
:1016300097190CC0A0910203A63041F0E5E0F3E059
:101640000E94D9190E94F4190E947E19E3E00E94B9
:10165000E7190E94FB190E94691981F4A091020305
:101660000E94FB190E946E1929F00E9451190E94D4
:1016700097190CC0A0910203A73041F0E5E0F3E018
:101680000E94AF190E94031A0E947E19E6E00E9490
:101690000A1A0E940E1A859928C0A6E9B0E00E9495
:1016A000101C859922C00E94121A09F4A394A091DB
:1016B0000203A23009F4D394A0910203A33009F4E9
:1016C000C394A0910203A43009F4B394A09102033F
:1016D000A53009F46394A0910203A63009F4939411
:1016E000A0910203A73009F48394849928C0A6E945
:1016F000B0E00E94101C849922C00E94121A09F4C2
:10170000AA94A0910203A23009F4DA94A0910203F2
:10171000A33009F4CA94A0910203A43009F4BA9446
:10172000A0910203A53009F46A94A0910203A630A7
:1017300009F49A94A0910203A73009F48A94AA2D7F
:10174000E3E60E94DA1E0E2EE5E60E94D51EE02199
:1017500009F0AA24E5E6EA1510F4E3E6AE2EAD2D75
:10176000ECE00E94DA1E0E2EEEE00E94D51EE02173
:1017700011F0E1E0DE2EEEE0ED1510F4ECE0DE2EEF
:10178000AC2DEEE10E94DA1E0E2EE0E20E94D51E84
:10179000E02109F0CC24E0E2EC1510F4EFE1CE2ECC
:1017A000AB2DE6E00E94DA1E0E2EE8E00E94D51E68
:1017B000E02109F0BB24E8E0EB1510F4E6E0BE2ED2
:1017C000A62DE7E10E94DA1E0E2EE9E10E94D51E49
:1017D000E02109F06624E9E1E61510F4E7E16E2E58
:1017E000A92DEBE30E94DA1E0E2EEDE30E94D51E1A
:1017F000E02109F09924EDE3E91510F4EBE39E2EC6
:10180000A82DEBE30E94DA1E0E2EEDE30E94D51EFA
:10181000E02109F08824EDE3E81510F4EBE38E2EC7
:10182000839929C00E941B1A839BFCCFE09102037D
:10183000EF5FE0930203A0910203A830E1F4A4E675
:10184000B0E00E94101C6A929A92A82D0E948F11FB
:10185000A4E6B0E00E94101CBA92CA92DA92AA2DB5
:101860000E94B8110E94A813A0E6B2E00E94F516EB
:101870000E941F1A01C015CE08950E94251AA0E0EB
:101880000E945C11E6E0F0E0FA93EA93E9E0F0E010
:10189000FA93EA93A8E0B0E00E947611E6EFF2E056
:1018A000FA93EA93E2E8F3E1FA93EA930E94E019EB
:1018B0000E94F4190E94031A8CE00E94281160967D
:1018C000E0E00E940A1A0E94291AEBE0F0E0FA9385
:1018D000EA93ECE0F0E0FA93EA93EDE0F0E0FA93BB
:1018E000EA93AAE0B0E00E949D110E945619E6EF2B
:1018F000F2E0FA93EA93E1E9F3E10E9473190E949E
:101900009B190E94B6198CE00E94281160960E94D3
:1019100083190E94291AE6E0EB1508F4BB24E6EFD0
:10192000F2E00E94C519EBE0EA93A0E00E947D1668
:101930000E94291A0895AA930E94E41F0DE1AA2D7E
:10194000BB27E1E2F0E00E94631F1E2F113071F00F
:10195000153061F0193051F01D3041F0113131F086
:10196000163121F01A3111F01E3119F40EE111E097
:1019700002C00DE110E00E94EB1F7CC1EA93E7E595
:10198000EDBDE0E4ECBDE99118952697E0E0EABBF7
:10199000EBBBE7BBE8BBE4BBE5BBE0E4E1BBE0E0FD
:1019A000E2BBE3BFE2BFECBFEFBDE4E0EEBDE7E5C5
:1019B000EDBDE0E4ECBDE0E0E7BDE6BDEBBDEABDBA
:1019C000E9BDE8BDE2BDE5BDE4BDE3BDE4E0E9BFDE
:1019D000E0E0E5BFE4BFEAB9E0E8E8B9E0E0E0BF95
:1019E000E6B9EDB9E6BF0E941A1C0E943D19E4E574
:1019F000F0E0E883F983E0E0EA83EB83EC83ED83B6
:101A0000DE010E94AB1378940E9482130E94A813F7
:101A10000E94251AE8EFF2E00E942D1A0E94321A65
:101A20000E94A8137724EBE0E71588F00E94321A91
:101A30000E945119EFE9F3E1FA93EA93E72D0E942E
:101A4000361A0E9483190E940E1A7394ECCF0E94DA
:101A5000A813A0EDB7E00E94101CE4CF0EDFFADC63
:101A60000E945119E5EAF3E1FA93EA93E091160333
:101A7000F091170360911803709119030E94A11F40
:101A80000E947E19EAE00E940A1A0E940E1AAA2DEC
:101A900052DFBE2EA09104038A1639F0969B02C035
:101AA000969801C0969A80920403859919C0E0E047
:101AB000E09303030E941B1A0E944919A03561F4A8
:101AC0000E943C1AAEEAB3E10E94FA110E94251A64
:101AD000E0E0FBE00E942D1A859BECCF0E94A8134A
:101AE000849919C0E0E0E09303030E941B1A0E944E
:101AF0004919A03561F40E943C1AA5EBB3E10E949C
:101B0000FA110E94251AE4E0FFE00E942D1A849B3E
:101B1000ECCF0E94A81383991CC0E0E0E09303037C
:101B20000E941B1A0E944919A03541F40E94A81373
:101B30000E94251AECEFF6E00E942D1AA0910303F3
:101B4000A43619F40E94A8139EDC839BE9CF0E945F
:101B5000A813882051F0EFE0E81539F0EEE1E81520
:101B600021F0EDE2E81509F04BC00E94A813E5EB67
:101B7000F3E1AFE0B3E0EA17FB0739F0ECEBF3E198
:101B8000AFE0B3E0EA17FB0739F4E0E0EA93EA9349
:101B9000ECEFF6E00E942D1AEFE0F3E0FA93EA93FF
:101BA000A5EBB3E10E94D9110E94DD1F22F80E942B
:101BB0005119EDE6F3E1FA93EA93E0E022FCE1E06B
:101BC0000E94361A0E940E1AAFE0B3E00E94F5168A
:101BD0000E94321A0E94A81322FE05C00E94251AF4
:101BE000E0E0FBE006C022FC09C00E94251AE4E008
:101BF000FFE0FA93EA93A1E00E945C170E941F1A8B
:101C00002DCFFFCFBA93AA931A930A93AA81BB81CF
:101C100012960E94811F309729F1AA81BB811496E8
:101C20000E94811F8F01309761F00230E0E01E07B3
:101C300080F0F80131978F01AA81BB811496ED9352
:101C4000FC93AA81BB8112960E94431A3197AC8102
:101C5000A083AA81BB810E94811FFF2312F00E94F2
:101C6000431A06C0AA81BB81EFEFFFEFED93FC930F
:101C700019810881259608950E94491AE0E8EA83AF
:101C8000EFE3EB830E94E41FEE85FF85EF3FAFEFAC
:101C9000FA0749F4E885F985FA93EA93A4ECB3E1ED
:101CA0000E94FA11B7C0EF3FAFE7FA0749F4E885A1
:101CB000F985FA93EA93A5ECB3E10E94FA11AAC060
:101CC000AB85A73010F0E6E0EB871B85E12F1150C4
:101CD000E03019F00E94501AF9CFEC85FD856E8531
:101CE0007F850E94D51F21F430E00E94501A2DC03C
:101CF0003B850E945F1A09F008F40BC00E94501A3D
:101D00000E945F1A28F00E946A1A0E946F1AF8CF88
:101D10000DC00E945F1A40F40E946A1A0E947B1A4A
:101D20000E94821A3150F5CF0E94501AEC85FD8531
:101D30006E857F850E94871A0E94821A0E945F1A10
:101D400020F00E946A1A0E946F1A10E0EB85E117DA
:101D5000A8F1AC81BD818E819F810E948E1A0E9464
:101D6000871ADF01CB010E94C817EC83FD836E83C5
:101D70007F830E946A1A0E94361E0E94251D0E2F24
:101D80000E94951A0E949C1AFF27662777270E94B7
:101D90005E1DAC81BD818E819F810E94E81D0E94E5
:101DA0006A1A0E94A11A0E94821AE12F1F5FE03076
:101DB00069F60E94951AEEE2EC93C8CF0E94A61A2B
:101DC0003197AA85A08330302CF43195A885B98548
:101DD000EDE203C0A885B985EBE2EC930E94A61A58
:101DE0000E94A61A3197BF01A32FEAE00E941A1F92
:101DF000E05DDB01EC930E94A61A3197BF01A32F8F
:101E0000EAE00E94571FE05DDB01EC93A885B985ED
:101E1000E0E0EC930E94EB1F60960895BA93AA93BA
:101E2000EF9761970E94E21F10E0FE01E85AFF4F12
:101E30000190F081E02DE887F987FE01EA5AFF4F13
:101E40000190F081E02DEE83FF83AE81BF81E0E061
:101E5000F0E0ED93FC93DE01A45ABF4F0E94431AB9
:101E60003197E4912E2FE03009F4E9C1E12FE03001
:101E700039F4253211F411E002C00E94AC1ADEC11F
:101E8000E130C1F4253219F40E94AC1AD6C112E037
:101E9000E0E0ED8B00E02D3211F401E0CFC12B32F8
:101EA00019F4EBE2ED8BCAC1203219F4E0E2ED8BBC
:101EB000C5C102C0E23039F450E013E0203311F420
:101EC0000068BCC102C0E33091F4203310F02A3323
:101ED00008F007C0AAE05A9F502DE22FE0535E0F92
:101EE000ADC140E02E3211F414E0A8C10FC0E430BF
:101EF00099F4203310F02A3308F008C00062AAE0F9
:101F00004A9F402DE22FE0534E0F98C12C3619F412
:101F1000026015E093C103C0E53009F08FC1E22FE4
:101F2000E33659F40E94B31A0E94BA1A0E94B31AF7
:101F3000A481AA930E94C11A80C1E53411F0E5364C
:101F400009F403C0E63609F048C0FE017696EE8734
:101F5000FF870E94C71A0E94851F0E94CE1A0E9406
:101F6000D31AAD85AA2332F0AD89AB3259F0A03235
:101F700081F017C00E94D51A0E94F21C0E94CE1A4E
:101F8000EDE2ED8B07FF05C0ED89EA930E94C11ACF
:101F900008C0EE85FF853196EE87FF873197AD89C2
:101FA000A08305FF46E0263651F40E94D51A0E9410
:101FB000A11F4A93AB89BC890E94E01709C00E9407
:101FC000D51A0E94A11F4A932A93AC89BD8954DE79
:101FD000FE0176960E94DA1A1EC0E33739F40E9499
:101FE000D31A0E94E21A0E94DA1A0EC0E037C1F436
:101FF0000E94D31A0E94E21AEE87FF87AE85BF8542
:102000000E9413121E2F08600F77403011F0411705
:1020100008F001C0142F40E0E0E0EC8B30E06DC030
:10202000E43611F0E93611F4046002C0E537A1F49A
:10203000EAE0EC8B01FF08C0E0E0FAEC6AE97BE340
:102040000E94E71A1AE022C0E0E1F7E260E070E0E7
:102050000E94E71A15E01AC0E83511F4086003C0C1
:10206000E83709F0EAC0E0E1EC8B01FF08C0E0E0EE
:10207000F0E060E070E10E94E71A18E007C0E0E0DD
:10208000F0E160E070E00E94E71A14E0403011F0E7
:102090000F7701C041E001FF08C00E94D31A0E94DF
:1020A000C71A14960E94851F0FC002FF07C00E9426
:1020B000D31A0E94E21A0E94C61E06C00E94D31ABA
:1020C0000E94E21A66277727EA87FB876C877D875D
:1020D00002FF12C0AD85AA2342F40E94D51A0E94C5
:1020E000A31E0E94CE1AEDE2ED8BED89E03019F0CF
:1020F0001F5F4F5F01C00B7F342F00FD14C0151709
:1021000010F4351708F00FC007FF08C002FF04C025
:102110000B7F2D89115001C020E301C020E20E94F5
:10212000AC1A5150ECCF141790F4006102FF06C0B6
:102130000E94EC1A09F0515011504150E0E3EA932B
:102140000E94C11A503009F051504150ECCF312F4C
:10215000EC89E030B9F43030A1F003FF06C0EE8521
:10216000FF852591EE87FF8705C0AE85BF852D9140
:10217000AE87BF870E94AC1A503009F051503150E1
:10218000EACF51C00E94FE1A0E94321F2E2F2A3021
:1021900030F003FF02C0295C01C0295A01C0205D54
:1021A00004FD21C0213360F4A889B9898A899B89FB
:1021B000A130E0E0BE07E0E08E07E0E09E0709F412
:1021C0000BC0431740F4531710F000FF01C010C0BC
:1021D00020E207FF08C020E3006102FF04C00E9464
:1021E000EC1A09F051500E94AC1A503009F05150CD
:1021F00031500E94FE1A0E94711F0E94CE1AEC8973
:10220000A889B9898A899B89FF27662777270E9431
:10221000321F0E94E71AE889F9896A897B890E943E
:10222000D51F09F0AFCF00FF08C0503031F051503A
:10223000E0E2EA930E94C11AF8CF10E00CCEAE8122
:10224000BF810E94811F0E94E91FEF966F9608953B
:10225000FF92F82E26970E94E41F0E94071B3097DA
:1022600019F4EFEFFFEF23C0DE0116960E949B1ECC
:102270008D010E94071BEE83FF83E0E0E887E9877A
:10228000DE011A960E949B1E0E94811FFA93EA9318
:102290001A930A93E2E0FEE0FA93EA93DE011A96BB
:1022A000BDDD9F01AE81BF81E0E0EC93F9010E94AA
:1022B000EB1F2A96FF900895AA93EA81E370EA83C0
:1022C000E981E03019F0EA81E061EA83E881E030F9
:1022D00019F0EA81E068EA830E940E1BA7E00E94E1
:1022E000F81BAA810E94131B0C94BB12BA93AA93E9
:1022F0000E940E1BA0E00E94131B0E94171B0E944D
:102300001F1B0E94261B0E942C1BAE2F0E94A2188E
:10231000AC81BD81EC930E94D31B0C94BE14AA9394
:102320000E940E1BA0E00E94321B0E94391B0E94DB
:10233000401B0E94131B0C94BB12BA93AA930E94D9
:102340000E1BA3E00E94131B0E94171BAE81BF81CE
:10235000EC930E94261BAC81BD81EC930E94261B4E
:102360000E942C1B0E941F1B0E94D31B28960895BD
:10237000AA930E940E1BA3E00E94F81BAB810E944F
:10238000401B0E94391B0E94321B0E94131B249683
:102390000895BA93AA93B981A881109631F0FC816F
:1023A000EB816A8161931197E9F7EB81FC810C94D1
:1023B000C716BA93AA93E991F991A991B9911D9081
:1023C0000590011421F40020D1F7EE27089510188C
:1023D000E1F3E1E008F4E2500895BA93AA93E99199
:1023E000F991A991B991CD0161916D936623E1F7BE
:1023F000FC010895BA93AA93E991F991A991B99131
:10240000CD0105900D920020E1F7FC010895BA93EB
:10241000AA93A991B991EE27FF276D91662311F038
:102420003196FBCF0895BA93AA93AA27BB27E991C7
:10243000F9910590002011F01196FBCFFD01089550
:10244000BA93AA931A930E941A1CE03011F4E0E0A8
:1024500091C0E981FA81309781F0A5E50E94631C63
:1024600010E0A981BA81ED91A983BA83AE2F0E94B1
:10247000631C1F5F1830A8F303C0ACEC0E94631C00
:10248000E1E078C0BA93AA930E94E41FAC81BD81B9
:10249000D7DFE03029F4E0E00E94EB1F0C94BE147B
:1024A000AEEB0E94631C10E02AE632E03F932F93CC
:1024B0002F5F3F4F0E945E1CAF91BF91EC931F5F57
:1024C0001930A0F3EAE6F2E0FA93EA93A9E00E9459
:1024D000DC1C0E94DF1E0E94EB1F0C94BE14BA93FA
:1024E000AA931A93A981BA81CDDFE03019F40E9432
:1024F000471B40C0E0916E02E295EF70E695E370F5
:102500001E2FA981BA819CDFE03019F40E94471B7D
:1025100031C0A4E40E94631CE12FA8E0B3E1F0E025
:10252000EE0FFF1FEA0FFB1F0E948F1F0E94101C5F
:10253000A981BA81A7DFE03019F40E94471B1AC0B5
:102540000E941A1CE12FA0E1B3E1F0E0EE0FFF1FA3
:10255000EA0FFB1F0E948B1FA0916A02B0916B02D1
:10256000EA23FB230E944C1BA0E0B0E080E89DE33F
:102570000E94E81D188123960895000000000000C5
:102580000895AA93DE98DD9AD49AD39AD29AD19AD2
:10259000E881E07111F0DC9A01C0DC98E881E0721A
:1025A00011F0DB9A01C0DB98E881E07411F0DA9A4F
:1025B00001C0DA98E881E07811F0D99A01C0D99881
:1025C000DCDFDD9800000000E881E17011F0DC9AAA
:1025D00001C0DC98E881E27011F0DB9A01C0DB9861
:1025E000E881E47011F0DA9A01C0DA98E881E870C5
:1025F00011F0D99A01C0D9980E94511BDD98F3C3FC
:102600001A93DE9AD498D398D298D198DD9AB5DFF0
:1026100010E0CC9910E1CB991062CA991064C99965
:102620001068DD980E94511BCC991160CB99126003
:10263000CA991460C9991860DD98E12F19C01A93DE
:10264000DF98DE9AD498D398D298D198DD9A95DF06
:10265000E9B3E270A0E00E94D01E1E2FDD980E9418
:10266000511BDD988ADF103089F784E08A95F1F7F5
:1026700019910895AA93E3DFDF9AA88182DFB3C39B
:10268000DEDFDF9ABDDF0895AA93D9DFA88179DF65
:10269000AAC3AA93E881EF71E068AE2FF5DFA881A5
:1026A000A03218F0E981E068E983E981E295EF70F2
:1026B000E068AE2FE9DF0C94C218AA930E94561B63
:1026C000E881E03011F0ECE001C0E8E0AE2FDCDFA3
:1026D000E881E03011F0E2E001C0E0E0E0931A03AD
:1026E0000E94561B0E945C1B7EC30E94561BA1E0E9
:1026F000CBDFE0E0E0931D03E0931C03EA93A0E04E
:1027000009D408950E94E41F30E0E091BC02E0305B
:1027100009F03FEF0E945C1B00E0003488F4E0E029
:10272000EA93A02F0F5FB5DF10E1E12F1150E030E9
:1027300031F0A32F9FDF84E08A95F1F7F6CFEDCF3C
:10274000E0E0EA93A0E0E6D30E94EB1F0C94281986
:10275000CCDFD8DF0895BA93AA931A930A93D59A37
:10276000DD98D69ADE9AD79ADF98D09A0E944519BA
:10277000D898A1E0B0E00E94101CD89AA1E0B0E087
:102780000E94101CDE98D49AD39AD29AD19A10E063
:10279000163020F5DD9AE12FF0E0EE5DFC4E04915D
:1027A00004FF02C0DC9A01C0DC9805FF02C0DB9A7E
:1027B00001C0DB9806FF02C0DA9A01C0DA9807FF71
:1027C00002C0D99A01C0D99882E18A95F1F7DD98C3
:1027D00089E292E00197F1F71F5FDACFA8E0D1DE3E
:1027E00089E292E00197F1F7A1E04EDFAFE0B0E0BF
:1027F0000E94101CE0E0E0931D03E0931C03A6E0A0
:1028000043DFA4E241DFA0E43FDFA2E03DDFE0E000
:10281000E0931A0377DFA1E050DFE1E0E093BB0231
:10282000E0E0E093BC02E1E0E093C102E093C20289
:10283000EA81FB813097A9F0AA81BB810E94811FA8
:10284000E093BF02F093C00212960E94811FE093B2
:10285000D402F093D502AA81BB8114960E94811FF5
:102860000AC0E0E0F0E0E093BF02F093C002E09322
:10287000D402F093D502E093D602F093D702E1E0C0
:10288000E093C302EFEFE093C402E1E0E093CB02F8
:10289000ECECF2E0FA93EA93EFEFEA93A8E0B0E011
:1028A0000E94C911E1E0198108810C942819AA93AA
:1028B000E981EA93A981EDDEE3DEE981EF70E8309A
:1028C00018F0DEDEE0931B03DBDE0C94C218AA9343
:1028D000EA81EA93AA81DDDEEA81EF70E83018F040
:1028E000A0911B03C7DEA881C5DE0C940919AA9329
:1028F0001A930E945C1BED81EA93AD810E94621BDA
:102900001E2FE981E73011F0E83039F4EB81EA93CA
:10291000AA810E94C418EB830EC0E33021F4EB813E
:10292000E095EB8302C0E03009F402C0E93009F41D
:1029300002C0EA3021F4EA81E0951E2302C0E230B1
:1029400029F4EA81AB81EA231E2B0EC0E13029F481
:10295000EA81AB81EA231E2707C0E43029F4EA812B
:10296000E095AB81EA2B1E23ED81EA93ED81EA939A
:10297000A12F0E942A19AE2FAADF1881269608954A
:10298000AA9327970E94E21FAC89A03848F4AB892C
:10299000A03430F4AA89A03019F0A989A03009F434
:1029A000A8C1EA89E695E695E6952E2F2887EA895B
:1029B000E770EB87E03019F0E885EF5FE8870A8978
:1029C000AC89BB27EA89F0E0AE0FBF1FA138E0E079
:1029D000BE0720F0AC89E0E8EA1BEA8BE989EA87C8
:1029E000AB89BB27E989F0E0AE0FBF1FA134E0E05F
:1029F000BE0720F0AB89E0E4EA1BE98BED85E63009
:102A000009F04EC0E889E13009F473C1E33039F4CC
:102A1000E091D602F091D702309709F46AC1EB85B4
:102A2000E03019F4AA890A17D9F0E22FAE85BF85E4
:102A3000F0E00E94671B1989103091F0322F3F930C
:102A40003F5FE885AF91AE1718F40E946C1BF7CF7B
:102A5000E22FAE81BF81F0E00E94671B1150ECCFE6
:102A60002989EA85E217D9F0A22FBB27E885F0E093
:102A70000E94E41EAE85BF850E94671B2F932F5FC7
:102A8000EA85AF91AE1758F430E03F933F5FE88599
:102A9000AF91AE1718F40E946C1BF7CFEFCF0DC0AB
:102AA000E93011F4E0E003C0EA3039F4EFEFEA87EF
:102AB000EA93AE850E94C418EA87EC89E7703E2F3E
:102AC000E8E0E31B2E2F522FAA892A1710F05A890B
:102AD0000EC0303061F0432FAA89A93018F4EA897A
:102AE000E21B4E2FE42FF0E0E85EFC4E44913A9357
:102AF000A52F0E94B9185E2FAB852A1718F4EB8515
:102B0000E21BEB87EB85F0E0E85EFC4E04900C8660
:102B10000E945C1BE989E150E98BEF5F09F4E9C091
:102B200010E00C89EE85FF85EE83FF83303009F4D9
:102B300096C04B87AD85A63009F055C0EA891E17AF
:102B400008F050C00A93AC890E94621BE523AE2FA7
:102B5000E32F0E94B31EE9870E94791B1E2EE32FEC
:102B6000A52F0E94B31EE095E121A985EA2BE987F4
:102B7000AA892A1730F4E02FE695E695E695EF301E
:102B800040F00E94811BFA93EA93AC850E940B19D6
:102B900029C0AA89A11BA83010F4EC85EB87085F37
:102BA0000A93AC890E94621BAB85EA23AE2FE22F09
:102BB0000E94AB1EEA87E22FAB850E94AB1EE09518
:102BC000A985EA23AA85EA2BEA870E94811B319610
:102BD000EF83F8873197FA93EA93AD850E940B193A
:102BE000185FACCF3BC0EA891E17C0F5ED85E93010
:102BF00011F0EA3009F40DC00E94811B3196EF8379
:102C0000F887319766277727DF01CB010E94EC1800
:102C1000EA870A93EC89EA93E32FAC850E94AB1E06
:102C2000EA935A93A98963DEAA892A17B8F4E02F98
:102C3000E695E695E695EF3088F4A11BA83010F4F0
:102C4000EC85EB87085F0A93EC89EA93E22FAC8569
:102C50000E94B31E0E94861B185FC5CF3EC05B87D3
:102C6000EA891E17D0F5AA89A11BA83010F4EC85BB
:102C7000EB87ED85E93011F0EA3009F409C0AD8544
:102C8000A63019F4AB85AF3F19F00E94791BEA8793
:102C9000AD85A630A1F40E94811BFA93EA930A93B2
:102CA000AF890E94621BAE85EA230E2EEE85E09569
:102CB000AD85EA23E029AE2F0E940B1906C00A93C6
:102CC000EC89EA93EC850E94861BEE81FF813196A8
:102CD000EE83FF83085F185FC3CFEB89EF5FEB8B59
:102CE000E885AE85BF85F0E0EA0FFB1FEE87FF8722
:102CF00011CF0E94E91F65960895AA93A981A0317A
:102D000010F0EFE0E983A881A43010F0E3E0E8835D
:102D10000E94561BE881F0E0E85DFC4EA491E98139
:102D2000E695EA2BAE2FB0DCE981E0931C03E88145
:102D3000E0931D030C94C218AA931A930A93AC81D2
:102D4000A03110F0EFE0EC83AB81A43010F0E3E0B1
:102D5000EB83EB81F0E0E85DFC4EA491EC81E6951D
:102D6000EA2B1E2F0E94561BA12F8EDC89DCEC81E2
:102D7000E17011F085DC0E2FA12F86DCEC81E17073
:102D800011F0A02F77DCAA8175DC198108812596C6
:102D90000895AA93A881AA3021F0A0911C03A03124
:102DA00060F0E0E0E0931C03A0911D03AF5FA093EF
:102DB0001D03A43010F0E0931D03A881AA3039F45C
:102DC000E0911C03EA93A0911D0397DF0CC0E091F2
:102DD0001C03EF5FE0931C03E150EA93E0911D03B5
:102DE000EA93AA81A9DF21960895BA93AA931A9328
:102DF000A981BA81ED91A983BA831E2FE03019F021
:102E0000A12FC7DFF5CF18810C9409190E948C1BE4
:102E100024F0E0E0F0E00C94C218A881B981A03859
:102E2000E0E0BE0724F0EFE7F0E00C94C218E88180
:102E3000F9810C94C2180E948C1B24F0E0E0F0E0B1
:102E40000C94C218A881B981A034E0E0BE0724F038
:102E5000EFE3F0E00C94C218E881F9810C94C218F9
:102E6000AA931A93AA81A03818F4A981A03438F043
:102E7000E0E0F0E060E070E018810C940919EA816C
:102E8000E7701E2FEA81E695E695E695EA83103015
:102E900011F0EF5FEA83AA81BB2788279927E98190
:102EA000FF27662777270E94EC1EEC5FFF4F6F4FCE
:102EB0007F4F18810C940919AA930E94E41FAC81DA
:102EC000A53000F5ED81FE8105910E94931B1591BF
:102ED0000E94931B25910E94931B3591ED83FE83E5
:102EE000E885EA93E885EA930A932A93E1E0EA9376
:102EF000EA85FB85FA93EA93AB8542DD0A93A22F1C
:102F0000AFDF04C0E0E0F0E060E070E00E94EB1FA3
:102F100029960895AA93A981BB2778DFE093BD0283
:102F2000A881BB2788DFE093BE020C94C2180E94E0
:102F3000A61F7B816A81F981E88177FB770F67FDA6
:102F40007160972F9E5781F078F0983190F4AA27FE
:102F5000BB27882708948795B795A7959A95D1F7A9
:102F6000EA23FB23682305C0E8947727EE27FF2791
:102F700066276F77769508F4606877F9A991B9911B
:102F800089919991EA17FB076807790797FB0895DC
:102F90000E94A61F0E94971F0E9497170E949C1FC5
:102FA00021F40E94921F0C942819DEF70E94921FB0
:102FB000A0E0B0E080E89FE30E94911D0C942819E6
:102FC0000E94491AE0E0EA83EFE3EB831A930A9345
:102FD000EB85FC85EF3FAFEFFA0739F40E94961BB3
:102FE000ACECB3E10E94FA11A9C0EF3FAFE7FA07DA
:102FF00039F40E94961BADECB3E10E94FA119EC019
:10300000AC85AA2362F4E985FA856B857C850E94EC
:10301000F21C0E949B1B0E94A01BEDE2EC93A88572
:10302000A73010F0E6E0E8871885E12F1150E03076
:1030300039F00E94A71B0E948E1A0E94AC1BF5CF8C
:103040000E94B11B0E94981D0E949B1B10E0E0E0B3
:10305000F0E060E87FE30E94AC1B0E94B11B0E947D
:103060007B1E88F00E94A71B0E947B1A0E94AC1B4B
:103070001F5F173238F00E94961BA1EDB3E10E944A
:10308000FA115CC0EACF103029F40E94A01BE0E3E3
:10309000EC9329C0E12F1150E03029F10E94A71BC9
:1030A0000E948E1A0E94871ADF01CB010E94C81766
:1030B0000E94AC1B0E94B11B0E94361E0E94251D5F
:1030C0000E2F0E94A01B0E949C1AF0E00E94A71BDA
:1030D0000E944C1B0E94E81D0E94BA1B0E94A11A6C
:1030E0000E949B1BD7CFE885E03021F10E94A01BF6
:1030F000EEE2EC93E885E150E887EF5FD9F00E94BB
:10310000BA1B0E947B1A0E949B1BE985FA856B857E
:103110007C850E94251D0E2F0E94A01B0E949C1AD8
:10312000F0E00E94BA1B0E944C1B0E94A11A0E9450
:103130009B1BE0CFAE81BF81E0E0EC931981088159
:103140002D960895AA93E881E295EF70AE2FAA0F0D
:10315000AA0FEA0FEE0FA991AF70EA0F0895AA9394
:10316000A991EE27AA5012F0E05FFCCFA65FEA0F0C
:103170000895AA93E881F0E0E85EFC4EA491E9810D
:103180000E94AB1E22960895AA931A93E981E73014
:1031900011F0EA3019F41091BB0209C0E93019F4BA
:1031A0001091BC0204C0E830A1F41091CB02E09170
:1031B000BC02E03049F0103019F0EFEF188129C05F
:1031C000EA81E095188125C0103019F4E0E01881FB
:1031D00020C0EA8118811DC0BA93AA93EA81E13028
:1031E00021F4E881F981E49114C0E23029F4A88146
:1031F000B9810E94B81F0DC0E33041F4A881B981A4
:10320000E091D402F091D502099503C0A881B9815B
:10321000EC9123960895AA93EB81E03029F4E8819C
:10322000A981BA81EC9314C0E23031F4E881A9811C
:10323000BA810E94C41F0CC0E33051F4E981FA81C5
:10324000FA93EA93AA81E091D602F091D702099508
:1032500024960895AA93A991A0FBE7F9A1FBE6F9AA
:10326000A2FBE5F9A3FBE4F9A4FBE3F9A5FBE2F972
:10327000A6FBE1F9A7FBE0F90895E0EFEA93A3E7E5
:10328000B2E00E946D1C5E2E0895A2E3B0E00C94A3
:10329000101CE0910303EF5FE0930303A09103038D
:1032A0000895E5E0F3E0FA93EA930895EA2DF0E05B
:1032B000E858FA4FE093D802F093D9020895A0910C
:1032C0000203E1E00E94CB1E0E2EA0E021FCA1E053
:1032D0000895E0E00E94CB1EE0210895E1E00E9405
:1032E000CB1EE0210895FA93EA93E091D802F09181
:1032F000D9020E94C61E0E94A11F089584E00E9468
:10330000281128960895E0E0EA93A0E00C947D1639
:10331000A5E0B3E00E94F516A09102030895E2E053
:103320000E94CB1E0E2EA0E021FCA1E00895AEE588
:10333000B3E10C94FA11ED2DFF27662777270E9441
:10334000A11F0895EA93A0E00E947D16E1CFE3E07B
:103350000E94CB1E0E2EA0E021FCA1E00895FA935E
:10336000EA93EDE6F3E1FA93EA930895EC2DFF2753
:10337000662777270E94A11F0895E4E00E94CB1ED4
:103380000E2EA0E021FCA1E00895FA93EA93EB2D24
:10339000AAEDB2E0F0E00E94BB1EAE0FBF1F0C947E
:1033A000ED11E5E00E94CB1E0E2EA0E021FCA1E075
:1033B0000895FA93EA93E2E7F3E1FA93EA93089522
:1033C000E62DFF27662777270E94A11F0895EA931D
:1033D000A1E00E947D169CCFE6E00E94CB1E0E2E3F
:1033E000A0E021FCA1E00895E92DFF2766277727BB
:1033F0000E94A11F0895E7E00E94CB1E0E2EA0E0C0
:1034000021FCA1E00895E82DFF27662777270E9479
:10341000A11F0895EA93A1E00C947D16A5E0B3E006
:103420000C94F516E89421F8E0E0E0930303A091F2
:103430000203A1300895A9E1B0E00C94101CA8EBA0
:10344000BBE00E94101C0C94A813E0E0EA93EA93FE
:103450000895A6EFB2E00C94F516FA93EA93A1E072
:103460000C945C17A8EEB3E00C94101CFF276627A1
:1034700077270E94A11F42CF0E94A813EFE0F3E03C
:10348000FA93EA930895ED91FD913196FE93EE93B0
:103490000895BA93AA932497E0E0E883E983089516
:1034A000AC81BD818E819F81E0E0F0E060E271E45B
:1034B0000E94E81DEC83FD836E837F830895EC8179
:1034C000FD816E817F81AC85BD858E859F850E9443
:1034D0007B1E0895AC85BD858E859F850895EDEC96
:1034E000FCEC6CEC7DE30E94E81DEC87FD876E87A9
:1034F0007F873F5F0895E0E0F0E060E271E40E94C2
:10350000E81D0895EC87FD876E877F870895A0E00A
:10351000B0E080E09FE30E94981D0895EDECFCEC84
:103520006CEC7DE30E94E81D0895A885B98511968D
:10353000A887B98711970895E02FE05DEC93E02FFD
:1035400008950E94AB1F0E94911D0895E885F9859A
:103550003196E887F98708952A93AF81B885E98580
:10356000FA8509950895FE01E65AFF4F0190F08112
:10357000E02D08953497DE01A65ABF4FED93FC93DA
:103580000895AF81B885E985FA8509950895DE012A
:10359000A65ABF4F0D90BC91A02D0895EA87FB87D6
:1035A0006C877D870895DFDFE5CFEA85FB856C8535
:1035B0007D850895EE87FF87AE85BF850E9407123F
:1035C0001E2F0895E4DF14960E94811F0895E88B52
:1035D000F98B6A8B7B8B08950B7FED89EA93DE0173
:1035E000A95ABF4F0D90BC91A02DFE01E75AFF4F85
:1035F0000190F081E02D099550300895E889F9890E
:103600006A897B89AA85BB858C859D850895DE01A5
:103610001C960E949B1E0E94811F08950E94C41B3D
:10362000A0ED0C94F81B0E94F81B0C94D31B0E9475
:10363000C41BA1ED0E94F81BA1E00C94DD1BAE2F72
:103640000E94A218A881B981EC930895A1E00E947C
:10365000DD1BAE2F0C94A218AA81BB81EC93A0E0D5
:103660000C94DD1B0E94F81BA8810E94AF18AE2F9E
:1036700008950E94F81BA9810E94AF18AE2F0895EB
:103680000E94F81BAA810E94AF18AE2F0895E0E0B7
:10369000FCE36CE176EC08950E94C61E0E945E1D5C
:1036A00008950E94BD12DD9A0C94BD12E0911A0398
:1036B000E062AE2F0C944413E0911A03E462AE2F43
:1036C0000C9444130E945714AE2F0C942A19EA0F3D
:1036D000FB1FEE83FF830895E889EA93EF81F88565
:1036E0003196EF83F8873197FA93EA93A0E00C9430
:1036F0000B19E889EA93AF81B885882799270C943C
:10370000EC18E889EA93EF81F8850895EA93EE854D
:10371000EA93A9890C947714BA93AA93A881B981E2
:103720000E94D91F0895ED83FE830895EE81FF81E5
:10373000FA93EA930895E987FA876B877C8708955F
:10374000AE81BF811196AE83BF8311970895AA8180
:10375000BB818C819D810895EA83FB836C837D838B
:103760000895EA81FB816C817D81A985BA858B856D
:103770009C850895A985BA858B859C850895A89810
:10378000A998A09AA19815C0A198A098EE2700002A
:10379000999B0895989B089504D0A19A02D0A09A6D
:1037A000E1E062E107C0A19AA09A03D0A098F9DFF6
:1037B000A19865E26A95F1F7089578E0A098F1DFA5
:1037C000989BFECFEEDF889499990894A09AF1DF38
:1037D000EE1F7A9599F77A2F772311F4A19801C0FB
:1037E000A19ADFDFA098E5DFA09ADBDFA198D9CF0F
:1037F00078E0AA0F10F4A19801C0A19ADADFA0988E
:10380000D0DF989BFECFCDDFA09A7A9591F7A19853
:10381000C8DFA098CEDFE1E09999EE27A09AC1CF4A
:10382000109639F08DEC9AE00197F1F7A895119771
:10383000C9F70895EE2797988F9A8FE295E0019740
:10384000F1F78F9884E38A95F1F7879B089582EDCD
:1038500090E00197F1F7879BE1E086E394E0019720
:10386000F1F708958F9A87E08A95F1F78F9889E2AA
:103870008A95F1F7889487990894E7958DED90E003
:103880000197F1F70895E8948F9A87E08A95F1F708
:1038900070FD8F9880E38A95F1F7879903C070FFD8
:1038A00003C0089570FF08958FEC90E00197F1F741
:1038B0008F9882E18A95F1F76894089568E0D2DFE5
:1038C0006A95E9F708957A2F68E0EE27DCDF26F4A1
:1038D00077956A95D9F7E39508954F935F931124EF
:1038E0004427012C1124A6DFEE2301F1AF93A88118
:1038F000EADFAF9151E0501598F4B4DFE7FD08C05E
:10390000B1DFE7FD06C03FD0892319F4152E01C0B1
:10391000A9DF39D0892370E009F071E0B4DF1EC05F
:10392000A1DFE7FF0BC09EDFE7FF05C0E42F5F913B
:103930004F9121960895689437D0EFCF93DFE7FF3A
:1039400001C003C0501531F0152EE8942DD0772713
:103950009ADF04C0689428D071E095DF5395513404
:1039600054F280DFEE1FEE1FE1701896EC9318976B
:1039700043951120D9F259E0EC911996EC931897E0
:103980005A95D1F7AECFE52FEA956E2FE695E695DD
:10399000E695FF27EA0FFB1F808191E0677019F021
:1039A000990F6A95FCCF0895EEDF1EF0909589235C
:1039B00001C0892B80830895EE27AA2389F08A2FDE
:1039C00068E1A881B98198E0FD917F2F7E277795E6
:1039D00008F4E627E795F6959A95B9F78A9599F749
:1039E0002296089530976040704009F0705808950D
:1039F000552342F4503811F4E0FF04C03196691F9A
:103A0000791F6BF050E8572711F45F93CFC05F3FE9
:103A100031F0660F000C57956795752F08955F93E9
:103A200000200AF0CFC0C8C050E8192E1522880F18
:103A3000991F9527550F879550E8072E0522660F89
:103A4000771F7527550F67950895689401C0E8940E
:103A50005F93F2DF703818F07F3F08F4A7C056E19B
:103A6000571BAAF4519558300EF4593030F0EFEF4F
:103A7000FFEF6FEF7FE777F91AC077275523B9F08B
:103A8000EE0FFF1F661F771F5A95D1F710C07727DB
:103A9000583028F0EF2FF62F672F5850F9CF5523C5
:103AA00031F076956795F795E7955A95D1F700200F
:103AB0000AF449D15F910895689401C0E894309761
:103AC00060407040B1F0002426F0772312F4009497
:103AD0003AD1172E7EE1112032F07A95EE0FFF1FBA
:103AE000661F111CF9CFEF2FF62F612D5F938ADF30
:103AF0005F9108954F93AF01FD01DA01AB01BC0165
:103B0000CA01402D012C142E4F910895EA0FFB1F7E
:103B1000681F0895E095F0956095EF5FFF4F6F4F38
:103B200008955F9381DF903871F150E8152604C045
:103B30005F937ADF903839F1703821F1572F591B94
:103B40002BF112F4D7DFFACF583118F0AA27BB2790
:103B50008827583028F0AB2FB82F88275850F9CF36
:103B6000552329F08695B795A7955A95D9F7502DE5
:103B7000512572F0CBDF38F46795F795E79573958B
:103B800013F420C0B7DF3EDF5F910895D8F7FBCF75
:103B9000EA1BFB0B680B51F010F40094BBDF6623AB
:103BA00092F3EE0FFF1F661F7A95CBF7EE27FF27E4
:103BB000662777275F910895EFEFFFEF6FE77FEFBD
:103BC0005F910895EFEFFFEF6FE77FE75F91089553
:103BD0005F932ADF703851F3903841F30124089441
:103BE000791F23F41CF300203AF3ECCF0F921F93BC
:103BF0002F933F934F93112722279927689FA00166
:103C00008F9F302D410D591F6B9F300D411D591F46
:103C10008E9F27D0BF9F25D06A9F23D0BE9F1DD0E7
:103C2000AF9F1BD0AE9F110D291F391F491F591F70
:103C3000E32FF42F652F522F4F913F912F911F911A
:103C40000F9066232AF0550FEE1FFF1F661F02C05C
:103C500073954BF2CDDE5F910895100D211D391F34
:103C600002C0200D311D491F591F08955F93DCDEEE
:103C7000703821F411200AF49FCFA4CF903809F4B2
:103C800095CF01240894970B1BF4D4F30020F3CFB5
:103C9000792F1F932F933F934F931124112722279E
:103CA00033274427552790E2AE17BF078607410701
:103CB00030F0AE1BBF0B860B410B089401C08894FB
:103CC000551F221F331F111CAA1FBB1F881F441F13
:103CD0009A9551F7F901612D4F913F912F911F91C5
:103CE000662332F0550FEE1FFF1F661F7A9543F2D1
:103CF0007FDE5F91089599239AF0772342F097171A
:103D000048F029F4AE17BF07860720F031F09894E9
:103D10008894089598940894089518948894089520
:103D20007723C2F7971798F3A9F7EA17FB076807F5
:103D300088F399F3ECCF0024AF0DB01D0895F195F1
:103D4000E195F0400895F09560957095E195FF4FED
:103D50006F4F7F4F0895EE230E2EEA2F19F0EE0FCE
:103D60000A94E9F70895EE230E2EEA2F19F0E6954E
:103D70000A94E9F70895EE0FFF1FEE0FFF1F089555
:103D8000FE2FFF0FFF0B6F2F7F2F08956F2F660FF2
:103D9000660B762F0895EA17E1E009F0EE27089503
:103DA000EA17E1E009F4EE270895AE17E1E008F024
:103DB000EE270895EA17E1E008F0EE270895EE23D4
:103DC000E1E009F0EE270895FA9FF02DEB9FF00D4A
:103DD000EA9FE02DF10D08957A9F702D6B9F700D75
:103DE000F89F700DE99F700D6A9F602D710DFB9F0C
:103DF000600D711DE89F600D711D8827FA9FF02DE1
:103E0000610D781FEB9FF00D611D781FEA9FE02D7B
:103E1000F10D681F781F0895002498E0AA0F001C78
:103E20000E1A10F40E0E01C0A1609A95B9F7EA2F90
:103E3000A02D08955AD0F0DF0EF4E19508950024E6
:103E4000112490E1AA0FBB1F001C111C0E1A1F0A9F
:103E500018F40E0E1F1E01C0A1609A9599F7FD017E
:103E6000D00108953F934F935F930024112444277A
:103E7000552730E2AA0FBB1F881F991F001C111C79
:103E8000441F551F0E1A1F0A460B570B28F40E0E1F
:103E90001F1E461F571F01C0A1603A9559F7FD012B
:103EA000BC01D001CA015F914F913F910895E89400
:103EB000A7FF02C0A1956894E7FDE195ADDFEA2F69
:103EC0000EF4E1950895E894B7FF04C0A095B0956D
:103ED00011966894F7FD33DFB2DFFD010EF42FDF9A
:103EE0000895C0DFFD01BC010895E894E7FF02C01A
:103EF000E1956894A7FF04C0A19500F8039400FA27
:103F00000895ED91FC9111970895ED91FD916D91BA
:103F10007C91139708950590F491E02D0895A59153
:103F2000B4910895E881F9816A817B810895A8811F
:103F3000B9818A819B810895E883F9836A837B83B1
:103F400008957A936A93FA93EA9308959A938A93D9
:103F5000BA93AA930895182E862F612D192E972FA4
:103F6000712D1B2EBF2FF12D1A2EAE2FE12D08958E
:103F7000E199FECFFF93FFB7F894AEBBBFBBE09AC9
:103F8000EDB3FFBFFF910895E19B02C0A895FCCF60
:103F90009FB7F894AEBBBFBBE09A8DB3E81719F09A
:103FA000EDBBE29AE19A9FBF089530976040704060
:103FB000089500240A160B060895E894EE2309F0EC
:103FC000689408955A934A933A932A931A930A93BA
:103FD00008955D814C813B812A8119810881089572
:00000001FF
