:100000000C942A001895000018950000189500001F
:10001000189500001895000018950000189500002C
:100020001895000018950000189500000C941A020D
:10003000189500000C945F021895000018950000B8
:1000400018950000189500001895000018950000FC
:10005000189500008FE58DBFC8E3E0E24E2E88E0E2
:100060008EBFD8E0F8E05F2EA89584B7082E877F72
:1000700084BF88E1992781BD91BDEEEFF7E0A0E64E
:10008000B0E088278D933197E9F787E489B980E05C
:1000900080BD88E18AB966248E9AB89AD29AD19A9C
:1000A000D0988D9A959A7894579A85E083BF79B7BE
:1000B000716079BF85E083BF969884E690E00E94E6
:1000C0007F03969A81E08093EA000091EA0008326B
:1000D00018F011F00C947C0088B391E0892788BB5C
:1000E0008AEF90E00E947F03AAEEB0E08C918F5FD0
:1000F0008C9310F40C946500DA9AE1E0F0E00E9431
:100100004403DA98ECE7F7E00E9436030E943D03CF
:10011000E2E8F7E00E9436030E943D03ADEAB0E05A
:1001200088278C93ECE7F7E00E9436030E943D039A
:100130000E945F02ECE7F7E00E946C030E947303E9
:100140008EE30E948E03EDEAF0E0A881B9810E945F
:100150009E03A881B981E8E8F7E00E94AA030FB6E0
:100160008EE3481A80E0580A22960FBE11F00C94D4
:100170008E00ADEAB0E088278C93ECE8F7E00E94AF
:1001800036030E943D030E945F02ECE8F7E00E9404
:100190006C030E9473038EE30E948E03EDEAF0E08D
:1001A000A881B9810E949E03A881B981E8E8F7E09F
:1001B0000E94AA030FB68EE3481A80E0580A2296DE
:1001C0000FBE11F00C94B900E1E0F0E00E9444038E
:1001D000ADEAB0E088278C93E0E9F7E00E943603AF
:1001E0000E943D030E945F02EAE9F7E00E946C036F
:1001F0000E9473038EE30E948E03EDEAF0E0A88173
:10020000B9810E949E03A881B9818EE3481A80E0DB
:10021000580A22968C91803011F40C94E800ADEAD3
:10022000B0E088278C93E2EAF7E00E9436030E9450
:100230003D030E945F02ECEAF7E00E946C030E941B
:1002400073038EE30E948E03EDEAF0E0A881B9818A
:100250000E949E03A881B981E8E8F7E00E94AA0302
:100260000FB68EE3481A80E0580A22960FBE11F0AE
:100270000C940F01E4EBF7E00E9436030E943D036B
:10028000ADEAB0E088278C93EEEBF7E00E943603EE
:100290000E943D030E945F02E8ECF7E00E946C03BD
:1002A0000E9473038EE30E948E03EDEAF0E0A881C2
:1002B000B9810E949E03A881B981E8E8F7E00E9415
:1002C000AA030FB68EE3481A80E0580A22960FBEA2
:1002D00011F00C944001E0EDF7E00E9436030E941B
:1002E0003D03ADEAB0E088278C93EAEDF7E00E9489
:1002F00036030E943D030E945F02EEEEF7E00E948B
:100300006C030E9473038EE30E948E03EDEAF0E01B
:10031000A881B9810E949E03A881B981E8E8F7E02D
:100320000E94AA030FB68EE3481A80E0580A22966C
:100330000FBE11F00C947101ADEAB0E088278C93E8
:10034000E6EFF7E00E94360382E20E944003E0E01D
:10035000F8E00E94360382E20E9440030E943D03BF
:100360000E945F02E4E0F8E00E946C030E947303C5
:100370008EE30E948E03EDEAF0E0A881B9810E942D
:100380009E03A881B981E8E8F7E00E94AA030FB6AE
:100390008EE3481A80E0580A22960FBE11F00C94A2
:1003A0009C01A0E6B0E0ECE0F8E00E949403AEE629
:1003B000B0E0EAE1F8E00E9494030E94DF02ECE280
:1003C000F8E00E946C030E9473030E945F02C899C8
:1003D0000C94180284E190E00E947F03C09ADA989E
:1003E000ECE8F7E00E9436030E943D0388B391E0F9
:1003F000892788BB8BB394E089278BBBE0E4F8E0C6
:100400000E946C030E947303C8990C941502A0E625
:10041000B0E0ECE0F8E00E949403AEE6B0E0EAE180
:10042000F8E00E9494030E94DF02C89B0C9415021E
:100430000C94E5010F921F922F923F924F925F9280
:100440007F92AF92BF920F931F932F933F934F933F
:100450005F936F937F938F939F93AF93BF93CF934C
:10046000DF93EF93FF938FB78F93ABEAB0E08C915C
:100470008F5F8C930091AB00043111F00C94430218
:1004800080E08093AB008F918FBFFF91EF91DF9160
:10049000CF91BF91AF919F918F917F916F915F911C
:1004A0004F913F912F911F910F91BF90AF907F90EF
:1004B0005F904F903F902F901F900F9018950F9244
:1004C0001F922F923F924F925F927F92AF92BF9274
:1004D0000F931F932F933F934F935F936F937F934C
:1004E0008F939F93AF93BF93CF93DF93EF93FF933C
:1004F0008FB78F9380E08093AC00ADEAB0E088279F
:100500008C9331E0ACEAB0E00E9425030091AC008E
:10051000003011F00C948E020C94AD020A3011F0F0
:100520000C949D02ADEAB0E08C91803011F40C94F3
:100530009B020C94AF020C94AD020D3011F00C94A0
:10054000A3020C94AD02ACEAB0E08C91ADEAB0E04D
:100550000E941E038D9388278C930C948102ADEA30
:10056000B0E00E9479030E9473038F918FBFFF91C7
:10057000EF91DF91CF91BF91AF919F918F917F913B
:100580006F915F914F913F912F911F910F91BF906C
:10059000AF907F905F904F903F902F901F900F9063
:1005A0001895F894FFCF31E0ACEAB0E00E94250343
:1005B0000091AC00003011F00C94D3020895ECE4EB
:1005C000F8E00E94360382E20E944003A0E6B0E019
:1005D0000E94300382E20E9440030E943D03ECE44B
:1005E000F8E00E946C0382E20E945C03A0E6B0E0A7
:1005F0000E94790382E20E945C030E9473030E94BE
:100600005F02E1E0F0E00E944403AEE6B0E00E9449
:1006100030038AE10E9440030E943D03AEE6B0E051
:100620000E9479038AE10E945C030E9473030E9486
:100630005F028AEF90E00E947F0308958F938D916F
:100640008823E9F711978F91089504D08D933A95F7
:10065000E1F708955F9BFECF8CB10895A8E0B8E064
:100660008D91882311F00CD0FBCF08950E949A033E
:10067000802D11F005D0FACF08958DE001D08AE0E9
:100680005D9BFECF8CB9089588EE93E038D031970A
:10069000D9F708953197F1F70895689462F80895AD
:1006A000E89462F808958F939F938BE890E0019708
:1006B000F1F79F918F91089580952AE090E008943A
:1006C00010F4959802C0959A0000EDDFECDF969546
:1006D00087952A95A9F708950E949A03802D11F015
:1006E000EBDFFACF08958DE0E7DF8AE0E5CFA8E001
:1006F000B8E08D91882311F0DFDFFBCF0895EF93F1
:10070000FF93EE27E82BE92B31F0EDECFAE031977F
:10071000F1F70197D1F7FF91EF91089599275A9238
:100720004A92480E591E08950E949A030D92002085
:10073000D9F70895C895319600200895819104D085
:100740008D938823D9F70895813418F08B3508F4F8
:1007500080620895689401C0E894AF93BF938D912F
:1007600016F0919103C00E949A03902D891718F0FA
:1007700011F48823A1F7BF91AF91089541544530FA
:1007800000004154264600006F6B000041540000F9
:1007900041542B6370696E3F000041542B637069B4
:1007A0006E0041542B434D47463D310041542B438D
:1007B0004D47460041542B434D47463D3F00417451
:1007C0002B437573643D310041542B637573640092
:1007D00041742B437573643D3F0041542B43534D8B
:1007E000503D31372C3136372C302C3000004154FD
:1007F0002B63736D700041542B435343533D0000F2
:1008000047534D0041542B63736373002B393839C0
:100810003135353630393633310073797374656D5F
:10082000206973206F6E6C696E650000636F6E6681
:1008300069672069732066696E6973686564000082
:100840004154207761732073656E740041542B43CB
:060850004D47533D00007E
:00000001FF
