:100000000C942A001895000018950000189500001F
:10001000189500001895000018950000189500002C
:100020001895000018950000189500000C943B03EB
:10003000189500000C949203189500001895000084
:1000400018950000189500001895000018950000FC
:10005000189500008FE58DBFC8E3E0E24E2E88E0E2
:100060008EBFD8E0F8E05F2EA89584B7082E877F72
:1000700084BF88E1992781BD91BDEEEFF7E0A0E64E
:10008000B0E088278D933197E9F787E489B980E05C
:1000900080BD88E18AB90E94340466240E94260447
:1000A000E0E3FAE00E941D04E3E0F0E00E942B048C
:1000B0007894579A85E083BF79B7716079BF579874
:1000C000D09AA49A85E083BF0E942604AC9884E667
:1000D00090E00E94AF04AC9A81E08093DC00009134
:1000E000DC00003118F011F00C94860084EF91E0F0
:1000F0000E94AF04E4E3FAE00E941D04ACEDB0E01E
:100100008C918F5F8C9310F40C946F00579A0E941F
:100110002604A0E6B0E088278C93E6E3FAE00E948C
:1001200007040E940E040E942604E6E3FAE00E94FF
:100130001D040E942404ECE3FAE00E941D04A0E6E2
:10014000B0E00E941704E1E0F0E00E942B048AE78F
:100150000E94BE04E0E6F0E0A881B9810E94F804A4
:10016000A881B981E6E4FAE00E9404050FB68AE7A7
:10017000481A80E0580A22960FBE11F00C948900AC
:100180000E942604A0E6B0E00E941704E1E0F0E03F
:100190000E942B040E942604A0E6B0E088278C93DE
:1001A000EAE4FAE00E9407040E940E040E9426047A
:1001B000EAE4FAE00E941D040E942404ECE3FAE061
:1001C0000E941D04A0E6B0E00E941704E1E0F0E008
:1001D0000E942B048AE70E94BE04E0E6F0E0A881BA
:1001E000B9810E94F804A881B981E6E4FAE00E948E
:1001F00004050FB68AE7481A80E0580A22960FBE17
:1002000011F00C94CC000E9424040E942604A0E665
:10021000B0E00E941704E1E0F0E00E942B040E948D
:100220002604A0E6B0E088278C93EEE4FAE00E9472
:1002300007040E940E040E942604EEE4FAE00E94E5
:100240001D040E942404ECE3FAE00E941D04A0E6D1
:10025000B0E00E941704E1E0F0E00E942B048AE77E
:100260000E94BE04E0E6F0E0A881B9810E94F80493
:10027000A881B9818AE7481A80E0580A22968C91B1
:10028000803011F40C9411010E9424040E94260471
:10029000A0E6B0E00E941704E1E0F0E00E942B0429
:1002A0000E942604A0E6B0E088278C93E8E5FAE0F7
:1002B0000E9407040E940E040E942604E8E5FAE06A
:1002C0000E941D040E942404ECE3FAE00E941D0435
:1002D000A0E6B0E00E941704E1E0F0E00E942B04E9
:1002E0008AE70E94BE04E0E6F0E0A881B9810E949E
:1002F000F804A881B981E6E4FAE00E9404050FB68B
:100300008AE7481A80E0580A22960FBE11F00C9432
:1003100052010E9424040E942604A0E6B0E00E943C
:100320001704E1E0F0E00E942B040E942604A0E6FE
:10033000B0E088278C93EEE5FAE00E9407040E9463
:100340000E040E942604EEE5FAE00E941D040E94BD
:100350002404ECE3FAE00E941D04A0E6B0E00E9451
:100360001704E1E0F0E00E942B048AE70E94BE043B
:10037000E0E6F0E0A881B9810E94F804A881B98183
:100380008AE7481A80E0580A22968C91803011F44E
:100390000C9497010E9424040E942604A0E6B0E079
:1003A0000E941704E1E0F0E00E942B040E94260462
:1003B000A0E6B0E088278C93E8E6FAE00E94070404
:1003C0000E940E040E942604E8E6FAE00E941D0442
:1003D0000E942404ECE3FAE00E941D04A0E6B0E0D1
:1003E0000E941704E1E0F0E00E942B048AE70E94DB
:1003F000BE04E0E6F0E0A881B9810E94F804A8817B
:10040000B9818AE7481A80E0580A22968C91803098
:1004100011F40C94D8010E9424040E942604A0E642
:10042000B0E00E941704E1E0F0E00E942B040E947B
:100430002604A0E6B0E088278C93E2E7FAE00E9469
:1004400007040E940E040E942604E2E7FAE00E94DC
:100450001D040E942404ECE3FAE00E941D04A0E6BF
:10046000B0E00E941704E1E0F0E00E942B048AE76C
:100470000E94BE04E0E6F0E0A881B9810E94F80481
:10048000A881B9818AE7481A80E0580A22968C919F
:10049000803011F40C9419020E9424040E94260456
:1004A000A0E6B0E00E941704E1E0F0E00E942B0417
:1004B0000E942604A0E6B0E088278C93E6E8FAE0E4
:1004C0000E9407040E940E040E942604E6E8FAE057
:1004D0000E941D040E942404ECE3FAE00E941D0423
:1004E000A0E6B0E00E941704E1E0F0E00E942B04D7
:1004F0008AE70E94BE04E0E6F0E0A881B9810E948C
:10050000F804A881B9818AE7481A80E0580A22963F
:100510008C91803011F40C945A020E9424040E94A1
:100520002604A0E6B0E00E941704E1E0F0E00E949B
:100530002B040E942604A0E6B0E088278C93E8E90B
:10054000FAE00E94070482E20E941104E2EAFAE063
:100550000E94070482E20E9411040E940E040E947D
:100560002604E6EAFAE00E941D040E942404ECE35B
:10057000FAE00E941D04A0E6B0E00E941704E1E04A
:10058000F0E00E942B048AE70E94BE04E0E6F0E05F
:10059000A881B9810E94F804A881B9818AE7481A24
:1005A00080E0580A22968C91803011F40C949B02C2
:1005B0000E9424040E942604A0E6B0E00E941704D2
:1005C000E1E0F0E00E942B040E942604A0E6B0E0E7
:1005D00088278C93E2EBFAE00E94070482E20E94F3
:1005E0001104ECEBFAE00E94070482E20E9411047D
:1005F0000E940E0484E690E00E94AF04EAECFAE068
:100600000E9407048AE10E9411040E940E04A0E6E1
:10061000B0E0E6E4FAE02FEF91E00E94C904ACED0F
:10062000B0E00C930091DC00003018F011F00C9455
:100630001B030C941D030C941F030C9407030E94CE
:100640002604ECEDFAE00E941D04E3E0F0E00E94D5
:100650002B040E942604EAEEFAE00E941D04E2E068
:10066000F0E00E942B040E94260484EF91E00E9497
:10067000AF040C9429030F921F922F923F924F9236
:100680005F927F92AF92BF920F931F932F933F93EE
:100690004F935F936F937F938F939F93AF93BF938A
:1006A000CF93DF93EF93FF938FB78F93ABEDB0E0D2
:1006B0008C918F5F8C930091DB00083211F00C94C9
:1006C000760380E08093DB008BB391E089278BBBBE
:1006D0000091DA00003018F011F00C9471030C94C2
:1006E00076038091DA0081508093DA008F918FBF7A
:1006F000FF91EF91DF91CF91BF91AF919F918F913A
:100700007F916F915F914F913F912F911F910F9129
:10071000BF90AF907F905F904F903F902F901F9031
:100720000F9018950F921F922F923F924F925F92C7
:100730007F92AF92BF920F931F932F933F934F934C
:100740005F936F937F938F939F93AF93BF93CF9359
:10075000DF93EF93FF938FB78F938AE08093DA0054
:1007600031E0A9EDB0E00E94FE030091D900003015
:1007700011F00C94BD030C94D9030A3011F00C94C1
:10078000C3030C94D9030D3011F00C94C9030C94DD
:10079000D903A9EDB0E08C91A0E6B0E00E94F70388
:1007A0008D9388278C93E0E6F0E0A0E6B0E00E940D
:1007B000F8048F918FBFFF91EF91DF91CF91BF919F
:1007C000AF919F918F917F916F915F914F913F91E9
:1007D0002F911F910F91BF90AF907F905F904F909E
:1007E0003F902F901F900F901895F894FFCF8F9304
:1007F0008D918823E9F711978F91089504D08D93F7
:100800003A95E1F708955F9BFECF8CB108950E9461
:10081000F404802D11F005D0FACF08958DE001D0B9
:100820008AE05D9BFECF8CB90895A8E0B8E08D9179
:10083000882311F061D0FBCF08950E94F404802D2D
:1008400011F05AD0FACF089580EC5CC081E05AD004
:1008500008D080E857C088EE93E081D03197D9F76F
:10086000089583E099277BC08AEF90E00E94AF044F
:10087000D49ABC9ABB9ABA9AB99AB89AC09885E0A9
:1008800090E00E94AF04C198DC98C498C39AC29AC1
:10089000C19AEF93FF93E1E1F1E00E94A304FF917D
:1008A000EF91C19859D0C19AEF93FF93E1E1F1E044
:1008B0000E94A304FF91EF91C1984ED0C19AEF938B
:1008C000FF93E1E1F1E00E94A304FF91EF91C19851
:1008D00043D0C298C19AEF93FF93E1E1F1E00E9407
:1008E000A304FF91EF91C19837D088E20BD08EE03E
:1008F00009D086E007D00895C09A829505D004D02B
:100900002BD00895C098F9CF859510F4C29A01C0F4
:10091000C298859510F4C39A01C0C398859510F4C8
:10092000C49A01C0C498859510F4DC9A01C0DC9883
:10093000C19AEF93FF93E1E1F1E00E94A304FF91DC
:10094000EF91C19808953197F1F70895689462F88E
:100950000895E89462F8089581E090E000C0EF9374
:10096000FF93EE27E82BE92B31F0EDECFAE031971D
:10097000F1F70197D1F7FF91EF91089599275A92D6
:100980004A92480E591E089599910027A90FB01F49
:100990001197492F4A955E2F6F2FE89411274395A1
:1009A000203019F0C895802D01C080818823B9F0CE
:1009B0007C917723A1F0781739F40EF0042F13956A
:1009C000689411963196EBCF112321F0411BA11BA6
:1009D0001127B10BE894E52FF62F1196E0CF88236D
:1009E00011F0002708950895C895319600200895C4
:1009F000819104D08D938823D9F70895813418F01C
:100A00008B3508F480620895689401C0E894AF9330
:100A1000BF938D9116F0919103C00E94F404902D24
:100A2000891718F011F48823A1F7BF91AF910895A9
:100A3000686900002A00415445300000616E7377F8
:100A400065723D2000006F6B00004154000041546E
:100A50002B6370696E3F00004154264600004154EC
:100A60002B434D47463D310041742B437573643D24
:100A7000310041542B43534D503D31372C313637E3
:100A80002C302C30000041542B434E4D493D322C2C
:100A9000312C302C302C300041542B435343533DE8
:100AA000000047534D0041542B435343533D47539C
:100AB0004D0041542B434D47533D00002B393839ED
:100AC0003135353630393633310073797374656DAD
:100AD000206973206F6E6C696E650000534D532062
:100AE0005741532053454E5400006D61696E00001C
:00000001FF
