:100000000C942A000C94BE0E189500001895000060
:10001000189500001895000018950000189500002C
:100020001895000018950000189500000C94C60B58
:10003000189500000C948D17189500001895000075
:1000400018950000189500001895000018950000FC
:10005000189500008FE58DBFC8E3E0E24E2E88E0E2
:100060008EBFD8E0F8E05F2EA89584B7082E877F72
:1000700084BF88E1992781BD91BDEEEFF7E0A0E64E
:10008000B0E088278D933197E9F787E489B980E05C
:1000900080BD88E18AB90E94EF1466240E94DE14B4
:1000A000E8EEF2E30E94CE14E2E0F0E00E94E614F3
:1000B0000E94DE1485E0E9E30E94F516ABEDB0E0A6
:1000C000E1EFF0E098E00E949E1885E0E9E30E94ED
:1000D000FA16A4EEB0E0E1EFF0E098E00E949E187E
:1000E00088E290E0A7E1B1E08D939C9385E090E0F9
:1000F000A9E1B1E08D939C93A49A579A789480E0FB
:1001000080934E038E988D988B988C98D09AD19A24
:10011000D29AD39A80E08FBD82E08EBD8EB5887F63
:100120008EBD80E090E09DBD8CBD87E085BD85E003
:1001300083BF789479B7716079BF7BB770647BBFF8
:1001400085B7836085BFD69A80E080932701709140
:1001500010017E7F70931001709110017D7F70936C
:10016000100180E090E0AEEAB3E08D939C93709133
:10017000AD037F777093AD030E9406110091AC032D
:10018000053018F011F00C94C7000C94CC0080E0FE
:100190008093AC030E941311882783BF0E94830CB5
:1001A00081E080932701009127010E3118F011F0B2
:1001B0000C94E6008AEF90E00E948315A7E2B1E07C
:1001C0008C918F5F8C9310F40C94D300E1E0F0E0FD
:1001D0000E94E614ECEEF2E30E94B8140E94BF14F1
:1001E0000E94350AE2EFF2E30E94B8140E94BF14A5
:1001F000E2EFF2E30E94B8140E94BF140E94350A95
:100200000E94350AECEEF2E30E94B8140E94BF147B
:100210000E94350AE6EFF2E30E94B8140E94BF1470
:100220000E94350AE6EFF2E30E94B8140E94BF1460
:10023000AAE2B1E0BA93AA930E94170522960E94FF
:10024000DE14ECEFF2E30E94CE140E94DC14AAE26A
:10025000B1E00E94C814E1E0F0E00E94E6140E94C0
:10026000DE14AAE2B1E0E2E0F3E30E94E01811F04C
:100270000C9410010E94350A0E94350AE2EFF2E365
:100280000E94B8140E94BF14AAE2B1E0BA93AA93E4
:100290000E94170522960E94DE14E6E0F3E30E9416
:1002A000CE140E94DC14AAE2B1E00E94C814E1E07E
:1002B000F0E00E94E6140E94DE14AAE2B1E0E2E05F
:1002C000F3E30E94E01811F00C943C010E94350AFF
:1002D000EAE0F3E30E94B8140E94BF14AAE2B1E07E
:1002E000BA93AA930E94170522960E94DE14EAE0B0
:1002F000F3E30E94CE140E94DC14AAE2B1E00E9453
:10030000C814E1E0F0E00E94E6140E94DE14AAE2C4
:10031000B1E0E4E1F3E30E94E01811F00C949601DF
:10032000E4E2F3E30E94B8140E94BF140E94350A6D
:10033000E2E3F3E30E94B8140E94BF14AAE2B1E022
:10034000BA93AA930E94170522960E94DE14E2E354
:10035000F3E30E94CE140E94DC14AAE2B1E00E94F2
:10036000C814E1E0F0E00E94E6140E94DE1484EF7D
:1003700091E00E948315ECE3F3E30E94B8140E941D
:10038000BF14AAE2B1E0BA93AA930E94170522967D
:100390000E94DE14ECE3F3E30E94CE140E94DC140E
:1003A000AAE2B1E00E94C814E1E0F0E00E94E61485
:1003B0000E94DE140E94350AE6E4F3E30E94B814BA
:1003C0000E94BF14AAE2B1E0BA93AA930E94170553
:1003D00022960E94DE14EAE5F3E30E94CE140E9406
:1003E000DC14AAE2B1E00E94C814E1E0F0E00E944F
:1003F000E6140E94DE14E2E6F3E30E94B8140E94C1
:10040000BF14AAE2B1E0BA93AA930E9417052296FC
:100410000E94DE14E4E7F3E30E94CE140E94DC1491
:10042000AAE2B1E00E94C814E1E0F0E00E94E61404
:100430000E94DE140E94350AEEE7F3E30E94B8142E
:100440000E94BF14AAE2B1E0BA93AA930E941705D2
:1004500022960E94DE14EEE7F3E30E94CE140E947F
:10046000DC14AAE2B1E00E94C814E1E0F0E00E94CE
:10047000E6140E94DE140E94350AE8E8F3E30E94C5
:10048000B8140E94BF14AAE2B1E0BA93AA930E94E2
:10049000170522960E94DE14E8E8F3E30E94CE14CA
:1004A0000E94DC14AAE2B1E00E94C814E1E0F0E08E
:1004B0000E94E6140E94DE1484EF91E00E948315EE
:1004C0000E94350AE2E3F3E30E94B8140E94BF14CD
:1004D000AAE2B1E0BA93AA930E94170522960E945D
:1004E000DE14E2E3F3E30E94CE140E94DC14AAE2DD
:1004F000B1E00E94C814E1E0F0E00E94E6140E941E
:10050000DE14AAE2B1E0E2E0F3E30E94E01811F0A9
:100510000C946002E2E9F3E30E94B8140E94BF1455
:1005200084E690E00E948315AAE2B1E0BA93AA9310
:100530000E94170522960E94DE14E2E9F3E30E946E
:10054000CE140E94DC14AAE2B1E00E94C814E1E0DB
:10055000F0E00E94E6140E94DE140E94350AECE9E5
:10056000F3E30E94B81482E20E94C214E6EAF3E3C5
:100570000E94B81482E20E94C2140E94BF14AAE230
:10058000B1E0BA93AA930E94170522960E94DE1446
:10059000ECE9F3E30E94CE140E94DC14AAE2B1E07D
:1005A0000E94C814E1E0F0E00E94E6140E94DE140C
:1005B0000E94C60D84EF91E00E948315AAE2B1E08B
:1005C000E2E0F3E30E94E01811F00C94D80281E01D
:1005D0008093270100912701043118F011F00C9449
:1005E00001038BB391E089278BBB84E690E00E94E6
:1005F0008315A7E2B1E08C918F5F8C9310F40C947B
:10060000EA02DA9A88EC90E00E948315DA98EAEA26
:10061000F3E30E94CE14E2E0F0E00E94E6140E94B0
:10062000DE14709110017064709310010E948A0CA6
:100630008AEF90E00E948315A6E9B1E088278C93A9
:10064000A6E9B1E0E0EBF3E30E94A715A3E2B2E074
:10065000E6ECF3E30E94A715A6E9B1E0E0EBF3E3D3
:100660000E94A7150E940A0B84EF91E00E94831557
:100670000E94350A0E94DE1485E083BF0091C90004
:10068000013011F00C94C10485990C944C037091C5
:10069000100178607093100180E08093C900839905
:1006A0000C945703A7ECB0E08C918F5F8C938499E6
:1006B0000C945F03A8ECB0E08C918F5F8C93009159
:1006C000C7000B3318F011F00C9468030C946B0303
:1006D00080E08093C7000091C800073118F011F046
:1006E0000C9474030C94770380E08093C800A0E31B
:1006F000B0E00C9103FB81E00EF480E08F93A0E367
:10070000B0E00C9104FB81E00EF480E09F91892B16
:10071000882311F40C948E030E9484120E94B31259
:10072000ACE1B1E088278C93E8ECF0E0A5EDB0E017
:100730000E94E117E7ECF0E0A2EDB0E00E94E117C3
:10074000E6ECF0E0A8EDB0E00E94E117E5EDF0E0A6
:10075000A8E0B8E00E949818E8E0F8E0A5EDB0E065
:100760001127222702E033270E940316E2EDF0E072
:10077000A8E0B8E00E949818E8E0F8E0A2EDB0E048
:100780001127222702E033270E940316E8EDF0E04C
:10079000A8E0B8E00E949818E8E0F8E0A8EDB0E022
:1007A0001127222702E033270E940316E5EDF0E02F
:1007B000ACE1B1E00E949818ACE1B1E00E94801475
:1007C000E4EDF3E30E94A715E2EDF0E0ACE1B1E067
:1007D0000E9480140E949818ACE1B1E00E9480143D
:1007E000E4EDF3E30E94A715E8EDF0E0ACE1B1E041
:1007F0000E9480140E9498180E94D514ACE1B1E0C8
:100800000E94C8140E94DC14A0E0B1E00E94C81449
:10081000E6EDF3E30E94CE14A7E0B1E00E94C81415
:10082000E6EDF3E30E94CE140E94E712A7E1B1E0E7
:100830004D915C91A3E1B1E00D911C910417150756
:1008400080E00CF481E08F93A7E1B1E04D915C91E1
:10085000A5E1B1E00D911C910417150780E00CF49F
:1008600081E09F91892B882311F40C943A0480E055
:1008700080931B01A7E1B1E04D915C91A3E1B1E050
:100880000D911C910417150780E014F009F081E028
:100890008F93A7E1B1E04D915C91A5E1B1E00D919D
:1008A0001C910417150780E014F009F081E09F9176
:1008B000892B882311F40C94C104ABE1B1E08C9135
:1008C0008F5F8C9300911B010E3118F011F00C9486
:1008D0006B040C94C104A6E9B1E0ECEDF3E30E94D3
:1008E000A715A6E9B1E00E948014ECEEF3E30E94A4
:1008F000A715E3E1F1E0A6E9B1E00E9480140E94AF
:10090000DA17A6E9B1E00E948014E8EFF3E30E9451
:10091000A715E5E1F1E0A6E9B1E00E9480140E948C
:10092000DA17D898D998DA980E940A0B0E94DE1438
:10093000E4E0F4E30E94CE14A0E3B0E00C9105FBE8
:1009400081E00EF480E08F93A0E3B0E00C9103FB14
:1009500081E00EF480E09F91892B8F93A0E3B0E0BB
:100960000C9104FB81E00EF480E09F91892B882399
:1009700011F40C94BD040C94BF040C949C040E94CC
:10098000DE14A0E5B3E00D911C91003050E0150796
:1009900081E009F080E08F93A0E1B1E08C9182FBCF
:1009A00081E00EF080E09F918923882311F40C945C
:1009B0001305709110017B7F70931001AAE2B1E0E2
:1009C000BA93AA930E9417052296AAE2B1E0E4ED39
:1009D000F3E32FEF91E00E94B215A7E2B1E00C9390
:1009E00000912701003018F011F00C94F9040C94D8
:1009F0001105EAE2F1E000912701AFE8B1E00E94C1
:100A0000AA18AFE8B1E0E2E1F4E30E94E01811F0C7
:100A10000C941105AAE2B1E0BA93AA930E9483054F
:100A2000229685E083BF0E940B0F0C943E0388271B
:100A300083BF81E00E949715AA81BB8188278C9390
:100A400080E0A881B9818C930E948714A8E2B1E06C
:100A50008C9300912801003018F011F00C943205AD
:100A60000C94360580E0A881B9818C93009128010F
:100A7000003011F00C943E050C9466050D3011F019
:100A80000C944D05AA81BB818C91803011F40C949B
:100A90004B050C947D050C9466050A3011F00C94FE
:100AA0005C05AA81BB818C91803011F40C945A05AD
:100AB0000C947D050C946605A8E2B1E08C91AA81A6
:100AC000BB810E9480148D9388278C9381E090E0F5
:100AD0000E948315A881B9818C918F5F8C93A88126
:100AE000B9810C91043618F011F00C9479050C942E
:100AF0007B050C947D050C94240581E0481A80E068
:100B0000580A22960895A881B981EAE1F4E32FEF0B
:100B100091E00E94B215A7E2B1E00C93A7E2B1E028
:100B20008C918F5F8C9380912701E881F9810FEF81
:100B30000A93AFE8B1E00E94A318ECE1F4E30E944D
:100B4000B8140E94BF14AAE2B1E0BA93AA930E941B
:100B500017052296A881B981E6E2F4E32FEF91E030
:100B60000E94B215A7E2B1E00C93009127014AE080
:100B7000040FAEE4B3E00C9380912701E881F98182
:100B800000914E030A93A3E2B2E00E94A318E3E2AD
:100B9000F2E092E20EE135E0A0E4B2E00E94F61845
:100BA000A6EEB2E02C93E0E4F2E0A3E2B2E00E9411
:100BB00098180E94DC140E94DE14A3E2B2E00E94A6
:100BC000C814E5E0F0E00E94E6140E94DE14A4E3FD
:100BD000B2E088278C93AAE2B1E0BA93AA930E946C
:100BE0001705229686E60E949715EAE2F1E0A881B1
:100BF000B9810E94E115A881B981EAE2F4E30E947B
:100C0000E0180FB686E6481A80E0580A22960FBE12
:100C100011F00C940F060C94B0080C94AE0886E604
:100C20000E949715EAE2F1E0A881B9810E94E115DE
:100C3000A881B981EEE2F4E30E94E0180FB686E6DF
:100C4000481A80E0580A22960FBE11F00C9437061D
:100C5000DA9AA6E9B1E0E2E3F4E30E94A715EAE23A
:100C6000F1E0A4E3B2E00E94E1150C94AE0886E640
:100C70000E949715EAE2F1E0A881B9810E94E1158E
:100C8000A881B981EEE3F4E30E94E0180FB686E68E
:100C9000481A80E0580A22960FBE11F00C945F06A5
:100CA000EAE2F1E0A4E3B2E00E94E115DA98A6E9F5
:100CB000B1E0E2E4F4E30E94A7150C94AE0886E6E6
:100CC0000E949715EAE2F1E0A881B9810E94E1153E
:100CD000A881B981E0E5F4E30E94E0180FB686E64A
:100CE000481A80E0580A22960FBE11F00C948E0626
:100CF00089E190E0A0EBB3E08D939C930E94F11109
:100D0000A6E9B1E0E6E5F4E30E94A715EAE2F1E026
:100D1000A4E3B2E00E94E1150C94AE0886E60E94BE
:100D20009715EAE2F1E0A881B9810E94E115A88156
:100D3000B981E8E6F4E30E94E0180FB686E6481AA7
:100D400080E0580A22960FBE11F00C94BD06EAE22C
:100D5000F1E0A4E3B2E00E94E11580E290E0A0EBB4
:100D6000B3E08D939C930E94F111A6E9B1E0EEE609
:100D7000F4E30E94A7150C94AE0886E60E9497152E
:100D8000EAE2F1E0A881B9810E94E115A881B98168
:100D9000E0E8F4E30E94E0180FB686E6481A80E027
:100DA000580A22960FBE11F00C94EC06EAE2F1E02C
:100DB000A4E3B2E00E94E11587E290E0A0EBB3E08B
:100DC0008D939C930E94F111A6E9B1E0E6E8F4E36B
:100DD0000E94A7150C94AE0886E60E949715EAE2D9
:100DE000F1E0A881B9810E94E115A881B981E8E903
:100DF000F4E30E94E0180FB686E6481A80E0580A2D
:100E000022960FBE11F00C942107EAE2F1E0A4E370
:100E1000B2E00E94E115A3E2B2E0EEE9F4E30E9441
:100E2000A71589E190E0A0EBB3E08D939C930E941D
:100E3000F111A6E9B1E0ECEAF4E30E94A7150C94E5
:100E4000AE0886E60E949715EAE2F1E0A881B98132
:100E50000E94E115A881B981EEEBF4E30E94E0184D
:100E60000FB686E6481A80E0580A22960FBE11F0A7
:100E70000C945607EAE2F1E0A4E3B2E00E94E11527
:100E8000A3E2B2E0EEE9F4E30E94A71580E290E06D
:100E9000A0EBB3E08D939C930E94F111A6E9B1E021
:100EA000E4ECF4E30E94A7150C94AE0886E60E94D9
:100EB0009715EAE2F1E0A881B9810E94E115A881C5
:100EC000B981E6EDF4E30E94E0180FB686E6481A11
:100ED00080E0580A22960FBE11F00C948B07EAE2CC
:100EE000F1E0A4E3B2E00E94E115A3E2B2E0EEE992
:100EF000F4E30E94A71587E290E0A0EBB3E08D93A6
:100F00009C930E94F111A6E9B1E0ECEDF4E30E949C
:100F1000A7150C94AE0886E60E949715EAE2F1E068
:100F2000A881B9810E94E115A881B981EEEEF4E3B0
:100F30000E94E0180FB686E6481A80E0580A22960A
:100F40000FBE11F00C94DC07EAE2F1E0A4E3B2E09A
:100F50000E94E115A3E2B2E0EEE9F4E30E94A715D6
:100F600089E190E0A0EBB3E08D939C930E94F11196
:100F7000A3E2B2E0EEE9F4E30E94A71580E290E07C
:100F8000A0EBB3E08D939C930E94F111A3E2B2E039
:100F9000EEE9F4E30E94A71587E290E0A0EBB3E04E
:100FA0008D939C930E94F111A6E9B1E0E6EFF4E382
:100FB0000E94A7150C94AE0886E60E949715EAE2F7
:100FC000F1E0A881B9810E94E115A881B981EEE024
:100FD000F5E30E94E0180FB686E6481A80E0580A4A
:100FE00022960FBE11F00C944908EAE2F1E0A4E366
:100FF000B2E00E94E115A6E9B1E0E6E1F5E30E9466
:10100000A71589E190E0A0EBB3E08D939C930E943B
:101010004312E6ECF3E0A6E9B1E00E9498188AE0FA
:10102000A6E9B1E00E9480148D9388278C9380E21A
:1010300090E0A0EBB3E08D939C930E944312E6EC0A
:10104000F3E0A6E9B1E00E9480140E9498188AE0BB
:10105000A6E9B1E00E9480148D9388278C9387E2E3
:1010600090E0A0EBB3E08D939C930E944312E6ECDA
:10107000F3E0A6E9B1E00E9480140E9498188AE08B
:10108000A6E9B1E00E9480148D9388278C930C947C
:10109000AE0886E60E949715EAE2F1E0A881B981E0
:1010A0000E94E115A881B981E8E1F5E30E94E0180A
:1010B0000FB686E6481A80E0580A22960FBE11F055
:1010C0000C94A808EAE2F1E0A4E3B2E00E94E11582
:1010D0008FEF80933F02E0E0F0E0AFE3B2E07BE728
:1010E0000E94B9188AE090E00E948315A3E2B2E062
:1010F000EEE9F4E30E94A71589E190E0A0EBB3E0EC
:101100008D939C930E94F111A3E2B2E0EEE9F4E327
:101110000E94A71580E290E0A0EBB3E08D939C9332
:101120000E94F111A3E2B2E0EEE9F4E30E94A715F8
:1011300087E290E0A0EBB3E08D939C930E94F111C5
:10114000A6E9B1E0E6EFF4E30E94A7150C94AE081F
:10115000A6E9B1E0E0E2F5E30E94A7150C94EB05E7
:101160000E94D914EAE2F5E30E94CE14E1E0F0E037
:101170000E94E6140E94DE14E6E3F5E30E94B81430
:101180000E94BF1484E190E00E948315AAE2B1E0BE
:10119000BA93AA930E9417052296A7E2B1E08C9118
:1011A0008F5F8C93009127010A3011F00C94DA08BC
:1011B0000C94F30886E60E949715EAE2F1E0A88114
:1011C000B9810E94E115A881B981EAE2F4E30E94A5
:1011D000E0180FB686E6481A80E0580A22960FBE3D
:1011E00011F00C94BC080E94DE14E8E4F5E30E94C0
:1011F000CE140E94DC14A4E3B2E00E94C814E5E01F
:10120000F0E00E94E6140E94DE14A4E3B2E0EEE2F5
:10121000F4E30E94E01881E009F080E08F93A4E3FA
:10122000B2E0EEE3F4E30E94E01881E009F080E030
:101230009F91892B882311F40C943D09D89A81E061
:1012400080932701009127010A3018F011F00C94C7
:1012500039098BB391E089278BBB88EC90E00E9421
:101260008315A7E2B1E08C918F5F8C9310F40C94FE
:1012700022090E94410A0C94C809A4E3B2E0EEE0FE
:10128000F5E30E94E01811F00C94C8098AE0A6E981
:10129000B1E00E9480148D9388278C93A6E9B1E079
:1012A0000E948014E0E5F5E30E94A715E0E0F1E07C
:1012B000A6E9B1E00E9480140E949818A6E9B1E066
:1012C0000E948014EAE5F5E30E94A7158AE0A6E9EA
:1012D000B1E00E9480148D9388278C93A6E9B1E039
:1012E0000E948014E0E6F5E30E94A715E7E0F1E034
:1012F000A6E9B1E00E9480140E949818A6E9B1E026
:101300000E948014EAE5F5E30E94A7158AE0A6E9A9
:10131000B1E00E9480148D9388278C93A6E9B1E0F8
:101320000E948014EAE6F5E30E94A715EBEDF2E0D7
:10133000A6E9B1E00E9480140E9498188AE0A6E90C
:10134000B1E00E9480148D9388278C93A6E9B1E0C8
:101350000E948014E0E7F5E30E94A715E1E6F0E0C3
:10136000A6E9B1E00E9480140E949818A6E9B1E0B5
:101370000E948014E8E7F5E30E94A7158AE0A6E939
:10138000B1E00E9480148D9388278C930E94410ABB
:10139000A4E3B2E0E0E5F4E30E94E01881E009F0A4
:1013A00080E08F93A4E3B2E0E8E6F4E30E94E01863
:1013B00081E009F080E09F91892B8F93A4E3B2E054
:1013C000E0E8F4E30E94E01881E009F080E09F91FA
:1013D000892B882311F40C94090AA6E9B1E0882727
:1013E0008C93A6E9B1E0EEE7F5E30E94A7158AE049
:1013F000A6E9B1E00E9480148D9388278C93E3E2E4
:10140000F2E0A6E9B1E00E9480140E9498180E94C0
:101410000A0BA4E3B2E0E8E1F5E30E94E01811F062
:101420000C94260AA6E9B1E088278C93A6E9B1E0DE
:10143000ECE8F5E30E94A715E3E2F2E0A6E9B1E0EB
:101440000E9480140E9498180E940A0BA4E3B2E044
:1014500088278C930E94C60D0E94350AE2EAF5E3C4
:101460000E94B8140E94BF1408950E948714A8E235
:10147000B1E08C9300912801003011F00C94350AF2
:101480000895ECE1F1E0A6E9B1E00E9480140E9429
:1014900098188AE0A6E9B1E00E9480148D9388270D
:1014A0008C93A6E9B1E00E948014E4EBF5E30E947E
:1014B000A715ECE0F4E0A6E9B1E00E9480140E94D8
:1014C000E11781E080932701009127010A3018F08D
:1014D00011F00C94FE0AE8EBF5E30E94B81482E2E6
:1014E0000E94C214A3E2B2E00E94B21482E20E94FF
:1014F000C2140E94BF148AEF90E00E948315A6E9EF
:10150000B1E00E94B2148AE10E94C2140E94BF148A
:10151000E1E0F0E00E94E61480E080934E0380E07A
:1015200080933302AAE2B1E0BA93AA930E9417050E
:101530002296EAE2F1E0AAE2B1E00E94E115AAE215
:10154000B1E0E2ECF5E32FEF91E00E94B215A3E3E6
:10155000B2E00C9300913302003018F011F00C94BB
:10156000B30A0C94B30A84EF91E00E948315AEE4B1
:10157000B3E08C918F5F8C9300914E030A3081E031
:1015800009F080E08F9300913302003080E010F08A
:1015900009F081E09F91892B882311F40C94D20AE1
:1015A0000C94EB0A86E60E949715EAE2F1E0A88126
:1015B000B9810E94E115A881B981EAE2F4E30E94B1
:1015C000E0180FB686E6481A80E0580A22960FBE49
:1015D00011F00C94920A00913302003018F011F0CF
:1015E0000C94F40A0C94F60A0C94FE0AA7E2B1E0FB
:1015F0008C918F5F8C9310F40C94640AACE0B4E08F
:101600008C918F5F8C930E94150DA6E9B1E088271D
:101610008C9308950E94DE14E8ECF5E30E94CE144A
:101620000E94DC14A3E2B2E00E94C814E3E0F0E000
:101630000E94E6140E94DE14A6E9B1E00E94C814DC
:10164000E2E0F0E00E94E61481E08093270100913F
:1016500027010A3018F011F00C94C10BE8EBF5E308
:101660000E94B81482E20E94C214E2EDF5E30E94E7
:10167000B81482E20E94C2140E94BF148AEF90E064
:101680000E948315A6E9B1E00E94B2148AE10E948B
:10169000C2140E94BF14E1E0F0E00E94E61480E072
:1016A00080934E0380E080933302AAE2B1E0BA93C4
:1016B000AA930E9417052296EAE2F1E0AAE2B1E0BD
:1016C0000E94E115AAE2B1E0E2ECF5E32FEF91E030
:1016D0000E94B215A3E3B2E00C93009133020030F4
:1016E00018F011F00C94760B0C94760B84EF91E0CB
:1016F0000E948315AEE4B3E08C918F5F8C930091D0
:101700004E030A3081E009F080E08F9300913302AC
:10171000003080E010F009F081E09F91892B882350
:1017200011F40C94950B0C94AE0B86E60E94971561
:10173000EAE2F1E0A881B9810E94E115A881B981AE
:10174000EAE2F4E30E94E0180FB686E6481A80E069
:10175000580A22960FBE11F00C94550B00913302DB
:10176000003018F011F00C94B70B0C94B90B0C94DA
:10177000C10BA7E2B1E08C918F5F8C9310F40C94B5
:10178000270BA6E9B1E088278C9308950F921F924A
:101790002F923F924F925F927F92AF92BF920F93A0
:1017A0001F932F933F934F935F936F937F938F93E9
:1017B0009F93AF93BF93CF93DF93EF93FF938FB735
:1017C0008F93882783BFA0E5B3E00E94391400916E
:1017D000500344E10E94CA18A5E2B1E08C93009145
:1017E0002501003011F00C944E0C8BB391E0892749
:1017F0008BBB81E08093C900A0E1B1E08C9183FBB9
:1018000081E00EF080E08F93A0E3B0E00C9105FB47
:1018100081E00EF480E09F918923882311F40C94D9
:10182000160CA6E2B1E08C918F5F8C93A0E1B1E041
:101830008C9183FB81E00EF080E08F93A0E3B0E019
:101840000C9105FB81E00EF080E09F9189238823B5
:1018500011F40C94380C70911001777F7093100183
:1018600000912601053010F00C94380C0E94160EE1
:10187000009126010A3018F011F00C94410C0C94E0
:10188000430C0E94D80D859B0C944E0C80E08093F5
:10189000260170911001777F70931001A0E5B3E0ED
:1018A0000D911C91003550E0150711F00C94630C5C
:1018B00080E090E0A0E5B3E08D939C9370911001DF
:1018C00074607093100170E072BF85E083BF8F91E8
:1018D0008FBFFF91EF91DF91CF91BF91AF919F911A
:1018E0008F917F916F915F914F913F912F911F91B8
:1018F0000F91BF90AF907F905F904F903F902F904F
:101900001F900F901895AC98E1E0F0E00E94E6146B
:10191000AC9A08950E94350AE0EEF5E30E94B814EF
:101920000E94BF14AAE2B1E0BA93AA930E941705DD
:101930002296EAE2F1E090E20EE135E0A0E4B2E0C6
:101940000E94F618A6EEB2E02C93AFE5B2E00E943A
:101950002718A0E6B0E00C9300916000003011F071
:101960000C94BA0CABEDB2E0E8EEF5E30E94A715DB
:101970000C94140D013011F00C94C60CABEDB2E0D8
:10198000ECEEF5E30E94A7150C94140D0091600095
:10199000023081E008F480E08F93009160000F3006
:1019A00081E010F009F080E09F918923882311F4F1
:1019B0000C94E20CABEDB2E0E2EFF5E30E94A71568
:1019C0000C94140D00916000003181E008F480E077
:1019D0008F93009160000E3181E010F009F080E0FB
:1019E0009F918923882311F40C94FE0CABEDB2E097
:1019F000EAEFF5E30E94A7150C94140D0F3111F0D6
:101A00000C940A0DABEDB2E0E0E0F6E30E94A715FE
:101A10000C94140D033611F00C94140DABEDB2E0E0
:101A2000E6E0F6E30E94A71508950E94350AEEE06D
:101A3000F6E30E94B8140E94BF14E5E0F0E00E94B3
:101A4000E614AAE2B1E0BA93AA930E94170522967F
:101A5000AAE2B1E0BA93AA930E94170522960E94C7
:101A6000DE14AAE2B1E00E94C814E1E0F0E00E94B6
:101A7000E6140E94DE1484EF91E00E948315AAE22E
:101A8000B1E0BA93AA930E94170522960E94DE1431
:101A9000AAE2B1E00E94C814E2E0F0E00E94E6147D
:101AA0000E94DE1484EF91E00E948315A6E9B1E064
:101AB00088278C93AAE2B1E0EEE1F6E32FEF91E004
:101AC0000E94B215A1E3B2E00C93A1E3B2E08C91C5
:101AD0008C5F8C93AAE2B1E0E4E2F6E32FEF91E0B1
:101AE0000E94B215A2E3B2E00C9300913202409141
:101AF0003102041BA2E3B2E00C9380913102EAE2CE
:101B0000F1E0009132020A93A6E9B1E00E94A31825
:101B1000A6E9B1E00E94DA18A1E3B2E08C93A1E655
:101B2000B0E088278C9384E08093270140913102B4
:101B300000912701041718F011F00C94B30D809157
:101B40002701E6E9F1E001E00A93A1E6B0E00E9496
:101B500080140E94A318A7E2B1E08C918C5F8C9353
:101B600010F40C94960D0E94DE14A6E9B1E00E94D8
:101B7000C8140E94DC14A1E6B0E00E94C814E5E09D
:101B8000F0E00E94E6140E94DE1408950E94350AD7
:101B9000EAE2F6E30E94B8140E94BF1408950E947E
:101BA000350AE6E3F5E30E94B8140E94BF140895D5
:101BB00080E08093AC030E94131180E090E0A0EBE2
:101BC000B3E08D939C93A0EBB3E00D911C91093190
:101BD00050E0150718F011F00C94FA0D80E0809396
:101BE000B3030E94DC10A0EBB3E00E94391410F4A0
:101BF0000C94E30DD99881E080932701009127018F
:101C0000003118F011F00C94150E8BB392E0892777
:101C10008BBB8AEF90E00E948315A7E2B1E08C9124
:101C20008F5F8C9310F40C94FE0D08950E940B0F9F
:101C3000A0E1B1E08C9181FB16F00C94BB0E0091F9
:101C4000AC03003011F00C943E0EACEAB3E08C9182
:101C50008F5F8C930E941311A3EAB3E00D911D9145
:101C60002D913C91A8EAB3E00D931D932D933C93E5
:101C70000E9420110C94BD0E0C94B90E8AE090E0E5
:101C8000A0EBB3E08D939C9381E08093270140917A
:101C9000AC0300912701041718F011F00C94890E81
:101CA0000E946B11A3EAB3E04D915D916D917C911F
:101CB000A8EAB3E00D911D912D913C910E94BE17B1
:101CC00011F00C94720ED99AE1E0F0E00E94E61453
:101CD000D998709110017160709310010C94890E65
:101CE0000C94770E709110017E7F70931001A0EB21
:101CF000B3E00D911C910F5F1F4FA0EBB3E00D936C
:101D00001C93A7E2B1E08C918F5F8C9310F40C943C
:101D1000470EA0E1B1E08C9180FB16F40C94B90E53
:101D2000ACEAB3E08C918F5F8C930091AC030530EB
:101D300018F011F00C949E0E0C94A90E85E080937F
:101D4000AC03D99AE5E0F0E00E94E614D9980C942F
:101D5000B90E0E941311A3EAB3E00D911D912D91CC
:101D60003C91A8EAB3E00D931D932D933C930E9400
:101D700020110C94BD0E0C94160E08950F921F9214
:101D80002F923F924F925F927F92AF92BF920F93AA
:101D90001F932F933F934F935F936F937F938F93F3
:101DA0009F93AF93BF93CF93DF93EF93FF938FB73F
:101DB0008F93DE98A2E5B3E08C918F5F8C9380E0E7
:101DC0008093530300915203043611F00C94EF0EEC
:101DD0008BB398E089278BBB80E0809352038F916F
:101DE0008FBFFF91EF91DF91CF91BF91AF919F9105
:101DF0008F917F916F915F914F913F912F911F91A3
:101E00000F91BF90AF907F905F904F903F902F9039
:101E10001F900F901895709110017D7F70931001A5
:101E2000869B0C94791086990C94180F0C941A0FB9
:101E30000C94130F80E090E09DBD8CBD82E08EBDC0
:101E400086990C94250F0C94200F8EB5887F8EBD3B
:101E5000ACE4B0E00D911C910A3F55E2150781E01A
:101E600008F480E08F93ACE4B0E00D911C910B334B
:101E70005CE5150781E010F009F080E09F9189236F
:101E8000882311F40C947910869B0C946A0F80E0DF
:101E900090E09DBD8CBD82E08EBD869B0C94520F60
:101EA0000C944D0F8EB5887F8EBDA7E2B1E08C916A
:101EB0008F5F8C93ACE4B0E08D919C91A7E2B1E090
:101EC000AD90BB24A7E5B3E0AA0CBB1CAA0DBB1DBB
:101ED0008D939C9300912701083111F00C94720F9F
:101EE0000C94740F0C94440F81E0809327010091AF
:101EF0002701083118F011F00C941410A7E2B1E09A
:101F0000AD90BB24A7E5B3E0AA0CBB1CAA0DBB1D7A
:101F10000D911C910C3451E0150781E008F480E02C
:101F20008F93A7E2B1E0AD90BB24A7E5B3E0AA0C84
:101F3000BB1CAA0DBB1D0D911C910C3C53E0150759
:101F400081E010F009F080E09F918923882311F44B
:101F50000C94BA0F80E090E0A7E2B1E0AD90BB2412
:101F6000A7E5B3E0AA0CBB1CAA0DBB1D8D939C93E7
:101F70000C940C10A7E2B1E0AD90BB24A7E5B3E050
:101F8000AA0CBB1CAA0DBB1D0D911C91073554E07A
:101F9000150781E008F480E08F93A7E2B1E0AD90EF
:101FA000BB24A7E5B3E0AA0CBB1CAA0DBB1D0D9179
:101FB0001C91093359E0150781E010F009F080E029
:101FC0009F918923882311F40C94F60F81E090E00F
:101FD000A7E2B1E0AD90BB24A7E5B3E0AA0CBB1C1F
:101FE000AA0DBB1D8D939C930C940C1080E08093E4
:101FF000270100E010E020E030E0A3EAB3E00D9319
:102000001D932D933C9380E08093A7037091100162
:102010007D7F709310010895A7E2B1E08C918F5FEE
:102020008C9310F40C94770F80E080932701A9E83B
:10203000B3E088278C93AEE9B3E088278C9381E0E6
:102040008093270100912701043118F011F00C94BE
:102050004110E7E2F1E0A190BB24E7E5F3E0AA0C30
:10206000BB1CEA0DFB1DA9E8B3E00E9480140E948E
:10207000D117A7E2B1E08C918F5F8C9310F40C9490
:10208000221085E18093270100912701083118F083
:1020900011F00C946310E7E2F1E0A190BB24E7E5B6
:1020A000F3E0AA0CBB1CEA0DFB1DAEE9B3E00E94F5
:1020B00080140E94D117A7E2B1E08C918F5F8C93BE
:1020C00010F40C944410A9E8B3E00E946F18A3EA3E
:1020D000B3E00D931D932D933D93AEE9B3E00E94C1
:1020E0006F18A7EAB3E00C930E947A1080E0809307
:1020F0002701089570911001726070931001ADEA8C
:10210000B3E08C9187FB16F40C94BF108AE090E04A
:10211000A0EBB3E08D939C9381E080932701009125
:102120002701053018F011F00C94BF100E946B11BC
:10213000A3EAB3E04D915D916D917C91A8EAB3E083
:102140000D911D912D913C910E94BE1711F00C94A0
:10215000AD100E94C5100C94BF10A0EBB3E00D9120
:102160001C910F5F1F4FA0EBB3E00D931C93A7E2F0
:10217000B1E08C918F5F8C9310F40C948F10709160
:10218000AD037F777093AD0308950E94DE14E7EAF4
:10219000F3E0A8E0B8E00E94E1170E94C6148BB3F8
:1021A00094E089278BBBE3E0F0E00E94E6140E94F4
:1021B000DE1485E083BF08950E94221910EA0E9470
:1021C0003A191091B0030E943A191091B3030E947A
:1021D0003A190E9431198AE090E00E94831508950F
:1021E0000E94221910EA0E943A191091B0030E942D
:1021F0003A190E94221911EA0E943A190E945719AD
:10220000A2EBB3E01C930E943119089581E090E0A5
:10221000A0EBB3E08D939C930E94F0108091B203E9
:102220008093AC03089581E090E0A0EBB3E08D9340
:102230009C938091AC038093B3030E94DC100895BB
:10224000A4EBB3E088278C93E8EAF3E0A4EBB3E0D7
:102250000E945A1883E0E4EBF3E002E00A93ADEB4E
:10226000B3E00E94A31885E0E4EBF3E002E00A93F8
:10227000A0ECB3E00E94A31887E0E4EBF3E002E0F7
:102280000A93A3ECB3E00E94A3180E94B211ADEB35
:10229000B3E00E947E18A3EBB3E00C930E94DC1025
:1022A000A0EBB3E00E943914A0ECB3E00E947E18CA
:1022B000A3EBB3E00C930E94DC10A0EBB3E00E9410
:1022C0003914A3ECB3E00E947E18A3EBB3E00C93A7
:1022D0000E94DC1008950E94F010E2EBF3E0ADEBF9
:1022E000B3E00E945618A0EBB3E00E9439140E949C
:1022F000F010E2EBF3E0A0ECB3E00E945618A0EB84
:10230000B3E00E9439140E94F010E2EBF3E0A3EC7A
:10231000B3E00E945618A4EBB3E088278C93EDEB52
:10232000F3E0A4EBB3E00E9480140E949818E0EC64
:10233000F3E0A4EBB3E00E9480140E949818E3EC51
:10234000F3E0A4EBB3E00E9480140E949818A4EB81
:10235000B3E00E947E18A8EAB3E00D931D932D937D
:102360003D9308950091AC03013011F00C94C0111D
:102370008AE090E0A0EBB3E08D939C930C94F01175
:10238000023011F00C94CC118DE090E0A0EBB3E0A2
:102390008D939C930C94F011033011F00C94D81190
:1023A00080E190E0A0EBB3E08D939C930C94F0114E
:1023B000043011F00C94E41183E190E0A0EBB3E061
:1023C0008D939C930C94F011053011F00C94F01146
:1023D00086E190E0A0EBB3E08D939C930C94F01118
:1023E0000895A6ECB3E088278C93E3E2F2E0A6EC34
:1023F000B3E00E94981880E080930A0481E0809303
:10240000270100912701063018F011F00C944212B8
:102410000091270142E0049FAAE0B4E00C92809171
:102420000A04E6ECF3E002E00A93A7E2B1E00D91C2
:10243000112749E050E00E949D15ABECB3E0A00FDE
:10244000B11F0E94A318A7E2B1E00D91112749E046
:1024500050E00E949D15ABECB3E0A00FB11F0E94AD
:102460007E18A3EBB3E00C930E94DC10A0EBB3E06A
:102470000E943914A7E2B1E08C918F5F8C9310F425
:102480000C9401120895A6ECB3E0ECE3F6E30E948D
:10249000A71581E08093270100912701063018F0ED
:1024A00011F00C9483120E94F010E2EBF3E0A7E22B
:1024B000B1E00D91112749E050E00E949D15ABEC71
:1024C000B3E0A00FB11F0E945618E7E2F1E00191BE
:1024D000112749E050E00E949D15EBECF3E0E00F7E
:1024E000F11FA6ECB3E00E9480140E949818A0EBA4
:1024F000B3E00E943914A7E2B1E08C918F5F8C9316
:1025000010F40C944C12089580E08093C6008091E2
:10251000C6000E946915A6ECB0E08C938091C700BC
:102520000E946915A7ECB0E08C938091C8000E94CE
:102530006915A8ECB0E08C930E94221910ED0E945E
:102540003A1910E00E943A191091C6000E943A19F7
:102550001091C7000E943A191091C8000E943A19C0
:102560000E94311908950E94221910ED0E943A1913
:1025700010E00E943A190E94221911ED0E943A19A6
:102580000E945919A6ECB0E01C930E945919A7ECBF
:10259000B0E01C930E945719A8ECB0E01C930E9475
:1025A00031199091C6000E947015A6ECB0E08C9392
:1025B0009091C7000E947015A7ECB0E08C939091A9
:1025C000C8000E947015A8ECB0E08C93089588278D
:1025D00083BF7BB77F7B7BBF85E0E9E30E94F51675
:1025E000ABEDB0E0E1EFF0E098E00E949E1885E0EE
:1025F000E9E30E94FA16A4EEB0E0E1EFF0E098E023
:102600000E949E1885E0E9E30E9450165CEC85E08C
:10261000E9E30E94781654E485E0E9E30E94781625
:102620008EE190E00E94831585E0E9E30E94501658
:1026300055E585E0E9E30E94781685E0E9E3ABED36
:10264000B0E00E946A1762FA16F40C94EE135EEB87
:1026500085E0E9E30E94781685E0AEE0B1E0E9E3C9
:1026600022E02A930E94A016AEE0B1E08D919C91E9
:10267000A1E1B1E08D939C930E94F413A1E1B1E03C
:102680008D919C91A3E1B1E08D939C93E9EFF0E0F3
:10269000A0E0B1E00E9498180091C6000E3110F041
:1026A0000C948413ABECB0E088278C93A3E1B1E0E9
:1026B0000D911C91003050E015071CF011F00C94A6
:1026C00063130C947313E3E1F1E0ABECB0E00E9410
:1026D000DA17ABECB0E00E948014EEE3F6E30E9460
:1026E000A7150C948113E3E1F1E0ABECB0E00E949C
:1026F000DA17ABECB0E00E948014E2E4F6E30E944B
:10270000A71580E08093CA0085E0E9E3A4EEB0E07D
:102710000E946A1762FA16F40C94EE135EEB85E0E1
:10272000E9E30E94781685E0AEE0B1E0E9E322E05B
:102730002A930E94A016AEE0B1E08D919C91A1E198
:10274000B1E08D939C930E94F413A1E1B1E08D91CF
:102750009C91A5E1B1E08D939C93E9EFF0E0A7E0B7
:10276000B1E00E9498180091C6000E3118F011F0E7
:102770000C94BC130C94EE13ABECB0E088278C9354
:10278000A5E1B1E00D911C91003050E015071CF05F
:1027900011F00C94CD130C94DD13E5E1F1E0ABECFA
:1027A000B0E00E94DA17ABECB0E00E948014EEE3D8
:1027B000F6E30E94A7150C94EB13E5E1F1E0ABEC16
:1027C000B0E00E94DA17ABECB0E00E948014E2E4C3
:1027D000F6E30E94A71580E08093CA007BB770647F
:1027E0007BBF85E083BF0895AEE0B1E00D911C9101
:1027F0004AE050E00E949D15AEE0B1E00D931C93BD
:10280000AEE0B1E00D911C9140E150E00E94461411
:10281000AEE0B1E04D935C93AEE0B1E08D919C9160
:10282000A1E1B1E08D939C93A1E1B1E00D911C91E8
:102830004AE050E00E944614A1E1B1E04D935C9360
:10284000EEE0F1E0A9EFB0E00E94DA17E9EFF0E086
:10285000A8E0B8E00E949818E8E0F8E0A9EFB0E03E
:102860001127222702E031E00E9403160895F89410
:10287000FFCFED91FC91EF5FFF4FFC93EE93089536
:1028800009D00E949D1500FC10D0089503D01ED0E1
:1028900001F8F9CF0024E89457FF02C009D06894EA
:1028A00000F80BD010F80124089502D009D0089543
:1028B000509540954F5F5F4F0895E89417FF089536
:1028C000009510950F5F1F4F68940895352F242FA2
:1028D000E894452B11F468940895512F402F002758
:1028E000112780E1440F551F001F111F021B130BFE
:1028F000416018F4020F131F4E7F8A9599F70895CF
:102900008F938D918823E9F711978F910895809186
:102910004D03882309F408950F929F93AF93BF93BB
:102920007F9380914D038823E1F3F89480914D03C8
:102930008A9580934D0390914B03A7EEB2E0A90FC7
:102940000024B01D8C919395943609F499279093A7
:102950004B0378947F91BF91AF919F910F90089511
:10296000A8E0B8E08D91882311F00CD0FBCF08953A
:102970000E94DD15802D11F005D0FACF08958DE06D
:1029800001D08AE05D9BFECF8CB90895A8E0B8E045
:102990008D91882311F06BD0FBCF08950E94DD1537
:1029A000802D11F064D0FACF089582E066D014D063
:1029B0000AC082E062D010D080EC5FC081E05DD0C0
:1029C0000BD080E85AC080E858D0089588EE93E094
:1029D0009AD03197D9F7089583E0992794C08AEF68
:1029E00090E00E948315D49ABC9ABB9ABA9AB99A7D
:1029F000B89AC09885E090E00E948315C198DC9851
:102A0000C498C39AC29AC19AEF93FF93E1E1F1E0AF
:102A10000E947715FF91EF91C19872D0C19AEF9300
:102A2000FF93E1E1F1E00E947715FF91EF91C198EA
:102A300067D0C19AEF93FF93E1E1F1E00E9477152F
:102A4000FF91EF91C1985CD0C298C19AEF93FF9328
:102A5000E1E1F1E00E947715FF91EF91C19850D02C
:102A600088E20BD08EE009D086E007D00895C09AA6
:102A7000829505D004D044D00895C098F9CF8595AB
:102A800010F4C29A01C0C298859510F4C39A01C08F
:102A9000C398859510F4C49A01C0C498859510F424
:102AA000DC9A01C0DC98C19AEF93FF93E1E1F1E079
:102AB0000E947715FF91EF91C1980895982F829504
:102AC0008F70805D8D939F70905D9D9388278C9310
:102AD00008954AE0082F0E94CA180295802B089595
:102AE000892F8F70905110F0865FFCCF0895319739
:102AF000F1F70895689462F80895E89462F80895EB
:102B000081E090E000C0EF93FF93EE27E82BE92BE4
:102B100031F0EDECFAE03197F1F70197D1F7FF9141
:102B2000EF91089501911191219130810895992794
:102B30005A924A92480E591E08950F92B801469F24
:102B40008001479F100D569F100D0F9008950E9411
:102B5000DD150D920020D9F7089599910027A90F4E
:102B6000B01F1197492F4A955E2F6F2FE8941127B8
:102B70004395203019F0C895802D01C080818823AD
:102B8000B9F07C917723A1F0781739F40EF0042F77
:102B90001395689411963196EBCF112321F0411BC8
:102BA000A11B1127B10BE894E52FF62F1196E0CF6A
:102BB000882311F0002708950895C89531960020C4
:102BC0000895819104D08D938823D9F70895813495
:102BD00018F08B3508F480620895813618F08B3731
:102BE00008F48F7D089591E0882321F08894991F3F
:102BF0008A95E9F7892F90950895883018F01196F5
:102C00008850FBCF08952E2E3F2E992781918D322B
:102C100009F093958823D1F79A95E22DF32D11238E
:102C200061F0091718F011F0101B01C0191B28F0F2
:102C300021F080E28D931A95E9F780818D3219F4A5
:102C40008D93319604C0222311F08BE28D930917E6
:102C500038F031F0091B21F080E38D930A95E9F7F4
:102C600081918D938823E1F7332351F0EA2FFB2FD5
:102C7000319633958E9182933A95E1F78EE28C935B
:102C800008950181082B0183128119231283EF9388
:102C9000FF93EDE0F0E00E947715FF91EF9108952A
:102CA0000E947D15FF270E94F315EBDFEF93FF9342
:102CB000EBE2F5E00E947715FF91EF91182B12835C
:102CC00009230183EF93FF93EEEBF0E00E94771569
:102CD000FF91EF911081182311F00E947A15EF9364
:102CE000FF93EAE6F4E00E947715FF91EF910895D3
:102CF0000E94F315FF2721E048E006C00E94F3156B
:102D0000FF2729915D9148E0BCDF579510F4182BFF
:102D10001283EF93FF93E2E9F0E00E947715FF91B1
:102D2000EF91182B1283EF93FF93E8E1F0E00E94FC
:102D30007715FF91EF914A9539F72A9519F708957C
:102D40000E94F315FF27299148E055279ADF0923B0
:102D50000183EF93FF93E5E1F0E00E947715FF9187
:102D6000EF9188941081182309F008945795EF93F8
:102D7000FF93E4E9F0E00E947715FF91EF914A9507
:102D800029F75D932A9501F708957BDF09230183D5
:102D9000EF93FF93E5E1F0E00E947715FF91EF914B
:102DA000E8941081182309F06894EF93FF93E4E905
:102DB000F0E00E947715FF91EF91089562DF16F41D
:102DC000182B1283EF93FF93E2E9F0E00E9477154E
:102DD000FF91EF91182B1283EF93FF93E8E1F0E05E
:102DE0000E947715FF91EF91089533273093F000FB
:102DF0003093ED0055DF0EF458C03091ED0030FDFA
:102E000054C066276093EF0063956093EE0021E065
:102E100050EF48E079DFB9DF31F9B7DF32F9632FDE
:102E20006670663009F441C0603019F031FB40D063
:102E300025C06091EE007091F0006717B1F0C0F40A
:102E40008F939F93862F8A95A1EFB0E0D6DECBDEDD
:102E50007C9178236894772329F4E8946091EE00BC
:102E60006093EF009F918F9109C0689421D006C0B4
:102E7000E8941ED06091EE006093EF009FDF6091B8
:102E8000EE0063956093EE00613409F0C4CF609169
:102E9000EF006093F0006623E89409F4689430F939
:102EA0003093ED00E89462F80895689462F808950C
:102EB0008F939F93A1EFB0E08091EE008A959DDE05
:102EC00092DE7C9116F4782B01C079237C939F913C
:102ED0008F910895AF93BF93EF93FF9338E0E1EFA5
:102EE000F0E00D9101933A95E1F7FF91EF9130E415
:102EF0003093F00033273093ED007CDF38E0BF9152
:102F0000AF91E1EFF0E00D914191041719F43A957A
:102F1000D1F708950E947A1508957F930F93AF9388
:102F2000BF938F939F938FB78F9380914D0304E648
:102F3000081B21F49CB10E947A1512C000914C0329
:102F4000A7EEB2E077279CB1A00FB71F9C938395A3
:102F500080934D030395043609F4002700934C0336
:102F60008F918FBF9F918F91BF91AF910F917F9163
:102F70001895040F151F261F371F089504171507EE
:102F8000260737070895000F111F221F331F0895CA
:102F900000951095209530950F5F1F4F2F4F3F4F95
:102FA0000895019110810FC00E9492150EC00E94D9
:102FB000921510C00191108117FF05C03FEF2FEF50
:102FC00004C0008111272227332737FF03C0E0DF29
:102FD0008DE28D93CF92DF92EF92AA24BB24CC2472
:102FE000DD24EE2440E2EAE0FF2755E093E3808110
:102FF000890F87FD9F7083FD907F891B81935A9570
:10300000A9F7C1DFAA1CBB1CCC1CDD1CEE1C4A9519
:1030100051F7E894EFE0FF2782910CD0EB30E0F716
:103020001EF068948A2D0AD088278D93EF90DF9048
:10303000CF900895982F829501D0892F8F70805D51
:1030400026F0803309F4089568948D93089500273D
:103050001127222733271DD08A3328F4803318F014
:1030600005D015D0F9CF0EF493CF089580538F93E8
:10307000402F512F622F732F86DF85DF7ADF83DFAA
:103080008F919927080F191F291F391F08958D91B6
:103090000895E894FCDF8032E9F38B32D9F389306C
:1030A000C9F38D3211F46894F2CF089541E003C062
:1030B00042E001C044E0E40F8827F81F8291982F76
:1030C000829506D0892F04D04A95C1F70C949518A3
:1030D0008F708A3008F0895F805D8D930895002796
:1030E0001127222733278D91882339F08053000F31
:1030F000111F221F331F080FF6CF08950027112735
:10310000222733278D91882379F03DDF3CDF3BDF99
:103110003ADF63DD815408F4895F865F080F8827F2
:10312000181F281F381FEECF089588278D93089504
:1031300081918D938823E1F7089594E081918D9397
:103140009A95E1F7089509919191992359F08A95FB
:10315000D9F73197002331F081918D930A95882317
:10316000C9F70895E2CFE199FECFEEBBFFBB3196E0
:10317000089591E001C092E07B3751F47FB7F89455
:10318000F2DF8D918DBBE29AE19A9A95C9F77FBFE4
:1031900077270895FF93881BF9E0001FFA9511F433
:1031A000FF910895881F841B18F4840F8894F5CF2D
:1031B0000894F3CF8FEF83959D919923E1F70895BC
:1031C000689401C0E894AF93BF938D9116F09191EC
:1031D00003C00E94DD15902D891718F011F4882383
:1031E000A1F7BF91AF910895689401C0E894222798
:1031F000102F231709F4089526F40E94DD15802D61
:1032000001C08191803081F0891741F070E08D9389
:103210001A9591F7239571E01D93EACF01D0E8CF7D
:10322000703011F077270895772331F4239588279C
:1032300013958D931A95E9F70895A198A098A998E8
:10324000A8980895A09AA19803D0A09801D0A19A17
:10325000EF93FF93EAE0F0E00E947715FF91EF9182
:103260000895A09AA19AF4DFA098989BFECFF0DF72
:10327000A198EECF0894111F01C0110F69F0A09A18
:1032800018F40000A19802C0A19A00C0E1DFA09844
:10329000989BFECFDDDFF1CFA09AA198D9DFA0984F
:1032A000989BFECFE8949999689462F8D1CF0894DE
:1032B00001C08894331F11E0A09AA198C9DFA0989B
:1032C000989BFECFC5DF889499990894111FA0F7A9
:1032D000A09A379510F4A19801C0A19AB9DFA098DF
:1032E000989BFECFB5DF08956869000041542646DB
:1032F0000000415400004154453000004154453025
:103300003F004F4B000041743F0041542B637069F4
:103310006E3F00002B4350494E3A2053494D2050F8
:10332000494E000041542B4350494E3D3132333415
:10333000000041542B434D47463D310041742B431F
:103340007573643D310041542B43534D503D31372B
:103350002C3136372C302C30000041542B43534D48
:10336000500041542B434E4D493D322C312C302CD2
:10337000302C300041542B434E4D493D0000415408
:103380002B43534D503F000041542B434E4D493F7A
:10339000000041542B434D47463F000041542B430E
:1033A0005343533D000047534D005265616479001B
:1033B00053797374656D204973204F6E6C696E6527
:1033C000204E6F7700002B303931353531393136A9
:1033D000323200003A002043202000004869205487
:1033E000656D706572657475726500002053656E59
:1033F000736F72313D2000002053656E736F72321F
:103400003D200000707265737320616E79206B65DA
:1034100079002B434D54493A00002C0041542B4372
:103420004D47523D31002B3938006F6B00006F6EF5
:10343000000072656C6179206973206F6E006F66A1
:10344000660072656C6179206973206F66660000A2
:103450006E65773100006E756D626572233120698B
:1034600073207361766564006E65773200006E7557
:103470006D62657223322069732073617665640022
:103480006E65773300006E756D6265722333206957
:10349000732073617665640064656C3100002B39BC
:1034A0003830303030303030303030006E756D2391
:1034B000312069732064656C65746564000064651F
:1034C0006C3200006E756D23322069732064656C68
:1034D00065746564000064656C3300006E756D236F
:1034E000332069732064656C6574656400006465ED
:1034F0006C6E756D7300416C6C206E756D626572DB
:1035000073205761732064656C657465640073741F
:10351000617475730000200072663132333400002C
:1035200077726F6E6720736D730072656D6F76656D
:1035300020736D73000041542B434D4744413D447B
:10354000454C2052454144006F726465723D000055
:1035500073656E736F72313D200020202743000099
:1035600073656E736F72323D20004E45543D2000EE
:10357000736861726A3D2000207269616C006E653B
:1035800077206E756D6265723D200000526573652F
:103590007420466163746F727920697320446F6E82
:1035A000650041542B434D4744413D44454C205315
:1035B000454E5400202A000041542B434D47533DB3
:1035C00000002B636D67730073656E6420736D7309
:1035D00000002B3938393135353630393633310042
:1035E00041542B4353510000424144005745414B45
:1035F00000004E6F742042616400474F4F4400004A
:103600004245535400004F46464C494E45004154F4
:10361000442A3230302A322A322A31230000303014
:103620003341000030303230000041542B434D47CD
:1036300044413D44454C20414C4C00002B0020436C
:043640000000430043
:00000001FF
