:100000000C942A000C940C10189500001895000010
:10001000189500001895000018950000189500002C
:100020001895000018950000189500000C94300DEC
:10003000189500000C948C1D189500001895000070
:1000400018950000189500001895000018950000FC
:10005000189500008FE58DBFC8E3E0E24E2E88E0E2
:100060008EBFD8E0F8E05F2EA89584B7082E877F72
:1000700084BF88E1992781BD91BDEEEFF7E0A0E64E
:10008000B0E088278D933197E9F787E489B980E05C
:1000900080BD88E18AB90E94E71A66240E94C91AC5
:1000A000EAEFFEE30E94B91AE2E0F0E00E94DE1AF5
:1000B0000E94C91AA39AA29A85E0E9E30E94F41C5F
:1000C000ABEDB0E0E1EFF0E098E00E949D1E85E02E
:1000D000E9E30E94F91CA4EEB0E0E1EFF0E098E063
:1000E0000E949D1E88E290E0A7E1B1E08D939C9371
:1000F00085E090E0A9E1B1E08D939C9381E080934D
:100100002501A49A579A789480E080934B038E98A7
:100110008D988B988C98D09AD19AD29AD39A80E065
:100120008FBD82E08EBD8EB5887F8EBD80E090E071
:100130009DBD8CBD87E085BD85E083BF789479B790
:10014000716079BF7BB770647BBF85B7836085BF03
:10015000D69A80E080932601709110017F7E709383
:100160001001709110017F7D7093100180E090E08C
:10017000AAEAB3E08D939C9370911001777F7093FE
:1001800010010E9442120091A903053018F011F0ED
:100190000C94CC000C94D10080E08093A9030E94C1
:1001A0004F12882783BF0E94F30D81E080932601C0
:1001B000009126010E3118F011F00C94EC00D89A41
:1001C0008AEF90E00E947B1BA6E2B1E08C918F5FEA
:1001D0008C9310F40C94D800D898E1E0F0E00E94E1
:1001E000DE1AEEEFFEE30E94A31A0E94AA1A0E94F2
:1001F000AB0BE4E0FFE30E94A31A0E94AA1AE4E01A
:10020000FFE30E94A31A0E94AA1A0E94AB0B0E944D
:10021000AB0BEEEFFEE30E94A31A0E94AA1A0E9403
:10022000AB0BE8E0FFE30E94A31A0E94AA1A0E9407
:10023000AB0BE4E0FFE30E94A31A0E94AA1AA8E213
:10024000B1E0BA93AA930E94050622960E94C91AA9
:10025000EEE0FFE30E94B91A0E94C71AA8E2B1E0DB
:100260000E94B31AE1E0F0E00E94DE1A0E94C91A6F
:10027000A8E2B1E0E2E1FFE30E94E91E11F00C9474
:1002800017010E94AB0BE6E1FFE30E94A31A0E9454
:10029000AA1AA8E2B1E0BA93AA930E940506229690
:1002A0000E94C91AE6E1FFE30E94B91A0E94C71A28
:1002B000A8E2B1E00E94B31AE1E0F0E00E94DE1A89
:1002C0000E94C91AA8E2B1E0E0E2FFE30E94E91E41
:1002D00011F00C947101E0E3FFE30E94A31A0E9465
:1002E000AA1A0E94AB0BEEE3FFE30E94A31A0E943E
:1002F000AA1AA8E2B1E0BA93AA930E940506229630
:100300000E94C91AEEE3FFE30E94B91A0E94C71ABD
:10031000A8E2B1E00E94B31AE1E0F0E00E94DE1A28
:100320000E94C91A84EF91E00E947B1BE8E4FFE37E
:100330000E94A31A0E94AA1AA8E2B1E0BA93AA9353
:100340000E94050622960E94C91AE8E4FFE30E9473
:10035000B91A0E94C71AA8E2B1E00E94B31AE1E0FC
:10036000F0E00E94DE1A0E94C91A0E94AB0BE2E57F
:10037000FFE30E94A31A0E94AA1AA8E2B1E0BA936E
:10038000AA930E94050622960E94C91AE6E6FFE398
:100390000E94B91A0E94C71AA8E2B1E00E94B31ADB
:1003A000E1E0F0E00E94DE1A0E94C91AEEE6FFE3E7
:1003B0000E94A31A0E94AA1AA8E2B1E0BA93AA93D3
:1003C0000E94050622960E94C91AE0E8FFE30E94F7
:1003D000B91A0E94C71AA8E2B1E00E94B31AE1E07C
:1003E000F0E00E94DE1A0E94C91A0E94AB0BEAE8F4
:1003F000FFE30E94A31A0E94AA1AA8E2B1E0BA93EE
:10040000AA930E94050622960E94C91AEAE8FFE311
:100410000E94B91A0E94C71AA8E2B1E00E94B31A5A
:10042000E1E0F0E00E94DE1A0E94C91A0E94AB0BC4
:10043000E4E9FFE30E94A31A0E94AA1AA8E2B1E02D
:10044000BA93AA930E94050622960E94C91AE4E96B
:10045000FFE30E94B91A0E94C71AA8E2B1E00E9405
:10046000B31AE1E0F0E00E94DE1A0E94C91A84EF9C
:1004700091E00E947B1B0E94AB0BEEE3FFE30E9426
:10048000A31A0E94AA1AA8E2B1E0BA93AA930E9402
:10049000050622960E94C91AEEE3FFE30E94B91AEC
:1004A0000E94C71AA8E2B1E00E94B31AE1E0F0E0AE
:1004B0000E94DE1A0E94C91AA8E2B1E0E2E1FFE35D
:1004C0000E94E91E11F00C943B02EEE9FFE30E944A
:1004D000A31A0E94AA1A84E690E00E947B1BA8E25D
:1004E000B1E0BA93AA930E94050622960E94C91A07
:1004F000EEE9FFE30E94B91A0E94C71AA8E2B1E030
:100500000E94B31AE1E0F0E00E94DE1A0E94C91ACC
:100510000E94AB0BE8EAFFE30E94A31A82E20E946A
:10052000AD1AE2EBFFE30E94A31A82E20E94AD1A29
:100530000E94AA1AA8E2B1E0BA93AA930E94050603
:1005400022960E94C91AE8EAFFE30E94B91A0E94A3
:10055000C71AA8E2B1E00E94B31AE1E0F0E00E94FD
:10056000DE1A0E94C91A0E94140F84EF91E00E94C3
:100570007B1BA8E2B1E0E2E1FFE30E94E91E11F07B
:100580000C94B30281E0809326010091260104318E
:1005900018F011F00C94DC028BB391E089278BBB2F
:1005A00084E690E00E947B1BA6E2B1E08C918F5F15
:1005B0008C9310F40C94C502DA9A88EC90E00E94B7
:1005C0007B1BDA98E6EBFFE30E94B91AE2E0F0E069
:1005D0000E94DE1A0E94C91AE5E2F1E0A8E0B8E044
:1005E0000E94E01D0E94B11A709110017064709316
:1005F000100185E083BFA4E9B1E088278C93A4E9CA
:10060000B1E0ECEBFFE30E94A61BA1E2B2E0E2ED59
:10061000FFE30E94A61B0E94B70BA4E9B1E0ECEB3C
:10062000FFE30E94A61B0E94720C84EF91E00E94DF
:100630007B1B0E94AB0B0E94C91A82E08EBD009109
:100640002501013011F00C9427030E945D104091A8
:10065000C6000091C900041711F40C94CF04009156
:10066000C600063111F00C9437030E94FA0DE8EC35
:10067000F0E0A5EDB0E00E94E01DE7ECF0E0A2EDB7
:10068000B0E00E94E01DE6ECF0E0A8EDB0E00E94D2
:10069000E01D0091C60042E00E94D31EAAECB0E02B
:1006A0008C93E5EDF0E0A8E0B8E00E94971EE8E04A
:1006B000F8E0A5EDB0E01127222702E033270E94E1
:1006C000021CE2EDF0E0A8E0B8E00E94971EE8E02E
:1006D000F8E0A2EDB0E01127222702E033270E94C4
:1006E000021CE8EDF0E0A8E0B8E00E94971EE8E008
:1006F000F8E0A8EDB0E01127222702E033270E949E
:10070000021CE5EDF0E0ACE1B1E00E94971EACE127
:10071000B1E00E946B1AE0EEFFE30E94A61BE2ED3F
:10072000F0E0ACE1B1E00E946B1A0E94971EACE1D0
:10073000B1E00E946B1AE0EEFFE30E94A61BE8ED19
:10074000F0E0ACE1B1E00E946B1A0E94971EE5ED6B
:10075000F0E0ABECB0E00E94971EE2EDF0E0ABEC15
:10076000B0E00E946B1A0E94971E0E94C01AACE172
:10077000B1E00E94B31A0091C60045E00E94D31E6A
:10078000A6E2B1E08C9300912601003011F00C94A8
:10079000CB030E94C818A7E1B1E04D915C91A3E1A1
:1007A000B1E00D911C910417150780E00CF481E075
:1007B0008F93A7E1B1E04D915C91A5E1B1E00D917E
:1007C0001C910417150780E00CF481E09F91892BA0
:1007D000882311F40C94EF0380E080931B01A7E1C0
:1007E000B1E04D915C91A3E1B1E00D911C91041732
:1007F000150780E014F009F081E08F93A7E1B1E0E4
:100800004D915C91A5E1B1E00D911C910417150784
:1008100080E014F009F081E09F91892B882311F486
:100820000C947604ABE1B1E08C918F5F8C930091D6
:100830001B010E3118F011F00C9420040C94760476
:10084000A4E9B1E0E2EEFFE30E94A61BA4E9B1E057
:100850000E946B1AE2EFFFE30E94A61BE3E1F1E0C6
:10086000A4E9B1E00E946B1A0E94D91DA4E9B1E08D
:100870000E946B1AEEEFFFE30E94A61BE5E1F1E098
:10088000A4E9B1E00E946B1A0E94D91DD898D998AA
:10089000DA980E94720C0E94C91AEAE0F0E40E9401
:1008A000B91AA0E3B0E00C9105FB81E00EF480E002
:1008B0008F93A0E3B0E00C9103FB81E00EF480E0A5
:1008C0009F91892B8F93A0E3B0E00C9104FB81E012
:1008D0000EF480E09F91892B882311F40C9472040C
:1008E0000C9474040C9451040E94C91A0E94C71AF3
:1008F000A0E0B1E00E94B31AE8E1F0E40E94B91A66
:10090000A7E0B1E00E94B31AEAE1F0E40E94B91A4C
:100910008FEB1CE00E94D81AABECB0E00E94B31A37
:10092000EAE1F0E40E94B91A8091C6008093C90000
:10093000882783BFA8E2B1E0BA93AA930E94050674
:100940002296A8E2B1E0E0EEFFE32FEF91E00E94F3
:10095000B11BA6E2B1E00C9300912601003018F023
:1009600011F00C94B5040C94CD04E8E2F1E0009190
:100970002601ADE8B1E00E94A91EADE8B1E0EEE1CC
:10098000F0E40E94E91E11F00C94CD04A8E2B1E05D
:10099000BA93AA930E946F06229685E083BF859939
:1009A0000C940A05882783BFD99A80E0809326019A
:1009B00089E190E00E947B1BA6E2B1E08C918F5F01
:1009C0008C9300912601083280E010F009F081E05C
:1009D0008F93A0E3B0E00C9105FB81E00EF080E086
:1009E0009F91892B882311F40C94F8040C94FB0438
:1009F000859B0C94D80400912601083218F011F060
:100A00000C9404050C9408050E94260F0C940A050A
:100A10000E94640FD998A0E3B0E00C9103FB81E041
:100A20000EF480E08F93A0E3B0E00C9104FB81E032
:100A30000EF480E09F91892B882311F40C94010619
:100A4000882783BF83990C943A0584E893E00E9439
:100A50007B1BA7ECB0E08C918F5F8C930091C7005B
:100A60000B3318F011F00C9437050C943A0580E024
:100A70008093C70084990C94520584E893E00E9407
:100A80007B1BA8ECB0E08C918F5F8C930091C80029
:100A9000073118F011F00C944F050C94520580E0CA
:100AA0008093C800E8ECF0E0A5EDB0E00E94E01D06
:100AB000E7ECF0E0A2EDB0E00E94E01DE6ECF0E033
:100AC000A8EDB0E00E94E01D0091C60042E00E9447
:100AD000D31EAAECB0E08C93E5EDF0E0A8E0B8E01E
:100AE0000E94971EE8E0F8E0A5EDB0E0112722276C
:100AF00002E033270E94021CE2EDF0E0A8E0B8E03B
:100B00000E94971EE8E0F8E0A2EDB0E0112722274E
:100B100002E033270E94021CE8EDF0E0A8E0B8E014
:100B20000E94971EE8E0F8E0A8EDB0E01127222728
:100B300002E033270E94021CE5EDF0E0ACE1B1E0F9
:100B40000E94971EACE1B1E00E946B1AE0EEFFE359
:100B50000E94A61BE2EDF0E0ACE1B1E00E946B1A4E
:100B60000E94971EACE1B1E00E946B1AE0EEFFE339
:100B70000E94A61BE8EDF0E0ACE1B1E00E946B1A28
:100B80000E94971EE5EDF0E0ABECB0E00E94971EEE
:100B9000E2EDF0E0ABECB0E00E946B1A0E94971E11
:100BA0000E94C01AACE1B1E00E94B31A0E94C71AB9
:100BB000A0E0B1E00E94B31AE6E2F0E40E94B91AA4
:100BC0000E941315A0E3B0E00C9103FB81E00EF04E
:100BD00080E08F93A0E3B0E00C9104FB81E00EF085
:100BE00080E09F918923882311F40C94F9050C94DB
:100BF000FB050C9422050E946518E2E0F0E00E94DB
:100C0000DE1A85E083BF0C941F0381E00E94961BCF
:100C1000AA81BB8188278C9380E0A881B9818C93BD
:100C20000E94721AA7E2B1E08C9300912701003074
:100C300018F011F00C941E060C94220680E0A88196
:100C4000B9818C9300912701003011F00C942A0691
:100C50000C9452060D3011F00C943906AA81BB8118
:100C60008C91803011F40C9437060C9469060C9426
:100C700052060A3011F00C944806AA81BB818C916F
:100C8000803011F40C9446060C9469060C945206BC
:100C9000A7E2B1E08C91AA81BB810E946B1A8D936F
:100CA00088278C9381E090E00E947B1BA881B9810A
:100CB0008C918F5F8C93A881B9810C91043618F0C8
:100CC00011F00C9465060C9467060C9469060C945C
:100CD000100681E0481A80E0580A22960895A881FB
:100CE000B981ECE2F0E42FEF91E00E94B11BA6E2A3
:100CF000B1E00C93A6E2B1E08C918F5F8C93809170
:100D00002601E881F9810FEF0A93ADE8B1E00E9476
:100D1000A21EEEE2F0E40E94A31A0E94AA1AA8E220
:100D2000B1E0BA93AA930E9405062296A881B981E0
:100D3000E8E3F0E42FEF91E00E94B11BA6E2B1E0FE
:100D40000C93009126014AE0040FABE4B3E00C934E
:100D500080912601E881F98100914B030A93A1E279
:100D6000B2E00E94A21EE1E2F2E092E20EE135E082
:100D7000ADE3B2E00E94FF1EA3EEB2E02C93EDE3E0
:100D8000F2E0A1E2B2E00E94971E0E94C71A0E9400
:100D9000C91AA1E2B2E00E94B31AE5E0F0E00E94B5
:100DA000DE1A0E94C91AA1E3B2E088278C93A8E258
:100DB000B1E0BA93AA930E940506229686E60E94A5
:100DC000961BE8E2F1E0A881B9810E94E01BA881AE
:100DD000B981ECE3F0E40E94E91E0FB686E6481AFA
:100DE00080E0580A22960FBE11F00C94FB060C947A
:100DF000120A0C94100A86E60E94961BE8E2F1E0C3
:100E0000A881B9810E94E01BA881B981E0E4F0E4E7
:100E10000E94E91E0FB686E6481A80E0580A22961C
:100E20000FBE11F00C942307DA9AA4E9B1E0E4E4D0
:100E3000F0E40E94A61BE8E2F1E0A1E3B2E00E9428
:100E4000E01B0C94100A86E60E94961BE8E2F1E093
:100E5000A881B9810E94E01BA881B981E0E5F0E496
:100E60000E94E91E0FB686E6481A80E0580A2296CC
:100E70000FBE11F00C944B07E8E2F1E0A1E3B2E001
:100E80000E94E01BDA98A4E9B1E0E4E5F0E40E94F6
:100E9000A61B0C94100A86E60E94961BE8E2F1E07D
:100EA000A881B9810E94E01BA881B981E2E6F0E443
:100EB0000E94E91E0FB686E6481A80E0580A22967C
:100EC0000FBE11F00C947A0789E190E0ACEAB3E030
:100ED0008D939C930E94D217A4E9B1E0E8E6F0E478
:100EE0000E94A61BE8E2F1E0A1E3B2E00E94E01B51
:100EF0000C94100A86E60E94961BE8E2F1E0A881B5
:100F0000B9810E94E01BA881B981EAE7F0E40E9460
:100F1000E91E0FB686E6481A80E0580A22960FBEF0
:100F200011F00C94A907E8E2F1E0A1E3B2E00E941D
:100F3000E01B80E290E0ACEAB3E08D939C930E94CA
:100F4000D217A4E9B1E0E0E8F0E40E94A61B0C94FB
:100F5000100A86E60E94961BE8E2F1E0A881B981BA
:100F60000E94E01BA881B981E2E9F0E40E94E91E39
:100F70000FB686E6481A80E0580A22960FBE11F096
:100F80000C94D807E8E2F1E0A1E3B2E00E94E01B94
:100F900087E290E0ACEAB3E08D939C930E94D21775
:100FA000A4E9B1E0E8E9F0E40E94A61B0C94100A61
:100FB00086E60E94961BE8E2F1E0A881B9810E94D2
:100FC000E01BA881B981EAEAF0E40E94E91E0FB6AD
:100FD00086E6481A80E0580A22960FBE11F00C945B
:100FE0000D08E8E2F1E0A1E3B2E00E94E01BA1E21B
:100FF000B2E0E0EBF0E40E94A61B89E190E0ACEAED
:10100000B3E08D939C930E94D217A4E9B1E0EEEB7C
:10101000F0E40E94A61B0C94100A86E60E94961B20
:10102000E8E2F1E0A881B9810E94E01BA881B981C2
:10103000E0EDF0E40E94E91E0FB686E6481A80E073
:10104000580A22960FBE11F00C944208E8E2F1E033
:10105000A1E3B2E00E94E01BA1E2B2E0E0EBF0E429
:101060000E94A61B80E290E0ACEAB3E08D939C93D3
:101070000E94D217A4E9B1E0E6EDF0E40E94A61BBD
:101080000C94100A86E60E94961BE8E2F1E0A88123
:10109000B9810E94E01BA881B981E8EEF0E40E94CA
:1010A000E91E0FB686E6481A80E0580A22960FBE5F
:1010B00011F00C947708E8E2F1E0A1E3B2E00E94BD
:1010C000E01BA1E2B2E0E0EBF0E40E94A61B87E2A5
:1010D00090E0ACEAB3E08D939C930E94D217A4E910
:1010E000B1E0EEEEF0E40E94A61B0C94100A86E636
:1010F0000E94961BE8E2F1E0A881B9810E94E01B02
:10110000A881B981E0E0F1E40E94E91E0FB686E60D
:10111000481A80E0580A22960FBE11F00C94C808B5
:10112000E8E2F1E0A1E3B2E00E94E01BA1E2B2E05C
:10113000E0EBF0E40E94A61B89E190E0ACEAB3E0AA
:101140008D939C930E94D217A1E2B2E0E0EBF0E411
:101150000E94A61B80E290E0ACEAB3E08D939C93E2
:101160000E94D217A1E2B2E0E0EBF0E40E94A61BDD
:1011700087E290E0ACEAB3E08D939C930E94D21793
:10118000A4E9B1E0E8E0F1E40E94A61B0C94100A87
:1011900086E60E94961BE8E2F1E0A881B9810E94F0
:1011A000E01BA881B981E0E2F1E40E94E91E0FB6DC
:1011B00086E6481A80E0580A22960FBE11F00C9479
:1011C0003509E8E2F1E0A1E3B2E00E94E01BA4E906
:1011D000B1E0E8E1F0E40E94A61B89E190E0ACEA0E
:1011E000B3E08D939C930E942418E2ECF3E0A4E911
:1011F000B1E00E94971E8AE0A4E9B1E00E946B1A58
:101200008D9388278C9380E290E0ACEAB3E08D93D5
:101210009C930E942418E2ECF3E0A4E9B1E00E9460
:101220006B1A0E94971E8AE0A4E9B1E00E946B1A33
:101230008D9388278C9387E290E0ACEAB3E08D939E
:101240009C930E942418E2ECF3E0A4E9B1E00E9430
:101250006B1A0E94971E8AE0A4E9B1E00E946B1A03
:101260008D9388278C930C94100A86E60E94961B17
:10127000E8E2F1E0A881B9810E94E01BA881B98170
:10128000E8E2F1E40E94E91E0FB686E6481A80E023
:10129000580A22960FBE11F00C949409E8E2F1E08E
:1012A000A1E3B2E00E94E01B8FEF80933C02E0E0FC
:1012B000F0E0ACE3B2E07BE70E94C21E8AE090E07F
:1012C0000E947B1BA1E2B2E0E0EBF0E40E94A61BCF
:1012D00089E190E0ACEAB3E08D939C930E94D21731
:1012E000A1E2B2E0E0EBF0E40E94A61B80E290E015
:1012F000ACEAB3E08D939C930E94D217A1E2B2E0D6
:10130000E0EBF0E40E94A61B87E290E0ACEAB3E0D9
:101310008D939C930E94D217A4E9B1E0E8E0F1E438
:101320000E94A61B0C94100A86E60E94961BE8E217
:10133000F1E0A881B9810E94E01BA881B981E0E3B6
:10134000F1E40E94E91E0FB686E6481A80E0580ACA
:1013500022960FBE11F00C94D109E8E2F1E0A1E36E
:10136000B2E00E94E01BA1E2B2E0E8E3F1E40E94F7
:10137000E91E11F00C94BF0981E080932501A4E9D6
:10138000B1E0E6E4F1E40E94A61B82E390E0ACEA5F
:10139000B3E08D939C93809125018093AF030C94CF
:1013A000100A86E60E94961BE8E2F1E0A881B98166
:1013B0000E94E01BA881B981ECE5F1E40E94E91EDE
:1013C0000FB686E6481A80E0580A22960FBE11F042
:1013D0000C940A0AE8E2F1E0A1E3B2E00E94E01B0B
:1013E000A1E2B2E0E8E3F1E40E94E91E11F00C94FE
:1013F000FC0980E080932501A4E9B1E0E6E6F1E490
:101400000E94A61B82E390E0ACEAB3E08D939C932C
:101410000C94100AA4E9B1E0EEE7F1E40E94A61BE7
:101420000C94D7060E94C41AE8E8F1E40E94B91AA5
:10143000E1E0F0E00E94DE1A0E94C91AE4E9F1E45A
:101440000E94A31A0E94AA1A84E190E00E947B1BCA
:10145000A8E2B1E0BA93AA930E9405062296A6E2FA
:10146000B1E08C918F5F8C93009126010A3011F0CE
:101470000C943C0A0C94550A86E60E94961BE8E2FE
:10148000F1E0A881B9810E94E01BA881B981ECE359
:10149000F0E40E94E91E0FB686E6481A80E0580A7A
:1014A00022960FBE11F00C941E0A0E94C91AE6EA99
:1014B000F1E40E94B91A0E94C71AA1E3B2E00E94A7
:1014C000B31AE5E0F0E00E94DE1A0E94C91AA1E317
:1014D000B2E0E0E4F0E40E94E91E81E009F080E07F
:1014E0008F93A1E3B2E0E0E5F0E40E94E91E81E021
:1014F00009F080E09F91892B882311F40C949F0AB6
:10150000D89A81E080932601009126010A3018F0D4
:1015100011F00C949B0A8BB391E089278BBB88EC6C
:1015200090E00E947B1BA6E2B1E08C918F5F8C93D0
:1015300010F40C94840A0E94B70B0C942A0BA1E3BC
:10154000B2E0E0E2F1E40E94E91E11F00C942A0BF3
:101550008AE0A4E9B1E00E946B1A8D9388278C93EE
:10156000A4E9B1E00E946B1AEEEAF1E40E94A61B26
:10157000E0E0F1E0A4E9B1E00E946B1A0E94971E3E
:10158000A4E9B1E00E946B1AE8EBF1E40E94A61B0B
:101590008AE0A4E9B1E00E946B1A8D9388278C93AE
:1015A000A4E9B1E00E946B1AEEEBF1E40E94A61BE5
:1015B000E7E0F1E0A4E9B1E00E946B1A0E94971EF7
:1015C000A4E9B1E00E946B1AE8EBF1E40E94A61BCB
:1015D0008AE0A4E9B1E00E946B1A8D9388278C936E
:1015E000A4E9B1E00E946B1AE8ECF1E40E94A61BAA
:1015F000E8EDF2E0A4E9B1E00E946B1A0E94971EA8
:101600008AE0A4E9B1E00E946B1A8D9388278C933D
:10161000A4E9B1E00E946B1AEEECF1E40E94A61B73
:10162000E1E6F0E0A4E9B1E00E946B1A0E94971E87
:10163000A4E9B1E00E946B1AE6EDF1E40E94A61B5A
:101640008AE0A4E9B1E00E946B1A8D9388278C93FD
:101650000E94B70BA1E3B2E0E2E6F0E40E94E91ECB
:1016600081E009F080E08F93A1E3B2E0EAE7F0E4E3
:101670000E94E91E81E009F080E09F91892B8F9301
:10168000A1E3B2E0E2E9F0E40E94E91E81E009F0A2
:1016900080E09F91892B882311F40C946B0BA4E9B3
:1016A000B1E088278C93A4E9B1E0ECEDF1E40E946D
:1016B000A61B8AE0A4E9B1E00E946B1A8D938827EB
:1016C0008C93E1E2F2E0A4E9B1E00E946B1A0E947F
:1016D000971E0E94720CA1E3B2E0E8E2F1E40E94DE
:1016E000E91E11F00C94880BA4E9B1E088278C93D3
:1016F000A4E9B1E0EAEEF1E40E94A61BE1E2F2E027
:10170000A4E9B1E00E946B1A0E94971E0E94720C1D
:10171000A1E3B2E0E0E3F1E40E94E91E11F00C94D1
:10172000950B0E94720C0E941812A1E3B2E0ECE546
:10173000F1E40E94E91E11F00C94A60B0E94720CB9
:101740000E942C128091AE0380932501A1E3B2E0A8
:1017500088278C9308950E94721AA7E2B1E08C93B7
:1017600000912701003011F00C94AB0B08958827ED
:1017700083BFA4E9B1E00E946B1AE0E0F2E40E94AA
:10178000A61BE8E0F4E0A4E9B1E00E946B1A0E9415
:10179000E01D81E080932601009126010A3018F0B7
:1017A00011F00C94660CE4E0F2E40E94A31A82E2C9
:1017B0000E94AD1AA1E2B2E00E949D1A82E20E944C
:1017C000AD1A0E94AA1A8AEF90E00E947B1BA4E93E
:1017D000B1E00E949D1A8AE10E94AD1A0E94AA1AE5
:1017E000E1E0F0E00E94DE1A80E080934B03A8E283
:1017F000B1E0BA93AA930E940506229686E60E945B
:10180000961BE8E2F1E0A881B9810E94E01BA88163
:10181000B981ECE3F0E40E94E91E0FB686E6481AAF
:1018200080E0580A22960FBE11F00C94190C0C940B
:10183000430C84EF91E00E947B1BABE4B3E08C91FE
:101840008F5F8C9300914B030A3011F00C942A0C9B
:101850000C94430C86E60E94961BE8E2F1E0A88116
:10186000B9810E94E01BA881B981ECE3F0E40E94F9
:10187000E91E0FB686E6481A80E0580A22960FBE87
:1018800011F00C94F70B86E60E94961BE8E2F1E05B
:10189000A881B9810E94E01BA881B981ECE3F0E442
:1018A0000E94E91E0FB686E6481A80E0580A229682
:1018B0000FBE11F00C945E0C0C94660CA6E2B1E025
:1018C0008C918F5F8C9310F40C94CC0BA8E0B4E057
:1018D0008C918F5F8C930E94850EA4E9B1E08827DC
:1018E0008C930895882783BF0E94C91AEEE0F2E422
:1018F0000E94B91A0E94C71AA1E2B2E00E94B31A6C
:10190000E3E0F0E00E94DE1A0E94C91AA4E9B1E007
:101910000E94B31AE2E0F0E00E94DE1A81E08093B8
:101920002601009126010A3018F011F00C942B0DBD
:10193000E4E0F2E40E94A31A82E20E94AD1AE8E316
:10194000F1E40E94A31A82E20E94AD1A0E94AA1A30
:101950008AEF90E00E947B1BA4E9B1E00E949D1AEF
:101960008AE10E94AD1A0E94AA1AE1E0F0E00E940A
:10197000DE1A80E080934B03A8E2B1E0BA93AA9309
:101980000E940506229686E60E94961BE8E2F1E098
:10199000A881B9810E94E01BA881B981ECE3F0E441
:1019A0000E94E91E0FB686E6481A80E0580A229681
:1019B0000FBE11F00C94DE0C0C94080D84EF91E036
:1019C0000E947B1BABE4B3E08C918F5F8C93009102
:1019D0004B030A3011F00C94EF0C0C94080D86E6C2
:1019E0000E94961BE8E2F1E0A881B9810E94E01B09
:1019F000A881B981ECE3F0E40E94E91E0FB686E607
:101A0000481A80E0580A22960FBE11F00C94BC0CC4
:101A100086E60E94961BE8E2F1E0A881B9810E9467
:101A2000E01BA881B981ECE3F0E40E94E91E0FB647
:101A300086E6481A80E0580A22960FBE11F00C94F0
:101A4000230D0C942B0DA6E2B1E08C918F5F8C934B
:101A500010F40C94910C0E94850E85E083BF0895CC
:101A60000F921F922F923F924F925F927F92AF926E
:101A7000BF920F931F932F933F934F935F936F9357
:101A80007F938F939F93AF93BF93CF93DF93EF9306
:101A9000FF938FB78F93882783BFADE4B3E00E9495
:101AA000241AA0E1B1E08C9186FB81E00EF080E089
:101AB0008F93009150030A3081E008F080E09F91FD
:101AC0008923882311F40C946A0DA0E5B3E08C916E
:101AD0008F5F8C9300915003053011F00C94BA0D78
:101AE0007BB77F7B7BBF0E944513D898DB98D99842
:101AF000DA9889E190E0ACEAB3E08D939C930E9480
:101B00002418E2ECF3E0A1E2B2E00E94971EA4E9FF
:101B1000B1E0E8E1F2E40E94A61B0E94B70B0E942C
:101B2000C91AEAE0F0E40E94B91AA0E3B0E00C910F
:101B300005FB81E00EF480E08F93A0E3B0E00C9110
:101B400003FB81E00EF480E09F91892B8F93A0E34B
:101B5000B0E00C9104FB81E00EF480E09F91892BB2
:101B6000882311F40C94B60D0C94B80D0C94950DBB
:101B70000E94C91AADE4B3E00D911C91043150E00C
:101B8000150718F011F00C94C70D0C94D30D80E0DC
:101B900090E0ADE4B3E08D939C938BB391E0892703
:101BA0008BBB0E94941870E072BF85E083BF8F9159
:101BB0008FBFFF91EF91DF91CF91BF91AF919F9137
:101BC0008F917F916F915F914F913F912F911F91D5
:101BD0000F91BF90AF907F905F904F903F902F906C
:101BE0001F900F901895AC98E1E0F0E00E94DE1A8B
:101BF000AC9A08950E94AB0BE6E2F2E40E94A31AAD
:101C00000E94AA1AA8E2B1E0BA93AA930E9405061C
:101C10002296E8E2F1E090E20EE135E0ADE3B2E0D9
:101C20000E94FF1EA3EEB2E02C93ACE5B2E00E944E
:101C3000261EA0E6B0E00C9300916000003011F089
:101C40000C942A0EA8EDB2E0EEE2F2E40E94A61B8C
:101C50000C94840E013011F00C94360EA8EDB2E015
:101C6000E2E3F2E40E94A61B0C94840E0091600053
:101C7000023081E008F480E08F93009160000F3023
:101C800081E010F009F080E09F918923882311F40E
:101C90000C94520EA8EDB2E0E8E3F2E40E94A61B19
:101CA0000C94840E00916000003181E008F480E023
:101CB0008F93009160000E3181E010F009F080E018
:101CC0009F918923882311F40C946E0EA8EDB2E045
:101CD000E0E4F2E40E94A61B0C94840E0F3111F094
:101CE0000C947A0EA8EDB2E0E6E4F2E40E94A61BA2
:101CF0000C94840E033611F00C94840EA8EDB2E01F
:101D0000ECE4F2E40E94A61B0895E4E5F2E40E94EC
:101D1000A31A0E94AA1AE5E0F0E00E94DE1AA8E2E7
:101D2000B1E0BA93AA930E9405062296A8E2B1E018
:101D3000BA93AA930E9405062296A8E2B1E0BA934C
:101D4000AA930E9405062296A4E9B1E088278C9305
:101D5000A8E2B1E0EEE5F2E42FEF91E00E94B11BC2
:101D6000AFE2B2E00C93AFE2B2E08C918C5F8C9367
:101D7000A8E2B1E0E4E6F2E42FEF91E00E94B11BAB
:101D8000A0E3B2E00C930091300240912F02041BBB
:101D9000A0E3B2E00C9380912F02E8E2F1E0009121
:101DA00030020A93A4E9B1E00E94A21EA4E9B1E0C6
:101DB0000E94E31EAFE2B2E08C93A1E6B0E0882778
:101DC0008C9384E08093260140912F02009126019C
:101DD000041718F011F00C94010F80912601E4E92A
:101DE000F1E001E00A93A1E6B0E00E946B1A0E94C4
:101DF000A21EA6E2B1E08C918C5F8C9310F40C943F
:101E0000E40E0E94C91AA4E9B1E00E94B31A0E942C
:101E1000C71AA1E6B0E00E94B31AE5E0F0E00E9424
:101E2000DE1A0E94C91A08950E94AB0BEAE6F2E49A
:101E30000E94A31A0E94AA1A08950E94AB0BE4E91B
:101E4000F1E40E94A31A0E94AA1A089580E08093E8
:101E5000A9030E944F1280E090E0ACEAB3E08D93BA
:101E60009C93ACEAB3E00D911C91043650E0150749
:101E700018F011F00C94480F80E08093AF030E949B
:101E80001812ACEAB3E00E94241A10F40C94310F3B
:101E9000D99881E08093260100912601003118F045
:101EA00011F00C94630F8BB391E089278BBB8AEF01
:101EB00090E00E947B1BA6E2B1E08C918F5F8C9337
:101EC00010F40C944C0F08950E945D10A0E1B1E055
:101ED0008C9185FB16F00C9409100091A903003039
:101EE00011F00C948C0FA9EAB3E08C918F5F8C9366
:101EF0000E944F12A0EAB3E00D911D912D913C91EB
:101F0000A5EAB3E00D931D932D933C930E945C12C0
:101F10000C940B100C9407108AE090E0ACEAB3E04C
:101F20008D939C9381E0809326014091A9030091B9
:101F30002601041718F011F00C94D70F0E94A71275
:101F4000A0EAB3E04D915D916D917C91A5EAB3E07B
:101F50000D911D912D913C910E94BD1D11F00C948D
:101F6000C00FD99AE1E0F0E00E94DE1AD998709192
:101F700010017061709310010C94D70F0C94C50F71
:101F8000709110017F7E70931001ACEAB3E00D9167
:101F90001C910F5F1F4FACEAB3E00D931C93A6E2B8
:101FA000B1E08C918F5F8C9310F40C94950FA0E1AD
:101FB000B1E08C9184FB16F40C940710A9EAB3E00D
:101FC0008C918F5F8C930091A903053018F011F06C
:101FD0000C94EC0F0C94F70F85E08093A903D99A29
:101FE000E5E0F0E00E94DE1AD9980C9407100E94F8
:101FF0004F12A0EAB3E00D911D912D913C91A5EAFD
:10200000B3E00D931D932D933C930E945C120C94AE
:102010000B100C94640F08950F921F922F923F9211
:102020004F925F927F92AF92BF920F931F932F9325
:102030003F934F935F936F937F938F939F93AF9350
:10204000BF93CF93DF93EF93FF938FB78F9380E08E
:1020500090E09DBD8CBDDE98AFE4B3E08C918F5FC6
:102060008C9380E08093500300914F03023311F072
:102070000C9441108BB398E089278BBB80E0809350
:102080004F038F918FBFFF91EF91DF91CF91BF9160
:10209000AF919F918F917F916F915F914F913F9100
:1020A0002F911F910F91BF90AF907F905F904F90B5
:1020B0003F902F901F900F901895709110017F7D89
:1020C00070931001869B0C94B91186990C946A1038
:1020D0000C946C100C94651070E074BD87E085BDA5
:1020E00086990C9475100C947010882785BD04B5E2
:1020F0000C3481E008F480E08F9304B5093B81E063
:1021000010F009F080E09F918923882311F40C944A
:10211000B911869B0C94AA1070E074BD87E085BD50
:10212000869B0C9495100C949010882785BDA6E290
:10213000B1E08C918F5F8C9384B5A6E2B1E0AD9055
:10214000BB24A4E5B3E0AA0CBB1CAA0DBB1D8D9358
:1021500088278C9300912601083111F00C94B2105D
:102160000C94B4100C94891081E0809326010091A6
:102170002601083118F011F00C945411A6E2B1E0D8
:10218000AD90BB24A4E5B3E0AA0CBB1CAA0DBB1DFB
:102190000D911C91033050E0150781E008F480E0B8
:1021A0008F93A6E2B1E0AD90BB24A4E5B3E0AA0C06
:1021B000BB1CAA0DBB1D0D911C91083050E01507EA
:1021C00081E010F009F080E09F918923882311F4C9
:1021D0000C94FA1080E090E0A6E2B1E0AD90BB2450
:1021E000A4E5B3E0AA0CBB1CAA0DBB1D8D939C9368
:1021F0000C944C11A6E2B1E0AD90BB24A4E5B3E091
:10220000AA0CBB1CAA0DBB1D0D911C91093050E0FE
:10221000150781E008F480E08F93A6E2B1E0AD906D
:10222000BB24A4E5B3E0AA0CBB1CAA0DBB1D0D91F9
:102230001C91033150E0150781E010F009F080E0B7
:102240009F918923882311F40C94361181E090E04A
:10225000A6E2B1E0AD90BB24A4E5B3E0AA0CBB1CA0
:10226000AA0DBB1D8D939C930C944C1180E0809320
:10227000260100E010E020E030E0A0EAB3E00D939A
:102280001D932D933C9380E08093A40370911001E3
:102290007F7D709310010895A6E2B1E08C918F5F6D
:1022A0008C9310F40C94B71080E080932601A6E87C
:1022B000B3E088278C93ABE9B3E088278C9381E067
:1022C0008093260100912601043118F011F00C943E
:1022D0008111E6E2F1E0A190BB24E4E5F3E0AA0C71
:1022E000BB1CEA0DFB1DA6E8B3E00E946B1A0E941E
:1022F000D01DA6E2B1E08C918F5F8C9310F40C940A
:10230000621185E18093260100912601083118F0C1
:1023100011F00C94A311E6E2F1E0A190BB24E4E5F6
:10232000F3E0AA0CBB1CEA0DFB1DABE9B3E00E9475
:102330006B1A0E94D01DA6E2B1E08C918F5F8C9346
:1023400010F40C948411A6E8B3E00E946E1EA0EA7B
:10235000B3E00D931D932D933D93ABE9B3E00E9441
:102360006E1EA4EAB3E00C930E94BA1180E0809341
:102370002601089570911001706270931001A0E120
:10238000B1E08C9183FB16F40C94FF118AE090E08D
:10239000ACEAB3E08D939C9381E080932601009199
:1023A0002601053018F011F00C94FF110E94A712BD
:1023B000A0EAB3E04D915D916D917C91A5EAB3E007
:1023C0000D911D912D913C910E94BD1D11F00C9419
:1023D000ED110E9405120C94FF11ACEAB3E00D91CF
:1023E0001C910F5F1F4FACEAB3E00D931C93A6E264
:1023F000B1E08C918F5F8C9310F40C94CF1170919D
:102400001001777F7093100108950E94C91AE4EAC1
:10241000F3E0A8E0B8E00E94E01D0E94B11AE3E0FA
:10242000F0E00E94DE1A0E94C91A85E083BF089579
:102430000E942B1F10EA0E94431F1091AC030E94C0
:10244000431F1091AF030E94431F0E943A1F8AE06E
:1024500090E00E947B1B08950E942B1F10EA0E94AF
:10246000431F1091AC030E94431F0E942B1F11EACF
:102470000E94431F0E94601FAEEAB3E01C930E94BB
:102480003A1F089581E090E0ACEAB3E08D939C930D
:102490000E942C128091AE038093A903089581E0DD
:1024A00090E0ACEAB3E08D939C938091A903809374
:1024B000AF030E9418120895A0EBB3E088278C9315
:1024C000E5EAF3E0A0EBB3E00E94591E83E0E0EB05
:1024D000F3E002E00A93A9EBB3E00E94A21E85E0BC
:1024E000E0EBF3E002E00A93ACEBB3E00E94A21E43
:1024F00087E0E0EBF3E002E00A93AFEBB3E00E9489
:10250000A21E0E94EE12A9EBB3E00E947D1EAFEA6C
:10251000B3E00C930E941812ACEAB3E00E94241AB4
:10252000ACEBB3E00E947D1EAFEAB3E00C930E94D7
:102530001812ACEAB3E00E94241AAFEBB3E00E9499
:102540007D1EAFEAB3E00C930E94181208950E941A
:102550002C12EEEAF3E0A9EBB3E00E94551EACEAC0
:10256000B3E00E94241A0E942C12EEEAF3E0ACEBD6
:10257000B3E00E94551EACEAB3E00E94241A0E9408
:102580002C12EEEAF3E0AFEBB3E00E94551EA0EB95
:10259000B3E088278C93E9EBF3E0A0EBB3E00E9473
:1025A0006B1A0E94971EECEBF3E0A0EBB3E00E94E5
:1025B0006B1A0E94971EEFEBF3E0A0EBB3E00E94D2
:1025C0006B1A0E94971EA0EBB3E00E947D1EA5EA45
:1025D000B3E00D931D932D933D9308950091A903AE
:1025E000013011F00C94FC128AE090E0ACEAB3E008
:1025F0008D939C930C942C13023011F00C940813BF
:102600008DE090E0ACEAB3E08D939C930C942C1396
:10261000033011F00C94141380E190E0ACEAB3E0C5
:102620008D939C930C942C13043011F00C94201374
:1026300083E190E0ACEAB3E08D939C930C942C136F
:10264000053011F00C942C1386E190E0ACEAB3E075
:102650008D939C930C942C130895AB98EF93FF9358
:10266000EAE0F0E00E946F1BFF91EF91AA989A991F
:10267000FECFAB9AEF93FF93E2E0F0E00E946F1B76
:10268000FF91EF91AB98AA9A08950E946B1380E88E
:10269000D2018C9381E00E94961B0E949017229693
:1026A00081E00E94921B0E942D130E9477130895CF
:1026B0000E946B138AE8D2018C9381E00E94961BE2
:1026C0000E949017229681E00E94921B0E942D1377
:1026D0000E9477130895AB9AAA9AEF93FF93E2E0D2
:1026E000F0E00E946F1BFF91EF91AA980895AB98BC
:1026F000EF93FF93E2E0F0E00E946F1BFF91EF91F8
:10270000AA98EF93FF93E2E0F0E00E946F1BFF9125
:10271000EF91AB9AEF93FF93E2E0F0E00E946F1B22
:10272000FF91EF91AA9A089581E00E94961B85E09F
:102730000E94961B00912501013011F00C940D159B
:10274000EC81FD81A881B9810E94D91DE881F981C0
:10275000A8E0B8E00E94971EE8E0F8E0A881B981FF
:1027600014E0222700E033270E94021C0E946B1312
:1027700080E4D2018C9381E00E94961B0E94901706
:10278000229681E00E94921B0E942D130E947713D3
:102790000E946B1380ECD2018C9381E00E94961B07
:1027A0000E949017229681E00E94921B0E942D1396
:1027B00081E0AA81BB818C93AA81BB810C910430FA
:1027C00018F011F00C940B1580E3482F4F93E89408
:1027D000E881F981AA81BB810C910E94B21E082F69
:1027E0004F91041711F00C9403148FE3D2018C93D2
:1027F00081E00E94961B0E949017229681E00E9421
:10280000921B0C94011581E3482F4F934F910417AD
:1028100011F00C94191486E0D2018C9381E00E948F
:10282000961B0E949017229681E00E94921B0C94A6
:10283000011582E3482F4F934F91041711F00C9428
:102840002F148BE5D2018C9381E00E94961B0E948D
:102850009017229681E00E94921B0C94011583E34D
:10286000482F4F934F91041711F00C9445148FE4A7
:10287000D2018C9381E00E94961B0E9490172296B1
:1028800081E00E94921B0C94011584E3482F4F9322
:102890004F91041711F00C945B1486E6D2018C93CF
:1028A00081E00E94961B0E949017229681E00E9470
:1028B000921B0C94011585E3482F4F934F910417F9
:1028C00011F00C9471148DE6D2018C9381E00E947A
:1028D000961B0E949017229681E00E94921B0C94F6
:1028E000011586E3482F4F934F91041711F00C9474
:1028F00087148DE7D2018C9381E00E94961B0E9481
:102900009017229681E00E94921B0C94011587E398
:10291000482F4F934F91041711F00C949D1487E0AA
:10292000D2018C9381E00E94961B0E949017229600
:1029300081E00E94921B0C94011588E3482F4F936D
:102940004F91041711F00C94B3148FE7D2018C93BC
:1029500081E00E94961B0E949017229681E00E94BF
:10296000921B0C94011589E3482F4F934F91041744
:1029700011F00C94C9148FE6D2018C9381E00E946F
:10298000961B0E949017229681E00E94921B0C9445
:1029900001158DE2482F4F934F91041711F00C94BD
:1029A000DF1480E4D2018C9381E00E94961B0E9488
:1029B0009017229681E00E94921B0C94011583E6E9
:1029C000482F4F934F91041711F00C94F51489E799
:1029D000D2018C9381E00E94961B0E949017229650
:1029E00081E00E94921B0C94011580E0D2018C932F
:1029F00081E00E94961B0E949017229681E00E941F
:102A0000921B0E942D13AA81BB818C918F5F8C93A6
:102A100010F40C94DC130E94771386E0481A80E0CF
:102A2000580A2496089581E00E94961B85E00E9432
:102A3000961B00912501013011F00C948A17EBECE4
:102A4000F0E0A881B9810E94971E0E9458130E944D
:102A50006B1380E4D2018C9381E00E94961B0E944C
:102A60009017229681E00E94921B0E942D130E94D3
:102A700077130E946B1380ECD2018C9381E00E944B
:102A8000961B0E949017229681E00E94921B0E9442
:102A90002D1381E0AA81BB818C93AA81BB810C910B
:102AA000043018F011F00C948817AA81BB818C9126
:102AB000E881F98101E00A93A0EDB0E00E94A21E36
:102AC0000091CA00003011F00C947416A0EDB0E033
:102AD000ECE7F2E40E94E91E11F00C947D158FE3FF
:102AE000D2018C9381E00E94961B0E94901722963F
:102AF00081E00E94921B0C947016EEE7F2E40E94B3
:102B0000E91E11F00C94921586E0D2018C9381E0BD
:102B10000E94961B0E949017229681E00E94921BB1
:102B20000C947016E0E8F2E40E94E91E11F00C9497
:102B3000A7158BE5D2018C9381E00E94961B0E9421
:102B40009017229681E00E94921B0C947016E2E886
:102B5000F2E40E94E91E11F00C94BC158FE4D2013E
:102B60008C9381E00E94961B0E949017229681E030
:102B70000E94921B0C947016E4E8F2E40E94E91E95
:102B800011F00C94D11586E6D2018C9381E00E945D
:102B9000961B0E949017229681E00E94921B0C9433
:102BA0007016E6E8F2E40E94E91E11F00C94E615B6
:102BB0008DE6D2018C9381E00E94961B0E949017B3
:102BC000229681E00E94921B0C947016E8E8F2E4D1
:102BD0000E94E91E11F00C94FB158DE7D2018C9335
:102BE00081E00E94961B0E949017229681E00E942D
:102BF000921B0C947016EAE8F2E40E94E91E11F0B0
:102C00000C94101687E0D2018C9381E00E94961BF1
:102C10000E949017229681E00E94921B0C947016DD
:102C2000ECE8F2E40E94E91E11F00C9425168FE7FF
:102C3000D2018C9381E00E94961B0E9490172296ED
:102C400081E00E94921B0C947016EEE8F2E40E9460
:102C5000E91E11F00C943A168FE6D2018C9381E0B4
:102C60000E94961B0E949017229681E00E94921B60
:102C70000C947016E0E9F2E40E94E91E11F00C9445
:102C80004F1680E4D2018C9381E00E94961B0E9433
:102C90009017229681E00E94921B0C947016E2E934
:102CA000F2E40E94E91E11F00C94641689E3D2014B
:102CB0008C9381E00E94961B0E949017229681E0DF
:102CC0000E94921B0C94701680E0D2018C9381E0DC
:102CD0000E94961B0E949017229681E00E94921BF0
:102CE0000E942D130C948017A0EDB0E0ECE7F2E405
:102CF0000E94E91E11F00C948B168FEBD2018C937D
:102D000081E00E94961B0E949017229681E00E940B
:102D1000921B0C947E17EEE7F2E40E94E91E11F07C
:102D20000C94A01686E8D2018C9381E00E94961B39
:102D30000E949017229681E00E94921B0C947E17AD
:102D4000E0E8F2E40E94E91E11F00C94B5168BED58
:102D5000D2018C9381E00E94961B0E9490172296CC
:102D600081E00E94921B0C947E17E2E8F2E40E943C
:102D7000E91E11F00C94CA168FECD2018C9381E0FD
:102D80000E94961B0E949017229681E00E94921B3F
:102D90000C947E17E4E8F2E40E94E91E11F00C9412
:102DA000DF1686EED2018C9381E00E94961B0E9472
:102DB0009017229681E00E94921B0C947E17E6E801
:102DC000F2E40E94E91E11F00C94F4168DEED2018B
:102DD0008C9381E00E94961B0E949017229681E0BE
:102DE0000E94921B0C947E17E8E8F2E40E94E91E10
:102DF00011F00C9409178DEFD2018C9381E00E94A1
:102E0000961B0E949017229681E00E94921B0C94C0
:102E10007E17EAE8F2E40E94E91E11F00C941E17F6
:102E200087E8D2018C9381E00E94961B0E94901744
:102E3000229681E00E94921B0C947E17ECE8F2E44B
:102E40000E94E91E11F00C9433178FEFD2018C937E
:102E500081E00E94961B0E949017229681E00E94BA
:102E6000921B0C947E17EEE8F2E40E94E91E11F02A
:102E70000C9448178FEED2018C9381E00E94961B30
:102E80000E949017229681E00E94921B0C947E175C
:102E9000E0E9F2E40E94E91E11F00C945D1780EC69
:102EA000D2018C9381E00E94961B0E94901722967B
:102EB00081E00E94921B0C947E17E2E9F2E40E94EA
:102EC000E91E11F00C94721789E3D2018C9381E012
:102ED0000E94961B0E949017229681E00E94921BEE
:102EE0000C947E1780E8D2018C9381E00E94961B9F
:102EF0000E949017229681E00E94921B0E942D133F
:102F0000AA81BB818C918F5F8C9310F40C944D152A
:102F10000E94771386E0481A80E0580A24960895A4
:102F200081E00E94961B80E0A881B9818C93A881E2
:102F3000B9810C91073018F011F00C94CC17AB98B4
:102F4000A881B9818C91AA81BB810E94FC1B0E943F
:102F5000F21B0C900822689409F4E894A5E3B0E011
:102F60008C9182F98C93EF93FF93E5E0F0E00E945F
:102F70006F1BFF91EF91AB9AEF93FF93E5E0F0E0C9
:102F80000E946F1BFF91EF91A881B9818C918F5F97
:102F90008C9310F40C94971781E0481A80E0580A3B
:102FA00022960895A2ECB3E088278C93E1E2F2E048
:102FB000A2ECB3E00E94971E80E08093060481E0BB
:102FC0008093260100912601063018F011F00C9430
:102FD00023180091260142E0049FA6E0B4E00C9281
:102FE00080910604E2ECF3E002E00A93A6E2B1E08D
:102FF0000D91112749E050E00E949C1BA7ECB3E023
:10300000A00FB11F0E94A21EA6E2B1E00D911127F0
:1030100049E050E00E949C1BA7ECB3E0A00FB11F59
:103020000E947D1EAFEAB3E00C930E941812ACEA36
:10303000B3E00E94241AA6E2B1E08C918F5F8C93DA
:1030400010F40C94E2170895A2ECB3E0E4E9F2E482
:103050000E94A61B81E08093260100912601063084
:1030600018F011F00C9464180E942C12EEEAF3E0B0
:10307000A6E2B1E00D91112749E050E00E949C1BAF
:10308000A7ECB3E0A00FB11F0E94551EE6E2F1E0ED
:103090000191112749E050E00E949C1BE7ECF3E00E
:1030A000E00FF11FA2ECB3E00E946B1A0E94971E82
:1030B000ACEAB3E00E94241AA6E2B1E08C918F5FE3
:1030C0008C9310F40C942D18089580E08093C60022
:1030D0008091C6000E94611BA6ECB0E08C938091A9
:1030E000C7000E94611BA7ECB0E08C938091C800E0
:1030F0000E94611BA8ECB0E08C930E942B1F10ED86
:103100000E94431F10E00E94431F1091C6000E94BE
:10311000431F1091C7000E94431F1091C8000E94D6
:10312000431F0E943A1F08950E942B1F10ED0E941A
:10313000431F10E00E94431F0E942B1F11ED0E94AD
:10314000431F0E94621FA6ECB0E01C930E94621F06
:10315000A7ECB0E01C930E94601FA8ECB0E01C93A9
:103160000E943A1F9091C6000E94681BA6ECB0E036
:103170008C939091C7000E94681BA7ECB0E08C93E1
:103180009091C8000E94681BA8ECB0E08C93089551
:10319000882783BF7BB77F7B7BBF85E0E9E30E9405
:1031A000F41CABEDB0E0E1EFF0E098E00E949D1E72
:1031B00085E0E9E30E94F91CA4EEB0E0E1EFF0E065
:1031C00098E00E949D1E00912501013011F00C94A1
:1031D000D91985E0E9E30E944F1C5CEC85E0E9E346
:1031E0000E94771C54E485E0E9E30E94771C8EE19D
:1031F00090E00E947B1B85E0E9E30E944F1C55E5AF
:1032000085E0E9E30E94771C85E0E9E3ABEDB0E0FF
:103210000E94691D62FA16F40C946D195EEB85E04C
:10322000E9E30E94771C85E0AEE0B1E0E9E322E04B
:103230002A930E949F1CAEE0B1E08D919C91A1E188
:10324000B1E08D939C930E94DF19A1E1B1E08D91D3
:103250009C91A3E1B1E08D939C93E9EFF0E0A0E0B5
:10326000B1E00E94971E0091C6000E3110F00C9440
:103270006D19ABECB0E088278C93A3E1B1E00D9120
:103280001C91003050E015071CF011F00C944A1905
:103290000C945A19E3E1F1E0ABECB0E00E94D91DC7
:1032A000ABECB0E00E946B1AE6E9F2E40E94A61BC8
:1032B0000C946819E3E1F1E0ABECB0E00E94D91D99
:1032C000ABECB0E00E946B1AE2E9F2E40E94A61BAC
:1032D00080E08093CA000E94131585E0E9E3A4EE24
:1032E000B0E00E94691D62FA16F40C94D9195EEBE5
:1032F00085E0E9E30E94771C85E0AEE0B1E0E9E318
:1033000022E02A930E949F1CAEE0B1E08D919C9137
:10331000A1E1B1E08D939C930E94DF19A1E1B1E09E
:103320008D919C91A5E1B1E08D939C93E9EFF0E044
:10333000A7E0B1E00E94971E0091C6000E3118F080
:1033400011F00C94A5190C94D919ABECB0E08827B6
:103350008C93A5E1B1E00D911C91003050E0150770
:103360001CF011F00C94B6190C94C619E5E1F1E0CB
:10337000ABECB0E00E94D91DABECB0E00E946B1A40
:10338000E6E9F2E40E94A61B0C94D419E5E1F1E011
:10339000ABECB0E00E94D91DABECB0E00E946B1A20
:1033A000E2E9F2E40E94A61B80E08093CA000E943A
:1033B00013157BB770647BBF85E083BF0895AEE0D3
:1033C000B1E00D911C914AE050E00E949C1BAEE0E0
:1033D000B1E00D931C93AEE0B1E00D911C9140E182
:1033E00050E00E94311AAEE0B1E04D935C93AEE044
:1033F000B1E08D919C91A1E1B1E08D939C93A1E10D
:10340000B1E00D911C914AE050E00E94311AA1E117
:10341000B1E04D935C93EEE0F1E0A9EFB0E00E94E3
:10342000D91DE9EFF0E0A8E0B8E00E94971EE8E0BF
:10343000F8E0A9EFB0E01127222702E031E00E9476
:10344000021C0895F894FFCFED91FC91EF5FFF4FC0
:10345000FC93EE93089509D00E949C1B00FC10D0B1
:10346000089503D01ED001F8F9CF0024E89457FF47
:1034700002C009D0689400F80BD010F80124089518
:1034800002D009D00895509540954F5F5F4F089541
:10349000E89417FF0895009510950F5F1F4F6894EB
:1034A0000895352F242FE894452B11F4689408953E
:1034B000512F402F0027112780E1440F551F001F77
:1034C000111F021B130B416018F4020F131F4E7FD4
:1034D0008A9599F708958F938D918823E9F711972D
:1034E0008F91089580914A03882309F408950F92DB
:1034F0009F93AF93BF937F9380914A038823E1F317
:10350000F89480914A038A9580934A0390914803E6
:10351000A4EEB2E0A90F0024B01D8C9193959436CF
:1035200009F499279093480378947F91BF91AF91C4
:103530009F910F900895A8E0B8E08D91882311F035
:103540000CD0FBCF08950E94DC1B802D11F005D01C
:10355000FACF08958DE001D08AE05D9BFECF8CB953
:103560000895A8E0B8E08D91882311F078D0FBCFC2
:1035700008950E94DC1B802D11F071D0FACF0895C0
:1035800082E073D021D017C082E06FD01DD080ECD4
:103590006CC081E06AD018D080E867C08FE7213026
:1035A00039F08FEB223021F08FE8233009F08FECD7
:1035B000810F0C94351B80E858D0089588EE93E075
:1035C0009AD03197D9F7089583E0992794C08AEF6C
:1035D00090E00E947B1BD49ABC9ABB9ABA9AB99A83
:1035E000B89AC09885E090E00E947B1BC198DC9857
:1035F000C498C39AC29AC19AEF93FF93E1E1F1E0B4
:103600000E946F1BFF91EF91C19872D0C19AEF9306
:10361000FF93E1E1F1E00E946F1BFF91EF91C198F0
:1036200067D0C19AEF93FF93E1E1F1E00E946F1B35
:10363000FF91EF91C1985CD0C298C19AEF93FF932C
:10364000E1E1F1E00E946F1BFF91EF91C19850D032
:1036500088E20BD08EE009D086E007D00895C09AAA
:10366000829505D004D044D00895C098F9CF8595AF
:1036700010F4C29A01C0C298859510F4C39A01C093
:10368000C398859510F4C49A01C0C498859510F428
:10369000DC9A01C0DC98C19AEF93FF93E1E1F1E07D
:1036A0000E946F1BFF91EF91C1980895982F82950A
:1036B0008F70805D8D939F70905D9D9388278C9314
:1036C00008954AE0082F0E94D31E0295802B08958A
:1036D000892F8F70905110F0865FFCCF089531973D
:1036E000F1F70895689462F80895E89462F80895EF
:1036F00081E090E000C0EF93FF93EE27E82BE92BE9
:1037000031F0EDECFAE03197F1F70197D1F7FF9145
:10371000EF91089501911191219130810895481AF6
:10372000590A0895481A8827580A089599275A92DD
:103730004A92480E591E08950F92B801469F800183
:10374000479F100D569F100D0F9008950E94DC1B8F
:103750000D920020D9F7089599910027A90FB01F65
:103760001197492F4A955E2F6F2FE89411274395A3
:10377000203019F0C895802D01C080818823B9F0D0
:103780007C917723A1F0781739F40EF0042F13956C
:10379000689411963196EBCF112321F0411BA11BA8
:1037A0001127B10BE894E52FF62F1196E0CF88236F
:1037B00011F0002708950895C895319600200895C6
:1037C000819104D08D938823D9F70895813418F01E
:1037D0008B3508F480620895813618F08B3708F431
:1037E0008F7D089591E0882321F08894991F8A9510
:1037F000E9F7892F90950895883018F01196885030
:10380000FBCF08952E2E3F2E992781918D3209F0FE
:1038100093958823D1F79A95E22DF32D112361F02A
:10382000091718F011F0101B01C0191B28F021F026
:1038300080E28D931A95E9F780818D3219F48D938A
:10384000319604C0222311F08BE28D93091738F0D2
:1038500031F0091B21F080E38D930A95E9F78191FE
:103860008D938823E1F7332351F0EA2FFB2F319614
:1038700033958E9182933A95E1F78EE28C93089579
:103880000181082B0183128119231283EF93FF9387
:10389000EDE0F0E00E946F1BFF91EF9108950E9410
:1038A000751BFF270E94F21BEBDFEF93FF93EBE208
:1038B000F5E00E946F1BFF91EF91182B12830923F3
:1038C0000183EF93FF93EEEBF0E00E946F1BFF91FB
:1038D000EF911081182311F00E94721BEF93FF9358
:1038E000EAE6F4E00E946F1BFF91EF9108950E94B9
:1038F000F21BFF2721E048E006C00E94F21BFF27D1
:1039000029915D9148E0BCDF579510F4182B128384
:10391000EF93FF93E2E9F0E00E946F1BFF91EF91BC
:10392000182B1283EF93FF93E8E1F0E00E946F1BE6
:10393000FF91EF914A9539F72A9519F708950E945A
:10394000F21BFF27299148E055279ADF09230183BD
:10395000EF93FF93E5E1F0E00E946F1BFF91EF9181
:1039600088941081182309F008945795EF93FF93DA
:10397000E4E9F0E00E946F1BFF91EF914A9529F76F
:103980005D932A9501F708957BDF09230183EF9367
:10399000FF93E5E1F0E00E946F1BFF91EF91E89447
:1039A0001081182309F06894EF93FF93E4E9F0E0A5
:1039B0000E946F1BFF91EF91089562DF16F4182BA0
:1039C0001283EF93FF93E2E9F0E00E946F1BFF91F7
:1039D000EF91182B1283EF93FF93E8E1F0E00E9440
:1039E0006F1BFF91EF91089533273093F0003093D0
:1039F000ED0055DF0EF458C03091ED0030FD54C09D
:103A000066276093EF0063956093EE0021E050EF2E
:103A100048E079DFB9DF31F9B7DF32F9632F66703B
:103A2000663009F441C0603019F031FB40D025C048
:103A30006091EE007091F0006717B1F0C0F48F93C1
:103A40009F93862F8A95A1EFB0E0D6DECBDE7C91E6
:103A500078236894772329F4E8946091EE006093CA
:103A6000EF009F918F9109C0689421D006C0E8941F
:103A70001ED06091EE006093EF009FDF6091EE003A
:103A800063956093EE00613409F0C4CF6091EF005C
:103A90006093F0006623E89409F4689430F9309359
:103AA000ED00E89462F80895689462F808958F93A1
:103AB0009F93A1EFB0E08091EE008A959DDE92DEAB
:103AC0007C9116F4782B01C079237C939F918F9180
:103AD0000895AF93BF93EF93FF9338E0E1EFF0E0E9
:103AE0000D9101933A95E1F7FF91EF9130E4309316
:103AF000F00033273093ED007CDF38E0BF91AF91C9
:103B0000E1EFF0E00D914191041719F43A95D1F7E6
:103B100008950E94721B08957F930F93AF93BF93F4
:103B20008F939F938FB78F9380914A0304E6081B6E
:103B300021F49CB10E94721B12C000914903A4EEB3
:103B4000B2E077279CB1A00FB71F9C938395809319
:103B50004A030395043609F40027009349038F9123
:103B60008FBF9F918F91BF91AF910F917F911895CA
:103B7000040F151F261F371F089504171507260762
:103B800037070895000F111F221F331F0895009556
:103B90001095209530950F5F1F4F2F4F3F4F089581
:103BA000019110810FC00E948A1B0EC00E948A1BC7
:103BB00010C00191108117FF05C03FEF2FEF04C027
:103BC000008111272227332737FF03C0E0DF8DE272
:103BD0008D93CF92DF92EF92AA24BB24CC24DD24D4
:103BE000EE2440E2EAE0FF2755E093E38081890F6D
:103BF00087FD9F7083FD907F891B81935A95A9F75C
:103C0000C1DFAA1CBB1CCC1CDD1CEE1C4A9551F765
:103C1000E894EFE0FF2782910CD0EB30E0F71EF044
:103C200068948A2D0AD088278D93EF90DF90CF90EB
:103C30000895982F829501D0892F8F70805D26F08E
:103C4000803309F4089568948D930895002711270F
:103C5000222733271DD08A3328F4803318F005D06B
:103C600015D0F9CF0EF493CF089580538F93402F42
:103C7000512F622F732F86DF85DF7ADF83DF8F91ED
:103C80009927080F191F291F391F08958D9108952D
:103C9000E894FCDF8032E9F38B32D9F38930C9F341
:103CA0008D3211F46894F2CF089541E003C042E0F0
:103CB00001C044E0E40F8827F81F8291982F829575
:103CC00006D0892F04D04A95C1F70C94941E8F70AA
:103CD0008A3008F0895F805D8D9308950027112751
:103CE000222733278D91882339F08053000F111F2D
:103CF000221F331F080FF6CF089500271127222710
:103D000033278D91882379F03DDF3CDF3BDF3ADFBD
:103D100063DD815408F4895F865F080F8827181FC8
:103D2000281F381FEECF089588278D93089581911D
:103D30008D938823E1F7089594E081918D939A956E
:103D4000E1F7089509919191992359F08A95D9F74E
:103D50003197002331F081918D930A958823C9F71B
:103D60000895E2CF16F428DD01C00190802D803047
:103D700011F00A95B9F70895E199FECFEEBBFFBBAC
:103D80003196089591E001C092E07B3751F47FB7FE
:103D9000F894F2DF8D918DBBE29AE19A9A95C9F77A
:103DA0007FBF77270895FF93881BF9E0001FFA95DE
:103DB00011F4FF910895881F841B18F4840F8894D0
:103DC000F5CF0894F3CF8FEF83959D919923E1F779
:103DD0000895689401C0E894AF93BF938D9116F055
:103DE000919103C00E94DC1B902D891718F011F4EB
:103DF0008823A1F7BF91AF910895689401C0E8941A
:103E00002227102F231709F4089526F40E94DC1BA3
:103E1000802D01C08191803081F0891741F070E0E0
:103E20008D931A9591F7239571E01D93EACF01D0F8
:103E3000E8CF703011F077270895772331F4239578
:103E4000882713958D931A95E9F70895A198A0985E
:103E5000A998A8980895A09AA19803D0A09801D0F5
:103E6000A19AEF93FF93EAE0F0E00E946F1BFF91AD
:103E7000EF910895A09AA19AF4DFA098989BFECFA5
:103E8000F0DFA198EECF0894111F01C0110F69F067
:103E9000A09A18F40000A19802C0A19A00C0E1DF26
:103EA000A098989BFECFDDDFF1CFA09AA198D9DF33
:103EB000A098989BFECFE8949999689462F8D1CF26
:103EC000089401C08894331F11E0A09AA198C9DF1B
:103ED000A098989BFECFC5DF889499990894111FEC
:103EE000A0F7A09A379510F4A19801C0A19AB9DF64
:103EF000A098989BFECFB5DF0895686900004154F3
:103F000026460000415400004154453000004174F1
:103F10003F004F4B000041542B6370696E3F00001F
:103F20002B4350494E3A2053494D2050494E0000F2
:103F300041542B4350494E3D3132333400004154FB
:103F40002B434D47463D310041742B437573643D0F
:103F5000310041542B43534D503D31372C313637CE
:103F60002C302C30000041542B43534D5000415411
:103F70002B434E4D493D322C312C302C302C30000F
:103F800041542B434E4D493D000041542B43534D6A
:103F9000503F000041542B434E4D493F00004154D7
:103FA0002B434D47463F000041542B435343533D61
:103FB000000047534D005265616479005379737472
:103FC000656D204973204F6E6C696E65204E6F776A
:103FD00000002B303931353531393136323200007D
:103FE0003A0048692054656D706572657475726534
:103FF00000002053656E736F72313D200000205326
:10400000656E736F72323D200000707265737320AD
:10401000616E79206B6579002000202000002B4321
:104020004D54493A00002027432000002C00415401
:104030002B434D47523D31002B3938006F6B000048
:104040006F6E000072656C6179206973206F6E007D
:104050006F66660072656C6179206973206F6666B1
:1040600000006E65773100006E756D6265722331F8
:10407000206973207361766564006E657732000095
:104080006E756D6265722332206973207361766587
:1040900064006E65773300006E756D626572233360
:1040A0002069732073617665640064656C3100007B
:1040B0002B393830303030303030303030006E75A1
:1040C0006D23312069732064656C6574656400003C
:1040D00064656C3200006E756D2332206973206454
:1040E000656C65746564000064656C3300006E7512
:1040F0006D23332069732064656C6574656400000A
:1041000064656C6E756D7300416C6C206E756D62CC
:10411000657273205761732064656C657465640013
:104120007374617475730000726631323334000049
:1041300061637469766500002B393839313535365D
:104140003039363331004D6F64756C6520576173BB
:104150002041637469766174656400006469736109
:104160006374697665004D6F64756C652057617383
:104170002044697361637469766174656400777261
:104180006F6E6720736D730072656D6F7665207357
:104190006D73000041542B434D4744413D44454C11
:1041A0002052454144006F726465723D00007365A2
:1041B0006E736F72313D200020202743000073652D
:1041C0006E736F72323D20004E45543D200073687F
:1041D00061726A3D2000207269616C006E65772013
:1041E0006E756D6265723D200000526573657420C6
:1041F000466163746F727920697320446F6E650045
:10420000202A000041542B434D47533D0000736565
:104210006E6420736D730000506F77657220497370
:10422000204F6666000041542B4353510000424129
:1042300044005745414B00004E6F742042616400BA
:10424000474F4F4400004245535400004F46464CF0
:10425000494E45004154442A313430230000303067
:104260003341000030303230000041542B434D4781
:1042700044413D44454C20414C4C0000300031004D
:104280003200330034003500360037003800390082
:0A4290002D0043002B002043000026
:00000001FF
